:020000040800F2
:10000000E0CD00205D020008CD230008FD1E0008A1
:100010009122000877040008BD26000800000000B7
:100020000000000000000000000000009D0100082A
:100030007904000800000000F90100080924000804
:1000400077020008770200087702000877020008AC
:10005000770200087702000877020008770200089C
:10006000770200087702000877020008770200088C
:10007000770200087702000877020008770200087C
:10008000770200087702000877020008770200086C
:10009000770200087702000877020008770200085C
:1000A00077020008DD2400087702000877020008C4
:1000B000770200087702000877020008770200083C
:1000C000770200087702000877020008770200082C
:1000D000770200087702000877020008770200081C
:1000E000770200087702000877020008770200080C
:1000F00077020008770200087702000877020008FC
:1001000077020008770200087702000877020008EB
:1001100077020008770200087702000877020008DB
:1001200077020008770200087702000877020008CB
:10013000770200081505000877020008770200081A
:1001400077020008770200087702000877020008AB
:10015000770200087702000877020008770200089B
:10016000770200087702000877020008770200088B
:1001700077020008770200087702000800000000FC
:100180007702000877020008DFF80CD000F036F99B
:10019000004800470B730008E0CD00202C4B196885
:1001A0000868B0E8F04F80F30988BFF36F8F4FF015
:1001B000000080F3118870470000000008480068C4
:1001C000006880F308884FF0000080F3148862B65E
:1001D00061B6BFF34F8FBFF36F8F00DF00BF00BF6B
:1001E00008ED00E0DFF80C00016841F470010160E7
:1001F000704700BF88ED00E0EFF30980BFF36F8F19
:10020000134B1A681EF0100F08BF20ED108A20E96A
:10021000F04F106009B44FF0500080F31188BFF325
:100220004F8FBFF36F8F12F00DFD4FF0000080F382
:10023000118809BC19680868B0E8F04F1EF0100F6B
:1002400008BFB0EC108A80F30988BFF36F8F704746
:1002500024010020EFF30580704700000648804726
:1002600006480047FEE7FEE7FEE7FEE7FEE7FEE79B
:10027000FEE7FEE7FEE7FEE7CD240008890100085F
:100280002DE9F05F0546002092469B4688460646CB
:10029000814640241BE0284641464746224600F05E
:1002A0009DF853465A46C01A914110D3114618463C
:1002B000224600F084F82D1A67EB01084F462246CB
:1002C0000120002100F07BF817EB00094E41201EB1
:1002D000A4F10104DFDC484631462A464346BDE826
:1002E000F09FA0F16101192900D820387047000063
:1002F0000649074A0868504343F23902104408602F
:100300004008704701490860704700008C010020D8
:100310006D4EC64110B5431A934209D2831888180E
:1003200003E010F8011D03F8011D521EF9D210BDA3
:1003300040EA01039B0703D009E008C9121F08C067
:10034000042AFAD203E011F8013B00F8013B521EE7
:10035000F9D210BDD2B201E000F8012B491EFBD248
:1003600070470022F6E710B513460A4604461946C0
:10037000FFF7F0FF204610BD30B5044600200346CD
:1003800000E05B1C934203D2E05CCD5C401BF8D0E4
:1003900030BD30B50B46014600202022012409E083
:1003A00021FA02F59D4205D303FA02F5491B04FA2E
:1003B00002F52844151EA2F10102F1DC30BD202A0D
:1003C00004DB203A00FA02F1002070479140C2F1AC
:1003D000200320FA03F3194390407047202A04DBDE
:1003E000203A21FA02F00021704721FA02F3D040AE
:1003F000C2F120029140084319467047064C074D50
:1004000006E0E06840F0010394E8070098471034E4
:10041000AC42F6D3FFF7BCFED43C0108F43C010823
:1004200070B58C1810F8015B15F0070301D110F8B6
:10043000013B2A1106D110F8012B03E010F8016BE3
:1004400001F8016B5B1EF9D12B0705D40023521E66
:100450000DD401F8013BFAE710F8013BCB1A921CCE
:1004600003E013F8015B01F8015B521EF9D5A142CC
:10047000D8D3002070BDFEE770470000F0B5002320
:100480001A464FF000454FF48C4600BF016903EB5C
:10049000830401EBC4010A604A608A60CA600A6290
:1004A0000D604A624E604F6827F000474F6000EBD6
:1004B0008307032BB96406D24FF0280C07690CEBB5
:1004C000C4043C4400E00469CC605B1C042BDDD315
:1004D000C26502668266C26682650169006800F5CF
:1004E0008050C160F0BD38B50446006800F580500A
:1004F000816941F480118161206800F58050806934
:100500000090012000F058FA2068009900F5805012
:10051000816138BD014800F0E1BA00003853002085
:1005200070B5A4B00024012506468DF828408DF84A
:1005300004501494A8038DF8564005908DF810507F
:1005400002948DF85440C0108DF811508DF81F4062
:100550008DF8204006908DF81E508DF80F400994BC
:100560008DF81C4012948DF84C408DF8554069462A
:10057000304600F05DF98DF881508DF880408DF89F
:10058000824028041B908DF8685080011F908DF8E0
:1005900070508DF8885040128DF871501E941D9047
:1005A0008DF87250239421948DF8895019A9304602
:1005B000199400F0DDF824B070BD0020704700F001
:1005C00073BF000010B5024800F01EFD002010BDF2
:1005D0003853002013460A4610B50146034800F080
:1005E00069FC002801D04FF0FF3010BD38530020C7
:1005F00013460A4610B50146034800F02BFE0028BA
:1006000001D04FF0FF3010BD385300202DE9F043EA
:10061000836A1830914650F823208D681C4617686D
:100620000026002F6FDB00EB83077F69C7BBD5F87F
:1006300000C00127C2F808C0D2F804C0D5F8048071
:100640006FF30C0C4CEA080CC2F804C091F800C01F
:100650005FEACC7C09D0D2F800C0D1F814802CF429
:10066000400C4CEA080CC2F800C091F800C05FEAE8
:100670008C6C09D5D2F800C0D1F810802CF0406CF9
:100680004CEA080CC2F800C00978490703D5116884
:1006900041F080011160116841F08051116042E029
:1006A00031E0116821F0005111601168B9F1000FBB
:1006B00002D041F0804101E021F0804111605B1CDB
:1006C000042B00D31B1F50F82320116821F0805108
:1006D00011601168002903DB00EB83014969A9B1AE
:1006E00050F8242000210CE0BFF35F8F136823F043
:1006F00000431360641C042C00D3241F491C50F8D1
:100700002420B942F0D30220BDE8F083AD68296807
:1007100091605168D5F804C06FF30C0141EA0C01F7
:100720005160761C7F1CBFF35F8F116841F0004160
:100730001160A9680029B4D11168B9F1000F02D085
:1007400041F0804101E021F080411160116841F0E9
:100750000051116000EB8302416A5161036172B67E
:10076000761C816A3144816262B60020CCE70000C9
:1007700070B50C460168054601F5805188692B4A21
:100780001040227BEAB30022637B920642EA436276
:10079000637FBBB35FF0000342EA0352A37B42EAEC
:1007A000435263691A43237F42EAC312A37F42EA9A
:1007B0008312236A1A4394F8243042EA83020243E4
:1007C0008A61286800F580508669012000F0F4F8FD
:1007D000286800F580508661A169A06822790843E5
:1007E000216941EA4261084394F8251040EAC110AA
:1007F000A16A40EA81002168084340F400012868AA
:1008000001E00FE010E000F580500160286800F57D
:1008100080500468012000F0CFF8286800F580506F
:10082000046070BD0122AFE70123B5E7233FDEF886
:1008300070B5026805460C4610683A49237C0840AA
:10084000A168002B63D0002341EAC351637C002BD5
:100850005FD00023E67F9B0543EA064319436369A3
:100860001943A37FF3B3002341EA4331237F41EAD5
:100870000331A3691943237941EA832194F8203095
:100880008BB3002341EA4321E37B41EAC311636A4E
:10089000194394F8283041EA031101431160286894
:1008A0000668012000F088F8286806602A689069C8
:1008B0004FF641710840A36C216D41EA034194F861
:1008C0004C3063B3002394F85560DB01012E00D057
:1008D000002643EAC603194394F85630012B00D092
:1008E000002301E017E018E041EA830194F8543056
:1008F000012B00D0002341EA4301014391612868A4
:100900008469012000F058F82868846170BD0123D3
:100910009AE701239EE70123A6E70123B2E701231B
:10092000D1E700000F8120FF2DE9F8434FF00009C7
:10093000CDF80090856E044600EB85004FF001086D
:10094000866CE76E1EE0306A30B9684600F010FB36
:10095000009838B33062B060B8F1000F12D0A06DCB
:1009600018B34FF48C407060BFF35F8F306840F075
:10097000004030606D1C042D00D32D1F04EB85005A
:100980007F1E866C17B1B8F1000FDCD1E06EB84263
:1009900006D0206800F58050C0F80890C4E91A57C6
:1009A000BDE8F8834FF00008ECE70148DBE7000002
:1009B0000046008072B6FEE770B5044600F074FD94
:1009C0000546601C02D004480078044400F06CFD29
:1009D000401BA042FAD370BD4000002010B500F0CB
:1009E0000BF8000605D503484068BDE8104008F044
:1009F00023BF10BD04000020D0F88C0070470029F0
:100A00006AD002681268C2F3001281F828200268D6
:100A1000126802F060024A620268126842F34022E1
:100A2000521C81F8202002681268C2F30042CA7783
:100A30000268126842F34032521C8A7702681268D8
:100A4000C2F300320A770268126802F400628A6117
:100A50000268126802F480424A610268126842F336
:100A60008052521C4A740268126842F3C052521CEF
:100A70000A7402681268C2F3C012CA73026812686C
:100A800002F460228A6002681268C2F380220A714E
:100A900002689269C2F3400281F8542002689269A8
:100AA00042F3C012521C81F84C200268926902F095
:100AB00030020A6502689269120C8A6402689269BF
:100AC000C2F3800281F8562000688069C0F3C0003C
:100AD00081F85500002070470120704710B504468A
:100AE000006800F580504169490607D5C16949068B
:100AF00004D52B494161204600F05EFA206800F5DC
:100B000080504169C90708D0C169C90705D04FF0B5
:100B100001114161204600F093FB206800F58050F0
:100B20004169090422D5C16909041FD5D4F8881088
:100B300041F00801C4F88810416989040CD5416965
:100B4000184A1140C4F88C10C16921F4C031C16148
:100B5000E020C4F8840006E0426948F280610A405F
:100B6000C4F88C2041612046FFF738FF2068816B74
:100B700009070AD5C06A00F06000C4F89400204656
:100B800000F020F90020C4F8940007480168090328
:100B900005D54FF400210160204600F059FB10BD3F
:100BA0004000010000207E00143C0140F8B5040024
:100BB00003D0D4F8840010B107E00120F8BD232051
:100BC000C4F88400204600F079F83948002501680F
:100BD00041F480410160006800F480400090354895
:100BE000016821F4000101600168A26811430160FD
:100BF0000068206800F58050016841F00101016043
:100C000000F052FC06464FF4FA770BE000F04CFC83
:100C1000801BB84206D90420C4F88800E020C4F83C
:100C20008400CAE7206800F580500068C007EDD155
:100C30002046FFF775FC0021E06801EB810200EB24
:100C4000C200056045608560C56004EB8103986162
:100C5000036843F480130360032905D22826E36860
:100C600006EBC2021A4400E0E268C260026842F485
:100C700040020260491C0429DED3A5622068E168B5
:100C800000F5805001612046FFF7F8FB60680A49D3
:100C900082880A640278D0F8010042EA00204864A1
:100CA000C4F888501020C4F884000020F8BD00006B
:100CB000443802400438014000800240F0B587B05B
:100CC000044614216846FFF74CFB384920688842E7
:100CD00069D137480024016841F000710160016862
:100CE00001F000710591016841F0806101600168C7
:100CF00001F080610591016841F0006101600168C7
:100D000001F000610591016841F004010160016892
:100D100001F004010591016841F0010101600168E1
:100D200001F001010591016841F040010160006896
:100D3000022500F0400005903220CDE9000502AA0E
:100D400003260B2782E8D00069461A4800F0AEFA65
:100D50008620CDE9000502AA694682E8D00016483F
:100D600000F0A4FA4FF4D040CDE9000502AA69468C
:100D700082E8D000114800F099FA002205213D20B8
:100D800000F02AFC3D2000F019FC0D4C002204214B
:100D9000204600F083FB3220FFF70EFE01220421E3
:100DA000204600F07BFB07B0F0BD00000080024051
:100DB00030380240000802400000024000180240A3
:100DC0000010024070472DE9F84F4FF000075FEA2E
:100DD00001090446B84604D0D4F8840023285ED123
:100DE00005E054F8880F40F00100206057E0E66D00
:100DF0004FF0000B04EB8600856CE06EC0F1040A36
:100E00003AE02868C00503D5A869A067E86960676B
:100E10002868800501D4E06F30B32868800503D5C9
:100E2000C4F860B0C4F864B0606900902868C00578
:100E300008D52868C0F30D40001F009028684FF0C7
:100E400001082067AA682A62009804F1800183B231
:100E5000081F00F0B7F8206E401C2066616E0098F5
:100E600008446066C5F820B0761C042E00D3361FF7
:100E700004EB86007F1C856C2868002804DB57453E
:100E800002D2B8F1000FBCD0E06EC019E06602D00B
:100E90002046FFF749FDE665B8F1010F02D00120B9
:100EA000BDE8F88FE16FC9F800100020C4F87CB0ED
:100EB000F6E700002DE9F0419846036805461869F9
:100EC00000F01C044FF6FF7000EAC1204FF4F861F7
:100ED000204301EA8211014321F0020040F00104A5
:100EE0001C6100F0E1FA06464FF480370AE000BFCB
:100EF00000F0DAFA801BB84202D30120BDE8F0818D
:100F000028680469E007F3D12868406981B20020AD
:100F1000C8F80010F2E700002DE9F04700F11805CD
:100F20008046D5E90A64012718E000BF05EB840973
:100F3000761ED9F81400B8B1D8F80C1004EB84026E
:100F400051F8321000290CDB00F080F90021641CFC
:100F500004F00304C9F81410C5E90A640EB1002FA7
:100F6000E4D10020BDE8F087641C04F00304F5E739
:100F70001CB504460D4806F04DFE03000FD003F1EA
:100F8000200020600A4818614FF4C0612068CDE954
:100F9000000100214122084608F0BCFE1CBD0549A5
:100FA00001200870002020601CBD00009C39010851
:100FB00099A30008040000200148406808F03CBCE8
:100FC0000400002010B5002442F8204D1481538104
:100FD00004681CB10C6822600A6004E00260FBE750
:100FE00001891944018100680028F9D110BD10B5AC
:100FF00019B1D0F88420102A01D0012010BDFFF7CC
:1010000017FC002010BD000070B50546006800699F
:1010100020F01C0400F0CCFB1049114A014491421D
:1010200002D244F0080416E00E490F4A01449142EE
:1010300002D244F00C040EE00C490D4A01449142E6
:1010400009D30C4908440C49884202D244F00404F4
:1010500001E044F010042868046170BD00D3CEFEA6
:10106000C0E1E40040F1E9FD40787D0100796CFCCD
:10107000005A6202001F0AFA80F0FA0270B50446B4
:10108000D0F88400102801D0012070BD2325C4F8B9
:1010900084500120A0652068C16B41F40271C163D6
:1010A0002068D0F80C11224A1143C0F80C112068B6
:1010B000D0F8101141F40311C0F810110420E066BB
:1010C0002046FFF731FC2068016841F0080101600B
:1010D000206806680120FFF76FFC20680660206822
:1010E000016841F004010160206806680120FFF7F3
:1010F00063FC206806602046FFF7F5F9206800F5DC
:101100008050816941F400518161206800F5805070
:10111000816941F002018161206800F58050C16958
:10112000044A1143C161C4F88450002070BD00001E
:1011300060000200C1A0010070B50446D0F8840030
:10114000232801D0012070BD2320C4F8840020682A
:1011500000F58050C1691F4A1140C161206800F547
:101160008050816921F400518161206800F5805030
:10117000816921F0020181612068016821F0040188
:101180000160206805680120FFF716FC20680560F3
:101190002046FFF7A8F92068016821F008010160E6
:1011A000206805680120FFF707FC20680560002023
:1011B00004EB8001896C4A6842F000424A60401C9E
:1011C0000428F5D30020A0651020C4F88400002076
:1011D00070BD00003E5FFEFF10B5044621B1D4F89B
:1011E0008400232805D010E054F8880F40F0010057
:1011F0000AE0486BE06301222046FFF707FA30B1AE
:1012000054F8880F40F002002060012010BDBFF3A9
:101210004F8FA06A401CA062042801D3001FA06267
:10122000206800F580504169490706D504214161D5
:101230002068002100F580504160002010BD0000B2
:101240000148806808F0F8BA0400002008F0F2BFF6
:10125000704700002DE9F04106680546306900F04E
:101260001C044FF6FF7000EAC1204FF4F8612043E0
:1012700001EA8211014398B241F0030470612868C9
:10128000046100F011F906464FF480370AE000BF10
:1012900000F00AF9801BB84202D30120BDE8F081BA
:1012A00028680469E007F3D1F8E700002DE9F84F5A
:1012B000DFF8BCA10022012503264FF00F090AF137
:1012C000040BAAF1040E00BF0B6805FA02F42340D8
:1012D000A34270D10F7907F00307012F01D0022F2D
:1012E00016D187684FEA420806FA08FC27EA0C077D
:1012F000D1F80CC00CFA08FC4CEA070CC0F808C086
:101300004768A7430C79C4F3001494403C434460FD
:101310000C79E443A4070AD0C4684FEA420C06FAE9
:101320000CF7BC438F6807FA0CF72743C7600C79AA
:1013300004F00304022C12D1D40800EB840CDCF876
:1013400020405707FF0E09FA07F824EA0804D1F8ED
:10135000108008FA07F848EA0408CCF820800468EE
:101360004FEA420C06FA0CF7BC430F7907F003076B
:1013700007FA0CF7274307604C6814F4403F70D01D
:101380003C4C276847F480472760246822F0030715
:1013900004F480440094384C07EB040CDCF8084853
:1013A00097074FEA177809FA08F7BC43334FB8425A
:1013B00002D1002724E054E0314FB84201D1012787
:1013C0001EE0304FB84201D1022719E02E4FB8423B
:1013D00001D1032714E02D4FB84201D104270FE0BB
:1013E0002B4FB84201D105270AE02A4FB84201D15C
:1013F000062705E0284FB84201D1072700E008275B
:1014000007FA08F72743CCF80878DAF8004057467F
:10141000D1F804C09C435FEACC2C00D51C433C604F
:10142000DBF800405F46D1F804C09C435FEA8C2C97
:1014300000D51C433C60DEF800407746D1F804C07C
:101440009C435FEA8C3C00D51C433C60084F083F3E
:101450003C68D1F804C09C435FEACC3C00D51C43F7
:101460003C60521C102AFFF42FAFBDE8F88F00003B
:10147000083C014044380240003001400000024076
:101480000004024000080240000C0240001002402C
:101490000014024000180240001C02400AB18161A1
:1014A00070470904FBE700000148806870470000AE
:1014B0004000002002488168027811448160704732
:1014C000400000200B4810B5016841F40071016034
:1014D000016841F480610160016841F4807101603C
:1014E000032000F099F80F2000F006F800F04AF809
:1014F000002010BD003C024030B505461C4887B0B6
:101500000024016841F001010160006806A900F0B3
:101510000100009001A800F02BF900F05FF91549D7
:101520004000B0FBF1F11548134A491E026040F239
:10153000E732C0E90324C0E90114846100F048FBEC
:10154000040012D10D4800F071FB04000DD11920E8
:1015500000F034F8102D07D200222946192000F09F
:101560003BF80748056000E0012407B0204630BD85
:101570004438024040420F00000001402C0400208B
:10158000440000200C4882B0016841F480410160B1
:10159000006800F4804000900748001F016841F097
:1015A000805101600068002200F0805000900F21FF
:1015B000901E02B000F010B844380240002809DB49
:1015C00000F01F02012191404009800000F1E0205D
:1015D000C0F8001170470000F0B40E4B1B680C46B9
:1015E000C3F30223C3F10705042D00D90425191DF7
:1015F000072901D2002300E0DB1E012606FA05F1CF
:10160000491E214099409E40761E16403143F0BC51
:1016100001F066B80CED00E0064900F0070208682A
:101620004FF6FF03184040EA0220034A10430860C7
:10163000704700000CED00E00000FA052DE9F047CE
:101640000E46050065D0DFF81481D8F80000F7B227
:1016500000F00700B04207D288F80070D8F8000008
:1016600000F00700B04254D128683D4C810712D5E4
:10167000400703D5206840F4E05020602878000738
:1016800003D5206840F4604020602068A96820F0FD
:10169000F000084320602878C0072DD030496868E2
:1016A0000839012812D0022813D0032811D0096864
:1016B000890700292DDA216821F003010143216007
:1016C000FFF7F2FE814641F2883A0EE0096889038D
:1016D000EFE709688901ECE7FFF7E6FEA0EB0901F7
:1016E000514502D90320BDE8F0872068696800F001
:1016F0000C00B0EB810FEFD1D8F80010404601F09C
:101700000701B14207D90770006800F00700B04236
:1017100001D00120E7E72878400705D52068E9686F
:1017200020F4E050084320602878000706D52068A0
:10173000296920F4604040EAC100206000F05EF8B2
:101740002168084AC1F30311515CC840064908608A
:1017500006480068FFF7D0FE0020C4E7003C0240C6
:1017600008380240E03901084C0000204400002005
:101770000F2202600C4A136803F0030343601368EE
:1017800003F0F0038360136803F4E053C36012684E
:101790004FF4E05303EAD20202610448006800F00B
:1017A000070008607047000008380240003C024013
:1017B00001480068704700004C00002004480549BB
:1017C00000680968044AC1F38221515CC84070472F
:1017D0004C00002008380240F0390108044805494F
:1017E00000680968044AC1F34231515CC84070473F
:1017F0004C00002008380240F0390108154810B5A7
:10180000006810F00C02144813D01449042A0FD0B9
:10181000082A0ED10F4C241F2268236802F03F02D1
:101820005B0207D52068C0F38810A0FB010106E029
:10183000084610BD2168C1F38811A1FB00010023F7
:10184000FEF71EFD2168C1F30141491C4900B0FBB0
:10185000F1F010BD083802400024F40040787D010A
:101860002DE9F84F04006ED02078DFF84C93C007C4
:10187000A9F104054AD009F104000168C1F381010E
:10188000012908D00068C0F3810002280AD1D9F8E4
:101890000000400206D52868800337D5606800281C
:1018A000E1D033E06068B0F5803F10D0B0F5A02FF4
:1018B000286810D020F480302860286820F4802028
:1018C00028606068A8B1FFF7EFFD06460DE02868C4
:1018D00040F48030F4E740F480202860F7E700BF50
:1018E000FFF7E2FD801B642873D828688003F7D5D2
:1018F0000CE0FFF7D9FD064605E000BFFFF7D4FD79
:10190000801B6428F0D828688003F7D42078DFF89B
:10191000AC8280074FF0000A3ED5A748001D016841
:1019200011F00C0F08D00068C0F3810002280BD121
:10193000D9F80000400207D42868800716D5E0686F
:10194000012800D112E033E1E068B8B10120C8F805
:101950000000FFF7A9FD064605E000BFFFF7A4FD64
:10196000801B0228C0D828688007F7D5286821691D
:1019700020F0F80040EAC10028600DE0C8F800A09F
:10198000FFF792FD064604E0FFF78EFD801B02285C
:101990001FD828688007F7D42078000722D5864F03
:1019A00087486169703771B101210160FFF77CFDE3
:1019B000064604E0FFF778FD801B022809D8386846
:1019C0008007F7D50EE0C0F800A0FFF76DFD0646D2
:1019D00005E082E0FFF768FD801B02287DD83868AB
:1019E0008007F7D42078400768D5DFF8CCB100270E
:1019F0000BF13C0BDBF80000C0000BD4DBF800104F
:101A000041F08051CBF80010DBF80000012700F016
:101A1000805000906B4E3068C00510D4306840F4A0
:101A200080703060FFF740FD009005E0FFF73CFD5F
:101A30000099401A022850D83068C005F6D55E4E8D
:101A4000A0686C3601280FD00528306810D020F02F
:101A500001003060306820F004003060A068B8B148
:101A6000FFF722FD00900FE0306840F00100F4E73E
:101A700040F004003060F7E7FFF716FD0099411AC7
:101A800041F28830814266D830688007F4D50EE094
:101A9000FFF70AFD009007E0FFF706FD0099411AE5
:101AA00041F28830814256D830688007F4D42FB193
:101AB000DBF8001021F08051CBF80010A069C8B30A
:101AC0003D49091D0968C1F3810102294AD0022854
:101AD000504607D0C8F8600000E03CE0FFF7E4FCA7
:101AE00004463BE04746C8F86000FFF7DDFC0646C9
:101AF00005E000BFFFF7D8FC801B02282BD8286820
:101B00008001F7D4D4E907010843A16A2E4A4908A5
:101B100002EB0141626A41EA8211084394F82C10F9
:101B200040EA0161C9F8001001203866FFF7BCFCEB
:101B3000044606E03EE000BFFFF7B6FC001B0228AB
:101B400009D828688001F7D534E000BFFFF7ACFC66
:101B5000001B022802D90320BDE8F88F2868800105
:101B6000F4D427E00128F7D0D9F80000E26900F4A6
:101B7000800191421CD1226A00F03F01914217D1AD
:101B800047F6C071626A0140B1EB821F10D1A26AB0
:101B90004FF0FF3300F4403103EB5202B1EB024F40
:101BA00006D194F82C1000F07060B0EB016F01D0FA
:101BB0000120D1E70020CFE704380240000047426F
:101BC000800E4742007000400000FFFF70477047E2
:101BD00010B5040003D094F83D0010B107E00120D7
:101BE00010BD002084F83C00204600F01EF80220C2
:101BF00084F83D00211D206800F076FC012084F867
:101C0000460084F83E0084F83F0084F8400084F8E1
:101C1000410084F8420084F8430084F8440084F8CA
:101C2000450084F83D00002010BD704790F83D103D
:101C3000012901D001207047022180F83D10016880
:101C4000CA6842F00102CA6000681149884214D093
:101C5000B0F1804F11D00F4988420ED00E49884212
:101C60000BD00E49884208D00D49884205D00D4955
:101C7000884202D00C49884204D1816801F00701F2
:101C8000062903D0016841F001010160002070477E
:101C9000000001400004004000080040000C00402B
:101CA000000401400040014000180040704770B53A
:101CB0000446006801694FF00005C943890715D43F
:101CC000C168C943890711D4E91E01610120207749
:101CD000206880698007204602D0FFF7E7FF04E014
:101CE00000F098F8204600F096F825772068016902
:101CF000C943490717D4C168C943490713D46FF0D2
:101D000004010161022020772068806910F4407F7F
:101D1000204602D0FFF7CAFF04E000F07BF820461F
:101D200000F079F8257720680169C943090716D4BE
:101D3000C168C943090712D46FF00801016104208A
:101D400020772068C0698007204602D0FFF7AEFFE9
:101D500004E000F05FF8204600F05DF82577206889
:101D60000169C943C90617D4C168C943C90613D458
:101D70006FF010010161082020772068C06910F41D
:101D8000407F204602D0FFF791FF04E000F042F8C8
:101D9000204600F040F8257720680169C943C9074B
:101DA00008D1C168C943C90704D1891E0161204611
:101DB00000F032F820680169C943090609D4C168F6
:101DC000C943090605D46FF0800101612046FFF781
:101DD000FDFE20680169C943490609D4C168C943A9
:101DE000490605D46FF040010161204600F01EF85D
:101DF00020680169C94389060BD4C168C9438906B3
:101E000007D46FF0200101612046BDE87040FFF764
:101E1000DEBE70BD7047704700680349884201D13B
:101E2000FFF748BB7047000000000140704770B5E5
:101E3000040004D094F83D00002510B106E0012014
:101E400070BD84F83C50204600F022F8242084F82D
:101E50003D002068C16821F40051C160204600F0B7
:101E6000A7FB2068016921F4904101612068416964
:101E700021F02A0141612068C16841F40051C1602C
:101E80002564202084F83D0084F83E00002070BDC9
:101E900010B586B0044614216846FEF762FA14496C
:101EA0002068884221D113480021026842F01002C4
:101EB0000260006800F0100005900E4814380268B7
:101EC00042F001020260006800F0010005904FF44A
:101ED000C06000900220CDE901010320039007209B
:101EE000049069460448FFF7E1F906B010BD000010
:101EF000001001404438024000000240FEE738B5BF
:101F000004460020009063696A46012120689847D2
:101F10006FF00405002825DB63696A46012120680B
:101F2000984700281EDB0098400701D4012038BDE7
:101F300063696A46002120689847002812DB0098F0
:101F4000C10408D44FF4045181431CD081041CD433
:101F5000C0051CD415E063696A461F2120689847B4
:101F6000002801DA284638BD0098C10401D40620B3
:101F700038BDC0F38200062805D0022805D0052808
:101F800005D0052038BD022038BD032038BD04200F
:101F900038BD2DE9F843044600200646054600906A
:101FA0006068A8BBA06800B1804720206FF00407DC
:101FB000206063696A46122130469847002801DA9A
:101FC0003D4607E0009800F01F00B04202D1002516
:101FD000266002E0761C1F2EEBD920681F2802D94C
:101FE0006FF0020530E07DBB23694FF40042002111
:101FF0009847002830DB63696A46002120689847CB
:10200000002827DBA069804706464FF4FA780CE0E9
:102010000EE0A0698047801B404518D863696A4676
:10202000002120689847002814DB00980004F0D4B1
:10203000A069804706464FF4FA67A0698047801B75
:10204000B842FAD9012060602846BDE8F8836FF0F5
:102050000105F9E73D46F7E76FF00305F4E788B1BE
:10206000CA687AB18A686AB10A695AB10A68826034
:102070004A68C260CA6842618A680261096981610E
:10208000002070474FF0FF307047000000B587B068
:102090001C2206496846FEF73DF90021684607F014
:1020A00025FC0349086007B000BD00008039010825
:1020B0000000002030B587B014216846FEF751F9C2
:1020C0001E480024016841F010010160016801F020
:1020D00010010591016841F080010160016801F083
:1020E00080010591016841F004010160016801F07F
:1020F00004010591016841F001010160016801F0EE
:1021000001010591016841F04001016000680C4D3A
:1021100000F040000590002204212846FFF7BEF998
:10212000042000900120CDE90104022003906946BB
:102130002846FFF7BBF807B030BD0000303802403A
:1021400000100240F0B53E4C8BB0C0232370A82293
:1021500062700120A0706421E170251DFF212970AB
:102160006970A97000272E1DEF7033707270B07007
:10217000F070394638460FF0E9F92068E17803BA83
:102180000A0603F47F4342EA032203BA00BA03F4C7
:102190007F03084342EA1322A4F10C0142EA1060D3
:1021A00008602868E97803BA0A0603F47F4342EA24
:1021B000032203BA00BA03F47F03084342EA13225E
:1021C000A4F1080142EA106008603068F17803BAAF
:1021D0000A0603F47F4342EA032203BA03F47F03AF
:1021E00000BA42EA1322084342EA1060211F231F6B
:1021F0000860144814490097CDE901101A1F111FF7
:10220000124806F04DFE114807F064F80F4890F8A8
:102210002D0040070D4802D507F070F901E007F0E6
:102220005FF80B49094807F0AFF81C22094903A8D9
:10223000FEF770F8054903A807F058FB0BB0F0BD96
:10224000340000201D1701083D3C000840540020C8
:10225000993A0008C43901080C4810B50A490160D0
:102260004FF4E1314160002181600C22C160C0E97E
:1022700004128161C161FFF7DAFD002803D0BDE8D7
:102280001040FEF797BB10BD00100140E80300208E
:10229000FEE7000070B514460D4606462246294664
:1022A000304603F02FF8411C03D102A008F030FEA5
:1022B000F4E770BD61636365707420636F6E6E6573
:1022C0006374206572726F720000000010B503F035
:1022D000FBF80446401C05D103A008F019FE0020BD
:1022E00010F0A6FB204610BD62696E6420736F6318
:1022F0006B6574206572726F7200000010B503F098
:1023000003FA0446401C05D103A008F001FE00209A
:1023100010F08EFB204610BD6C697374656E2073DF
:102320006F636B6574206572726F720070B50546DD
:1023300004F022F9041E05DC03A008F0E9FD28469C
:1023400003F030F9204670BD7265616420646174E9
:102350006120746F20736F636B6574206572726F98
:102360007200000010B504F025FF0446401C05D1A2
:1023700003A008F0CDFD002010F05AFB204610BD50
:1023800063726561746520736F636B657420657239
:10239000726F720070B5054604F0B4FF040005D5F5
:1023A00003A008F0B5FD284603F0FCF8204670BDF8
:1023B0007772697465206461746120746F20736F33
:1023C000636B6574206572726F720000FEE7000037
:1023D000FFF7B8FE04A008F09BFD00BF10F0FAF96B
:1023E000012007F0DBF8F9E76C77697020616E6413
:1023F000206672656572746F7320696E69742069F6
:1024000073206F6B0000000010B5502080F311881E
:10241000BFF34F8FBFF36F8F11F01EF918B104494E
:102420004FF080500860002080F3118810BD00003C
:1024300004ED00E030B593B030216846FDF791FF20
:1024400014210CA8FDF78DFF1E480025016841F0FE
:1024500080510160006800F0805011901A480168B6
:1024600041F4804101600068022400F48040119032
:1024700001200090000401908001CDE90640192060
:1024800008904FF4A870CDE9090404200B90684629
:10249000FFF7E6F908B172B6FEE70CA90F2081E854
:1024A00031004FF4A0500F904FF480501090052150
:1024B0000CA8FFF7C3F8002801D072B6FEE713B0EE
:1024C00030BD000040380240007000400248016802
:1024D00041F470010160704788ED00E00148FFF7AA
:1024E000E6BB00002C040020F0B50268254C264D08
:1024F000264E274F274B4FF0804CA04209D0604515
:1025000007D0A84205D0B04203D0B84201D09842CB
:1025100004D122F0700E4A6842EA0E02A0421BD09B
:10252000604519D0A84217D0B04215D0B84213D098
:10253000984211D0184DA8420ED0184DA8420BD089
:10254000174DA84208D0174DA84205D0164DA842F5
:1025500002D0164DA84203D122F44075CA682A431E
:102560004D6922F080022A4302608A68C2620A68CA
:102570008262A04201D0984201D109690163012120
:102580004161F0BD0000014000040040000800402F
:10259000000C0040000401400040014000440140A4
:1025A0000048014000180040001C0040002000408E
:1025B00070B5044600680169E26821F44051114396
:1025C00001612169A068E269084361691143084318
:1025D0002168CA6849F20C639A430243CA602068C2
:1025E0004169A26921F44071114341613149206878
:1025F000884202D03049884202D1FFF7EFF801E06B
:10260000FFF7DCF8E2690023192164253226B2F5D0
:10261000004F626828D0A0FB0101930F9200FDF7E4
:102620002FFE0146B0FBF5F06FF01802504301EBAE
:10263000800006EB0010B0FBF5F000F0F002B1FBFB
:10264000F5F002EB0012B1FBF5F06FF01803584300
:1026500001EB800006EB0010B0FBF5F000F00F007E
:1026600021681044886070BDA0FB010192185B4195
:10267000FDF706FE0146B0FBF5F00201B1FBF5F0F7
:102680006FF01803584301EB800006EBC000B0FB6D
:10269000F5F000F0F80002EB4002B1FBF5F0584312
:1026A00001EB800006EBC000B0FBF5F000F0070086
:1026B000D6E700000010014000140140FEE70000D2
:1026C0000FB4054B10B503A9044A029800F028F88E
:1026D00010BC5DF814FB00004D3E00089001002086
:1026E0000907090E002804DB00F1E02080F800143F
:1026F000704700F00F0000F1E02080F8141D7047D3
:1027000002E008C8121F08C1002AFAD170477047BA
:10271000002001E001C1121F002AFBD17047000018
:102720002DE9FF4F8BB09A460F460546002606E07E
:1027300025280BD052460D9990476D1C761C2878A1
:102740000028F5D10FB03046BDE8F08F0024A04638
:102750000122604900E0044315F8013F203B02FAE2
:1027600003F00842F7D128782E2817D115F8010F69
:1027700044F004042A280ED06FF02F022878A0F12C
:10278000300109290AD808EB880102EB410100EB6E
:1027900001086D1CF2E757F8048B6D1C2878692836
:1027A0003ED006DC0028CDD063280BD0642804D1AD
:1027B00036E0732810D075284BD052460D999047BB
:1027C000761C85E017F8040B8DF8000000208DF8CA
:1027D0000100E946012003E057F8049B4FF0FF3069
:1027E00061074FF0000401D40AE0641C44450DDA8F
:1027F0008442FADB19F804100029F6D106E0641CC3
:102800008442FCDB19F804100029F8D1264404E0C6
:1028100019F8010B52460D999047641EF8D257E003
:1028200001CF4FF00A0B002802DA40422D2102E0CE
:10283000210504D52B218DF82410012103E0E107A7
:1028400005D02021F7E70DF1200908910CE00021C7
:10285000F9E701CF4FF00A0BF9E75946FDF799FD6B
:1028600001F1300209F8012D0028F6D1ADEB090085
:1028700000F1200B600701D44FF00108D84502DDBC
:10288000A8EB0B0000E000208046002406E009A829
:102890005246005D0D999047641C761C089884424E
:1028A000F5DB04E0302052460D999047761CB8F1D4
:1028B0000001A8F10108F5DC05E019F8010B52460A
:1028C0000D999047761CBBF10001ABF1010BF4DCD4
:1028D0006D1C34E7092801002DE9F04790460E46AB
:1028E00004006FF0050555D004F11400814608F08E
:1028F000D4FE00284ED0EF1F002E3DD0B8F1000FBF
:1029000006D032A340F22A223DA147A0FFF7D8FE0D
:102910002078616A05F024FB05004FF0FF383DD0B8
:102920006E6008F0DBFD2946484608F0ACFEA0B317
:102930006C680021204609F0CFF9002120460CF0F8
:1029400025FE002120460DF061FB002211462046A5
:102950000BF050FE0021204609F03EFE002068608A
:1029600005F11000044608F06BFE204608F088FED2
:10297000284605F0A3FC1FE0384603F053FD01464E
:10298000484608F080FE28B9636A1BB10022114650
:10299000204698472846BDE8F0870FE0384603F008
:1029A00041FD0146484608F06EFE28B9636A1BB136
:1029B00000221146204698474046ECE7636A1BB167
:1029C00000221146204698470020E4E72E2E2F4D86
:1029D0006964646C6577617265732F5468697264A9
:1029E0005F50617274792F4C7749502F7372632F47
:1029F0006170692F6170695F6D73672E63000000FD
:102A0000657870656374206E6577706362203D3D04
:102A1000204E554C4C206F7220657272203D3D2037
:102A20004552525F4F4B0000417373657274696F7A
:102A30006E2022257322206661696C6564206174B2
:102A4000206C696E6520256420696E2025730A005C
:102A50002DE9F041884607460024174D08F094FD03
:102A600005EB0411096841B108F0B6FD641C042CA3
:102A7000F4DB4FF0FF30BDE8F08105EB04152F606B
:102A800008F0AAFD00266E60A87B002806D00BA3E4
:102A900040F20E2216A11EA0FFF712FE2E813878FA
:102AA0000121B1EB101F02D15FEA080000D0012024
:102AB0006881AE812046DEE7745400202E2E2F4D13
:102AC0006964646C6577617265732F5468697264B8
:102AD0005F50617274792F4C7749502F7372632F56
:102AE0006170692F736F636B6574732E63000000F0
:102AF000736F636B6574735B695D2E73656C65637F
:102B0000745F77616974696E67203D3D2030000015
:102B1000417373657274696F6E202225732220667B
:102B200061696C6564206174206C696E6520256440
:102B300020696E2025730A0070B505460C4688078B
:102B400006D009A34FF4B67213A11BA0FFF7B8FD7E
:102B500008F01AFDA96809682160A9680C60BDE841
:102B6000704008F039BD00002E2E2F4D6964646C52
:102B70006577617265732F54686972645F50617222
:102B800074792F4C7749502F7372632F636F72657E
:102B90002F6D656D702E63006D656D705F6672657B
:102BA000653A206D656D2070726F7065726C79206A
:102BB000616C69676E656400417373657274696FF7
:102BC0006E2022257322206661696C656420617421
:102BD000206C696E6520256420696E2025730A00CB
:102BE00070B5044608F0D0FC0546A0680468002CC7
:102BF0000FD021680160A00706D008A34FF48C72A3
:102C000012A11BA0FFF75CFD284608F0E5FC20465A
:102C100070BD284608F0E0FC002070BD2E2E2F4D20
:102C20006964646C6577617265732F546869726456
:102C30005F50617274792F4C7749502F7372632FF4
:102C4000636F72652F6D656D702E63006D656D70BD
:102C50005F6D616C6C6F633A206D656D7020707292
:102C60006F7065726C7920616C69676E65640000D5
:102C7000417373657274696F6E202225732220661A
:102C800061696C6564206174206C696E65202564DF
:102C900020696E2025730A002DE9F0470F460400D5
:102CA00006D13FA34FF4DC724AA14EA0FFF708FD06
:102CB00008F06AFC002666602772217F41F001015E
:102CC00021776578667008F087FC636A7BB1002223
:102CD000042120469847636A4BB1002211462046E2
:102CE0009847636A1BB10022022120469847384664
:102CF00003F098FB804604F11000814608F0CDFCFB
:102D000018B14146484608F0BEFC04F11400814663
:102D100008F0C3FC18B14146484608F0B4FC012D48
:102D20000FD0042D0DD0032D0BD0206A002834D0F5
:102D3000BDE8F0471AA340F2F71234A129A0FFF72B
:102D4000BFBC217FC1F3800001F0FB012177002887
:102D500023D1206A30B912A34FF4F37232A121A01B
:102D6000FFF7AEFC206A042D08D00771206A0568C1
:102D70000C35284608F0CEFC10B108E00671F5E7E6
:102D800007A340F2EF122FA116A0FFF799FC2846E7
:102D90002662BDE8F04708F0BABCBDE8F087000045
:102DA0002E2E2F4D6964646C6577617265732F54A4
:102DB000686972645F50617274792F4C7749502F43
:102DC0007372632F6170692F6170695F6D73672E15
:102DD00063000000636F6E6E20213D204E554C4C09
:102DE00000000000417373657274696F6E202225C4
:102DF0007322206661696C6564206174206C696E61
:102E00006520256420696E2025730A00636F6E6E4D
:102E10002D3E63757272656E745F6D7367203D3D04
:102E2000204E554C4C000000636F6E6E2D3E637556
:102E30007272656E745F6D736720213D204E554C34
:102E40004C000000696E61766C6964206F705F638E
:102E50006F6D706C657465645F73656D0000000074
:102E6000002802DC4142112901DB0520704702499C
:102E7000A1EB800000687047083A010870B5094D61
:102E80000646002404EB440005EBC000017D29B197
:102E90008068B04202D1204600F036F9641C0A2C4A
:102EA000F0DB70BDBC8B00202DE9F74F84B04FF0F4
:102EB0000A0B00240646DA465F46D946029401947E
:102EC000CDF80040514904EB440001EBC0080390E9
:102ED00098F814500A2F1DD0002D2AD0012D08D0AB
:102EE000022D06D24AA340F2231257A166A0FFF793
:102EF000E7FB9EB13168D8F8040081420ED10698F4
:102F000020B1D8F808100698814207D1204607B0B2
:102F1000BDE8F08F002DE1D127460AE0012D16D043
:102F2000022D06D3B8F812000099884201D3A246B8
:102F30000090641C24B20A2CC4DB059881074FF072
:102F4000FF30E4D40A2F16D018DA3C463EE02F4971
:102F5000039851F830000028B8F8120005D0029903
:102F60008842E6D3A1460290E3E701998842E0D384
:102F7000A3460190DDE70599C907C8D05146BAF1CB
:102F80000A0F0EDA0C46214801EB440150F83100DB
:102F900080B11FA340F26D1245A13BA0FFF790FB4B
:102FA00008E05946BBF10A0F03DB4946B9F10A0FA5
:102FB000ADDA0C460A2C06DB15A340F27F1242A1C3
:102FC00031A0FFF77DFB204600F09EF80A2C06DBBF
:102FD0000FA340F283123CA12BA0FFF771FB0B481B
:102FE00004EB440100EBC105287D30B108A34FF488
:102FF000C2723AA124A0FFF763FB0EB1306868608B
:10300000002068820698A86080E70000BC8B002042
:103010002E2E2F4D6964646C6577617265732F5431
:10302000686972645F50617274792F4C7749502FD0
:103030007372632F636F72652F697076342F6574B6
:10304000686172702E6300007374617465203D3D89
:10305000204554484152505F53544154455F5045B8
:103060004E44494E47207C7C207374617465203E39
:103070003D204554484152505F53544154455F539D
:103080005441424C45000000417373657274696F8E
:103090006E2022257322206661696C65642061744C
:1030A000206C696E6520256420696E2025730A00F6
:1030B0006172705F7461626C655B695D2E71203D49
:1030C0003D204E554C4C000069203C204152505F41
:1030D0005441424C455F53495A4500006172705F4C
:1030E0007461626C655B695D2E7374617465203D0B
:1030F0003D204554484152505F53544154455F452B
:103100004D5054590000000070B5074C00EB4005CD
:10311000002654F8350018B107F08CF844F83560F3
:1031200004EBC500067570BDBC8B00202DE9F04393
:1031300085B00D00074609D07C684FF48078208860
:10314000404539D12079062836D109E01CA340F248
:103150008A2229A12CA0FFF7B3FA05B0BDE8F083BD
:103160006079042828D16088082825D1D4F80E0079
:103170000490A169686820B1814202D101263346DA
:1031800001E00026022304F10802914604A9284622
:1031900000F0A2FBE08840450ED16EB1022204ABE4
:1031A000CDE90232291DCDE9001905F126031946A2
:1031B0004A46284600F090FA384607F03BF8CCE73C
:1031C0002E2E2F4D6964646C6577617265732F5480
:1031D000686972645F50617274792F4C7749502F1F
:1031E0007372632F636F72652F697076342F657405
:1031F000686172702E6300006E6574696620213DFF
:10320000204E554C4C000000417373657274696F19
:103210006E2022257322206661696C6564206174CA
:10322000206C696E6520256420696E2025730A0074
:10323000FEB515460E46040006D143A340F21E32E9
:103240004FA153A0FFF73CFA36B93FA340F21F321B
:1032500059A14FA0FFF734FA35B93BA34FF4487298
:1032600058A14BA0FFF72CFA2146286800F0ACFFCC
:1032700008B1584B3FE02868C0F303110E2925D050
:10328000A168636800EA01020B409A4208D080B24C
:10329000A0F57E41A93903D0E068B0B304F10C0574
:1032A0004D4B4E481A7802EB420100EBC1010F7DF5
:1032B000022F2ED38F68A7422BD12F6849688F42E7
:1032C00027D13146204600F08BF8FEBD01208DF855
:1032D000040000208DF805005E208DF80600687857
:1032E00001AB00F07F008DF80700A8788DF808008A
:1032F000E8788DF809004FF40060009004F1260290
:103300003146204600F01EFCFEBDFFE76FF00300D3
:10331000FAE7002202EB420100EBC1010F7D022F10
:1033200008D38F68A74205D12F6849688F4201D121
:103330001A70C6E7521CD2B20A2AEBD3324629468B
:10334000204600F0D5F8DFE72E2E2F4D6964646C1F
:103350006577617265732F54686972645F5061723A
:1033600074792F4C7749502F7372632F636F726596
:103370002F697076342F6574686172702E63000057
:103380006E6574696620213D204E554C4C0000004E
:10339000417373657274696F6E20222573222066F3
:1033A00061696C6564206174206C696E65202564B8
:1033B00020696E2025730A007120213D204E554C56
:1033C0004C00000069706164647220213D204E55FC
:1033D0004C4C0000F839010810010020BC8B002083
:1033E0002DE9F8430646154688461C4802EB450180
:1033F00000EBC104207D022806D219A340F2EE2280
:1034000025A131A0FFF75CF9144A05EB4501207DA9
:1034100002EBC1050C35022813D1608A0327B0F5F1
:103420008E7F04D9211D304600F010FA07E0B0F578
:10343000877F06D32A46211D304600F00DFA00B9D9
:1034400027754FF4006000902B4606F12602414696
:10345000304600F077FBBDE8F8830000BC8B00200D
:103460002E2E2F4D6964646C6577617265732F54DD
:10347000686972645F50617274792F4C7749502F7C
:103480007372632F636F72652F697076342F657462
:10349000686172702E6300006172705F7461626CAB
:1034A000655B6172705F6964785D2E7374617465C9
:1034B000203E3D204554484152505F5354415445AD
:1034C0005F535441424C4500417373657274696F98
:1034D0006E2022257322206661696C656420617408
:1034E000206C696E6520256420696E2025730A00B2
:1034F0002DE9FC5F8246263001900E46086814468E
:103500004FF0FF374FF0000B514600F05DFE80B9E1
:103510003068C0F303110E290BD056B148B15246A2
:1035200001213046FFF7C0FC050005D540B2BDE8DB
:10353000FC9F6FF00F00FAE77F2D06D337A340F210
:10354000C13244A147A0FFF7BBF805F0FF094F497E
:1035500009EB490801EBC805287D00280ED0012899
:1035600008D0022806D22DA340F2CD3248A13DA0BA
:10357000FFF7A6F8BBF1000F06D104E00120287583
:10358000C5F808A000E034B93146504600F05EF9B5
:103590000746002CCBD0287D3C4E02280ED346494E
:1035A0004FF4006005F10C0381F800900090214673
:1035B0005046019A00F0C6FA07462DE001282BD1AB
:1035C000254640F2F13768892989884207D1286861
:1035D00028B112A33A4639A122A0FFF771F8287B3F
:1035E000400607D522464FF420710E2006F058FC05
:1035F000044605E02D68002DE5D1204606F0C8FF01
:1036000044B156F8380008B106F014FE46F83840C8
:10361000002701E04FF0FF37384688E72E2E2F4D68
:103620006964646C6577617265732F54686972644C
:103630005F50617274792F4C7749502F7372632FEA
:10364000636F72652F697076342F6574686172706C
:103650002E63000074797065206F766572666C6FFA
:1036600077000000417373657274696F6E202225C4
:103670007322206661696C6564206174206C696ED8
:103680006520256420696E2025730A00BC8B00200C
:103690006172705F7461626C655B695D2E737461E9
:1036A0007465203D3D2050454E44494E47206F7281
:1036B00020535441424C4500100100206E6F207091
:1036C00061636B65742071756575657320616C6CE1
:1036D0006F776564210000002DE9FF4F81B09846A7
:1036E000DDE90FA9DDF838B006004FF0000706D17C
:1036F0002CA340F2574239A13CA0FEF7E1FF4FF462
:1037000020721C210E2006F07FF9050046D0688942
:103710001C2806D223A340F262423EA133A0FEF74A
:10372000CFFF6C68119801F0C7FFE08096F82C007D
:10373000062806D01BA340F2694243492BA0FEF79E
:10374000BFFFD8F80010A160B8F80400A081DAF833
:103750000010C4F81210BAF80400E082DBF8000090
:10376000C4F80E00D9F80000A0614FF480702080EA
:1037700008206080062020710420607140F6060059
:10378000DDE9022300902946304600F0DBF92846A7
:1037900006F050FD384605B0BDE8F08F4FF0FF3021
:1037A000F9E700002E2E2F4D6964646C6577617215
:1037B00065732F54686972645F50617274792F4C1D
:1037C0007749502F7372632F636F72652F6970761C
:1037D000342F6574686172702E6300006E657469C1
:1037E0006620213D204E554C4C000000417373650E
:1037F0007274696F6E2022257322206661696C6580
:1038000064206174206C696E6520256420696E20D7
:1038100025730A00636865636B20746861742066B1
:103820006972737420706275662063616E20686FC0
:103830006C6420737472756374206574686172704F
:103840005F68647200000000903C0108014A00F0CB
:1038500003B80000F83901087FB5064D031D0124A7
:10386000CDE90035CDE9021422331946FFF734FFC4
:1038700004B070BDFE39010870B5164D002400BFBC
:1038800004EB440005EBC002117DF1B1508A401CED
:1038900080B25082B0F5967F0AD2012906D0032962
:1038A0000AD004290AD001290BD00EE0052808D33C
:1038B0002046FFF729FC08E0042000E002201075F4
:1038C00003E0111D9068FFF7C1FF641C0A2CD7DBD1
:1038D00070BD0000BC8B0020F8B5044690F82C00A9
:1038E0001F4616460D46062806D020A340F2A91210
:1038F0002CA135A0FEF7E4FE9DB1286888B12146D1
:1039000000F062FC68B92878C0F303100E2808D0D4
:10391000224639462846FFF7C7FA002804DA40B2A3
:10392000F8BD6FF00F00F8BD00EB400130480223F6
:1039300000EBC102137594603368D360B3881382BF
:103940000023538250F8315075B140F831304FF4B4
:1039500000600090334604F126022946204600F01C
:10396000F1F8284606F066FC0020F8BD2E2E2F4DFB
:103970006964646C6577617265732F5468697264F9
:103980005F50617274792F4C7749502F7372632F97
:10399000636F72652F697076342F65746861727019
:1039A0002E6300006E657469662D3E6877616464FD
:1039B000725F6C656E203D3D204554485F4857411D
:1039C0004444525F4C454E00417373657274696F95
:1039D0006E2022257322206661696C656420617403
:1039E000206C696E6520256420696E2025730A00AD
:1039F000BC8B00202DE9F041044640890E270D467E
:103A00000E283CD9E07B18B995F83000401CE073D3
:103A1000606801788689CA0714D0012905D006227A
:103A20001C49FCF7A9FC48B10CE0417851B98078F9
:103A30005E2807D1607B40F0100002E0607B40F020
:103A400008006073082E03D0B6F5C16F17D10DE0E2
:103A500095F82D00000712D53946204606F0E6FD00
:103A600068B92946204600F0F7FC10E095F82D00D3
:103A7000000704D53946204606F0D8FD18B1204687
:103A800006F0D8FB03E029462046FFF74FFB002055
:103A9000BDE8F081F8390108704700009AB0074688
:103AA00064216846FCF75DFC0026354634464FF439
:103AB00080484FF400692248FEF721FA97F82D104C
:103AC00049070CD501282BDC1D48E838FDF734FBED
:103AD000384605F005FC384605F05AFC20E0012880
:103AE0001EDD022820D0032820D0042821D005285C
:103AF00021D0AEB112486946E838FCF780FF104883
:103B0000CDE905546946E838FDF771FA0C48E83804
:103B1000FDF7B4FA384605F0F1FC384605F08EFCA6
:103B2000642005F03BFDC6E74C4600E00024454616
:103B300003E04C4600E0002400250126DAE70000FF
:103B4000205400202DE9F04104461F4690460E46C1
:103B5000069801F0B1FD05460E21304605F0F0FE55
:103B600018B16FF00100BDE8F08170688581396897
:103B70000160B9888180D8F80020C0F80620B8F824
:103B80000410418194F82C00062806D006A34FF4B7
:103B9000997213A11FA0FEF793FD31462046A2693A
:103BA000BDE8F041104700002E2E2F4D6964646C73
:103BB0006577617265732F54686972645F506172D2
:103BC00074792F4C7749502F7372632F6E65746927
:103BD000662F65746865726E65742E630000000060
:103BE0006E657469662D3E6877616464725F6C65AA
:103BF0006E206D757374206265203620666F7220AA
:103C000065746865726E65745F6F75747075742124
:103C100000000000417373657274696F6E20222585
:103C20007322206661696C6564206174206C696E22
:103C30006520256420696E2025730A0010B50400F4
:103C400006D10BA340F2DF1210A114A0FEF738FD3D
:103C5000732084F82E00742084F82F0019486061C6
:103C60001948A061204601F03FFA002010BD000075
:103C70002E2E2F4C5749502F5461726765742F6553
:103C8000746865726E657469662E63006E6574692A
:103C90006620213D204E554C4C0000004173736559
:103CA0007274696F6E2022257322206661696C65CB
:103CB00064206174206C696E6520256420696E2023
:103CC00025730A00313200087152000808B50F4D03
:103CD00004464FF0FF3800274146686805F0D4FDE0
:103CE0000028F9D10097287818B969460848FDF7E7
:103CF0006AF8009E002EEFD0226921463046904798
:103D00000028EFD0304606F095FAEBE704000020DB
:103D1000385300202DE9F0410E4604005ED0A5691D
:103D2000002D0DDA07F030FCA569002D06DA0EB97A
:103D30006D1EA561BDE8F04107F04EBC07F04CFCDC
:103D4000284600F0ABF8040048D0012707F01CFC1F
:103D500080460120052E19D2DFE806F0030A0E1373
:103D600016002089401C00B22081012834DC14E0B8
:103D70002089401E20812FE0618901B100276081E8
:103D80000BE00020608127E0A08106E014A34FF43F
:103D90001F6220A123A0FEF793FCA07BE0B1DFB15E
:103DA000B4F90800002801DD012700E00027608940
:103DB00008B1012600E00026A08908B1012400E036
:103DC0000024404607F008FC234632463946284680
:103DD000BDE8F04107F0B2BA4046ABE7BDE8F0817C
:103DE0002E2E2F4D6964646C6577617265732F5454
:103DF000686972645F50617274792F4C7749502FF3
:103E00007372632F6170692F736F636B6574732EA8
:103E100063000000756E6B6E6F776E206576656E61
:103E200074000000417373657274696F6E202225FF
:103E30007322206661696C6564206174206C696E10
:103E40006520256420696E2025730A0003490A68ED
:103E50005206FCD5C2B24A60704700000010014013
:103E60002DE9F0410E46044607F08EFB00216768FD
:103E700061602568216007F0AFFB380005D016B1FE
:103E800006F0D8F901E003F00BFF002D04D028461E
:103E9000BDE8F04104F0A6B9BDE8F08110B50DF021
:103EA000B7FD002803D1024909200860002010BD99
:103EB0001C0100200A46032100F0F4B82DE9FE4F52
:103EC0008A4644490446D1F8088098F80000000763
:103ED000850E142D79D36089042876D36068007824
:103EE000002872D0082870D1486901F11407C0F386
:103EF00003120E2A69D08946096800F065F9002886
:103F000063D12089082860D305F10E010E462046B2
:103F100005F016FD002830D02089411989B2884269
:103F200053D84FF420720E2005F06EFD06004CD0E1
:103F3000718905F10800814216D32A46414670680E
:103F4000FCF7E8F92946304606F070FB002806D059
:103F500021A3B6222EA13CA0FEF7B2FB04E021462D
:103F6000304605F0EBFF18B1304606F063F92CE05F
:103F7000204606F05FF934460CE03146204606F054
:103F800055FB002806D014A3C72239A12EA0FEF7A6
:103F900097FB1AE029462046666805F0D1FCA0B9D7
:103FA00060683968FF22C160D9F8101001610021F2
:103FB000317071800272418101228DE806040A4647
:103FC000FF233946204600F017FB2046BDE8FE4F90
:103FD00006F030B9B45400202E2E2F4D6964646C65
:103FE0006577617265732F54686972645F5061729E
:103FF00074792F4C7749502F7372632F636F7265FA
:104000002F697076342F69636D702E630000000095
:1040100069636D705F696E7075743A206D6F766953
:104020006E6720722D3E7061796C6F616420746FD1
:104030002069636D702068656164657220666169DE
:104040006C65640A00000000417373657274696FE7
:104050006E2022257322206661696C65642061747C
:10406000206C696E6520256420696E2025730A0026
:1040700069636D705F696E7075743A2072657374F0
:104080006F72696E67206F726967696E616C20700C
:104090002D3E7061796C6F6164206661696C656446
:1040A0000A0000002DE9FF479146884606464FF476
:1040B00020722421222005F0A7FC050031D0688958
:1040C000242806D218A34FF4B47225A12FA0FEF71E
:1040D000F7FA6C6877681C2284F8008084F80190F5
:1040E0004FF00008A4F80480A4F80680686871689E
:1040F0000830FCF70FF9F868039003A800F08CFC77
:1041000060B1A4F802800122CDF80080CDE9012041
:10411000FF2303AA0021284600F06EFA284606F085
:1041200089F8BDE8FF8700002E2E2F4D6964646C6E
:104130006577617265732F54686972645F5061724C
:1041400074792F4C7749502F7372632F636F7265A8
:104150002F697076342F69636D702E630000000044
:10416000636865636B207468617420666972737438
:1041700020706275662063616E20686F6C642069D0
:10418000636D70206D65737361676500417373655E
:104190007274696F6E2022257322206661696C65D6
:1041A00064206174206C696E6520256420696E202E
:1041B00025730A000A460B21FFF774BFEFF3058051
:1041C000002800D001207047421C12D088B191F81D
:1041D0002D2092070BD54B68834208D0896800EAEE
:1041E00001020B409A4202D10143491C01D0002038
:1041F00070470120704700002DE9F74F88B0044652
:10420000099800251426808CAF1F1438C11700EBC5
:104210005170C0F3CF00039060680690017801F000
:104220000F01052903D038460BB0BDE8F08F618936
:10423000142907D25BA34FF43F7269A16FA0FEF768
:104240003FFAF0E7C08801F037FAC0F30C0100F440
:10425000005002910790208914381FFA80F88EE0F0
:1042600003984FF6FF7101EAC0004146404500D96E
:10427000084604904FF4207214210E2005F0C4FB70
:104280005FEA000A7ED0BAF80A00142806D245A3D5
:104290004FF4497263A159A0FEF712FA1422DAF81A
:1042A00004000699FCF736F8DAF804000590049F3C
:1042B00035E06089811B8DB2B04206D239A340F24D
:1042C0002D3260A14DA0FEF7FBF9AF4200D23D4672
:1042D0001DB3052003F04CFC5FEA000957D060686D
:1042E0004B463044CDE9000541222946002005F027
:1042F00011FD5FEA000B50D0204606F049F9554900
:10430000C9E904145946504605F020FD781B0704FE
:104310003F0C06D000262468CBE724680026002F37
:10432000C7D1701986B20998808C1438404502981C
:10433000C0F30C0001DB079909B140F4005001F013
:10434000BBF90599C8800498143080B201F0B4F923
:1043500005994880059800214181099851460A9A9B
:1043600043699847504605F065FF0499A8EB0100A2
:104370001FFA80F8DDE90201084480B20290B8F12A
:10438000000F00E006E07FF46BAF00204CE75046E2
:1043900005F050FF4FF0FF3046E7484600F06CFB59
:1043A000F5E700002E2E2F4D6964646C657761720D
:1043B00065732F54686972645F50617274792F4C11
:1043C0007749502F7372632F636F72652F69707610
:1043D000342F6970345F667261672E6300000000DD
:1043E0006970345F6672616728293A207062756669
:1043F00020746F6F2073686F72740000417373656F
:104400007274696F6E2022257322206661696C6563
:1044100064206174206C696E6520256420696E20BB
:1044200025730A0074686973206E65656473206182
:10443000207062756620696E206F6E6520706965F8
:1044400063652100702D3E6C656E203E3D20706FCF
:1044500066660000515000082DE9F04745680746A0
:104460000E4628780421B1EB101F03D0384605F022
:10447000E1FE77E000074FEA9068688801F01CF9D8
:1044800004463889A04203D92146384605F0E6FFA4
:1044900079894145EAD33889A042E7D3B8F1140FAE
:1044A000E4D32969DFF81C91C1F303100E28C9F881
:1044B0001410EA68C9F8102005D0304600F086F8DC
:1044C00050B1344619E096F82D00C00702D070684C
:1044D0000028F6D1002410E099F8140000247F2869
:1044E0000BD03948046806E0B44203D0204600F0FF
:1044F0006DF810B92468002CF6D13146D9F81000B7
:10450000FFF762FE0028B1D199F81000C0F3031044
:104510000E28ABD0002CA9D0E88830F0C00005D020
:10452000384600F035F907001CD07D68C9F80850FE
:10453000C9E90046297838460907890EA9F80C1000
:10454000414606F073F8687A012818D0062811D081
:1045500011280AD04D462146D9F81400FFF734FE41
:1045600090B11EE00020BDE8F087314638460DF0DE
:104570000BFB19E03146384608F0C6F914E0314625
:104580003846FFF79BFC0FE0287DC0F303100E2890
:1045900007D04146384605F049FF02213846FFF76B
:1045A00089FC384605F046FE0021C9F80010C9F81C
:1045B0000410C9F80810A9F80C10C9F81010C9F8AF
:1045C0001410CFE7B4540020AC00002010B590F8D0
:1045D0002D10C9070CD0416851B1064A52698A4270
:1045E00004D001461046FFF7EFFD08B1012010BDD1
:1045F000002010BDB4540020FEB5DDE90954089E2A
:104600001AB109B10F6807B9211D0096CDE901540F
:1046100000F002F8FEBD00002DE9F84F0546DDE987
:104620000BA8807BDDF828B01F4616468946012876
:1046300006D02FA34FF455723AA13DA0FEF740F8E3
:104640006FF00104002E35D01421284605F078F9CA
:10465000002832D168896C68142806D224A34FF44C
:1046600062723DA132A0FEF72BF8277284F809A0F0
:10467000306820614520207084F801B0288901F05D
:104680001BF8414F60804FF0000AA4F806A038885C
:1046900001F012F8A0803888401C3880B9F1000F72
:1046A00005D0D9F80000E060A4F80AA00CE0374873
:1046B0000068F8E76889142802D22046BDE8F88F20
:1046C00068686E4600690090B8F8240040B12989F6
:1046D000814205D9324641462846FFF78DFDEDE778
:1046E000D8F814304046324629469847E6E700009D
:1046F0002E2E2F4D6964646C6577617265732F543B
:10470000686972645F50617274792F4C7749502FD9
:104710007372632F636F72652F697076342F6970BF
:10472000342E6300702D3E726566203D3D203100C1
:10473000417373657274696F6E202225732220663F
:1047400061696C6564206174206C696E6520256404
:1047500020696E2025730A00636865636B207468A6
:10476000617420666972737420706275662063617B
:104770006E20686F6C642073747275637420697046
:104780005F6864720000000012010020883B01088D
:104790002DE9F05F45688346287800F00F00052872
:1047A0007DD1E88800F088FFC004070C688800F01D
:1047B00083FF29780907890E814270D8401A1FFAB1
:1047C00080F8584605F063FB6A4C06462088304462
:1047D0000A2809D93146284600F0E4FB00285ED0BB
:1047E000208830440A28E8D8A14664684FF0000ABF
:1047F0000CE06069E968884207D1A06929698842AC
:1048000003D1A089A988884203D02468002CF0D164
:1048100006E02CB1E88800F04FFFC0041BD025E073
:10482000042003F0A5F904000AD13146284600F01F
:10483000B9FBB04233DB042003F09AF90400CED078
:104840002021FBF78EFD0F20E077D9F804102160BE
:10485000C9F8044004E0E08900F02EFFC00405D050
:104860001422294604F10800FBF754FDA87940F30F
:1048700040156D1C08D007EB080080B2B84263D326
:104880004FF6EB7188425FD82A465946204600F021
:104890003BF9411C58D0B9F80020324400E064E0F4
:1048A000A9F8002035B107EB0801A183A17F41F0F1
:1048B0000101A177012845D1A08B1422143087B2C1
:1048C000606804F10801456828462E68FBF722FD60
:1048D000384600F0F1FE6880A5F806A0A5F80AA009
:1048E000656809E014213046776805F09FFE31467F
:1048F000284605F02BFA3E68002EF3D1D9F80410B3
:104900004E468C4205D1002105E00868A04202D045
:1049100001460029F9D1204600F01AFA284605F090
:10492000B6FA04463088A04206D213A340F29B2276
:1049300020A127A0FDF7C4FE3088001B3080284648
:10494000BDE8F09F0020FBE7606870B9D9F804006B
:10495000844206D008A340F2AB2227A11CA0FDF799
:10496000AFFE0021204600F0F3F9584605F062FC46
:10497000E8E70000140100202E2E2F4D6964646CBE
:104980006577617265732F54686972645F506172F4
:1049900074792F4C7749502F7372632F636F726550
:1049A0002F697076342F6970345F667261672E6389
:1049B0000000000069705F72656173735F706275FB
:1049C00066636F756E74203E3D20636C656E0000FB
:1049D000417373657274696F6E202225732220669D
:1049E00061696C6564206174206C696E6520256462
:1049F00020696E2025730A006E6F742066697273D9
:104A000074616C74686F756768206A75737420656B
:104A10006E7175657565640070B50146144813E0E4
:104A200090F82D20D3070FD053070DD543685BB105
:104A300084680D68234005EA04069E4216D092075A
:104A400002D4C268954211D000680028E8D1094814
:104A5000006850B190F82D20D30706D0520704D536
:104A6000426812B109787F2900D1002070BD000092
:104A7000AC000020B000002010B5040006D106A351
:104A80004FF4317213A116A0FDF71AFE2146BDE8BE
:104A90001040052002F0B4BF2E2E2F4D6964646CC7
:104AA0006577617265732F54686972645F506172D3
:104AB00074792F4C7749502F7372632F636F72652F
:104AC0002F697076342F6970345F667261672E6368
:104AD000000000007020213D204E554C4C0000008D
:104AE000417373657274696F6E202225732220668C
:104AF00061696C6564206174206C696E6520256451
:104B000020696E2025730A002DE9F05F4C68064687
:104B100093460F4600254FF00108608800F0CCFD59
:104B200021784FF0FF3A0907890E814231D8A0EB76
:104B30000109E08800F0C0FDC0047C68010C002081
:104B4000206001EB090083B2A180E3808B4220D377
:104B5000726829E05068B0F804C0614515D222603F
:104B60006DB1B5F806C0614513D38088834210D873
:104B70002F60A088844506D04FF0000803E08088AD
:104B8000834206D877608AB12EE002D0C288914273
:104B900002D25046BDE8F09F25B1EA88624501D0B7
:104BA0004FF0000802680546002AD3D195B1E88885
:104BB000A188884206D92AA34FF4DB7237A13FA00F
:104BC000FDF77EFD2F60E888A18888420CD04FF069
:104BD000000809E0706830B121A34FF4DF7241A1F1
:104BE00036A0FDF76DFD7760BBF1000F02D1B07FFD
:104BF000C007CFD0B8F1000F30D07268002A2DD096
:104C000050688088002829D12168204629B14C6845
:104C1000C088A1888842F7D020E0B8F1000F1DD0ED
:104C200032B90FA340F2DF123CA124A0FDF748FDEA
:104C300070684068A04206D109A34FF4F07237A112
:104C40001EA0FDF73DFD206830B105A34FF4F172C1
:104C500036A11AA0FDF734FD01209BE7002099E75B
:104C60002E2E2F4D6964646C6577617265732F54C5
:104C7000686972645F50617274792F4C7749502F64
:104C80007372632F636F72652F697076342F69704A
:104C9000345F667261672E630000000063686563BD
:104CA0006B20667261676D656E747320646F6E272A
:104CB00074206F7665726C617000000041737365DB
:104CC0007274696F6E2022257322206661696C659B
:104CD00064206174206C696E6520256420696E20F3
:104CE00025730A006E6F2070726576696F75732088
:104CF000667261676D656E742C2074686973206DCF
:104D000075737420626520746865206669727374B7
:104D100020667261676D656E7421000073616E6953
:104D2000747920636865636B0000000076616C69CC
:104D3000646174655F646174616772616D3A6E6528
:104D400078745F70627566213D4E554C4C000000D2
:104D500070B504460C480D464168A14202D1216855
:104D600041600AE0002D06D108A340F2451216A1C9
:104D70001CA0FDF7A5FC206828602146BDE8704016
:104D8000042002F03DBE0000140100202E2E2F4D05
:104D90006964646C6577617265732F5468697264C5
:104DA0005F50617274792F4C7749502F7372632F63
:104DB000636F72652F697076342F6970345F667225
:104DC00061672E630000000073616E69747920636F
:104DD0006865636B206C696E6B6564206C697374C5
:104DE00000000000417373657274696F6E202225A4
:104DF0007322206661696C6564206174206C696E41
:104E00006520256420696E2025730A002DE9F0478E
:104E1000054600240F46A94205D12FA3AB223DA190
:104E20003FA0FDF74DFC002F08D03868A84205D000
:104E300029A3AD2244A13AA0FDF742FC6E684FF4CD
:104E400080387068818800291AD10068686014224F
:104E500005F108017068FBF75DFA01213046FFF7A4
:104E6000A9F9304605F013F80446404505D31AA3C6
:104E7000BC223AA12AA0FDF723FC304605F0DAF95E
:104E80006E6812E07068B1460668484604F0FFFF9D
:104E90000444444505D310A3CC2230A120A0FDF743
:104EA0000FFCA4B2484605F0C5F9002EEAD13946F8
:104EB0002846FFF74DFF314D2888A04205D206A3B2
:104EC000D2222FA116A0FDF7FBFB2888001B28800B
:104ED0002046BDE8F08700002E2E2F4D6964646CDB
:104EE0006577617265732F54686972645F5061728F
:104EF00074792F4C7749502F7372632F636F7265EB
:104F00002F697076342F6970345F667261672E6323
:104F1000000000007072657620213D2069707200EB
:104F2000417373657274696F6E2022257322206647
:104F300061696C6564206174206C696E652025640C
:104F400020696E2025730A00707265762D3E6E65AD
:104F50007874203D3D2069707200000070627566B3
:104F6000735F6672656564202B20636C656E203C00
:104F70003D2030786666666600000000140100205F
:104F800069705F72656173735F70627566636F7578
:104F90006E74203E3D2070627566735F6672656553
:104FA000640000002DE9F0471D4F894606460024A5
:104FB0000022134611461546786822E0D0F814C046
:104FC000D6F80C80C4450BD1D0F818C0D6F81080A4
:104FD000C44505D1B0F80CC0B6F80480C44509D06A
:104FE0006D1C2AB190F81FC092F81F80C44501D8EB
:104FF00002461946D0F800C0BCF1000F00D00346AD
:1050000060460028DAD11AB11046FFF7FFFE0444CB
:105010004C4501DA012DCBDC2046BDE8F0870000CD
:105020001401002070B50948002544680BE0E07FBA
:1050300020B1401EE0772546246804E0204624681D
:105040002946FFF7E3FE002CF1D170BD14010020CA
:1050500010B5040006D108A340F2CE2215A118A075
:10506000FDF72EFB606908B105F0E4F82046BDE8C5
:105070001040FFF701BD00002E2E2F4D6964646CB7
:105080006577617265732F54686972645F506172ED
:1050900074792F4C7749502F7372632F636F726549
:1050A0002F697076342F6970345F667261672E6382
:1050B0000000000070637220213D204E554C4C00D2
:1050C000417373657274696F6E20222573222066A6
:1050D00061696C6564206174206C696E652025646B
:1050E00020696E2025730A002DE9F041A4B0044622
:1050F000002664216846FBF734F95A4D58480027CA
:1051000028608DF8687080208DF86900E1208DF8A6
:105110006A008DF86C708DF86B708DF86D701AA840
:1051200068604FF40000A860A5F1A000E860A03816
:1051300028614FF4C06068612846FBF737FD804660
:10514000382105F1B000FBF70CF905F1B000212181
:1051500001604FF44001C0E90471434802F0F2FCE1
:10516000062084F82C00686803220021007884F867
:1051700026006868407884F827006868807884F89A
:1051800028006868C07884F829006868007984F885
:105190002A006868407984F82B0040F2DC50A08433
:1051A00094F82D0040F00A0084F82D0001200DF045
:1051B00009FE2E4D03220021686001200DF002FE41
:1051C0002949A8601C220C311CA8FBF7A3F8214632
:1051D0001CA804F08BFB234805F10C01E830FCF718
:1051E0003EFF2048E830FCF7D4FEB8F1000F04D0B1
:1051F000FBF7E0FB24B0BDE8F0811A48E830FCF78B
:105200007EFE0146012806DC204604F0C1F8204657
:1052100004F066F8EEE74FF40065E800022905D0D7
:10522000032905D0042906D0052903D0064602E04B
:105230000025FBE7002569460A48FBF7E0FBCDE9BE
:10524000056569460748FBF7D2FE0648FBF716FFDF
:10525000204604F053F9204604F0F0F8CAE70000B5
:1052600000800240385300209C39010804000020CF
:10527000F0B58DB00E4600252F4630216846FBF76D
:1052800070F830216846FBF76CF834466846002217
:1052900016E0042D03D36FF00B000DB0F0BD05EB4D
:1052A0004501636840F8213000EB810163894B6060
:1052B0000DB141F8041C236803B98A6024686D1C91
:1052C000002CE6D10D4932894E63C1E901203046F8
:1052D00005F05EF90949A1F1B000FBF77DFF084D2B
:1052E000641E2146A86804F0CFFA0028F9D10348CB
:1052F000B038FBF711FE3846CFE70000E853002036
:10530000040000202DE9F04F87B04FF0000815464B
:105310008A46ADF81080FEF7C1FD04004FF0FF395A
:1053200016D005A9206802F07FFD434EA0B1216888
:1053300001220978B2EB111F01D05F2007E010F1C4
:105340000F0F01D1162002E0FDF78AFD00B1306099
:10535000484607B0BDE8F08F059830B937A340F252
:105360008B2243A146A0FDF7ABF901210598FDF77B
:105370006FFB0446401C1BD0042C06D32FA34FF414
:10538000257249A13EA0FDF79BF94D4800EB041B97
:1053900006F0FAF805990A8B8C61D24317B206F031
:1053A0001BF90598406A98B1464806F07BF90AE077
:1053B000059802F017FF1720C9E70598002211464B
:1053C000436A7F1E9847002FF7DC3E4806F07EF9BF
:1053D000BAF1000F2DD065B3002304AA06A90598E1
:1053E00003F022F8070008D0059802F0FBFE012127
:1053F0005846FEF735FD3846A6E710208DF8000028
:1054000002208DF80100BDF8100000F055F9ADF84C
:1054100002000698CDE90108CDF80C809DF8000047
:105420002968814200D92860694650462A68FAF7FF
:1054300071FF20468DE700001C0100202E2E2F4D0D
:105440006964646C6577617265732F54686972640E
:105450005F50617274792F4C7749502F7372632FAC
:105460006170692F736F636B6574732E6300000046
:105470006E6577636F6E6E20213D204E554C4C005B
:10548000417373657274696F6E20222573222066E2
:1054900061696C6564206174206C696E65202564A7
:1054A00020696E2025730A00696E76616C6964203C
:1054B000736F636B657420696E646578000000002B
:1054C0007454002060000020F8B516460C46FEF724
:1054D000E5FC05004FF0FF3724D03046124E10286F
:1054E00004D16078022801D1A0070BD00FA340F2AD
:1054F000E2221BA121A0FDF7E3F86FF00F000DE001
:1055000030600FE060680090608800F0D5F80246D7
:105510006946286802F0B2FD002804D0FDF7A0FC1F
:105520000028EDD13846F8BD1C0100202E2E2F4D4D
:105530006964646C6577617265732F54686972641D
:105540005F50617274792F4C7749502F7372632FBB
:105550006170692F736F636B6574732E6300000055
:105560006C7769705F62696E643A20696E76616C0F
:1055700069642061646472657373000041737365CC
:105580007274696F6E2022257322206661696C65D2
:1055900064206174206C696E6520256420696E202A
:1055A00025730A0070B50025FEF778FC04004FF063
:1055B000FF361CD0206840B100780121B1EB101FEC
:1055C00001D101250AE0002508E0606830B10CA394
:1055D0004FF4457217A11DA0FDF772F8206803F083
:1055E000B9F830B1FDF73CFC08B1224908603046FB
:1055F00070BD29462046FEF733FC002070BD000038
:105600002E2E2F4D6964646C6577617265732F541B
:10561000686972645F50617274792F4C7749502FBA
:105620007372632F6170692F736F636B6574732E70
:1056300063000000736F636B2D3E6C617374646173
:105640007461203D3D204E554C4C00004173736504
:105650007274696F6E2022257322206661696C6501
:1056600064206174206C696E6520256420696E2059
:1056700025730A001C01002010B5044640688047CD
:1056800006F027F8094A216852688B181A1AB2F1F5
:10569000004F03D308442246054902E0044922464C
:1056A0001846BDE8104006F0B5B80000FC00002028
:1056B0007956000800BA704740BA704710B505F037
:1056C000B3FF01F019FF02F02DFA03F06DFD0CF0AD
:1056D0004FFA07F00DF9BDE8104006F017B90000C9
:1056E00010B50446064805F0DDFF0649086820604D
:1056F00000B144600C60BDE81040014805F0E6BF11
:10570000600000205000002070B50C46FEF7C6FB7C
:1057100005004FF0FF3619D0002C11DDFF2C00DB07
:10572000FF24E1B2286802F005FF00280FD02968A5
:105730000122074C0978B2EB111F03D05F2004E06F
:105740000024EEE7FDF78CFB00B12060304670BD11
:105750001C01002010B5026804466FF00501506876
:1057600030B1127802F0F002102A09D0202A02D0BB
:105770000846207110BDA289A1680CF05FF9F8E716
:10578000A289A16806F0ACFAF3E7000070B50168E1
:1057900004466FF00A024B684878002B4DD00B7816
:1057A0000125B5EB131F48D1237A032B01D0022822
:1057B00043D0032841D001283CD0D80702D0084666
:1057C00002F01FFD2068006A30B11DA340F2BD72D7
:1057D00028A12FA0FCF774FF2168042048702068DE
:1057E00000210462206800F06DF8002824D02068B1
:1057F0004078042806D012A340F2C2722EA124A041
:10580000FCF75EFF2E4805F061FF206800210C3098
:1058100005F0C6FE2A4805F045FF206840780028BC
:105820000AD0BDE8704006A340F2C67222A118A0BB
:10583000FCF746BFFB20207170BD227170BD0000D7
:105840002E2E2F4D6964646C6577617265732F54D9
:10585000686972645F50617274792F4C7749502F78
:105860007372632F6170692F6170695F6D73672E4A
:1058700063000000616C72656164792077726974FD
:10588000696E67206F7220636C6F73696E670000CA
:10589000417373657274696F6E20222573222066CE
:1058A00061696C6564206174206C696E6520256493
:1058B00020696E2025730A007374617465210000ED
:1058C000600000202DE9F0478A46040006D169A354
:1058D00040F2A23274A178A0FCF7F2FE20780121F8
:1058E000B1EB101F06D063A340F2A3327CA172A0DB
:1058F000FCF7E6FE6078042806D05EA34FF46972D8
:105900007FA16DA0FCF7DCFE606830B959A340F2BE
:10591000A53284A168A0FCF7D3FE206A30B955A354
:1059200040F2A63284A164A0FCF7CAFE206AD4F833
:105930000480007A00F0010900F0020703280FD06C
:10594000B9F1000F07D098F81400052808D00628F0
:1059500006D0082804D04FB198F81A00C00605D523
:1059600001260021404606F0B7F900E0002698F82D
:10597000140001281DD0B9F1000F07D000214046C6
:1059800009F004FE0021404606F0C1F81FB10021D5
:1059900040460AF03BFB96B100221146404608F013
:1059A00029FE0021404606F017FE404606F03EFA6A
:1059B0000AE00021404606F0AAF8002EF5D13A464A
:1059C000494640460AF074FB05000ED0681C0CD115
:1059D000206A407A20B198F8140001282FD035E0D1
:1059E0001EB1404606F090F80025206A0168057156
:1059F0000020206201F10C086070BDB936B1606012
:105A0000636A1BB10022042120469847B9F1000FB8
:105A100005D0636A1BB100221146204698472FB17A
:105A2000636A1BB10022022120469847BAF1000F99
:105A300002D0404605F06BFE0020BDE8F0870DA3C4
:105A400040F2414243A11CA0FCF73AFE1FB14A4973
:105A500040460AF0DBFA01224849404608F0CAFDF8
:105A60004749404606F0B8FD2146404606F034F965
:105A70002846E2E72E2E2F4D6964646C65776172CB
:105A800065732F54686972645F50617274792F4C2A
:105A90007749502F7372632F6170692F6170695F4E
:105AA0006D73672E63000000696E76616C69642017
:105AB000636F6E6E00000000417373657274696FEE
:105AC0006E2022257322206661696C6564206174F2
:105AD000206C696E6520256420696E2025730A009C
:105AE0007468697320697320666F72207463702014
:105AF0006E6574636F6E6E73206F6E6C790000005C
:105B0000636F6E6E206D75737420626520696E2000
:105B10007374617465204E4554434F4E4E5F434C41
:105B20004F53450070636220616C72656164792037
:105B3000636C6F7365640000636F6E6E2D3E6375FA
:105B40007272656E745F6D736720213D204E554CF7
:105B50004C000000436C6F73696E672061206C69B4
:105B60007374656E20706362206D6179206E6F744E
:105B7000206661696C2100000DB4000895A9000839
:105B8000992C000870B5044600684578002D16D0A1
:105B900000780121B1EB101F06D03AA340F25E421B
:105BA00045A14AA0FCF78CFD022D08D0032D03D19E
:105BB0002068007F400702D4FB20207121E00025EF
:105BC0002571206802F01DFB2068416869B10278E8
:105BD00002F0F002102A1AD0202A04D1CD612068E8
:105BE00040680CF0B9F9206845602068436A43B109
:105BF0000022114698472068436A13B1002202210F
:105C000098472068BDE870400C3005F083BD006AFD
:105C100030B11CA340F2944236A12CA0FCF750FDF9
:105C2000216804204870032020722068002104624B
:105C30002068FFF747FE002822D02068407804281B
:105C400006D010A340F29A4231A120A0FCF738FD03
:105C5000314805F03BFD206800210C3005F0A0FC28
:105C60002D4805F01FFD20684078002808D0BDE8C9
:105C7000704004A340F29E4225A114A0FCF720BD71
:105C800070BD00002E2E2F4D6964646C65776172C3
:105C900065732F54686972645F50617274792F4C18
:105CA0007749502F7372632F6170692F6170695F3C
:105CB0006D73672E630000006E6574636F6E6E20F7
:105CC0007374617465206572726F720041737365DD
:105CD0007274696F6E2022257322206661696C657B
:105CE00064206174206C696E6520256420696E20D3
:105CF00025730A00616C726561647920777269743A
:105D0000696E67206F7220636C6F73696E67000045
:105D100073746174652100006000002001684968A7
:105D20006FF00A0200292FD0037C0BB1096800E054
:105D30004968836819600021017101680B7803F0DC
:105D4000F003102B12D0202B06D010A340F27D724E
:105D50001BA121A0FCF7B4BC037C49680BB1498AA4
:105D60000FE00B7C5B070FD5898A0AE0037C13B137
:105D70004968C98A05E04B68197D29B1012903D01A
:105D8000198BC06801807047027170472E2E2F4D0D
:105D90006964646C6577617265732F5468697264B5
:105DA0005F50617274792F4C7749502F7372632F53
:105DB0006170692F6170695F6D73672E6300000009
:105DC000696E76616C6964206E6574636F6E6E5F78
:105DD0007479706500000000417373657274696FB7
:105DE0006E2022257322206661696C6564206174CF
:105DF000206C696E6520256420696E2025730A0079
:105E0000F8B5016804466FF00A02486848B10B789B
:105E10000125B5EB131F4DD14978002621B1022988
:105E200042D08DF8002041E0017D21B15FF0FA0001
:105E30008DF800003AE0FF216A4607F0BFFA05003E
:105E400034D02068103005F028FC38B120681030BC
:105E500005F0F6FB2068103005F012FC8DF80060AC
:105E60002068143005F019FC30B920680621143080
:105E700005F0F0FB8DF800009DF8000028B12846E1
:105E800005F0D4FF2068466010E0216802204870C9
:105E9000216828464D60216805F01EFF20680649EC
:105EA000406805F034FE01E08DF800609DF80000C8
:105EB0002071F8BDF020BBE7D9280008002101714E
:105EC00001684968002901D104F018BC70472DE928
:105ED000F04104460020207120684168002915D057
:105EE00000780121B1EB101F10D1A5680F044FF607
:105EF000FF78BD4201D3404600E0284686B22068C4
:105F00003146406809F0ECFBAD1BF2D1BDE8F081F1
:105F100070B50546006802F0C2F950B92A686FF002
:105F20000A01506820B1127802F0F002202A02D053
:105F30000846287170BDAC68A16831B1A38904F12D
:105F4000080221680CF0BEF8F3E721680CF05CF859
:105F5000EFE7000010B50446006802F0A0F9002841
:105F600050D1206801210278B1EB121F48D142784C
:105F70000AB1881F46E04268002A3ED0417020687E
:105F8000006A30B120A340F223722CA132A0FCF7AA
:105F900097FB606930B91CA340F2247238A12EA08F
:105FA000FCF78EFB206800210462206800F078F87E
:105FB000002828D020684078012806D012A34FF48A
:105FC000E56234A124A0FCF77BFB344805F07EFB9E
:105FD000206800210C3005F0E3FA304805F062FB40
:105FE0002068407801280ED1BDE8104006A340F299
:105FF0002C7228A118A0FCF763BB6FF00A0001E027
:106000006FF00500207110BD2E2E2F4D6964646C59
:106010006577617265732F54686972645F5061724D
:1060200074792F4C7749502F7372632F6170692FE9
:106030006170695F6D73672E63000000616C72654B
:106040006164792077726974696E67206F7220636A
:106050006C6F73696E670000417373657274696F6A
:106060006E2022257322206661696C65642061744C
:10607000206C696E6520256420696E2025730A00F6
:106080006D73672D3E6D73672E772E6C656E2021C4
:106090003D203000737461746521000060000020B1
:1060A0002DE9F34F81B004004FF0000A06D188A318
:1060B00040F2736293A197A0FCF702FB607801287D
:1060C00006D083A340F274629CA192A0FCF7F8FA78
:1060D000206A002806D17EA340F275629FA18DA0A0
:1060E000FCF7EEFA606830B979A340F27662A2A1BB
:1060F00088A0FCF7E5FA206A81694069814206D3ED
:1061000073A340F27762A2A182A0FCF7D9FA206AB9
:106110008089002806D16EA340F27962ACA17DA0EF
:10612000FCF7CEFA206A077F207F800701D478072A
:1061300001D5012000E0002080464FF6FF7B216A58
:106140004FF480398868096902680A4400924268FD
:10615000551A4D4503D35E4647F0020700E0AEB244
:106160006068B0F86400B0420ED20646B8F1000F85
:1061700008D04EB9206A806908B100254EE06FF062
:1061800006054BE047F002078819904206D950A354
:1061900040F2A36298A15FA0FCF792FA5E4501D19C
:1061A0004D4506D2A8B2B04208D1206A80890128A4
:1061B00004D94FF0010947F0020701E04FF0000950
:1061C0003B463246606800990AF00AFD050019D185
:1061D000206A816931448161206A01693144016129
:1061E000206A8268526891420CD18189491E090453
:1061F000090C8181206A05D0816808318160216A9B
:1062000000200861B9F1000F02D0002D97D000E006
:106210000DB1681C45D1B8F1000F0FD0206A81691B
:10622000406981420AD2636A1BB1002203212046E1
:106230009847207F40F0100020770FE06068B0F8AA
:106240006410B1F5866F03D3B0F86600052805D356
:10625000636A1BB1002203212046984715B1681CD0
:1062600013D01EE0206A81694069814202D0B8F1F2
:10627000000F01D04FF0010A606807F0EBFA011D32
:106280001DD0BAF1000F0CD11EE0606807F0E2FAF1
:10629000011D14D0B8F1000F16D0206A806980B1BA
:1062A0000025216A08680D71002121626170029940
:1062B0000C3009B105F02BFA0020BDE8FE8F054631
:1062C000EFE76FF00605ECE74FF0FF30F5E7000071
:1062D0002E2E2F4D6964646C6577617265732F543F
:1062E000686972645F50617274792F4C7749502FDE
:1062F0007372632F6170692F6170695F6D73672EB0
:1063000063000000636F6E6E20213D204E554C4CA3
:1063100000000000417373657274696F6E2022255E
:106320007322206661696C6564206174206C696EFB
:106330006520256420696E2025730A00636F6E6EE8
:106340002D3E7374617465203D3D204E4554434F8E
:106350004E4E5F575249544500000000636F6E6E09
:106360002D3E63757272656E745F6D736720213D9B
:10637000204E554C4C000000636F6E6E2D3E7063D6
:10638000622E74637020213D204E554C4C0000005D
:10639000636F6E6E2D3E63757272656E745F6D73A2
:1063A000672D3E6D73672E772E6F6666736574205A
:1063B0003C20636F6E6E2D3E63757272656E745F06
:1063C0006D73672D3E6D73672E772E6C656E0000C2
:1063D000636F6E6E2D3E63757272656E745F6D7362
:1063E000672D3E6D73672E772E766563746F725FCF
:1063F000636E74203E2030006C7769705F6E657448
:10640000636F6E6E5F646F5F77726974656D6F72D4
:10641000653A20696E76616C6964206C656E67749C
:106420006821000010B510F10F0F13D010F10E0FFE
:106430000DD010F10D0F08D028B108A37D2214A1B2
:1064400017A0FCF73DF9002010BD1F4810BD1E48E5
:10645000401C10BD1C48801C10BD00002E2E2F4D6E
:106460006964646C6577617265732F5468697264DE
:106470005F50617274792F4C7749502F7372632F7C
:106480006170692F6170695F6D73672E6300000032
:10649000756E68616E646C6564206572726F7200FF
:1064A000417373657274696F6E20222573222066B2
:1064B00061696C6564206174206C696E6520256477
:1064C00020696E2025730A00043A010870B50C009B
:1064D000054605D10DA3852219A11CA0FCF7F0F8F3
:1064E0002448854201D1F3200AE02248401C85421D
:1064F00001D1F22004E01F48801C854203D1F12025
:106500002070012070BD002070BD00002E2E2F4D88
:106510006964646C6577617265732F54686972642D
:106520005F50617274792F4C7749502F7372632FCB
:106530006170692F6170695F6D73672E6300000081
:1065400065727220213D204E554C4C00417373659D
:106550007274696F6E2022257322206661696C65F2
:1065600064206174206C696E6520256420696E204A
:1065700025730A00043A01081CB500230093019317
:1065800000F006F91CBD00002DE9F84F00259946E2
:106590008B4607464FF008086FF0004AB2F1004FF3
:1065A00000D35246164637B943A340F29E324FA15C
:1065B00052A0FCF785F8386801210078B1EB101F74
:1065C00006D03DA340F29F3256A14CA0FCF778F8CC
:1065D0005FEA097001D54FF00C08786808B10090A7
:1065E00021E042466946386802F0D2F904000ED034
:1065F000002D58DCFCF734FC08B1534908600F3417
:1066000003D04FF0FF30BDE8F88F0020FBE7009883
:1066100030B929A340F2C5324CA138A0FCF750F89C
:106620000098786000980489B44200DBB4B229195C
:10663000A94202DAAAEB05018CB20BEB050100239B
:10664000224603F06BFD2544A64206DA1AA340F267
:10665000DD3241A129A0FCF733F8361B5FEAC9708F
:1066600018D100980089A04206D213A340F2E33269
:1066700043A122A0FCF724F800980189091B0029F6
:1066800004DD214603F09EFE786003E0002179607E
:1066900003F0D0FD48F01408002E02DD5FEAC97057
:1066A0009BD0002D06DD5FEAC97003D1294638680A
:1066B00002F072FA2846A6E72E2E2F4D6964646C0C
:1066C0006577617265732F54686972645F50617297
:1066D00074792F4C7749502F7372632F6170692F33
:1066E000736F636B6574732E630000006E6F2073AD
:1066F0006F636B657420676976656E0041737365BF
:106700007274696F6E2022257322206661696C6540
:1067100064206174206C696E6520256420696E2098
:1067200025730A00746869732073686F756C642040
:10673000626520636865636B656420696E74657269
:106740006E616C6C790000001C0100207020213DFE
:10675000204E554C4C000000696E76616C696420D7
:10676000636F70796C656E2C206C656E20776F7529
:106770006C6420756E646572666C6F770000000053
:10678000696E76616C696420636F70796C656E0008
:106790002DE9F04F8DB09B46DDE91664174689461A
:1067A0008246FDF77BFB05004FF0FF383FD028689D
:1067B00001210078B1EB101F1AD15B463A464946D9
:1067C0002846FFF7E1FE074676B16CB1002302AA26
:1067D00004A9286801F028FE00943346BDF808207B
:1067E00004A9286800F05AFC38460DB0BDE8F08FC7
:1067F0000020ADF808000890079009900BA80396B8
:10680000CDE90501CDE90B970CB1206800E000202F
:10681000049002AB03AA5946CDF800A0284600F028
:106820001FF830B1FCF71CFB08B10C49086040466A
:10683000DBE7BDF80800874201D23A4600E0024695
:106840006FF000418A4203D2874202D2384600E00C
:106850000846002CC9D004992160C6E71C0100201D
:106860002DE9FC5F06469068994614468A46002842
:106870000DD1E06800280ADD34A340F2494240A16E
:106880004AA0FBF71DFF6FF00F00BDE8FC9F5FEA19
:106890000A7001D5042200E000227068019080B9DE
:1068A00001A9306802F0CAF80028EED1019830B989
:1068B00026A340F25E4247A13CA0FBF701FF0198EE
:1068C0007060019800273D4600684FF0040BB0F857
:1068D000088016E0A1680BEBC502A8EB07008A58F8
:1068E00080B2824200D890B20090019851F83510E1
:1068F0003B460068009A03F011FC00986D1C384478
:1069000087B2E068A84201DD4745E3D323684BB175
:10691000606838B1201D0199009030688A8908317B
:1069200000F0BCFB0020A061216901B160615FEA59
:10693000CA7103D17060019801F0B2F9B9F1000F8A
:1069400001D0A9F8008000209FE700002E2E2F4DD7
:106950006964646C6577617265732F5468697264E9
:106960005F50617274792F4C7749502F7372632F87
:106970006170692F736F636B6574732E6300000021
:106980006C7769705F7265637666726F6D5F756450
:10699000705F7261773A20696E76616C696420611C
:1069A0007267756D656E74730000000041737365E6
:1069B0007274696F6E2022257322206661696C658E
:1069C00064206174206C696E6520256420696E20E6
:1069D00025730A0062756620213D204E554C4C00FF
:1069E0002DE9F04F95B0834600201E9F99469046B2
:1069F0000E461190BBF1050F03D39D48162101608F
:106A00000EE110AA0FA90EA88DE8070042463146F4
:106A1000584600F06BF9051E01DA092014E070DC1D
:106A200027B1386810B9786800286AD0242105A8F1
:106A3000F9F797FC0DA807AA049082E8400300210B
:106A400004F04CFE18B10C2089490860E8E005A864
:106A5000FEF746FEDA46002441E06EB1042C0BD26C
:106A6000E01704EB507006EBE00004F00702017839
:106A700001209040014221D1B8F1000F0DD0042C2B
:106A80000BD2E01704EB507108EBE10004F00702B1
:106A9000017801209040014210D1B9F1000F1DD0C2
:106AA000042C1BD2E01704EB507109EBE10004F059
:106AB000070201780120904001420FD004F064FDEC
:106AC000029020460AF0ADFF40B3817B491C11F0D3
:106AD000FF01817316D0029804F07EFD641C5C45B2
:106AE000BBDB002D3ADB10AA0FA90EA88DE807002A
:106AF0004B4642463146584600F0F8F8050017D09C
:106B00002CE0A1E0FF2181734FF0FF35A2460298EF
:106B100004F062FD5648102101601FE04FF0FF3580
:106B2000A246029804F058FD51490920086015E07A
:106B3000B7B178684FF47A7100F5FA7090FBF1F014
:106B4000396801EB4102C2EBC11100EBC101002920
:106B500000DC0121049804F023FD1190002455E08D
:106B60000021F7E76EB1042C0BD2E01704EB507054
:106B700006EBE00004F00702007801219140084292
:106B800021D1B8F1000F0DD0042C0BD2E01704EB8B
:106B9000507108EBE10004F00702017801209040F9
:106BA000014210D1B9F1000F2FD0042C2DD2E017E3
:106BB00004EB507109EBE10004F0070201780120B9
:106BC0009040014221D004F0DFFC029020460AF000
:106BD00028FF070011D0B87B40B926A340F63C023D
:106BE00031A138A0FBF76CFDB87B10B1B87B401E1B
:106BF000B873029804F0F0FC07E0029804F0ECFC93
:106C00001B4909204FF0FF350860641C5445A9DB7F
:106C100005A800F003FB049804F05DFD002D04DAE4
:106C20004FF0FF3015B0BDE8F08F1198401C0BD02D
:106C300010AA0FA90EA88DE807004B464246314620
:106C4000584600F053F8054616B19DF838003070EC
:106C5000B8F1000F03D09DF83C1088F80010B9F18E
:106C6000000F03D09DF8401089F800102846D9E79E
:106C70001C0100202E2E2F4D6964646C65776172B3
:106C800065732F54686972645F50617274792F4C18
:106C90007749502F7372632F6170692F736F636B25
:106CA0006574732E63000000736F636B2D3E736514
:106CB0006C6563745F77616974696E67203E20302C
:106CC00000000000417373657274696F6E202225A5
:106CD0007322206661696C6564206174206C696E42
:106CE0006520256420696E2025730A002DE9F04F88
:106CF00089B00025DDF850B09A4691460E46074609
:106D0000009501952C464FF0010802958EE06EB17A
:106D1000042C0BD2E01704EB507006EBE00004F0FB
:106D20000702017808FA02F0014221D1B9F1000FFF
:106D30000DD0042C0BD2E01704EB507109EBE100ED
:106D400004F00702017808FA02F0014210D1BAF10A
:106D5000000F6AD0042C68D2E01704EB50710AEBE4
:106D6000E10004F00702017808FA02F001425CD069
:106D700004F00AFC039020460AF053FE002872D06B
:106D800041680791B0F90810069141890591808901
:106D90000490039804F020FCBEB1E01704EB50719E
:106DA00006EBE10004F00703027808FA03F0024260
:106DB0000BD0079A12B9069A002A06DD6A4602EB42
:106DC000E1010A7802430A706D1CB9F1000F14D07A
:106DD000E01704EB507109EBE10004F007030278BF
:106DE00008FA03F0024208D0059A32B101AA02EB78
:106DF000E1010A7802430A706D1CBAF1000F14D049
:106E0000E01704EB50710AEBE10004F0070302788D
:106E100008FA03F0024208D0049A32B102AA02EB47
:106E2000E1010A7802430A706D1C641CBC42FFF643
:106E30006EAF12989DF80010002D017013989DF808
:106E4000041001709DF808108BF8001006DA09A3F1
:106E500040F2697214A117A0FBF732FC284609B072
:106E6000BDE8F08FFFE7039804F0B6FB4FF0FF306A
:106E7000F5E700002E2E2F4D6964646C6577617212
:106E800065732F54686972645F50617274792F4C16
:106E90007749502F7372632F6170692F736F636B23
:106EA0006574732E630000006E7265616479203E24
:106EB0003D203000417373657274696F6E20222526
:106EC0007322206661696C6564206174206C696E50
:106ED0006520256420696E2025730A002DE9FE4394
:106EE0001C46164688460746FCF7D8FF4FF0FF358C
:106EF00038B3016801230A780021B3EB121F09D0CF
:106F000000910191234632464146384600F020F870
:106F1000BDE8FE83022202EAD4030291042202A900
:106F200002EA54025B1C009113430068324641465A
:106F300001F0E6FE0446FBF793FF08B10349086041
:106F40000CB12846E4E70298E2E700001C010020AB
:106F50002DE9FF5FDDE90E491F4690468B468246CC
:106F6000FCF79CFF05004FF0FF3653D02868012145
:106F70000078B1EB101F08D13B46424659465046B7
:106F8000FFF7ACFF04B0BDE8F09F244FB8F5803F99
:106F900001D35A2019E01FFA88F854EA090016D0E4
:106FA000B9F1100F05D124B16078022801D1A007F2
:106FB0000DD01BA340F2526226A12EA0FBF780FB4E
:106FC0006FF00F00FBF74CFF20B3386022E0002188
:106FD000019100912CB1606802906088FEF76CFB13
:106FE00001E000200291ADF80C0042465946684687
:106FF00000F0B8FE040004D16946286801F078FD6D
:107000000446684600F05EFE2046FBF729FF00B10B
:1070100038600CB13046B5E74046B3E71C010020AC
:107020002E2E2F4D6964646C6577617265732F54E1
:10703000686972645F50617274792F4C7749502F80
:107040007372632F6170692F736F636B6574732E36
:10705000630000006C7769705F73656E64746F3AEB
:1070600020696E76616C6964206164647265737313
:1070700000000000417373657274696F6E202225F1
:107080007322206661696C6564206174206C696E8E
:107090006520256420696E2025730A002DE9FF41D3
:1070A0000A9C1F4690460E004FF0000506D11DA316
:1070B00040F2074228A12DA0FBF702FB37B919A324
:1070C0004FF4816233A129A0FBF7FAFA34B915A372
:1070D00040F2094233A125A0FBF7F2FA10208DF807
:1070E000000002208DF801004046FEF7E5FAADF8F9
:1070F0000200306801900020029003909DF800008B
:107100002168814202D24FF0010501E000D92060E0
:10711000694638462268F9F7FDF804B02846BDE80C
:10712000F08100002E2E2F4D6964646C65776172CA
:1071300065732F54686972645F50617274792F4C63
:107140007749502F7372632F6170692F736F636B70
:107150006574732E6300000066726F6D6164647203
:1071600020213D204E554C4C0000000041737365BA
:107170007274696F6E2022257322206661696C65C6
:1071800064206174206C696E6520256420696E201E
:1071900025730A0066726F6D20213D204E554C4CC0
:1071A0000000000066726F6D6C656E20213D204E00
:1071B000554C4C0070B5174D4FF0FF3601291BD0D0
:1071C000022907D0032901D016201FE0D1B2124AAC
:1071D000402004E0882A0DD020200F4A002101F031
:1071E000FDF904000CD00021FBF732FC411C09D052
:1071F000A06170BD2120F0E70021074A1020EEE7D2
:10720000692003E0204600F0EDFF1720286030469B
:1072100070BD00001C010020153D000870B504463B
:10722000134804F03FFA206808B161684160114DCD
:107230002868A04260680AD130B10FA340F20D72F5
:107240001AA120A0FBF73CFA206828600AE030B9B8
:1072500009A34FF4E26225A11AA0FBF731FAD4E9A1
:1072600000010860BDE87040014804F02FBA00003A
:1072700060000020500000202E2E2F4D6964646CA9
:107280006577617265732F54686972645F506172CB
:1072900074792F4C7749502F7372632F6170692F67
:1072A000736F636B6574732E6300000073656C65A8
:1072B00063745F63622D3E70726576203D3D204EA3
:1072C000554C4C00417373657274696F6E202225B2
:1072D0007322206661696C6564206174206C696E3C
:1072E0006520256420696E2025730A0073656C652E
:1072F00063745F63622D3E7072657620213D204E7F
:10730000554C4C000023FFF7E9BDFAF7DBF8FBF71B
:1073100091F8FAF7CFFEFAF79FFFFAF7B7FE02F0FF
:1073200044F9FEE701460020842900D0C81C7047BC
:107330002DE9F041002861D0810704D030A340F24C
:1073400073223BA10DE0434DA0F1080429688C4253
:1073500003D369680C30884207D929A340F27F2201
:107360003DA144A0FBF7ACF92FE03A48083004F007
:1073700099F9207900282ED02888201A86B22088F2
:1073800003F0C0FD0746608803F0BCFD21884FF480
:10739000C863002299420DD8618899420AD8B14247
:1073A00002D00088B04205D16868874218D078883A
:1073B000B04215D012A340F2952238A12DA0FBF7C0
:1073C0007FF92448083004F081F904F0DDF8BDE8C5
:1073D000F04104F001B90AA34FF423723CA1EDE798
:1073E0002271E868844200D2EC60204603F002FA81
:1073F000BDE8F0411748083004F068B9BDE8F081F5
:107400002E2E2F4D6964646C6577617265732F54FD
:10741000686972645F50617274792F4C7749502F9C
:107420007372632F636F72652F6D656D2E6300003D
:107430006D656D5F667265653A2073616E6974791A
:1074400020636865636B20616C69676E6D656E743F
:1074500000000000640000206D656D5F6672656568
:107460003A20696C6C6567616C206D656D6F72792F
:1074700000000000417373657274696F6E202225ED
:107480007322206661696C6564206174206C696E8A
:107490006520256420696E2025730A006D656D5F87
:1074A000667265653A20696C6C6567616C206D6514
:1074B0006D6F72793A206E6F6E2D6C696E6B6564BC
:1074C0003A20646F75626C65206672656500000025
:1074D0006D656D5F667265653A20696C6C656761A4
:1074E0006C206D656D6F72793A20646F75626C65A2
:1074F000206672656500000070B51248124C20F0DD
:1075000003014FF4C86521600D8000204880087198
:10751000284603F0F7FC0121606001710580458079
:107520002068E06004F1080004F0C1F8002808D0E9
:10753000BDE8704005A340F21F2210A116A0FBF782
:10754000BFB870BDCF540020640000202E2E2F4DF8
:107550006964646C6577617265732F5468697264DD
:107560005F50617274792F4C7749502F7372632F7B
:10757000636F72652F6D656D2E6300006661696CC7
:10758000656420746F20637265617465206D656D3C
:107590005F6D757465780000417373657274696F0F
:1075A0006E2022257322206661696C6564206174F7
:1075B000206C696E6520256420696E2025730A00A1
:1075C0002DE9F04700280ED0C41C4FF6FC710C408A
:1075D0004FF4C8690C2C01D20C2401E04C4501D8B1
:1075E000844202D20020BDE8F087444804F05AF8F3
:1075F0004248C4F5C8670838824681890288891ADA
:107600008EB274E0304603F07DFC05460079002818
:107610006AD12888801B0838A04265D3288804F1E5
:107620001401801B08384FF0010888421DD330191F
:10763000083087B24F4506D131A340F287323CA1D2
:1076400040A0FBF73DF8384603F05CFC00210171D7
:107650002988018046802F8085F80480008848456D
:1076600005D003F04FFC478001E085F80480DAF88C
:107670000C005646854203D014E0008803F042FC1B
:10768000017911B171688842F7D1F0607168884260
:1076900008D0007930B11AA340F2B53233A129A045
:1076A000FBF70EF8154804F011F828197168083036
:1076B000884206D912A340F2B93233A121A0FAF7C9
:1076C000FFFFA8070DD00EA340F2BB323AA11DA0C8
:1076D000FAF7F6FF0AA340F2BD3243A119A0FAF768
:1076E000EFFF05F108007EE7DAF80000865BB7429D
:1076F00088D8024803F0EAFF74E700006C0000201D
:107700002E2E2F4D6964646C6577617265732F54FA
:10771000686972645F50617274792F4C7749502F99
:107720007372632F636F72652F6D656D2E6300003A
:10773000696E76616C6964206E657874207074720D
:1077400000000000417373657274696F6E2022251A
:107750007322206661696C6564206174206C696EB7
:107760006520256420696E2025730A006D656D5FB4
:107770006D616C6C6F633A20216C667265652D3E9D
:1077800075736564000000006D656D5F6D616C6C04
:107790006F633A20616C6C6F6361746564206D6522
:1077A0006D6F7279206E6F742061626F76652072E2
:1077B000616D5F656E642E006D656D5F6D616C6CF3
:1077C0006F633A20616C6C6F6361746564206D65F2
:1077D0006D6F72792070726F7065726C7920616C58
:1077E00069676E65642E00006D656D5F6D616C6C20
:1077F0006F633A2073616E69747920636865636BA7
:1078000020616C69676E6D656E74000002490988BD
:10781000401A80B270470000640000202DE9F05F3C
:107820000646CC1C4FF6FC7004404FF4C86A0C2C82
:1078300001D20C2401E054452FD88C422DD3464F61
:107840003868864202D37868864206D343A340F262
:10785000D1224EA153A0FAF733FF3868864202D3F3
:1078600079688E4204D303F08FFE03F0B5FE19E071
:10787000A6F10805BB46281A87B22888C01B08381D
:107880001FFA80F94C4506D934A34FF439724FA141
:1078900044A0FAF715FF4C4503D94FF00000BDE8AE
:1078A000F09F01D13046FAE72B4800F1080003F0C1
:1078B000F9FE288803F026FB8046007900282AD0AC
:1078C00004F11400484521D83819083084B22888BA
:1078D000504506D121A340F2163244A131A0FAF757
:1078E000EFFE204603F00EFBDBF80C20904201D2A5
:1078F000CBF80C00002101712988018047802C8081
:107900000088504502D003F0FDFA44801248083048
:1079100003F0DCFEC6E72888504506D10FA340F2ED
:10792000F52232A11FA0FAF7CBFE38190830DBF898
:107930000C10B8F8009084B2414504D1204603F001
:10794000E1FACBF80C00204603F0DCFA00210171CB
:10795000A0F80090D2E70000640000202E2E2F4DEA
:107960006964646C6577617265732F5468697264C9
:107970005F50617274792F4C7749502F7372632F67
:10798000636F72652F6D656D2E6300006D656D5FB1
:107990007472696D3A206C6567616C206D656D6FFE
:1079A00072790000417373657274696F6E202225CD
:1079B0007322206661696C6564206174206C696E55
:1079C0006520256420696E2025730A006D656D5F52
:1079D0007472696D2063616E206F6E6C79207368BC
:1079E00072696E6B206D656D6F727900696E76617C
:1079F0006C6964206E6578742070747200000000F9
:107A00000D2806D307A34FF4D57212A118A0FAF7D8
:107A100057BE002904D0204A52F82000FBF78CB84A
:107A2000704700002E2E2F4D6964646C657761727B
:107A300065732F54686972645F50617274792F4C5A
:107A40007749502F7372632F636F72652F6D656D69
:107A5000702E63006D656D705F667265653A2074A7
:107A6000797065203C204D454D505F4D41580000D8
:107A7000417373657274696F6E20222573222066CC
:107A800061696C6564206174206C696E6520256491
:107A900020696E2025730A00E83A010818B1002910
:107AA00008D0FBF749B804A340F295120EA113A029
:107AB000FAF706BE704700002E2E2F4D6964646CE5
:107AC0006577617265732F54686972645F50617283
:107AD00074792F4C7749502F7372632F636F7265DF
:107AE0002F6D656D702E6300696E76616C69642020
:107AF000706F6F6C20646573630000004173736581
:107B00007274696F6E2022257322206661696C652C
:107B100064206174206C696E6520256420696E2084
:107B200025730A0030B5064D002400BF55F8240027
:107B300000F008F8641CA4B20D2CF7D330BD00008F
:107B4000E83A01088268002111604168C91C21F0EF
:107B50000301002207E08368521C1B680B608368E6
:107B600019600388194443889342F4DC704700008D
:107B700010B50D2808D308A340F2571212A11AA07D
:107B8000FAF79EFD002010BD214951F82000BDE804
:107B90001040FBF725B800002E2E2F4D6964646C51
:107BA0006577617265732F54686972645F506172A2
:107BB00074792F4C7749502F7372632F636F7265FE
:107BC0002F6D656D702E63006D656D705F6D616CFE
:107BD0006C6F633A2074797065203C204D454D50A0
:107BE0005F4D415800000000417373657274696F06
:107BF0006E2022257322206661696C6564206174A1
:107C0000206C696E6520256420696E2025730A004A
:107C1000E83A010810B518B1BDE81040FAF7E0BF26
:107C200004A34FF49E720FA113A0FAF749FD0020A0
:107C300010BD00002E2E2F4D6964646C6577617253
:107C400065732F54686972645F50617274792F4C48
:107C50007749502F7372632F636F72652F6D656D57
:107C6000702E6300696E76616C696420706F6F6C52
:107C70002064657363000000417373657274696FFB
:107C80006E2022257322206661696C656420617410
:107C9000206C696E6520256420696E2025730A00BA
:107CA00010B504000CD0206820B102F0C3FA002007
:107CB000606020602146BDE810400620FFF7A0BEAE
:107CC00010BD000010B5040007D0206808B102F014
:107CD000B1FA00206060206010BDBDE8104003A331
:107CE00081220FA115A0FAF7EBBC00002E2E2F4D1C
:107CF0006964646C6577617265732F546869726436
:107D00005F50617274792F4C7749502F7372632FD3
:107D10006170692F6E65746275662E6300000000E5
:107D20006E65746275665F667265653A20696E7627
:107D3000616C6964206275660000000041737365C0
:107D40007274696F6E2022257322206661696C65EA
:107D500064206174206C696E6520256420696E2042
:107D600025730A0070B515460E46040014D020682D
:107D700008B102F05FFA41220021362001F044FEF2
:107D80002060002811D04660206805812068458168
:107D900020686060002070BD06A3992212A118A07F
:107DA000FAF78EFC6FF00F0070BD00206060401E7F
:107DB00070BD00002E2E2F4D6964646C6577617272
:107DC00065732F54686972645F50617274792F4CC7
:107DD0007749502F7372632F6170692F6E657462DB
:107DE00075662E63000000006E65746275665F72D2
:107DF00065663A20696E76616C696420627566001A
:107E0000417373657274696F6E2022257322206638
:107E100061696C6564206174206C696E65202564FD
:107E200020696E2025730A00FEB50D0004466FF030
:107E30000F0615D000202860BCB1204600F02FFAB4
:107E40008DF80000002821D104F11400074603F04A
:107E500024FC761C002832D0207FC1072FD10CE0F3
:107E600018A340F2E11224A103E016A340F2E312AA
:107E700029A131A0FAF724FC21E0800707D501A948
:107E8000384603F06FFB401C06D1C01FFEBD002228
:107E900001A9384603F044FB636A1BB100220121AB
:107EA0002046984769460198FEF710FB10B19DF9EE
:107EB0000000FEBD019810B128600020FEBD3046D4
:107EC000FEBD00002E2E2F4D6964646C65776172D3
:107ED00065732F54686972645F50617274792F4CB6
:107EE0007749502F7372632F6170692F6170695FDA
:107EF0006C69622E630000006E6574636F6E6E5F66
:107F00006163636570743A20696E76616C696420A0
:107F1000706F696E746572006E6574636F6E6E5F0C
:107F20006163636570743A20696E76616C69642080
:107F3000636F6E6E00000000417373657274696F49
:107F40006E2022257322206661696C65642061744D
:107F5000206C696E6520256420696E2025730A00F7
:107F60002DE9F04107460E460720FFF701FE041EEB
:107F700026D000252572277007F0F00065601028D4
:107F800009D0202807D016A340F2E52221A12BA07A
:107F9000FAF796FB0FE004F110000621074603F004
:107FA00059FB40B9002104F10C0003F097FB48B1E4
:107FB000384603F045FB21460720FFF721FD00204E
:107FC000BDE8F08104F1140003F05AFB65704FF036
:107FD000FF30A061C4E9085625772046F0E700008D
:107FE0002E2E2F4D6964646C6577617265732F5412
:107FF000686972645F50617274792F4C7749502FB1
:108000007372632F6170692F6170695F6D73672E82
:10801000630000006E6574636F6E6E5F616C6C6F01
:10802000633A20756E646566696E6564206E65747A
:10803000636F6E6E5F7479706500000041737365E5
:108040007274696F6E2022257322206661696C65E7
:1080500064206174206C696E6520256420696E203F
:1080600025730A0010B50A680C460C3209F064FB4F
:10807000002801D194F9040010BD000000B589B0BA
:1080800010B100290BD00BE00AA34FF49C7216A18B
:108090001CA0FAF715FB6FF00F0009B000BD2349D3
:1080A00002910090ADF80C2069462148FFF7DAFFF5
:1080B000F3E700002E2E2F4D6964646C65776172C2
:1080C00065732F54686972645F50617274792F4CC4
:1080D0007749502F7372632F6170692F6170695FE8
:1080E0006C69622E630000006E6574636F6E6E5F74
:1080F00062696E643A20696E76616C696420636FB0
:108100006E6E0000417373657274696F6E20222574
:108110007322206661696C6564206174206C696EED
:108120006520256420696E2025730A00883B0108BC
:108130005557000800B589B058B100908DF8081067
:1081400029208DF8090069460748FFF78BFF09B021
:1081500000BD06A340F2474211A118A0FAF7B0FAF9
:108160006FF00F00F3E700008D5700082E2E2F4D03
:108170006964646C6577617265732F5468697264B1
:108180005F50617274792F4C7749502F7372632F4F
:108190006170692F6170695F6C69622E6300000015
:1081A0006E6574636F6E6E5F636C6F73653A2069A2
:1081B0006E76616C696420636F6E6E0041737365E7
:1081C0007274696F6E2022257322206661696C6566
:1081D00064206174206C696E6520256420696E20BE
:1081E00025730A0070B5050004D000F0B3FA04004E
:1081F00002D004E0002070BD284600F05FF8204661
:1082000070BD7CB504461030064603F046FAF0B166
:1082100001256946304603F0A5F9401C11D02078AD
:10822000B5EB101F09D101A90098FEF74FF90028FE
:10823000EFD1009801F0FEFFEBE70098FFF730FD6B
:10824000E7E7304603F0FCF9304603F019FA04F191
:108250001400064603F021FA00281FD000256946C5
:10826000304603F07FF9401C12D001A90098FEF7B8
:108270002DF90028F3D1009C2046FFF7C2FF60686B
:1082800010B103F041FC6560204600F017F8E6E706
:10829000304603F0D5F9304603F0F2F97CBD70B5F5
:1082A000040009D003F070F994F9085000212172FC
:1082B00003F092F9284670BD002070BD70B50446E9
:1082C0004068002806D017A34FF4477222A12EA0C1
:1082D000FAF7F6F904F1100003F0DFF9002806D0F0
:1082E00010A340F2233232A127A0FAF7E9F904F1F2
:1082F000140003F0D2F9002806D00AA340F2263277
:108300003AA121A0FAF7DCF904F10C00054603F0CC
:10831000E2F9284603F0F8F92146BDE8704007204D
:10832000FFF76EBB2E2E2F4D6964646C657761720A
:1083300065732F54686972645F50617274792F4C51
:108340007749502F7372632F6170692F6170695F75
:108350006D73672E63000000504342206D75737487
:10836000206265206465616C6C6F63617465642074
:108370006F75747369646520746869732066756EBF
:108380006374696F6E000000417373657274696F86
:108390006E2022257322206661696C6564206174F9
:1083A000206C696E6520256420696E2025730A00A3
:1083B000726563766D626F78206D75737420626587
:1083C000206465616C6C6F636174656420626566CE
:1083D0006F72652063616C6C696E67207468697385
:1083E0002066756E6374696F6E000000616363657B
:1083F00070746D626F78206D75737420626520648F
:1084000065616C6C6F6361746564206265666F7230
:10841000652063616C6C696E67207468697320669F
:10842000756E6374696F6E0010B588B06FF00F04DD
:1084300068B189B1002A14D0CDE9021200908DF8FC
:10844000103069460B48FFF70DFE08B010BD0AA3B7
:108450004FF4897215A108E007A340F213121BA183
:1084600003E005A34FF48A7220A128A0FAF728F9A7
:108470002046EAE71D5D00082E2E2F4D6964646CCE
:108480006577617265732F54686972645F506172B9
:1084900074792F4C7749502F7372632F6170692F55
:1084A0006170695F6C69622E630000006E657463C1
:1084B0006F6E6E5F676574616464723A20696E7690
:1084C000616C696420636F6E6E0000006E6574639A
:1084D0006F6E6E5F676574616464723A20696E7670
:1084E000616C696420616464720000006E6574638D
:1084F0006F6E6E5F676574616464723A20696E7650
:10850000616C696420706F72740000004173736560
:108510007274696F6E2022257322206661696C6512
:1085200064206174206C696E6520256420696E206A
:1085300025730A0000B589B030B10090694607483C
:10854000FFF790FD09B000BD05A340F2BB1211A1D9
:1085500018A0FAF7B5F86FF00F00F3E7015E000816
:108560002E2E2F4D6964646C6577617265732F548C
:10857000686972645F50617274792F4C7749502F2B
:108580007372632F6170692F6170695F6C69622E0D
:10859000630000006E6574636F6E6E5F6C69737468
:1085A000656E3A20696E76616C696420636F6E6EE9
:1085B00000000000417373657274696F6E2022259C
:1085C0007322206661696C6564206174206C696E39
:1085D0006520256420696E2025730A0070B50D465C
:1085E00088B01146FFF7BCFC040042D08DF808505B
:1085F000694621480094FFF735FD002839D06068AE
:10860000002805D01DA3A32229A132A0FAF758F80B
:1086100004F11000054603F040F828B917A3A4227E
:1086200036A12CA0FAF74CF804F1140003F035F849
:10863000002805D011A3A62236A126A0FAF740F8FB
:1086400004F10C00064603F065F828B90BA3A92233
:1086500039A120A0FAF734F8304603F03CF8284658
:1086600002F0EEFF21460720FFF7CAF9002008B00C
:1086700070BD2046FBE70000BD5E00082E2E2F4D8A
:108680006964646C6577617265732F54686972649C
:108690005F50617274792F4C7749502F7372632F3A
:1086A0006170692F6170695F6C69622E6300000000
:1086B00066726565696E6720636F6E6E2077697498
:1086C000686F75742066726565696E672070636295
:1086D00000000000417373657274696F6E2022257B
:1086E0007322206661696C6564206174206C696E18
:1086F0006520256420696E2025730A00636F6E6E05
:1087000020686173206E6F20726563766D626F788A
:1087100000000000636F6E6E2D3E616363657074D0
:108720006D626F782073686F756C646E2774206556
:108730007869737400000000636F6E6E2068617367
:10874000206E6F206F705F636F6D706C6574656411
:108750000000000000B589B0002807D00090292053
:108760008DF8090069460248FFF77CFC09B000BD9E
:10877000855B00082DE9FC4104464FF000001746D8
:108780000D006FF00F06009011D02860A4B104F125
:108790001000804602F081FF761D002814D0207F53
:1087A000810719D4790717D4C00715D112E02AA37D
:1087B0004FF4127235A103E027A340F24A223BA1F5
:1087C00041A0F9F77DFF15E02046FFF768FD00287E
:1087D00011D10FE0207A98B16946404602F0C2FEFE
:1087E000401C12D12046FFF75AFD002803D1207FFC
:1087F000C00702D03046BDE8FC816FF00600FAE702
:1088000000226946404602F08BFE20780121B1EB40
:10881000101F0DD101A90098FDF758FE30B19DF948
:10882000040010F10F0FE6D10020E4E700980AE001
:10883000009830B908A340F291222DA122A0F9F7A7
:108840003FFF00980068636A028913B10121204646
:10885000984700982860E7E72E2E2F4D6964646CD6
:108860006577617265732F54686972645F506172D5
:1088700074792F4C7749502F7372632F6170692F71
:108880006170695F6C69622E630000006E657463DD
:108890006F6E6E5F726563763A20696E76616C69A1
:1088A0006420706F696E7465720000006E65746399
:1088B0006F6E6E5F726563763A20696E76616C6981
:1088C0006420636F6E6E0000417373657274696F2C
:1088D0006E2022257322206661696C6564206174B4
:1088E000206C696E6520256420696E2025730A005E
:1088F00062756620213D204E554C4C00F0B5044673
:1089000089B017460D46103002F0C7FE30B1207F07
:10891000010607D500F07F00207721E06FF00A0004
:1089200009B0F0BD3A4629462046FFF723FF06006E
:10893000F6D12D68380707D40DB1298900E001214F
:108940006A46204600F080F90DB13046E8E7F806A7
:1089500006D5207F40F0800020776FF00600DFE72B
:10896000636A1BB10022012120469847606830B13C
:1089700001212046FFF7DEFB6FF00E00D0E7204616
:10898000FFF78DFC0028CBD16FF00D00C8E7000089
:1089900010B520B103780124B4EB131F09D007A34D
:1089A00040F2253212A11BA0F9F78AFE6FF00F00EA
:1089B00010BDBDE81040FFF7A1BF00002E2E2F4DC7
:1089C0006964646C6577617265732F546869726459
:1089D0005F50617274792F4C7749502F7372632FF7
:1089E0006170692F6170695F6C69622E63000000BD
:1089F0006E6574636F6E6E5F726563765F746370CD
:108A00005F706275663A20696E76616C6964206396
:108A10006F6E6E00417373657274696F6E202225EC
:108A20007322206661696C6564206174206C696ED4
:108A30006520256420696E2025730A0010B520B1D9
:108A400003780124B4EB131F09D107A34FF4537229
:108A500012A11DA0F9F734FE6FF00F0010BDBDE8A4
:108A60001040FFF787BE00002E2E2F4D6964646C06
:108A70006577617265732F54686972645F506172C3
:108A800074792F4C7749502F7372632F6170692F5F
:108A90006170695F6C69622E630000006E657463CB
:108AA0006F6E6E5F726563765F7564705F7261771B
:108AB0005F6E65746275663A20696E76616C696492
:108AC00020636F6E6E000000417373657274696F8E
:108AD0006E2022257322206661696C6564206174B2
:108AE000206C696E6520256420696E2025730A005C
:108AF00000B589B038B10291009069460748FFF788
:108B0000B1FA09B000BD06A340F2B23211A118A01B
:108B1000F9F7D6FD6FF00F00F3E70000115F0008D2
:108B20002E2E2F4D6964646C6577617265732F54C6
:108B3000686972645F50617274792F4C7749502F65
:108B40007372632F6170692F6170695F6C69622E47
:108B5000630000006E6574636F6E6E5F73656E64B4
:108B60003A20696E76616C696420636F6E6E0000F6
:108B7000417373657274696F6E20222573222066BB
:108B800061696C6564206174206C696E6520256480
:108B900020696E2025730A0000B589B020B10278E3
:108BA0000123B3EB121F0AD007A340F2B52213A191
:108BB0001BA0F9F785FD6FF00F0009B000BD6A46F4
:108BC00000F042F8F9E700002E2E2F4D6964646C26
:108BD0006577617265732F54686972645F50617262
:108BE00074792F4C7749502F7372632F6170692FFE
:108BF0006170695F6C69622E630000006E6574636A
:108C00006F6E6E5F726563765F7463705F706275BE
:108C1000663A20696E76616C696420636F6E6E00DF
:108C2000417373657274696F6E202225732220660A
:108C300061696C6564206174206C696E65202564CF
:108C400020696E2025730A0010B520B10378012435
:108C5000B4EB131F09D009A340F2A72214A11DA051
:108C6000F9F72EFD6FF00F0010BD91601060BDE8A8
:108C7000104011462148FFF7F5B900002E2E2F4D68
:108C80006964646C6577617265732F546869726496
:108C90005F50617274792F4C7749502F7372632F34
:108CA0006170692F6170695F6C69622E63000000FA
:108CB0006E6574636F6E6E5F726563765F7463700A
:108CC0005F706275663A20696E76616C69642063D4
:108CD0006F6E6E00417373657274696F6E2022252A
:108CE0007322206661696C6564206174206C696E12
:108CF0006520256420696E2025730A00CF5E000878
:108D00003EB5069C0094CDE90112012201A900F0B4
:108D100001F83EBD2DE9F04188B000280E9E0ED02E
:108D2000047801256FF00508B5EB141F13D02BA3B1
:108D300040F2EF3236A13FA0F9F7C2FC3CE027A396
:108D400040F2EE3245A13BA0F9F7BAFC6FF00F00FC
:108D500008B0BDE8F081047FA40701D45C0702D508
:108D600001274EB300E000270024254608E000BF9D
:108D700001EBC50CDCF804C06444A4451CD86D1C90
:108D80009542F5DBB4B1B4F1004F02D3A6B16FF058
:108D90000044029100900020ADF80C2004908DF862
:108DA0001C30CDE9054069463348FFF75BF9050003
:108DB00004D011E00020CBE74046C9E70EB1069889
:108DC00030604FB90698A04206D004A34FF48662E3
:108DD0002AA118A0F9F774FC2846B9E72E2E2F4DCA
:108DE0006964646C6577617265732F546869726435
:108DF0005F50617274792F4C7749502F7372632FD3
:108E00006170692F6170695F6C69622E6300000098
:108E10006E6574636F6E6E5F77726974653A206910
:108E20006E76616C696420636F6E6E2D3E7479702E
:108E300065000000417373657274696F6E202225AE
:108E40007322206661696C6564206174206C696EB0
:108E50006520256420696E2025730A006E657463A1
:108E60006F6E6E5F77726974653A20696E76616CB9
:108E7000696420636F6E6E00555F0008646F5F77F2
:108E800072697465206661696C656420746F20770F
:108E90007269746520616C6C20627974657300007E
:108EA0002DE9F0470400DDE90970089D03D03FB1CA
:108EB00000290DD00DE035A340F2271240A103E0B8
:108EC00032A34FF4947245A14DA0F9F7F9FB1DE0D0
:108ED000554902B9544A03B9534B00266660A6604F
:108EE000DFF848C1C4F814C0E660A68484F82D6099
:108EF000C4E907654E4D95F800C084F830C0206184
:108F0000204600F0B7F92046B84710B10020BDE870
:108F1000F087B24640F28B1840F28D1994F8300079
:108F2000FF2801D184F830A000276E681EE0A64219
:108F300005D116A342463FA131A0F9F7C1FB7F1C22
:108F4000FF2F05DD11A34A463FA12DA0F9F7B8FB7D
:108F500096F8300094F83010884206D1C8B2401C10
:108F600084F83000002ED9D102E03668002EDED120
:108F700094F83000FE2806D0401C287068682060F5
:108F800020466C60C3E785F800A0F7E72E2E2F4D32
:108F90006964646C6577617265732F546869726483
:108FA0005F50617274792F4C7749502F7372632F21
:108FB000636F72652F6E657469662E630000000032
:108FC0006E657469665F6164643A20696E76616C8F
:108FD0006964206E65746966000000006E657469DE
:108FE000665F6164643A204E6F20696E6974206622
:108FF000756E6374696F6E20676976656E00000038
:10900000417373657274696F6E2022257322206626
:1090100061696C6564206174206C696E65202564EB
:1090200020696E2025730A00883B01086D920008B4
:10903000A80000206E6574696620616C72656164C9
:109040007920616464656400746F6F206D616E796E
:10905000206E65746966732C206D61782E2073759F
:1090600070706F72746564206E756D6265722069D0
:10907000732032353500000070B50C46054604F00B
:109080005DFA21462846BDE8704008F0F7BE0A6840
:10909000C3689A4204D001B90022C260012070471F
:1090A00000207047F8B515460C00064606D113A3FC
:1090B00040F2CB121EA122A0F9F702FB35B90FA393
:1090C0004FF4E6721AA11EA0F9F7FAFA2168706847
:1090D000814210D00091286069462846FFF7CCFFF6
:1090E0003CB1206870600121304600F05FF801203B
:1090F000F8BD0020F6E70020F8BD00002E2E2F4D11
:109100006964646C6577617265732F546869726411
:109110005F50617274792F4C7749502F7372632FAF
:10912000636F72652F6E657469662E6300000000C0
:10913000696E76616C696420706F696E7465720027
:10914000417373657274696F6E20222573222066E5
:1091500061696C6564206174206C696E65202564AA
:1091600020696E2025730A000A6883689A4204D039
:1091700001B9002282600120704700207047000082
:1091800001000CD00748406807E000BF90F830208D
:10919000521CD2B28A4203D000680028F6D10020C7
:1091A00070470000A80000207047000070B50D4611
:1091B000040006D10DA340F26D3219A121A0F9F7E8
:1091C0007FFA94F82D0041070ED5C1070CD0E907AE
:1091D0000AD06168002907D0000705D5211D204667
:1091E000BDE87040FAF732BB70BD00002E2E2F4D47
:1091F0006964646C6577617265732F546869726421
:109200005F50617274792F4C7749502F7372632FBE
:10921000636F72652F6E657469662E6300000000CF
:109220006E657469665F69737375655F7265706F8B
:109230007274733A20696E76616C6964206E65742D
:1092400069660000417373657274696F6E20222530
:109250007322206661696C6564206174206C696E9C
:109260006520256420696E2025730A006FF00B00CD
:10927000704700002DE9F84F4FF000091D461646D3
:109280000C008246C84600D1114C06B9104E05B9F3
:109290000F4DACB1206898B100274A463146504680
:1092A000FFF762FF424629465046FFF7F0FE002FC7
:1092B00004D16A4621465046FFF7F4FEBDE8F88F18
:1092C00001276A4621465046FFF7ECFEE5E700001D
:1092D000883B01080149886070470000A800002011
:1092E00058B190F82D10CA070ED001F0FE0180F899
:1092F0002D10090708D5F9F7C1BD04A340F29B3230
:109300000FA117A0F9F7DCB9704700002E2E2F4DE2
:109310006964646C6577617265732F5468697264FF
:109320005F50617274792F4C7749502F7372632F9D
:10933000636F72652F6E657469662E6300000000AE
:109340006E657469665F7365745F646F776E3A20EB
:10935000696E76616C6964206E65746966000000F0
:10936000417373657274696F6E20222573222066C3
:1093700061696C6564206174206C696E6520256488
:1093800020696E2025730A00002800D0C161704753
:1093900058B190F82D104A070ED501F0FB0180F866
:1093A0002D10C169002907D0084704A340F20642E6
:1093B0000FA118A0F9F784B9704700002E2E2F4D89
:1093C0006964646C6577617265732F54686972644F
:1093D0005F50617274792F4C7749502F7372632FED
:1093E000636F72652F6E657469662E6300000000FE
:1093F0006E657469665F7365745F6C696E6B5F64DC
:109400006F776E3A20696E76616C6964206E657460
:1094100069660000417373657274696F6E2022255E
:109420007322206661696C6564206174206C696ECA
:109430006520256420696E2025730A0010B504009C
:1094400012D094F82D00410717D440F0040084F89E
:109450002D0003212046FFF7A9FEE16900290CD069
:109460002046BDE810400847BDE8104003A34FF474
:1094700078720FA117A0F9F723B910BD2E2E2F4D2A
:109480006964646C6577617265732F54686972648E
:109490005F50617274792F4C7749502F7372632F2C
:1094A000636F72652F6E657469662E63000000003D
:1094B0006E657469665F7365745F6C696E6B5F750A
:1094C000703A20696E76616C6964206E65746966B5
:1094D00000000000417373657274696F6E2022256D
:1094E0007322206661696C6564206174206C696E0A
:1094F0006520256420696E2025730A0050B190F81C
:109500002D10CA070DD141F0010180F82D10032163
:10951000FFF74CBE03A34FF454720FA115A0F9F747
:10952000CFB870472E2E2F4D6964646C65776172D9
:1095300065732F54686972645F50617274792F4C3F
:109540007749502F7372632F636F72652F6E657446
:1095500069662E63000000006E657469665F73655E
:10956000745F75703A20696E76616C6964206E650F
:1095700074696600417373657274696F6E20222589
:109580007322206661696C6564206174206C696E69
:109590006520256420696E2025730A0010B500B986
:1095A000012009F01FFA002010BD10B509F00CFBD6
:1095B000002010BD10B5FAF701FE18B1BDE810404B
:1095C0000AF042B8BDE810400AF038B838B5D0E922
:1095D000011204683AB1C3682BB100200090204604
:1095E00009F011FC38BD2046BDE83840002209F0E2
:1095F000E9BB10B50446FAF7E1FD08B1822010BDC1
:10960000204609F0BBF8002010BD00002DE9FF4105
:109610000D004FF00006CDE9016507461ED000247D
:109620000396501C1FD002B11446FAF7C7FD6946D5
:109630004FF01008E8B103AA2846091D09F054FEAE
:10964000012813D000960398E8B114494FF08050D8
:109650000860BFF34F8FBFF36F8F14E08020314657
:109660002A46009011E04FF0FF34DEE7CDF800808D
:10967000E9E722462846091D09F09AFD012808D08D
:1096800054B1402000909DE8070087E80700BDE83E
:10969000FF81CDF80080F6E70020F3E704ED00E05D
:1096A00037B5054682B000200090140000D1012497
:1096B000FAF784FD4FF0000388B16A4603A92846F3
:1096C00009F0C8FC012811D1009890B10A494FF067
:1096D00080500860BFF34F8FBFF36F8F09E02246C1
:1096E00003A9284609F006FC012802D0FF2005B096
:1096F00030BD0020FBE7000004ED00E010B504469B
:10970000FAF75CFD0028204603D0BDE8104008F0C1
:109710004CBFBDE8104008F036BF41684FF0010073
:1097200009B109F042BB09F035BB000038B500248F
:1097300005460094FAF742FD90B16946284609F0C3
:10974000E8FC012801D0FF2038BD009888B10A4903
:109750004FF080500860BFF34F8FBFF36F8F08E06A
:1097600000231A461946284609F0C4FB012800D0F8
:10977000FF24204638BD000004ED00E038B50500A8
:109780004FF0000000900FD00024481C0ED001B113
:109790000C46FAF713FDB8B16A460021284609F0D5
:1097A000A3FD012816D104E0802038BD4FF0FF341E
:1097B000EFE7009880B109494FF080500860BFF38F
:1097C0004F8FBFF36F8F07E02146284609F0DAFD7F
:1097D000012801D0FF2038BD002038BD04ED00E095
:1097E00038B543684BB1012909D10320002200900C
:1097F0001146012009F007FB38BD012901D00020E6
:1098000038BD03220021012009F0DCFA040004D055
:1098100000231A46194609F06DFB204638BD10B5E5
:109820000446FAF7CBFC08B1822010BD204608F0B0
:10983000A5FF002010BD000038B5002405460094A7
:10984000FAF7BCFC90B16946284609F062FC012891
:1098500001D0FF2038BD009888B10A494FF08050F0
:109860000860BFF34F8FBFF36F8F08E000231A46E5
:109870001946284609F03EFB012800D0FF24204667
:1098800038BD000004ED00E038B505004FF00000E1
:1098900000900FD00024481C0ED001B10C46FAF7FE
:1098A0008DFCB8B16A460021284609F01DFD01284B
:1098B00016D104E0802038BD4FF0FF34EFE7009868
:1098C00080B109494FF080500860BFF34F8FBFF35C
:1098D0006F8F07E02146284609F054FD012801D08A
:1098E000FF2038BD002038BD04ED00E07FB50D46F7
:1098F00004464169B0F9080081B1A16971B1FDF771
:1099000011FDD4E905128DE80700D4E900102B46BB
:10991000226909F05AFE039004B070BDFDF702FD04
:1099200003A9CDE90001208A2B4682B2D4E90010B8
:1099300009F01EFE012801D00020EDE70398EBE7B7
:10994000002200F001B8000070B5A8B1B1F5803F69
:1099500026D2002918D004898BB214FA81F5ADB251
:109960009D421DD3057B2D0610D54268511A00F18A
:109970001002914214D30CE00AA340F2DF1215A1A9
:1099800017A0F8F79DFE0BE0002070BD42B14268C1
:10999000511A4160418919444181E1180181F3E77D
:1099A000012070BD2E2E2F4D6964646C6577617245
:1099B00065732F54686972645F50617274792F4CBB
:1099C0007749502F7372632F636F72652F706275C2
:1099D000662E63007020213D204E554C4C00000047
:1099E000417373657274696F6E202225732220663D
:1099F00061696C6564206174206C696E6520256402
:109A000020696E2025730A002DE9FE4F0546904619
:109A10000F461046012A11D041280FD04FF0000AFE
:109A2000B0F5C17F10D0B2F5207F67D04AA340F2D5
:109A3000271255A15BA0F8F743FE8BE002460020F9
:109A400000F010F9044682E00024A1460C20FEF745
:109A50008FF8060036D0E81C029020F00300C0F515
:109A60001470B84200D93846834670191330CDE9D6
:109A7000008A20F003015B463A46304600F0E0FCE5
:109A80003079800706D034A34FF480724FA145A0EF
:109A9000F8F716FE02989421B1EB900F06D12EA391
:109AA0004FF4817255A13FA0F8F70AFE24B3C9F81C
:109AB0000060A7EB0B000704B1463F0C4FF0000518
:109AC000C4D144E001F060FD594D2E780121297088
:109AD00001F082FD56B90021564807F03BFF28B13E
:109AE00001F052FD85F800A001F076FD002C31D088
:109AF000204600F09FFB2DE03446DAE7E81C20F01A
:109B00000302F81C20F00301501880B200F110028B
:109B100092B281421ED891421CD81046FDF750FDEA
:109B2000040017D060191330CDE9008A20F003013A
:109B30003B461A46204600F083FC2079800706D079
:109B400005A34FF491723CA116A0F8F7B9FD204689
:109B5000BDE8FE8F0020FBE72E2E2F4D6964646C5C
:109B60006577617265732F54686972645F506172C2
:109B700074792F4C7749502F7372632F636F72651E
:109B80002F706275662E6300706275665F616C6C23
:109B90006F633A206572726F6E656F7573207479AA
:109BA00070650000417373657274696F6E202225C1
:109BB0007322206661696C6564206174206C696E33
:109BC0006520256420696E2025730A007062756621
:109BD0005F616C6C6F633A207062756620712D3E18
:109BE0007061796C6F61642070726F7065726C79EE
:109BF00020616C69676E6564000000005042554644
:109C00005F504F4F4C5F42554653495A45206D7542
:109C10007374206265206269676765722074686189
:109C20006E204D454D5F414C49474E4D454E5400C9
:109C3000B4000020F9A30008706275665F616C6C67
:109C40006F633A20706275662D3E7061796C6F614A
:109C5000642070726F7065726C7920616C69676ED8
:109C6000656400002DE9FC4114460E460746412A72
:109C700008D0012C06D00CA34FF4A57216A11BA08E
:109C8000F8F71EFD0B20FDF773FF05004FF00000F5
:109C900008D0CDE9004033461A463946284600F040
:109CA000CFFB2846BDE8FC812E2E2F4D6964646CE5
:109CB0006577617265732F54686972645F50617271
:109CC00074792F4C7749502F7372632F636F7265CD
:109CD0002F706275662E6300696E76616C69642010
:109CE000706275665F74797065000000417373651A
:109CF0007274696F6E2022257322206661696C651B
:109D000064206174206C696E6520256420696E2072
:109D100025730A007CB51C46DDE90635C01C20F021
:109D200003004618AE4201D900207CBD0BB1184497
:109D300000E000200223CDE900230B4601461A462D
:109D4000204600F07DFB20467CBD000070B50D462E
:109D500008B1002D08D1BDE8704014A340F259327B
:109D60001EA12CA0F8F7ACBC0446006820B12189E4
:109D70002A8911442181F7E72089618988420FD01F
:109D80000AA340F262322DA122A0F8F799FC2068C4
:109D900030B106A340F2633234A11EA0F8F790FC64
:109DA0002089298908442081256070BD2E2E2F4DE1
:109DB0006964646C6577617265732F546869726455
:109DC0005F50617274792F4C7749502F7372632FF3
:109DD000636F72652F706275662E6300286820219C
:109DE0003D204E554C4C2920262620287420213D0C
:109DF000204E554C4C29202870726F6772616D6D32
:109E000065722076696F6C617465732041504929D1
:109E100000000000417373657274696F6E20222523
:109E20007322206661696C6564206174206C696EC0
:109E30006520256420696E2025730A00702D3E740C
:109E40006F745F6C656E203D3D20702D3E6C656EBD
:109E500020286F66206C61737420706275662069BB
:109E60006E20636861696E2900000000702D3E6EEF
:109E7000657874203D3D204E554C4C0010B50C4685
:109E8000FFF764FF2046BDE8104000F081BB0021D1
:109E900002E0491C006889B20028FAD108467047E0
:109EA00070B5154613890A461946FFF7ADFD040043
:109EB0000CD0294600F042F830B105A340F22452FC
:109EC0000FA114A0F8F7FCFB204670BD002070BD68
:109ED0002E2E2F4D6964646C6577617265732F5403
:109EE000686972645F50617274792F4C7749502FA2
:109EF0007372632F636F72652F706275662E6300D5
:109F0000706275665F636F7079206661696C656405
:109F100000000000417373657274696F6E20222522
:109F20007322206661696C6564206174206C696EBF
:109F30006520256420696E2025730A002DE9F0470D
:109F40004FF000070C4605003E466FF00F0904D0A5
:109F50001CB128892189884204D232A340F2C93237
:109F60003CA145E06FF0050A6889C11B6089801B30
:109F7000814201D3804600E08846606842468119EC
:109F800068683844F6F7C6F9688947444644B842D9
:109F900006D224A340F2D9323AA140A0F8F790FBB0
:109FA0006089B04206D21FA340F2DA3245A13BA03D
:109FB000F8F786FB6089B04201D8246800266889DA
:109FC000B84202D12D68002765B1002C16D06089F7
:109FD0002189884212D1206800280FD011A340F2B5
:109FE000E93215E0002C1BD00EA34FF479723CA18E
:109FF0002AA0F8F765FB4846BDE8F08775B1688987
:10A00000298988420AD1286840B106A340F2EE327D
:10A0100037A122A0F8F754FB5046EDE7002CA3D15E
:10A020000020E9E72E2E2F4D6964646C657761721C
:10A0300065732F54686972645F50617274792F4C34
:10A040007749502F7372632F636F72652F7062753B
:10A05000662E6300706275665F636F70793A207474
:10A060006172676574206E6F742062696720656E27
:10A070006F75676820746F20686F6C6420736F75EC
:10A08000726365006F66667365745F746F203C3D34
:10A0900020705F746F2D3E6C656E000041737365B8
:10A0A0007274696F6E2022257322206661696C6567
:10A0B00064206174206C696E6520256420696E20BF
:10A0C00025730A006F66667365745F66726F6D2034
:10A0D0003C3D20705F66726F6D2D3E6C656E0000BA
:10A0E000705F746F20213D204E554C4C00000000E5
:10A0F000706275665F636F7079282920646F65737D
:10A10000206E6F7420616C6C6F77207061636B657B
:10A110007420717565756573210000002DE9F047A5
:10A12000002716468946B84620B1B9F1000F06D07F
:10A1300004462CE018A340F20A4223A103E016A330
:10A1400040F20B4228A131A0F8F7BAFA0020BDE88E
:10A15000F0872BB16089984202D8181A83B215E0B3
:10A160006089C01A85B2B54200D9354660682A4672
:10A17000C11809EB0700F6F7CDF808EB05001FFA48
:10A1800080F8781987B2701B86B2002324680EB15C
:10A19000002CDED14046DAE72E2E2F4D6964646C28
:10A1A0006577617265732F54686972645F5061727C
:10A1B00074792F4C7749502F7372632F636F7265D8
:10A1C0002F706275662E6300706275665F636F70D4
:10A1D000795F7061727469616C3A20696E76616C46
:10A1E0006964206275660000706275665F636F70F7
:10A1F000795F7061727469616C3A20696E76616C26
:10A2000069642064617461707472000041737365E5
:10A210007274696F6E2022257322206661696C65F5
:10A2200064206174206C696E6520256420696E204D
:10A2300025730A002DE9F041040007D05FF0000506
:10A2400001F0A2F90746A07B50B110E025A34FF41E
:10A25000377230A132A0F8F733FA0020BDE8F08160
:10A2600020A340F2F12238A12DA0F8F729FAA07B13
:10A27000401EC6B2A673384601F0AEF9002E23D1B7
:10A28000207B617B266800F00F0089070CD52069D0
:10A2900030B914A340F2FF2231A121A0F8F710FA3F
:10A2A0002169204688470BE002280FD0012810D0F2
:10A2B000A0B10CA340F20F3232A119A0F8F700FAB6
:10A2C0006D1CEDB23400BBD12846C7E721460C20F7
:10A2D00001E021460B20FDF793FBF1E72046FDF757
:10A2E00027F8EDE72E2E2F4D6964646C6577617257
:10A2F00065732F54686972645F50617274792F4C72
:10A300007749502F7372632F636F72652F70627578
:10A31000662E63007020213D204E554C4C000000FD
:10A32000417373657274696F6E20222573222066F3
:10A3300061696C6564206174206C696E65202564B8
:10A3400020696E2025730A00706275665F6672650B
:10A35000653A20702D3E726566203E203000000078
:10A3600070632D3E637573746F6D5F667265655FB4
:10A3700066756E6374696F6E20213D204E554C4C9E
:10A3800000000000696E76616C6964207062756619
:10A39000207479706500000010B501460748FDF78C
:10A3A0007DFB07480178012906D100210170406832
:10A3B000BDE81040FFF740BA10BD00009C3901080D
:10A3C0000400002070B50D460446002609E06189AE
:10A3D000A9420BD82046691A24688DB20660FFF79F
:10A3E00029FF0DB1002CF2D1204670BD2946204630
:10A3F00000F01CF9F8E7000010B501F0C5F8094AB3
:10A400000021117001F0E8F80748006806E0416F8C
:10A4100019B1BDE8104002F04DBAC0680028F6D16D
:10A4200010BD0000B4000020D00000200122AFF3D6
:10A430000080002902DA494200F0F8B8FFF784BA38
:10A4400070B50024DDE90456C0E900410281438172
:10A450000573467301218173C47370BD2DE9F0410A
:10A460000D46040006D121A34FF4CC722BA131A0DC
:10A47000F8F726F92089A84235D9401B86B240F268
:10A48000AF170CE0281A85B22089801B2081246830
:10A490002CB916A33A4631A126A0F8F711F9608924
:10A4A000A842EFD3207B000715D16089A84212D0C3
:10A4B000607B80070FD4A088001B284481B220460F
:10A4C000FDF7ACF9040006D108A340F2BD1229A1A2
:10A4D00018A0F8F7F5F865812581206808B1FFF725
:10A4E000A9FE00202060BDE8F08100002E2E2F4D37
:10A4F0006964646C6577617265732F54686972640E
:10A500005F50617274792F4C7749502F7372632FAB
:10A51000636F72652F706275662E63007062756678
:10A520005F7265616C6C6F633A207020213D204E34
:10A53000554C4C00417373657274696F6E2022250F
:10A540007322206661696C6564206174206C696E99
:10A550006520256420696E2025730A007062756687
:10A560005F7265616C6C6F633A207120213D204EF3
:10A57000554C4C006D656D5F7472696D2072657429
:10A5800075726E65642071203D3D204E554C4C0027
:10A5900010B5040012D000F0F7FFA17B491CA17395
:10A5A00001F01AF8A07B002808D1BDE8104004A3F0
:10A5B00040F242320EA113A0F8F782B810BD00009D
:10A5C0002E2E2F4D6964646C6577617265732F540C
:10A5D000686972645F50617274792F4C7749502FAB
:10A5E0007372632F636F72652F706275662E6300DE
:10A5F0007062756620726566206F766572666C6F34
:10A6000077000000417373657274696F6E202225B4
:10A610007322206661696C6564206174206C696EC8
:10A620006520256420696E2025730A0010B520B1CD
:10A63000B1F5803F06D3012010BD0FA340F24B229D
:10A6400019A109E000290BD043898AB2934209D2AB
:10A6500009A340F2552217A11EA0F8F731F8EAE746
:10A66000002010BD446821444160991A418101894C
:10A67000891A0181F4E700002E2E2F4D6964646C65
:10A680006577617265732F54686972645F50617297
:10A6900074792F4C7749502F7372632F636F7265F3
:10A6A0002F706275662E63007020213D204E554C40
:10A6B0004C000000696E6372656D656E745F6D615C
:10A6C000676E6974756465203C3D20702D3E6C6535
:10A6D0006E000000417373657274696F6E202225ED
:10A6E0007322206661696C6564206174206C696EF8
:10A6F0006520256420696E2025730A0070B5044624
:10A70000006800254068002806D01AA340F26522A0
:10A7100025A12DA0F7F7D4FF2068007800F0F00005
:10A72000102815D0202801D0FA2020E0284607F074
:10A73000CCFB216848602168C0B10978222901D189
:10A740000121017422682A49506807F0C1FB09E021
:10A75000284602F079FF21684860216830B1084638
:10A7600000F0BCFE20684068002801D1FF20207165
:10A7700070BD00002E2E2F4D6964646C6577617288
:10A7800065732F54686972645F50617274792F4CDD
:10A790007749502F7372632F6170692F6170695F01
:10A7A0006D73672E630000007063625F6E65773AB9
:10A7B0002070636220616C726561647920616C6CE9
:10A7C0006F63617465640000417373657274696FCF
:10A7D0006E2022257322206661696C656420617495
:10A7E000206C696E6520256420696E2025730A003F
:10A7F000D9B100082DE9F041304D04462868844263
:10A8000006D22FA340F2DF1239A13FA0F7F758FF7D
:10A810006868844206D32AA34FF4F07244A13AA098
:10A82000F7F74EFF207930B125A340F2E11247A19E
:10A8300035A0F7F745FF20884FF4C868404506D992
:10A840001FA34FF4F27248A12FA0F7F739FF208819
:10A8500000F058FB0646B44215D0307998B96868C4
:10A86000864210D0E868B04200D1EC603088208089
:10A870003088404507D02046FCF7C8FF074630889F
:10A8800000F040FB4780608800F03CFBA04212D003
:10A89000017900290FD1E968A14200D1E86021883F
:10A8A00001802188414506D0FCF7B0FF054620888D
:10A8B00000F028FB4580BDE8F08100006400002026
:10A8C0002E2E2F4D6964646C6577617265732F5409
:10A8D000686972645F50617274792F4C7749502FA8
:10A8E0007372632F636F72652F6D656D2E63000049
:10A8F000706C75675F686F6C65733A206D656D206D
:10A900003E3D2072616D0000417373657274696F22
:10A910006E2022257322206661696C656420617453
:10A92000206C696E6520256420696E2025730A00FD
:10A93000706C75675F686F6C65733A206D656D202C
:10A940003C2072616D5F656E64000000706C75671D
:10A950005F686F6C65733A206D656D2D3E7573652C
:10A9600064203D3D20300000706C75675F686F6C3F
:10A9700065733A206D656D2D3E6E657874203C3DA3
:10A98000204D454D5F53495A455F414C49474E451F
:10A990004400000010B5040006D11AA34FF4B572AC
:10A9A00025A129A0F7F78CFE6078012802D00428A1
:10A9B00005D00EE001212046FBF772FB09E0206A7A
:10A9C00018B1417A09B1491E417201212046FAF7B6
:10A9D00079FF217FC80613D5606888B1B0F864207C
:10A9E000B2F5866F0CD3B0F86600052808D201F0E6
:10A9F000EF002077636A1BB10022022120469847AE
:10AA0000002010BD2E2E2F4D6964646C6577617235
:10AA100065732F54686972645F50617274792F4C4A
:10AA20007749502F7372632F6170692F6170695F6E
:10AA30006D73672E63000000636F6E6E20213D20F2
:10AA40004E554C4C00000000417373657274696F81
:10AA50006E2022257322206661696C656420617412
:10AA6000206C696E6520256420696E2025730A00BC
:10AA70002DE9F041184C0F460546E6682068001D98
:10AA800007F06EFD38B9206890F82C10012088403E
:10AA9000216981432161681C07D137B12168BDE874
:10AAA000F0410E48091D07F0BBBD20683544B54292
:10AAB0004560216805D2A06BBDE8F041091D07F093
:10AAC00097BD606B091D07F093FDA06A854200D217
:10AAD000A562BDE8F081000024010020C88D00209F
:10AAE0002DE9F041054607F0A7FD2E4CA068401C5B
:10AAF000A06020682C4F10B1606940B32DE0256044
:10AB0000A068012829D1002606EB860007EB80000B
:10AB100007F060FD761C072EF6D323488C3007F033
:10AB200059FD2148A03007F055FD1F48B43007F00B
:10AB300051FD1D48C83007F04DFD1B48DC3007F0C3
:10AB400049FD19488C3060631430A06305E020682B
:10AB5000E96AC06A884200D82560606A401C606269
:10AB6000E96A0120226988401043206101EB8100DD
:10AB700007EB8000291D07F053FD07F07DFD60699C
:10AB800000280CD02068E96AC06A884207D20749C9
:10AB90004FF080500860BFF34F8FBFF36F8FBDE859
:10ABA000F081000024010020EC8C002004ED00E086
:10ABB00030B4026C0B46002A0BD0C1681144C1604E
:10ABC0008468A14201D30168C16030BC1846F5F722
:10ABD000A1BB30BC70472DE9F041856B1746044698
:10ABE0000026026C82B1C7B1E068F5F793FBE1681B
:10ABF000206C091AE1602268914202D2A168081A09
:10AC0000E060022F16D017E02068A8B9A06808F00D
:10AC100089FD06460020A0600EE06068F5F77AFB2B
:10AC2000216C606808446060A168884204D3206891
:10AC3000606001E005B16D1E6D1CA5633046BDE886
:10AC4000F08110B5044690F8510058B101280CD09D
:10AC500002280FD0502080F31188BFF34F8FBFF32D
:10AC60006F8FFEE7206B07F01BFD2046BDE810400C
:10AC700007F016BD10BD000010484FF47051420798
:10AC800006D0C01D0D4920F00700411AC1F57051D2
:10AC90000B4A00230144C2E900030839183A21F0A5
:10ACA000070111604B600B600B1AC0E90013936041
:10ACB0004FF000405360506170470000DC8D002071
:10ACC00078010020144E154CA6F1C8074FF08058AB
:10ACD000DFF84C9012E000BF07F0AEFCF068C568EA
:10ACE000281D07F03DFCA068401EA0606068401E63
:10ACF000606007F0C1FC2846FFF7A3FF60680028EA
:10AD0000EAD138680128F9D9C9F80080BFF34F8F1C
:10AD1000BFF36F8FF2E70000B48D00202401002004
:10AD200004ED00E0002807D00021816001600B469F
:10AD30000A46C16008F0DEB870470346009829B1A2
:10AD40000260C0E90F31012108F090B80060F8E717
:10AD50002DE9F0479A46DDE9098481466FF0030347
:10AD6000206B03EB82021044089E20F0070778074F
:10AD700007D0502080F31188BFF34F8FBFF36F8F40
:10AD8000FEE7002561B1002023180A5C83F8342017
:10AD90000A5C12B1401C1028F6D384F8435001E03D
:10ADA00084F83450072E00D30626E662C4E9116504
:10ADB000201D07F01AFC04F1180007F016FC2461AE
:10ADC000C6F107006462A061E56484F85050524601
:10ADD0004946384600F028F92060B8F1000F01D04C
:10ADE000C8F80040BDE8F08730B5114900E01146D1
:10ADF0000A688242FBD34B685C18844203D14068E6
:10AE000018444860084643681C18944209D1084C0D
:10AE1000183C2468A24209D052681A4442600A6869
:10AE200012680260814200D0086030BD0460F9E71A
:10AE30007801002010B5044607F0FEFBA06B28B196
:10AE40005FF0000407F018FC204610BD0124F9E76C
:10AE50000648416B096829B1416BC968C9684968EE
:10AE6000816270474FF0FF31FAE7000024010020B3
:10AE700008484068401C4FF0500080F3118804D00F
:10AE8000BFF34F8FBFF36F8FFEE7BFF34F8FBFF35B
:10AE90006F8FFEE7800100202DE9F041044607F0A6
:10AEA000CBFB94F9455004F1240609E0606A48B1EF
:10AEB000304608F0C9FC08B107F018FE6D1E6DB2EF
:10AEC000002DF3DC4FF0FF3684F8456007F0D4FB2B
:10AED00007F0B2FB94F9445004F1100709E020692F
:10AEE00048B1384608F0B0FC08B107F0FFFD6D1E10
:10AEF0006DB2002DF3DC84F84460BDE8F04107F04A
:10AF0000BBBB000001490968084470476400002089
:10AF100010B5044601E0F8F799FF14F8010B044955
:10AF20000028F8D1BDE810400A20F8F78FBF0000D4
:10AF3000900100202DE9F0410546002707F07AFE38
:10AF4000324E306808B9FFF797FE706905424ED15E
:10AF5000C5B3083568070ED005F00700C0F108003A
:10AF60000544680707D0502080F31188BFF34F8F46
:10AF7000BFF36F8FFEE72DB37068854237D8234843
:10AF8000183001460C6801E020460C466168A94271
:10AF900002D221680029F7D131688C4227D0076896
:10AFA0002168016060680837411B10290FD96019BA
:10AFB000420708D0502080F31188BFF34F8FBFF3B2
:10AFC0006F8FFEE713E041606560FFF70DFF61687A
:10AFD0007068401A7060B268904200D2B0607069C8
:10AFE00001430020C4E90001F068401CF06008F053
:10AFF00065FC780707D0502080F31188BFF34F8F8E
:10B00000BFF36F8FFEE73846BDE8F0816001002096
:10B010000449086818B10868826C521C8264086888
:10B02000704700002401002010B5031F4FF080740A
:10B030001C601B1F21F001011960191F044B0B60DC
:10B0400014390A60091F6FF0020244380A6010BD0B
:10B0500071AE00082DE9F0411F4614460E0005466A
:10B0600006D126A34FF4967231A13AA0F7F728FB38
:10B07000002D06D121A340F22D1240A135A0F7F7F3
:10B080001FFB37B11DA34FF4977244A131A0F7F70E
:10B0900017FB002D13D06868B04206D017A340F20A
:10B0A000351244A12BA0F7F70BFB05F11000074662
:10B0B00000F0F3FA38B17CB1214624890EE06FF03C
:10B0C0000500BDE8F081B4B12189304604F008FBE9
:10B0D0002046FFF7AFF80EE03E490024384600F066
:10B0E000D2FA10B14FF0FF30EBE76B6A1BB122468A
:10B0F0000021284698470020E3E700002E2E2F4D20
:10B100006964646C6577617265732F5468697264F1
:10B110005F50617274792F4C7749502F7372632F8F
:10B120006170692F6170695F6D73672E6300000045
:10B13000726563765F746370206D757374206861E7
:10B14000766520612070636220617267756D656E3F
:10B1500074000000417373657274696F6E2022255C
:10B160007322206661696C6564206174206C696E6D
:10B170006520256420696E2025730A007265637658
:10B180005F746370206D75737420686176652061EB
:10B190006E20617267756D656E7400006572722055
:10B1A000213D204552525F4F4B20756E68616E64A1
:10B1B0006C656400726563765F7463703A207265D3
:10B1C000637620666F722077726F6E67207063629D
:10B1D00021000000063A01082DE9F047DDF8208043
:10B1E0001F4616460C00054605D124A3E52230A1D2
:10B1F00038A0F7F765FA002D28D06868A04205D07E
:10B200001EA3EE223DA133A0F7F75AFA05F1100074
:10B21000814600F042FA00281ED00620FCF7A8FC68
:10B22000040019D026606660002F1AD03868A0602C
:10B23000A4F80C8036892146484600F024FA0028FC
:10B2400011D02046BDE8F047FCF72ABD0BA3E6224B
:10B2500032A120A0F7F734FA3046BDE8F047FEF7F8
:10B26000E9BF0020E3E76B6A002B05D03246284691
:10B27000BDE8F04700211847BDE8F0872E2E2F4D7E
:10B280006964646C6577617265732F546869726470
:10B290005F50617274792F4C7749502F7372632F0E
:10B2A0006170692F6170695F6D73672E63000000C4
:10B2B000726563765F756470206D75737420686164
:10B2C000766520612070636220617267756D656EBE
:10B2D00074000000417373657274696F6E202225DB
:10B2E0007322206661696C6564206174206C696EEC
:10B2F0006520256420696E2025730A0072656376D7
:10B300005F7564703A207265637620666F7220778D
:10B31000726F6E6720706362210000007265637651
:10B320005F756470206D7573742068617665206147
:10B330006E20617267756D656E7400002DE9FF5FA8
:10B3400005463148934689460468E81705EB507A6C
:10B3500005F00700012707FA00F651E0E06908BB95
:10B3600062690020FAB1DDF80CE0A36918E000BFC3
:10B3700002EBC001D1F800C0AC4510D1B9F1000F0B
:10B3800004D091F804C05FEACC7C33D1BBF1000F4C
:10B3900002D0097989072DD45FEA0E012AD1401C19
:10B3A0008342E5D82BE0B9F1000F09D0A16839B18B
:10B3B000042D05D201EBEA010978314200D00120C9
:10B3C000BBF1000F0AD048B9E16839B1042D05D2AC
:10B3D00001EBEA010978314200D00120039941B123
:10B3E00040B9206958B1042D09D200EBEA00007879
:10B3F000304020B104F12000E76100F088F92468B2
:10B40000002CABD1BDE8FF9F5000002070B5154661
:10B41000040005D0607801280AD004280DD010E07F
:10B4200013A340F293121FA122A0F7F749F91DE0E0
:10B4300001212046FAF734FE03E001212046FAF705
:10B4400041FA606890B1B0F86410B1F5866F0DD321
:10B45000B0F86600052809D2207F00F0EF002077C1
:10B46000636A1BB12A46022120469847002070BD1E
:10B470002E2E2F4D6964646C6577617265732F544D
:10B48000686972645F50617274792F4C7749502FEC
:10B490007372632F6170692F6170695F6D73672EBE
:10B4A00063000000636F6E6E20213D204E554C4CB2
:10B4B00000000000417373657274696F6E2022256D
:10B4C0007322206661696C6564206174206C696E0A
:10B4D0006520256420696E2025730A0010B5446834
:10B4E0000146204600F0F8FB0949204604F04EF8DA
:10B4F0000849204604F08AFD02220749204603F04D
:10B5000079F82046BDE81040044901F065B8000014
:10B5100055B000080DB4000895A90008992C000842
:10B520002DE9FE4317460D460646FEF743F83168FF
:10B5300004464FF0FF387FB13A466846FEF766F89A
:10B54000DDE90010102902D04046BDE8FE832860E6
:10B55000FEF730F8001BF8E742466846FEF756F85B
:10B560000198F4E73EB50C46016800226846FEF7F4
:10B570004DF8DDE90010102902D04FF0FF303EBD3C
:10B58000206000203EBD0000044810B54FF0FF31A0
:10B590000068FEF7F3F8012010BD00002001002034
:10B5A0002DE9F0410F460546FEF704F804464FF03A
:10B5B000FF363FB139462868FEF766F940B130469C
:10B5C000BDE8F08131462868FEF75EF90028F9D120
:10B5D000FDF7F0FF001BF3E701480068FEF7A6B88F
:10B5E000200100202DE9F04100F073F80D4C0546D4
:10B5F0004FF000472168002911D048682A1ABA4242
:10B600000DD20A682260D1E90262606090460A2089
:10B61000FCF7F6F9002EEDD04046B047EAE7BDE86A
:10B62000F0810000FC00002010B50348FEF775F81B
:10B630000249086010BD00008C3B01082001002079
:10B6400010B504460068FEF759F82068BDE81040C0
:10B65000FDF7CFBF1FB5094B04460DCBCDE9001058
:10B6600000216846CDE90223FDF7B0FF206010B14C
:10B67000002004B010BD4FF0FF30FAE7983B0108FE
:10B6800000210160704710B500680022FEF708F83D
:10B69000002801D04FF0FF3010BD0068002800D016
:10B6A0000120704700684FF0FF31FEF767B81CB506
:10B6B00004460020009001906846FEF72EF82060B6
:10B6C00008B100201CBD4FF0FF301CBD0068FEF724
:10B6D0002DB8F5F7E9BE0068FEF7A1B87CB50546C0
:10B6E00000200C460090019001216846FEF778F892
:10B6F000286008B11CB105E04FF0FF307CBD00218F
:10B70000FEF7C2F800207CBD002101607047006890
:10B71000FEF792B80068002800D0012070472DE99C
:10B72000F04188B00F4606461D4690461C216846EB
:10B730000E9CF4F716FECDE90067ADF808404146CF
:10B7400068460495FEF7D2F808B0BDE8F081000025
:10B7500070B515460E460446B0F1804F06D308A3D7
:10B7600040F2291213A121A0F6F7AAFFFFF7B1FFBB
:10B7700020442A463146BDE8704000F04BB8000036
:10B780002E2E2F4D6964646C6577617265732F543A
:10B79000686972645F50617274792F4C7749502FD9
:10B7A0007372632F636F72652F74696D656F757443
:10B7B000732E630054696D656F75742074696D65CF
:10B7C00020746F6F206C6F6E672C206D617820691C
:10B7D00073204C5749505F55494E5433325F4D41A9
:10B7E000582F34206D7365637300000041737365D7
:10B7F0007274696F6E2022257322206661696C6500
:10B8000064206174206C696E6520256420696E2057
:10B8100025730A0070B5044615460E460A20FCF74B
:10B82000A7F978B10021C560104A80E8520011687C
:10B8300031B14B68E51A4FF000439D4212D30160CD
:10B84000106070BDBDE8704009A3BE2215A125A0FF
:10B85000F6F736BF5568651B9D4202D3026008604B
:10B8600070BD11460A68002AF8D0F3E7FC000020FA
:10B870002E2E2F4D6964646C6577617265732F5449
:10B88000686972645F50617274792F4C7749502FE8
:10B890007372632F636F72652F74696D656F757452
:10B8A000732E63007379735F74696D656F75743A95
:10B8B0002074696D656F757420213D204E554C4C88
:10B8C0002C20706F6F6C204D454D505F5359535F66
:10B8D00054494D454F555420697320656D707479F6
:10B8E00000000000417373657274696F6E20222539
:10B8F0007322206661696C6564206174206C696ED6
:10B900006520256420696E2025730A0070B5074DF7
:10B91000012400BF05EBC40255F834000449FFF7C9
:10B9200017FF641C032CF5D370BD0000703B0108A9
:10B930007956000810B5084C206848B1FFF7C9FED9
:10B9400021684968081AB0F1004F00D3002010BDEB
:10B950004FF0FF3010BD0000FC0000202DE9FF5F1C
:10B960008946040003D0207D01280AD010E004B0ED
:10B970003AA3BDE8F05F40F23D2244A14AA0F6F7A9
:10B980009FBE36A34FF4107251A147A0F6F798FE60
:10B99000207D0A283ED0216D03910025DFF86481C7
:10B9A000D4F824B0D4F810A0D4F890602F4680B317
:10B9B0004D46E78A214608F1180002F053FD0121A7
:10B9C00088F80010206F08B104F03AFAE06E08B170
:10B9D00004F036FA606F08B104F032FA55B1208BEA
:10B9E000211D0091CDE9017023465A46184603995E
:10B9F00004F038F9204600F077FE002E2CD004B079
:10BA00005046B446BDE8F04F6FF00C015DF804EB12
:10BA100060470AE03B4821461C3002F023FD04B099
:10BA20002046BDE8F05F00F05FBEE08A0028C9D084
:10BA3000D8F81000A0420AD1C068C8F8100008E089
:10BA4000C168A14202D1E168C16002E00846002855
:10BA5000F6D10020E060B5E7BDE8FF9F2E2E2F4D08
:10BA60006964646C6577617265732F546869726488
:10BA70005F50617274792F4C7749502F7372632F26
:10BA8000636F72652F7463702E6300007463705F60
:10BA90006162616E646F6E3A20696E76616C696492
:10BAA0002070636200000000417373657274696FF7
:10BAB0006E2022257322206661696C6564206174A2
:10BAC000206C696E6520256420696E2025730A004C
:10BAD000646F6E27742063616C6C207463705F61A7
:10BAE000626F72742F7463705F6162616E646F6EF7
:10BAF00020666F72206C697374656E2D706362735B
:10BB000000000000B80000200121FFF727BF002837
:10BB100003D0027D012A00D18161704710B50C006D
:10BB200006D106A340F20F3210A118A0F6F7C8FD07
:10BB30002046FFF7E9FF6FF00C0010BD2E2E2F4DB1
:10BB40006964646C6577617265732F5468697264A7
:10BB50005F50617274792F4C7749502F7372632F45
:10BB6000636F72652F7463702E6300007463705F7F
:10BB70006163636570745F6E756C6C3A20696E7694
:10BB8000616C69642070636200000000417373653A
:10BB90007274696F6E2022257322206661696C655C
:10BBA00064206174206C696E6520256420696E20B4
:10BBB00025730A002DE9F04106460120FBF7D8FF66
:10BBC000424D04005BD1A86909E0418BC4680A07B3
:10BBD00004D521F00801418300F066FA20460028D0
:10BBE000F3D100221146EC68E86906E0036AE31A23
:10BBF000934201D31A460146C0680028F6D111B11C
:10BC00000846FFF781FF0120FBF7B2FF040036D1A1
:10BC1000092001F071FA0120FBF7AAFF04002ED1E0
:10BC2000082001F069FA0120FBF7A2FF040026D1E9
:10BC30007F2E01D97F2001E030001BD0401EC1B211
:10BC400000231A46EC68A8690EE0477D8F4206D3B0
:10BC500009D1D0F820C0A4EB0C0C9C4503D3016A99
:10BC60000246631A3946C0680028EED112B1104668
:10BC7000FFF74AFF0120FBF77BFF040023D09C2144
:10BC8000F4F76FFB4FF486606675A4F8640041001A
:10BC900061852185FF21E172411061860621A4F8AA
:10BCA0004010E187C91F21860121A4F84810E968E6
:10BCB0002162A978A177A4F84A000548C4F8840055
:10BCC0000448C4F894002046BDE8F081B800002084
:10BCD00031F6000800DD6D00002800D001617047DA
:10BCE0002DE9F0410D0004464FF0040300D1264D2C
:10BCF000002C0DD0207D002814D024A340F2AB22CC
:10BD00002EA138A0F6F7DCFC6FF00500BDE8F0814D
:10BD10001EA340F2A9223DA132A0F6F7D1FC6FF09C
:10BD20000F00F3E732B13F4E002100BF56F821006B
:10BD3000006817E001F08CFC020018D1801EE5E7D6
:10BD4000C78A97420DD148B107683FB135B1D5F8E0
:10BD500000C0BCF1000F01D0674502D16FF00700B1
:10BD6000D4E7C0680028EBD1491C9942DEDB15B14D
:10BD7000286800B120602C48E2820169E16004611A
:10BD800004F002FE0020C1E7883B01082E2E2F4D53
:10BD90006964646C6577617265732F546869726455
:10BDA0005F50617274792F4C7749502F7372632FF3
:10BDB000636F72652F7463702E6300007463705F2D
:10BDC00062696E643A2063616E206F6E6C792062E6
:10BDD000696E6420696E20737461746520434C4FF2
:10BDE00053454400417373657274696F6E20222558
:10BDF0007322206661696C6564206174206C696ED1
:10BE00006520256420696E2025730A007463705FC5
:10BE100062696E643A20696E76616C696420706351
:10BE200062000000603B0108B800002010B558B166
:10BE3000017D012903D0418B41F010014183BDE810
:10BE40001040012100F042B804A34FF4F4720FA196
:10BE500014A0F6F735FC6FF00F0010BD2E2E2F4DFD
:10BE60006964646C6577617265732F546869726484
:10BE70005F50617274792F4C7749502F7372632F22
:10BE8000636F72652F7463702E6300007463705F5C
:10BE9000636C6F73653A20696E76616C69642070BB
:10BEA00063620000417373657274696F6E202225AE
:10BEB0007322206661696C6564206174206C696E10
:10BEC0006520256420696E2025730A00FEB50D46A5
:10BED000040006D145A34FF4AF7250A157A0F6F766
:10BEE000EFFB28005F4D4FF000064FF001073ED0FA
:10BEF000207D042801D0072839D1A06F18B9208DE2
:10BF0000B0F5066F33D0A07EC00606D437A34FF439
:10BF1000B27255A149A0F6F7D3FB228BE18A201D0E
:10BF20008DE8070023461846626A216D03F09AFEE9
:10BF3000204602F031FAA869A04209D1C068A86180
:10BF400008E0C168A14202D1E168C16002E0084690
:10BF50000028F6D14B48E6602F700068A04202D15D
:10BF600004F0BCFD38E0204600F0BEFB34E0207D4C
:10BF700040B101281AD0022830D02046BDE8FE404A
:10BF800000F092B8E08A0028EDD02869A04209D1DB
:10BF9000C068286108E0C168A14202D1E168C160BF
:10BFA00002E008460028F6D1E660DCE7204601F012
:10BFB00001F92C482146143002F054FA207D012862
:10BFC00006D1314BDF2231A103F14400F6F778FBB3
:10BFD00021460220FBF714FD0020FEBD214821462A
:10BFE000183002F03FFA2F70BDE700002E2E2F4DC3
:10BFF0006964646C6577617265732F5468697264F3
:10C000005F50617274792F4C7749502F7372632F90
:10C01000636F72652F7463702E6300007463705FCA
:10C02000636C6F73655F73687574646F776E3A20C5
:10C03000696E76616C696420706362004173736538
:10C040007274696F6E2022257322206661696C65A7
:10C0500064206174206C696E6520256420696E20FF
:10C0600025730A00B80000207063622D3E666C6183
:10C07000677320262054465F5258434C4F53454423
:10C0800000000000F80000200CC700087463705F17
:10C09000667265655F6C697374656E3A20214C4900
:10C0A0005354454E0000000070B5050006D116A39C
:10C0B0004FF4CE7220A123A0F6F702FB287D0526BF
:10C0C000032804D0042802D0072816D106E0284609
:10C0D00003F036FF040006D12E7509E0284603F070
:10C0E0002FFF040002D0601C09D004E0092028754D
:10C0F000284601F0AFFB204670BD002070BD688B64
:10C1000040F008006883F8E72E2E2F4D6964646CB8
:10C110006577617265732F54686972645F506172EC
:10C1200074792F4C7749502F7372632F636F726548
:10C130002F7463702E63000070636220213D204ED7
:10C14000554C4C00417373657274696F6E202225E3
:10C150007322206661696C6564206174206C696E6D
:10C160006520256420696E2025730A002DE9F047BB
:10C17000DDF820809A4691460D46070005D12DA393
:10C18000A32239A140A0F6F79BFA002D05D129A3DF
:10C19000A42247A13CA0F6F793FA5FEAC87001D049
:10C1A000042600E000260320FBF7E2FC04001CD07C
:10C1B00084F80A804FF00008C4E900852889B0425D
:10C1C00005D21CA3B02243A12FA0F6F779FA288943
:10C1D0001421801B20812846FDF7B2FB48B1204680
:10C1E00003F020FE0020BDE8F0872846FEF722F885
:10C1F000F8E760684068E060F88AF9F75DFAE1689E
:10C200000880388BF9F758FAE16848805046F9F70A
:10C2100051FAE1684860B008000300F5A04040EA28
:10C220000900F9F749FAE1688881E1682046A1F838
:10C230001280D8E72E2E2F4D6964646C6577617289
:10C2400065732F54686972645F50617274792F4C02
:10C250007749502F7372632F636F72652F74637009
:10C260005F6F75742E6300007463705F6372656145
:10C2700074655F7365676D656E743A20696E76618B
:10C280006C69642070636200417373657274696FD6
:10C290006E2022257322206661696C6564206174BA
:10C2A000206C696E6520256420696E2025730A0064
:10C2B0007463705F6372656174655F7365676D65F4
:10C2C0006E743A20696E76616C696420706275667E
:10C2D00000000000702D3E746F745F6C656E203E30
:10C2E0003D206F70746C656E0000000070B50C46E8
:10C2F0000546002A06D10BA340F6C50215A11FA0D2
:10C30000F6F7DEF95CB1A18C49B1282902D92839A8
:10C310008CB200E00024A54200D22C4625462846D7
:10C3200070BD00002E2E2F4D6964646C65776172BC
:10C3300065732F54686972645F50617274792F4C11
:10C340007749502F7372632F636F72652F74637018
:10C350002E6300007463705F6566665F73656E646C
:10C360005F6D73735F6E657469663A20696E76619E
:10C370006C6964206473745F697000004173736555
:10C380007274696F6E2022257322206661696C6564
:10C3900064206174206C696E6520256420696E20BC
:10C3A00025730A002DE9F843044600250E46880748
:10C3B00006D13FA340F211424A494BA0F6F780F95B
:10C3C000002C06D13AA340F2134251A146A0F6F741
:10C3D00077F9B00700D50125E80700D00420804692
:10C3E00001464FF420723620FDF70EFB07004FF098
:10C3F000FF3929D07989414506D22DA340F239422F
:10C400004BA139A0F6F75CF9009532463946204633
:10C41000E36DFFF7ABFE050016D0287B800706D042
:10C4200023A340F2424251A12FA0F6F749F92889EF
:10C43000002806D01EA340F2434252A12AA0F6F7DC
:10C440003FF9E06E38B109E0608B40F08000608316
:10C450004846BDE8F883E56604E00846016800291F
:10C46000FBD105600020A4F86800B00702D0E06DA1
:10C47000401CE065F00703D0608B40F02000608333
:10C480006868FDF704FDB4F8661008440004000C69
:10C49000A4F866000AD0206F40B9E06E30B904A35A
:10C4A00040F2654242A110A0F6F70AF90020D0E759
:10C4B0002E2E2F4D6964646C6577617265732F54FD
:10C4C000686972645F50617274792F4C7749502F9C
:10C4D0007372632F636F72652F7463705F6F75740F
:10C4E0002E630000383C0108417373657274696FF4
:10C4F0006E2022257322206661696C656420617458
:10C50000206C696E6520256420696E2025730A0001
:10C510007463705F656E71756575655F666C616784
:10C52000733A20696E76616C696420706362000002
:10C530007463705F656E71756575655F666C616764
:10C54000733A20636865636B207468617420666960
:10C5500072737420706275662063616E20686F6C00
:10C5600064206F70746C656E000000007365672D49
:10C570003E746370686472206E6F7420616C6967CA
:10C580006E6564007463705F656E71756575655F77
:10C59000666C6167733A20696E76616C69642073BA
:10C5A00065676D656E74206C656E67746800000069
:10C5B0007463705F656E71756575655F666C6167E4
:10C5C000733A20696E76616C696420717565756572
:10C5D000206C656E6774680070B50D4604000BD062
:10C5E000207D012806D105A340F60D020FA119A058
:10C5F000F6F766F8C4F8905070BD00002E2E2F4D4F
:10C600006964646C6577617265732F5468697264DC
:10C610005F50617274792F4C7749502F7372632F7A
:10C62000636F72652F7463702E630000696E7661AC
:10C630006C696420736F636B6574207374617465D7
:10C6400020666F72206572722063616C6C62616338
:10C650006B000000417373657274696F6E20222550
:10C660007322206661696C6564206174206C696E58
:10C670006520256420696E2025730A0070B5194D68
:10C68000A878401CA870AC6928E0A17FA8788142F6
:10C6900023D0A077608BC10709D040F002006083EF
:10C6A000204601F0D7F8608B20F00300608380B251
:10C6B000010705D520F0080060832046FFF7F4FC51
:10C6C000E668A06F38B100202870204602F05AFAC0
:10C6D00028780028D7D1344600E0E468002CD4D173
:10C6E00070BD0000B800002010B50446007D012890
:10C6F00005D106A3D42211A115A0F5F7E1FF21462B
:10C70000BDE810400120FBF77BB900002E2E2F4D15
:10C710006964646C6577617265732F5468697264CB
:10C720005F50617274792F4C7749502F7372632F69
:10C73000636F72652F7463702E6300007463705FA3
:10C74000667265653A204C495354454E000000001E
:10C75000417373657274696F6E202225732220669F
:10C7600061696C6564206174206C696E6520256464
:10C7700020696E2025730A002DE9F04799460C4682
:10C780000646224F2AE02546D5E90040FDF77FFB0B
:10C79000B6F866108046414506D21DA340F25742C6
:10C7A00028A132A0F5F78CFF36F8661FA1EB080030
:10C7B00030802889398908443881284603F032FBC3
:10C7C00036F86609002809D054EA090006D110A3FA
:10C7D00040F261422FA125A0F5F772FF94B1E06805
:10C7E0004068F8F767FF0546E0688089F8F764FF5E
:10C7F000800700D00120218928440844B969401AE3
:10C800000028C0DD2046BDE8F0870000D8000020E9
:10C810002E2E2F4D6964646C6577617265732F5499
:10C82000686972645F50617274792F4C7749502F38
:10C830007372632F636F72652F7463705F696E2EFE
:10C84000630000007063622D3E736E645F717565F6
:10C8500075656C656E203E3D20706275665F636C29
:10C86000656E286E6578742D3E702900417373657E
:10C870007274696F6E2022257322206661696C656F
:10C8800064206174206C696E6520256420696E20C7
:10C8900025730A007463705F726563656976653A33
:10C8A0002076616C6964207175657565206C656EB4
:10C8B0006774680010B50446406F002803D003F089
:10C8C000BFFA0020606710BD0849C888421CCA80B2
:10C8D0000A6912B18B88984203D2C9681431085C86
:10C8E0007047C01AC0B2105C70470000D80000202A
:10C8F00010B5F3F7FDFC0349C0F30D0000F540400F
:10C90000888010BDB80000202DE9FE4F040005D13D
:10C91000DEA38322EAA1F0A0F5F7D2FEF84D60680D
:10C92000E860608914287DD3F64E31687069F7F7A6
:10C930004BFC002876D1307DB046C0F303100E28A2
:10C9400070D0E8688089F8F7B7FE000B81001429E1
:10C95000E9D320898842E6D3A1F1140080B268802F
:10C960004FF0000AC5F810A062898A4204D3A8805B
:10C970002046FDF75BFE32E0206828B9C3A3C2223F
:10C98000E1A1D5A0F5F79CFE14212046FDF74EFE4F
:10C990006189A9806888401A86B22046FDF746FE64
:10C9A00020684189B142BED3416829613146FDF713
:10C9B0003DFE2089801B2081608928B1B3A3DF223E
:10C9C000D5A1C5A0F5F77CFE216820890989884298
:10C9D00005D0AEA3E022D3A1BFA0F5F771FEE868B1
:10C9E0000088F8F769FE0146E86801804088F8F79A
:10C9F00063FE0146E86841804068F8F75BFE014647
:10CA0000E868416069618068F8F754FE0146E868AB
:10CA10008160A961C089F8F74FFE0146E868C181CD
:10CA2000808900E08CE0F8F747FE00F03F012970B4
:10CA300020896881890704D0411C89B269818842B4
:10CA40007ED8DFF800930027D9F8006083E0307DBE
:10CA500028B98EA3FB22BCA19FA0F5F731FE307D43
:10CA60000A2805D189A3FC22C1A19BA0F5F728FEC5
:10CA7000307D012805D185A3FD22C8A196A0F5F738
:10CA80001FFE307A38B1D8F8041091F83010491CE4
:10CA9000C9B288425DD1E868318B0288914258D191
:10CAA000F18A4088814254D17168D8F810209142AF
:10CAB0004FD13168D8F8140081424AD1F068B042B1
:10CAC00006D172A340F20D12BEA183A0F5F7F8FDC6
:10CAD00037B1F068F860D9F80010F160C9F800606B
:10CAE000F068B04206D169A340F21512C0A17AA045
:10CAF000F5F7E6FD96B3DFF824835746C8F800A0A3
:10CB00002189A8F80810C8F80440E968C8F80C1092
:10CB1000C5F81CA085F801A0A5F808A02878000792
:10CB200003D5607B40F001006073B06F002878D0BF
:10CB3000304602F027F80D3007D0B06F002800E033
:10CB4000F5E16ED0688900286BD0708D002864D024
:10CB5000CCE13746F668002E7FF479AFB04840F25A
:10CB60001F194646076827E0387D0A2805D047A3E5
:10CB70004A46ACA158A0F5F7A3FD387A30B17168E8
:10CB800091F83010491CC9B2884214D1E8683A8B38
:10CB900001888A420FD1F98A408881420BD1786896
:10CBA0003169884207D138687169884203D13846B3
:10CBB00003F004FFBBE1FF68002FD5D1A54B002196
:10CBC000EF681868D6F804900246D6F8148016E08C
:10CBD000067A3EB199F830C00CF1010C0CF0FF0C54
:10CBE00066450AD1C68AB7F802C0664505D106680F
:10CBF000464507D0002804D036B10146C068002859
:10CC0000E6D17FE100283FD019B1C568CD60C26090
:10CC1000186000F007FB8AE103E0304603F01AF9E0
:10CC200064E130462E6201F04BFD0D3011D0687882
:10CC30002C4600070ED5D6F890201AB16FF00D01E2
:10CC40003069904731463F4801F00CFC3046FFF711
:10CC50004BFD4BE1228942B1D6F8803023B13146F9
:10CC6000306998470D300CD02781304600F074F9B8
:10CC700038B9E06930B1B06F28B104A34FF4F37252
:10CC8000EAE033E10EE1ECE03CE100002E2E2F4D16
:10CC90006964646C6577617265732F546869726446
:10CCA0005F50617274792F4C7749502F7372632FE4
:10CCB000636F72652F7463705F696E2E630000008E
:10CCC0007463705F696E7075743A20696E76616C1A
:10CCD0006964207062756600417373657274696F70
:10CCE0006E2022257322206661696C656420617460
:10CCF000206C696E6520256420696E2025730A000A
:10CD0000D8000020B4540020702D3E6E6578742049
:10CD1000213D204E554C4C00702D3E6C656E203DE3
:10CD20003D203000702D3E746F745F6C656E203D49
:10CD30003D20702D3E6E6578742D3E746F745F6C6F
:10CD4000656E0000D00000207463705F696E7075BE
:10CD5000743A20616374697665207063622D3E7356
:10CD60007461746520213D20434C4F5345440000BD
:10CD70007463705F696E7075743A2061637469766C
:10CD800065207063622D3E737461746520213D20BF
:10CD900054494D452D574149540000007463705F5C
:10CDA000696E7075743A206163746976652070638A
:10CDB000622D3E737461746520213D204C495354AB
:10CDC000454E00007463705F696E7075743A207030
:10CDD00063622D3E6E65787420213D207063622071
:10CDE000286265666F72652063616368652900006B
:10CDF0007463705F696E7075743A207063622D3E63
:10CE00006E65787420213D2070636220286166740D
:10CE1000657220636163686529000000AC8B0020A7
:10CE2000D40000207463705F696E7075743A20548A
:10CE3000494D452D57414954207063622D3E73740E
:10CE4000617465203D3D2054494D452D574149545D
:10CE500000000000CC00002037A1AFF28410F5F7ED
:10CE60002FFCB07EC00606D5E069FDF7E3F9304639
:10CE7000FEF74AFE3AE0D6F884C0BCF1000F05D0B8
:10CE8000002330693146E269E04705E0002331467E
:10CE90001846E26902F0CCFB10F10D0F26D008B164
:10CEA000E069B0676078800618D5B06F20B1417B2B
:10CEB00041F02001417311E0308DB0F5066F01D0D3
:10CEC000401C3085D6F884C0BCF1000F06D000238A
:10CED0001A4631463069E0470D3007D030462762A8
:10CEE00000F03AF810B9304600F0B4FC2F62EF6160
:10CEF000D8F804004446002802D0FDF79BF967608B
:10CF0000BDE8FE8FB889F8F7D7FB40070FD4E86873
:10CF1000104A104B018840880092CDE901016989CF
:10CF200068691B1D42180020A96902F09BFE20467B
:10CF3000BDE8FE4FFDF77EB97063622D3E726566F7
:10CF4000757365645F64617461203D3D204E554C8E
:10CF50004C000000C454002010B5040006D110A3FA
:10CF600040F25A221BA125A0F5F7AAFB2D484078D4
:10CF7000C00612D5A07EC00606D4D4F890201AB1FF
:10CF80006FF00E01206990472146274801F06AFAA8
:10CF90002046FFF7A9FB012010BD002010BD0000B6
:10CFA0002E2E2F4D6964646C6577617265732F5402
:10CFB000686972645F50617274792F4C7749502FA1
:10CFC0007372632F636F72652F7463705F696E2E67
:10CFD000630000007463705F696E7075745F6465F0
:10CFE0006C617965645F636C6F73653A20696E7616
:10CFF000616C6964207063620000000041737365B6
:10D000007274696F6E2022257322206661696C65D7
:10D0100064206174206C696E6520256420696E202F
:10D0200025730A00D8000020D000002070B504004D
:10D030004FF0000606D112A340F624021DA124A041
:10D04000F5F73EFB206D401EF8F734FB0346002247
:10D050003146204600F06EFD05000DD001463346F6
:10D060000022204600F0C4FE2246231D2946BDE8CA
:10D070007040104600F04CBE4FF0FF3070BD000015
:10D080002E2E2F4D6964646C6577617265732F5421
:10D09000686972645F50617274792F4C7749502FC0
:10D0A0007372632F636F72652F7463705F6F757433
:10D0B0002E6300007463705F6B656570616C6976E8
:10D0C000653A20696E76616C696420706362000065
:10D0D000417373657274696F6E2022257322206616
:10D0E00061696C6564206174206C696E65202564DB
:10D0F00020696E2025730A0070B50446082808D000
:10D10000092C06D010A340F2DD621BA11EA0F5F78A
:10D11000D7FA274B002108469A69DB6809E0157D9C
:10D12000A54205D1156A5D1B8D4201D329461046E3
:10D13000D268002AF3D1002804D0BDE87040002155
:10D14000FEF70CBC70BD00002E2E2F4D6964646C80
:10D150006577617265732F54686972645F5061729C
:10D1600074792F4C7749502F7372632F636F7265F8
:10D170002F7463702E630000696E76616C696420A1
:10D180007374617465000000417373657274696F34
:10D190006E2022257322206661696C6564206174AB
:10D1A000206C696E6520256420696E2025730A0055
:10D1B000B800002070B5050007D10F4B40F21112E6
:10D1C0000EA103F14400F5F77BFA287D012807D072
:10D1D000094B4FF489720CA103F14400F5F770FA82
:10D1E0000F4E0124294656F82400006802F0F8FA90
:10D1F000641C042CF6D370BD0CC700087063622059
:10D20000213D204E554C4C007063622D3E7374617D
:10D210007465203D3D204C495354454E00000000AC
:10D22000603B0108FEB5424E0546307840071BD4EE
:10D23000002D06D13FA340F281224BA152A0F5F769
:10D240003FFA3078C10610D5F068594A584B01882A
:10D2500040880092CDE90101718970691B1D421857
:10D260002846B16902F0FEFCFEBD8007FCD5687D52
:10D27000FEF7A0FC04004AD04D48103841692160F7
:10D2800000696060E88AE082F068008820830320FB
:10D2900020757069401C6062E062204600F008FA68
:10D2A000A06520656064E0657069401E606528695E
:10D2B000E5672061687A00F00C006072287A2072BD
:10D2C0003C480168E160046003F05EFB3A490120DC
:10D2D0000870204600F03AFFF068C089A4F86000AA
:10D2E000A4F86200201DF7F797FB0146608E221D0F
:10D2F000FEF7FCFF608612212046FFF753F888B145
:10D3000003B02046BDE8F0400021FEF727BBAB6923
:10D31000002BA9D0286903B04FF0FF32BDE8F040E0
:10D32000002118472046BDE8FE4000F093BA0000F7
:10D33000D80000202E2E2F4D6964646C65776172D1
:10D3400065732F54686972645F50617274792F4CF1
:10D350007749502F7372632F636F72652F746370F8
:10D360005F696E2E630000007463705F6C69737494
:10D37000656E5F696E7075743A20696E76616C696E
:10D380006420706362000000417373657274696F9A
:10D390006E2022257322206661696C6564206174A9
:10D3A000206C696E6520256420696E2025730A0053
:10D3B000C4540020D0000020B800002070B51646EC
:10D3C00005004FF000040CD0287D002813D029A3BD
:10D3D00040F25A3233A141A0F5F772F96FF00E0016
:10D3E00043E024A340F2593246A13CA0F5F768F986
:10D3F0006FF00F0039E00220FAF7BAFB04001AD0F0
:10D4000028692061E88AE08201202075687D6075C6
:10D41000687A607200222272E87AE072A87AA072BA
:10D4200028682060E88A98B142490869A8420CD16E
:10D43000C06808610BE04FF0FF3016E0C168A942F8
:10D4400002D1E968C16002E008460028F6D1EA602E
:10D450002846FFF749F93848A0613648143001687A
:10D46000E160046003F090FA002006B130702046BD
:10D4700070BD00002E2E2F4D6964646C657761725B
:10D4800065732F54686972645F50617274792F4CB0
:10D490007749502F7372632F636F72652F746370B7
:10D4A0002E6300007463705F6C697374656E5F77E0
:10D4B0006974685F6261636B6C6F675F616E645F04
:10D4C0006572723A2070636220616C726561647982
:10D4D00020636F6E6E6563746564000041737365ED
:10D4E0007274696F6E2022257322206661696C65F3
:10D4F00064206174206C696E6520256420696E204B
:10D5000025730A007463705F6C697374656E5F776E
:10D510006974685F6261636B6C6F675F616E645FA3
:10D520006572723A20696E76616C6964207063621C
:10D5300000000000B80000201DBB000870B50D46BB
:10D5400004001DD0206800281AD00E4E2046B16974
:10D5500000F01AF82046316900F016F8002D0FD0BF
:10D56000286800280CD006F11400026806E0106854
:10D570002168884201D128681060D268002AF6D15B
:10D5800070BD0000B800002070B505000C4612D137
:10D590000AA34FF4106215A121A0F5F791F80AE053
:10D5A00020682968884205D12046E668FEF7ACFA73
:10D5B000344600E0E468002CF2D170BD2E2E2F4DD1
:10D5C0006964646C6577617265732F54686972640D
:10D5D0005F50617274792F4C7749502F7372632FAB
:10D5E000636F72652F7463702E6300007463705FE5
:10D5F0006E657469665F69705F616464725F6368B9
:10D60000616E6765645F7063626C6973743A206908
:10D610006E76616C6964206F6C645F616464720033
:10D62000417373657274696F6E20222573222066C0
:10D6300061696C6564206174206C696E6520256485
:10D6400020696E2025730A004020FEF7B3BA00005F
:10D65000F0B5154D154A00234FF6FF764FF44047BD
:10D660004FF4804E9088401C80B29080B04200D130
:10D670009780B2F80440002055F8201009680AE0AD
:10D68000B1F816C0A44505D15B1C9BB27345E9D324
:10D690000020F0BDC9680029F2D1401CC0B20428A6
:10D6A000EAD3A0B2F0BD0000603B0108B800002042
:10D6B00010B5002806D106A340F6AF0210A117A0AE
:10D6C000F4F7FEFF1F49D1E902021044886010BD43
:10D6D0002E2E2F4D6964646C6577617265732F54CB
:10D6E000686972645F50617274792F4C7749502F6A
:10D6F0007372632F636F72652F7463702E63000003
:10D700007463705F6E6578745F6973733A20696ED5
:10D7100076616C6964207063620000004173736518
:10D720007274696F6E2022257322206661696C65B0
:10D7300064206174206C696E6520256420696E2008
:10D7400025730A00B800002070B50C46050006D10C
:10D750001EA340F21F422AA133A0F4F7B1FFE868EC
:10D760008089F7F7A9FF3A4EC00715D0204602F08E
:10D7700067FB002427E08089F7F79EFFC00707D0EA
:10D780000120F7F799FF0146E868828911438181FA
:10D790002046246802F046FBACB1E0682289736938
:10D7A00041680A4429891944891AE4D52989CA1883
:10D7B000E1684968521A002A05DDC81A81B2298138
:10D7C0006868FCF74BFE2C6070BD00002E2E2F4DBC
:10D7D0006964646C6577617265732F5468697264FB
:10D7E0005F50617274792F4C7749502F7372632F99
:10D7F000636F72652F7463705F696E2E6300000043
:10D800007463705F6F6F735F696E736572745F735B
:10D8100065676D656E743A20696E76616C69642027
:10D820006373656700000000417373657274696F0C
:10D830006E2022257322206661696C656420617404
:10D84000206C696E6520256420696E2025730A00AE
:10D85000D80000202DE9F05F040006D187A340F234
:10D86000E14293A198A0F4F72BFF207D012806D177
:10D8700082A340F2E3429EA193A0F4F721FFA648C1
:10D880000068A04202D10020BDE8F09FB4F860100B
:10D89000B4F84800814200D20846E56E81466DB179
:10D8A0002146221D084602F0D5F95FEA000A6FF012
:10D8B00003012ED054B1206840B10CE0A07E800757
:10D8C0006FD52046BDE8F05F02F0C4BA1AF104003B
:10D8D0001FD000682060E8684068F7F7EBFE616CD5
:10D8E000401A2989421800204A4514D9B4F860200A
:10D8F0004A45E3D1216F0029E0D194F8991000291D
:10D90000DCD184F89800012184F8991084F89A00F9
:10D91000D4E70846B8E784F89900266F83460EB925
:10D9200098E0064630680028FBD192E0E8688089DC
:10D93000F7F7C2FE400706D550A340F2365277A152
:10D9400061A0F4F7BDFE206FA8B1618B11F0440F08
:10D9500011D1E06E28B102686AB90089628E9042E6
:10D9600009D2B4F8640030B1B4F86600092802D2D4
:10D9700011F0A00F79D0207D022807D01020F7F7F2
:10D980009BFE0146E8688289114381815246214607
:10D99000284600F099FA28B1618B41F0800161833B
:10D9A00072E766E02868E066207D022803D0608B7D
:10D9B00020F003006083E8684068F7F77BFE0746C5
:10D9C000E8688089F7F778FE800700D00120298970
:10D9D00038440844216D091A00D52065E86880891B
:10D9E000F7F76AFE800700D001202989C8422CD0B1
:10D9F000C5F800B0206F68B1E8684068F7F75AFED4
:10DA00000746F0684068F7F755FE381A1AD504F152
:10DA1000700003E0256716E0D8F800008046006833
:10DA200050B1C0684068F7F745FE0746E8684068AF
:10DA3000F7F740FE381AEFD4D8F800002860C8F88D
:10DA4000005005E035602E4602E0284602F0EAF973
:10DA5000E56E55B1E8684068F7F72CFE616C401A36
:10DA60002989014449457FF661AFE06E08B9A4F801
:10DA700068B0608B20F08000608304E72E2E2F4D6D
:10DA80006964646C6577617265732F546869726448
:10DA90005F50617274792F4C7749502F7372632FE6
:10DAA000636F72652F7463705F6F75742E6300000F
:10DAB0007463705F6F75747075743A20696E766107
:10DAC0006C69642070636200417373657274696F7E
:10DAD0006E2022257322206661696C656420617462
:10DAE000206C696E6520256420696E2025730A000C
:10DAF000646F6E27742063616C6C207463705F6F59
:10DB0000757470757420666F72206C697374656EBD
:10DB10002D70636273000000F800002052535420FF
:10DB20006E6F7420657870656374656420686572D3
:10DB3000652100002DE9FF411D4616460F460400F1
:10DB400006D10EA340F2427219A123A0F4F7B8FD4A
:10DB5000E08A638D1022218B8DE80F002B46324620
:10DB60003946606A00F04CF8002803D0628D616A83
:10DB70001144E16204B0BDE8F08100002E2E2F4D6B
:10DB80006964646C6577617265732F546869726447
:10DB90005F50617274792F4C7749502F7372632FE5
:10DBA000636F72652F7463705F6F75742E6300000E
:10DBB0007463705F6F75747075745F616C6C6F63A4
:10DBC0005F6865616465723A20696E76616C69644C
:10DBD0002070636200000000417373657274696FA6
:10DBE0006E2022257322206661696C656420617451
:10DBF000206C696E6520256420696E2025730A00FB
:10DC00002DE9F05F834688180E46DDE90B98143045
:10DC100081B21F464FF420722220DDF828A0FBF7C6
:10DC2000F3FE05002AD0698906F11400814206D26C
:10DC300014A340F2237220A12BA0F4F741FD50461B
:10DC40006C68F7F739FD20804846F7F735FD6080AE
:10DC500067605846F7F72EFDA060B008000300F596
:10DC6000A04080B240EA0800F7F726FDA0810D9899
:10DC7000F7F722FDE0810020208260822846BDE87F
:10DC8000F09F00002E2E2F4D6964646C65776172E1
:10DC900065732F54686972645F50617274792F4C98
:10DCA0007749502F7372632F636F72652F7463709F
:10DCB0005F6F75742E630000636865636B20746822
:10DCC0006174206669727374207062756620636186
:10DCD0006E20686F6C642073747275637420746353
:10DCE000705F686472000000417373657274696FDD
:10DCF0006E2022257322206661696C656420617440
:10DD0000206C696E6520256420696E2025730A00E9
:10DD1000FEB51E4617460D00044606D112A340F27A
:10DD200087721EA128A0F4F7CBFC32463946204664
:10DD300001F090FF18B12CB1E37AA17A04E06FF002
:10DD400003040BE0FF23002100910622CDE901200E
:10DD5000324639462846F6F74FFC04462846FCF77B
:10DD600069FA2046FEBD00002E2E2F4D6964646CBA
:10DD70006577617265732F54686972645F50617270
:10DD800074792F4C7749502F7372632F636F7265CC
:10DD90002F7463705F6F75742E6300007463705F1F
:10DDA0006F75747075745F636F6E74726F6C5F7390
:10DDB00065676D656E743A20696E76616C69642082
:10DDC0007062756600000000417373657274696F5C
:10DDD0006E2022257322206661696C65642061745F
:10DDE000206C696E6520256420696E2025730A0009
:10DDF00070B515460C0006D10DA340F2567219A15C
:10DE000022A0F4F75DFC6068EA0700F1140100D07D
:10DE1000042210441430884208D0BDE8704004A3A6
:10DE200040F2757223A119A0F4F74ABC70BD00003E
:10DE30002E2E2F4D6964646C6577617265732F5463
:10DE4000686972645F50617274792F4C7749502F02
:10DE50007372632F636F72652F7463705F6F757475
:10DE60002E6300007463705F6F75747075745F6605
:10DE7000696C6C5F6F7074696F6E733A20696E764F
:10DE8000616C69642070627566000000417373659F
:10DE90007274696F6E2022257322206661696C6539
:10DEA00064206174206C696E6520256420696E2091
:10DEB00025730A006F7074696F6E73206E6F742023
:10DEC00066696C6C656400002DE9FE4317460C46DC
:10DED000050006D13DA34FF4B76249A150A0F4F765
:10DEE000EFFB002C06D139A340F2B95256A14CA049
:10DEF000F4F7E6FB002F06D134A340F2BA525AA140
:10DF000047A0F4F7DDFB284600F0CCF810B1002064
:10DF1000BDE8FE83606AF7F7CDFBE9688860608D35
:10DF2000F7F7CAFBE968C881618D606A0844E0625E
:10DF3000EE68A87A1436C0070AD0221D39464FF47D
:10DF40000670FEF7D3F940F00170F7F7B3FB01C696
:10DF5000B4F930004FF00008002801DAA4F830804E
:10DF6000606B38B9494800686063E8684068F7F753
:10DF7000A1FBA0636968A8898A88801A4A89121A55
:10DF80004A8169680A89101A08816968E8684860E6
:10DF9000E968A1F81080A87AE968C00700D00420D9
:10DFA00014300844B04206D008A340F21C6238A1E5
:10DFB0001BA0F4F785FBA07A06218DE88300E37AA5
:10DFC000221D21466868F6F717FBA1E72E2E2F4D7C
:10DFD0006964646C6577617265732F5468697264F3
:10DFE0005F50617274792F4C7749502F7372632F91
:10DFF000636F72652F7463705F6F75742E630000BA
:10E000007463705F6F75747075745F7365676D6549
:10E010006E743A20696E76616C696420736567007E
:10E02000417373657274696F6E20222573222066B6
:10E0300061696C6564206174206C696E652025647B
:10E0400020696E2025730A007463705F6F757470A9
:10E0500075745F7365676D656E743A20696E76617D
:10E060006C696420706362007463705F6F757470B4
:10E0700075745F7365676D656E743A20696E76615D
:10E080006C6964206E65746966000000C40000203D
:10E090006F7074696F6E73206E6F742066696C6C3C
:10E0A0006564000010B5040006D107A340F29A523F
:10E0B00012A11CA0F4F704FB6068807B012801D04A
:10E0C000012010BD002010BD2E2E2F4D6964646C00
:10E0D0006577617265732F54686972645F5061720D
:10E0E00074792F4C7749502F7372632F636F726569
:10E0F0002F7463705F6F75742E6300007463705FBC
:10E100006F75747075745F7365676D656E745F624B
:10E110007573793A20696E76616C696420736567FE
:10E1200000000000417373657274696F6E202225D0
:10E130007322206661696C6564206174206C696E6D
:10E140006520256420696E2025730A002DE9F041C1
:10E15000060006D11DA340F27D7229A12FA0F4F77D
:10E16000AFFA384C6088002818D00020E0804FF4C7
:10E1700006750FE0FEF7A8FB00280FD0012809D094
:10E1800002280DD0FEF7A0FB022807D3E18808443F
:10E19000801EE080E08861888842EBD3BDE8F08192
:10E1A000FEF792FB0428F9D1E0886188801C884240
:10E1B000F4D8FEF789FB0702FEF786FB3843A84236
:10E1C00000D800B928467086E4E700002E2E2F4DB7
:10E1D0006964646C6577617265732F5468697264F1
:10E1E0005F50617274792F4C7749502F7372632F8F
:10E1F000636F72652F7463705F696E2E6300000039
:10E200007463705F70617273656F70743A20696EC9
:10E2100076616C696420706362000000417373650D
:10E220007274696F6E2022257322206661696C65A5
:10E2300064206174206C696E6520256420696E20FD
:10E2400025730A00D80000202DE9F05F83460AA854
:10E250005FEA030890E8400615460C460F4605D1D4
:10E2600020A3E8222CA135A0F4F72AFA002E05D12C
:10E270001CA3E9223BA131A0F4F722FAAC4214D24C
:10E280005FEA897009D4B07E40060ED4BAF1000F5F
:10E2900003D0F06E08B9306F38B104F21B2020F0C3
:10E2A0000300A84200D80546AFB24FF420723946A9
:10E2B0005846FBF7A9FB050011D0286830B109A327
:10E2C00040F20B122FA11DA0F4F7FAF96889001B88
:10E2D000A8F800002C816C812846BDE8F09F002042
:10E2E000FBE700002E2E2F4D6964646C6577617228
:10E2F00065732F54686972645F50617274792F4C32
:10E300007749502F7372632F636F72652F74637038
:10E310005F6F75742E6300007463705F7062756662
:10E320005F707265616C6C6F633A20696E76616CC8
:10E330006964206F76657273697A650041737365ED
:10E340007274696F6E2022257322206661696C6584
:10E3500064206174206C696E6520256420696E20DC
:10E3600025730A007463705F706275665F70726512
:10E37000616C6C6F633A20696E76616C69642070C1
:10E38000636200006E65656420756E636861696E26
:10E39000656420706275660070B504001FD0207D32
:10E3A00000281BD00A2819D0012817D0A06F0025FB
:10E3B00010B1FBF73FFFA567606F10B12046FEF775
:10E3C00079FA4FF0FF302086E06E01F039FD206FC2
:10E3D00001F036FDE5662567A4F8685070BDBDE81C
:10E3E000704003A340F651020DA114A0F4F768B9E0
:10E3F0002E2E2F4D6964646C6577617265732F549E
:10E40000686972645F50617274792F4C7749502F3C
:10E410007372632F636F72652F7463702E630000D5
:10E420007463705F7063625F70757267653A2069CC
:10E430006E76616C6964207063620000417373657D
:10E440007274696F6E2022257322206661696C6583
:10E4500064206174206C696E6520256420696E20DB
:10E4600025730A0070B50C00054606D129A340F6B5
:10E47000830234A13AA0F4F723F9002D06D125A395
:10E4800040F6840240A136A0F4F71AF92868A042A9
:10E4900009D1C068286008E0C168A14202D1E168E2
:10E4A000C16002E008460028F6D100252046E5605C
:10E4B000FFF772FF207D0A280DD0012826D0608B3F
:10E4C000C10708D040F0020060832046FFF7C2F980
:10E4D000207D01281AD0E06E30B10EA340F69302E1
:10E4E00031A11FA0F4F7ECF8206F30B109A340F67A
:10E4F000940233A11AA0F4F7E3F8606F30B105A3DA
:10E5000040F6960235A116A0F4F7DAF82575E582F3
:10E5100070BD00002E2E2F4D6964646C65776172AA
:10E5200065732F54686972645F50617274792F4CFF
:10E530007749502F7372632F636F72652F74637006
:10E540002E6300007463705F7063625F72656D6F4D
:10E5500076653A20696E76616C696420706362004A
:10E56000417373657274696F6E2022257322206671
:10E5700061696C6564206174206C696E6520256436
:10E5800020696E2025730A007463705F7063625F98
:10E5900072656D6F76653A20696E76616C6964208C
:10E5A0007063626C69737400756E73656E7420734A
:10E5B00065676D656E7473206C65616B696E67006D
:10E5C000756E61636B6564207365676D656E7473EA
:10E5D000206C65616B696E67000000006F6F73658A
:10E5E00071207365676D656E7473206C65616B690E
:10E5F0006E67000070B515460E46040003D0207DFE
:10E60000012809D00FE0BDE8704009A340F63D02A3
:10E6100013A119A0F4F754B805A340F63E0220A1B7
:10E6200015A0F4F74DF8C4F88C60657770BD000054
:10E630002E2E2F4D6964646C6577617265732F545B
:10E64000686972645F50617274792F4C7749502FFA
:10E650007372632F636F72652F7463702E63000093
:10E660007463705F706F6C6C3A20696E76616C6970
:10E670006420706362000000417373657274696F97
:10E680006E2022257322206661696C6564206174A6
:10E69000206C696E6520256420696E2025730A0050
:10E6A000696E76616C696420736F636B6574207347
:10E6B0007461746520666F7220706F6C6C0000006E
:10E6C0002DE9FE4F040006D1DDA34FF44772E9A106
:10E6D000EFA0F3F7F5FFF84D287841072CD5217D01
:10E6E000022905D0626A6869824206D189B117E0C1
:10E6F000206DA969884213D041E2811AFCD4218D92
:10E700001144401A0028F7DC608B40F0020060835F
:10E7100035E2CBA34FF44E72E8A1DDA0F3F7D0FFB2
:10E72000687840F008006870608B20F0010060831A
:10E730006FF00D00BDE8FE8F800704D5207D022814
:10E7400001D00328E0D1A07EC00602D4E3480068CF
:10E7500020624FF0000884F89B8084F89A8020465D
:10E76000FFF7F4FCDE4B227D03F110000421DFF8FB
:10E7700074A3DD4FDD4E921E14334FF001094FF0AC
:10E780000A0B082AB8D2DFE802F00487F2F6EFF2AB
:10E79000EEED2A78D606AFD5920767D5626CAE69E2
:10E7A000521CB24262D16869421C62626664E262D3
:10E7B000EA68401ED289A4F86020A4F8622060654F
:10E7C0002175201DF6F728F90146608E221DFDF700
:10E7D0008DFD41F21C116086B1EB400F01D2420069
:10E7E00000E00A46B2EB800F01D9810003E0B1EBF3
:10E7F000400F00D24100A4F84810B4F8660030B9C8
:10E800008FA34FF45B72BAA1A1A0F3F759FFB4F83C
:10E810006600401EA4F86600256FBDB12868206719
:10E82000284601F0FFFA206FE0B1A4F8308084F8A8
:10E83000428000BFD4F88830002B3FF465AF00223F
:10E840002146206998470D304DD05DE7E56E35B91A
:10E850007BA34FF45D72ACA18DA0F3F731FF286864
:10E86000E066DDE74FF0FF302086E3E7E9680A88DD
:10E8700049888DE807006989686942182046A969B6
:10E8800001F0F0F994F84200062804D2A4F8308090
:10E89000204601F0BBF872E12A78D60657D5626CA3
:10E8A000AE69B21A012A45D4226DB21A002A41DC9F
:10E8B0002175E06FA0B1806948B961A34FF46A7215
:10E8C00096A173A0F3F7FCFEE06F806940B1E16FA1
:10E8D000206900228B692146984738B10D3002D05B
:10E8E0002046FDF711F96FF00C0023E7204600F0F9
:10E8F000CBF9288908B1401E2881618E41F21C1095
:10E90000B0EB410F01D24A0000E00246B2EB810FAA
:10E9100001D9880003E0B0EB410F00D24800A4F811
:10E9200048006878800611D5608B40F00200608353
:10E93000072057E0E9680A8849888DE80700698957
:10E94000686942183146204601F08CF917E19007BA
:10E9500007D5606A6969401E884202D1204600F0EE
:10E960006BFF0CE1FBE057E03EE004E0FFE72046F0
:10E9700000F08AF9D5E7204600F086F9687880062D
:10E9800028784FEAC06024D5002805DA206DA969EF
:10E99000884201D1E06E28B1608B40F002006083B4
:10E9A00008201FE0608B40F0020060832046FFF7E4
:10E9B000F3FC3068A04209D1C0683060C5E0C1688E
:10E9C000A14202D1E168C160BFE008460028F6D14B
:10E9D000BBE0002833DA206DA96988422FD1E06EB0
:10E9E00068BB06202075CAE0204600F04DF9687823
:10E9F000800624D5608B40F0020060832046FFF73C
:10EA0000CBFC3068A042D7D003E0C168A142D9D086
:10EA100008460028F9D198E0204600F035F928781A
:10EA2000C0060CD5206DA969884208D1E06E30B9C6
:10EA30002046FFF7B1FC3068A042BDD083E09EE0E5
:10EA40002E2E2F4D6964646C6577617265732F5447
:10EA5000686972645F50617274792F4C7749502FE6
:10EA60007372632F636F72652F7463705F696E2EAC
:10EA7000630000007463705F70726F636573733A54
:10EA800020696E76616C696420706362000000002A
:10EA9000417373657274696F6E202225732220663C
:10EAA00061696C6564206174206C696E6520256401
:10EAB00020696E2025730A00D80000207463705FFF
:10EAC000696E7075743A207063622D3E7374617460
:10EAD0006520213D20434C4F53454400C400002095
:10EAE000B4540020B8000020D4000020D000002042
:10EAF0007063622D3E736E645F71756575656C65DC
:10EB00006E203E20300000006E6F207365676D65DB
:10EB10006E7420746F206672656500007063622DEC
:10EB20003E6C697374656E65722D3E6163636570DA
:10EB30007420213D204E554C4C000000C168A1427C
:10EB40003FF440AF08460028F8D18AF8009084F8D6
:10EB500014B03868E0603C6001F016FF0FE020461A
:10EB600000F092F82878C00609D5206DA96988427E
:10EB700005D1E06E18B9687840F010006870002088
:10EB8000D8E500002DE9F04104000DD0A56F00206C
:10EB90006E7BA067D4F88470002F10D000232A4623
:10EBA00021462069B84710E017A340F2096222A16C
:10EBB0002BA0F3F785FD6FF00F00BDE8F081002377
:10EBC0002A462146184600F033FD6FF00C0728B1A5
:10EBD0000D3017D06FF00400A567EEE7B0060FD533
:10EBE000208DB0F5066F01D0401C2085D4F88450EC
:10EBF00035B100231A4621462069A8470D3001D0BF
:10EC00000020DAE73846D8E72E2E2F4D6964646C71
:10EC10006577617265732F54686972645F506172C1
:10EC200074792F4C7749502F7372632F636F72651D
:10EC30002F7463702E6300007463705F70726F6373
:10EC40006573735F726566757365645F6461746133
:10EC50003A20696E76616C6964207063620000001E
:10EC6000417373657274696F6E202225732220666A
:10EC700061696C6564206174206C696E652025642F
:10EC800020696E2025730A002DE9F047040006D1A3
:10EC9000E1A340F27B42EDA1F3A0F3F711FD207D4B
:10ECA000042806D2DCA340F27C42F9A1EEA0F3F7DF
:10ECB00007FDFE4D4FF6FF774FF000062878C0069F
:10ECC0007ED5B4F86020A16D636D686902EB010820
:10ECD000B3EB000C0BD4834202D1AB69CB1A06D440
:10ECE000AB69994210D1E968C98991420CD9E968A8
:10ECF000C989A4F86010B4F862208A4201D2A4F84D
:10ED000062106065A869A065626CA869811A002913
:10ED10002EDC698949BBB4F86030A16D19444145C6
:10ED200023D1B4F9301000291FDB82421DD194F8A1
:10ED30004300411CC9B2814201D984F8431094F8C0
:10ED4000430003280CD9B4F84810608E084480B200
:10ED5000884202D3A4F8480003E0A4F8487000E019
:10ED600002D3204600F0DEFD8EE084F843608BE0A5
:10ED7000012977D4226D821A002A73DC628B530733
:10ED800008D522F004026283B4F84A20A4F848208F
:10ED9000A4F86A6084F84260E28FB4F93C3089B22A
:10EDA00002EBE302A4F8402084F843606064207D15
:10EDB000042831D3B4F84800B4F84A20904200E067
:10EDC00082E015D2628B120501D5012200E00222F9
:10EDD000638E53439AB28A4200D81146014489B2E5
:10EDE000814202D3A4F8481016E0A4F8487013E05A
:10EDF000B4F86A20114489B2914202D3A4F86A108F
:10EE000001E0A4F86A70B4F86A10814204D3091AC8
:10EE1000A4F86A10618EE1E7D4E91B31A4A2204670
:10EE2000FDF7AAFC20670346A3A22046E16EFDF78A
:10EE3000A3FCE066216F19B12686267720B105E094
:10EE40004FF0FF322286F8E7A4F86860B4F8642037
:10EE50002B891A44A4F86420628B120514D511B1D1
:10EE6000C86802E00DE038B1C0684068F6F722FCDF
:10EE7000E16C081A002807DC608B20F400606083D6
:10EE800002E0204600F0E6FF606BE8B1A16BAA69E2
:10EE9000891A19D58A490988081AB4F93C10A0EBD7
:10EEA000E10000B2014409B2A187002801DA404222
:10EEB00000B2B4F93E20A0EBA2001044E08700EBC2
:10EEC000E100A4F840006663B5F80AC0BCF1000F89
:10EED0007ED0207D07287BD2616A6A69DFF8E4A1D1
:10EEE000881AA946012849D402EB0C054D1B6D1C5C
:10EEF000002D43DCDAF80450804635B946A340F2D1
:10EF0000945271A158A0F3F7DBFBB84506D342A396
:10EF100040F2955270A154A0F3F7D2FBDAF8040046
:10EF20001FFA88F7D0460089B84206D23AA340F2C9
:10EF300097526DA14CA0F3F7C3FBB8F80810C91B9A
:10EF4000A8F80810D8F804000089C01B81B204E0BA
:10EF500029816E81381A2D6887B26889B842F7D343
:10EF600039462846FBF762FB606AC9F81400D8F8F6
:10EF70000C104860616A401A07D593E2501A04D514
:10EF8000608B40F0020060838CE2208D0A460144D1
:10EF9000D9F814004F46411A491C0029EDDC824281
:10EFA00038D1DAF80C0055468089F6F785FB8007E2
:10EFB00000D001202989B846084480B27881218D8B
:10EFC000814228D2E8688089F6F776FBC00700E026
:10EFD0006DE20ED0E8688089F6F76EFBC0F344005E
:10EFE0004000F6F769FBE9688A8922F47C521043F5
:10EFF0008881208D2881E8688089F6F75DFB80078D
:10F0000002D52889401E288129896868FBF726FADD
:10F01000E86871E08DE18BE02E2E2F4D6964646C01
:10F020006577617265732F54686972645F506172AD
:10F0300074792F4C7749502F7372632F636F726509
:10F040002F7463705F696E2E630000007463705FDD
:10F05000726563656976653A20696E76616C69648C
:10F060002070636200000000417373657274696F01
:10F070006E2022257322206661696C6564206174AC
:10F08000206C696E6520256420696E2025730A0056
:10F090007463705F726563656976653A2077726F35
:10F0A0006E6720737461746500000000D800002052
:10F0B000756E61636B656400756E73656E740000D8
:10F0C000C4000020AC8B0020696E7365672E702031
:10F0D000213D204E554C4C00696E73616E65206F6A
:10F0E00066667365742100007062756620746F6FC8
:10F0F0002073686F727421008089F6F7DDFA80074B
:10F1000000D001202989084481B2A8F80A10238D73
:10F11000626AD8F814001A440844904208D0AFF24A
:10F12000081340F2CB52E9A1AFF2C400F3F7C8FADA
:10F13000606F002873D0E8688089F6F7BDFAC007D1
:10F1400004D107E00168616700F06CFE606F002881
:10F15000F8D164E0676F1EE08889F6F7ADFAC00762
:10F1600015D0E8688089F6F7A7FA80070FD4012048
:10F17000F6F7A2FAE9688A8910438881F6F79CFAC3
:10F18000800700D0012029890844A8F80A003846E1
:10F190003F6800F047FEDFB3F9683A89D8F81430C9
:10F1A00048680244B8F80A001844801AD4D5B8F860
:10F1B0000A20D8F814108B18FA6852689B1A002B92
:10F1C0002CDD501A2881E8688089F6F775FA8007E7
:10F1D00002D52889401E288129896868FBF73EF9F5
:10F1E000E8688089F6F768FA800700D0012029894D
:10F1F000084481B2A8F80A10D8F814000844F96845
:10F20000496888420AD0AFF2F01340F2FC5200E0A5
:10F2100004E0BCA1AFF2B010F3F752FA6767B8F898
:10F220000A00D8F81410474601446162218D8142DA
:10F2300008D2AFF21C2340F20762C1A1AFF2D8108E
:10F24000F3F73EFA208D7989401A2085204601F097
:10F250004DFC6868018909B1F8616E60E8688089D1
:10F26000F6F72AFAC00752D0787840F0200078707C
:10F270004DE079618089F6F71FFA800700D0012000
:10F280002A89616A114408446062E8688089F6F757
:10F2900013FA800700D0012029890844218D884273
:10F2A00008D9AFF28C2340F22B62ADA1AFF2482017
:10F2B000F3F706FAE8688089F6F7FEF9800700D0D0
:10F2C000012029890844218D081A2085204601F053
:10F2D0000DFC6968088930B1F86910B1FAF736FD9C
:10F2E00000E0F9616E60E8688089F6F7E5F9C0072B
:10F2F00008D0787840F020007870207D042801D173
:10F300000720207528686067284600F08BFD656F30
:10F3100025B1E868626A41689142AAD0608BC10752
:10F3200002D020F00100CEE040F001006083BDE893
:10F33000F087656F9DB10026C846E968496881423B
:10F3400012D1BAF80800298988420CD98E4800F0F9
:10F3500013FD002807D08EB33060294625E08A4887
:10F3600000F00AFD60679DE016B3F2685268821AE9
:10F37000012A25D4421A521C002A21DC824800F0BE
:10F38000FBFC070013D0F068318940684218D8F8B8
:10F390001410521A002A05DD081A81B231817068F2
:10F3A000FBF75CF8294638463760FEF7CDF979E07F
:10F3B000421A05D5744800F0DFFCE8B36067CCE77B
:10F3C0002A682E46CABB411A002968DDE868808990
:10F3D000F6F772F9C00765D16B4800F0CDFC2860E4
:10F3E00050B3E8684646416828890A18D8F81400DE
:10F3F000121A002A05DD401A81B229816868FBF7DC
:10F400002DF8218D606A7269084471891144081AC7
:10F41000002847DD2868C0688089F6F74DF9C007E5
:10F4200013D02868C0688089F6F746F9C0F3440015
:10F430004000F6F741F901E030E030E02968C968A2
:10F440008A8922F47C5210438881A08C218D084443
:10F45000B18A401A81B22868018128684068FAF7A9
:10F46000FDFF2868C0688089F6F726F9800700D07C
:10F47000012029680989084480B27081228D616A5F
:10F4800011447269104488420CD0AFF274434FF4B7
:10F49000DF620EA1AFF23040F3F712F902E015007F
:10F4A0007FF44BAF2046BDE8F04700F0D3BC606A64
:10F4B00069690A1A06D4228D1044081A401C0028D3
:10F4C0007FF735AF608B40F002002FE77463705F09
:10F4D000726563656976653A207365676D656E74FC
:10F4E000206E6F74207472696D6D656420636F7235
:10F4F000726563746C7920746F207263765F776EC7
:10F50000640A00007463705F726563656976653ACA
:10F51000207365676D656E74206E6F7420747269F8
:10F520006D6D656420636F72726563746C792074AD
:10F530006F206F6F7365712071756575650A0000C6
:10F540007463705F726563656976653A2074637091
:10F550006C656E203E207263765F776E640A0000F1
:10F560007463705F726563656976653A206F6F7367
:10F570006571207463706C656E203E207263765FE7
:10F58000776E640A00000000AC8B002070B50D4659
:10F5900004000BD0207D012806D105A340F2DF72C4
:10F5A0000FA119A0F3F78CF8C4F8845070BD0000C7
:10F5B0002E2E2F4D6964646C6577617265732F54CC
:10F5C000686972645F50617274792F4C7749502F6B
:10F5D0007372632F636F72652F7463702E63000004
:10F5E000696E76616C696420736F636B65742073F8
:10F5F0007461746520666F72207265637620636142
:10F600006C6C6261636B0000417373657274696F47
:10F610006E2022257322206661696C656420617406
:10F62000206C696E6520256420696E2025730A00B0
:10F6300010B51446080008D0002C10D0218900F025
:10F640004FF82046FAF7F6FD0AE008A34FF4D3621C
:10F6500012A119A0F3F734F86FF00F0010BD0BB131
:10F66000002010BDBDE81040FCF7E0BB2E2E2F4D52
:10F670006964646C6577617265732F54686972643C
:10F680005F50617274792F4C7749502F7372632FDA
:10F69000636F72652F7463702E6300007463705F14
:10F6A000726563765F6E756C6C3A20696E76616C1C
:10F6B0006964207063620000417373657274696FDE
:10F6C0006E2022257322206661696C656420617456
:10F6D000206C696E6520256420696E2025730A0000
:10F6E00070B50D46040003D0207D012809D00FE03D
:10F6F000BDE8704014A340F2CF321FA124A0F2F75E
:10F70000DFBF11A340F2D2322BA121A0F2F7D8FF24
:10F71000218D4FF40662481980B2904201D881428F
:10F7200001D9228500E02085204601F0DFF9B0F5FF
:10F73000067F08D3608B40F0020060832046BDE85E
:10F740007040FEF787B870BD2E2E2F4D6964646C33
:10F750006577617265732F54686972645F50617276
:10F7600074792F4C7749502F7372632F636F7265D2
:10F770002F7463702E6300007463705F726563762C
:10F7800065643A20696E76616C696420706362001A
:10F79000417373657274696F6E202225732220662F
:10F7A00061696C6564206174206C696E65202564F4
:10F7B00020696E2025730A00646F6E2774206361D0
:10F7C0006C6C207463705F72656376656420666F2D
:10F7D00072206C697374656E2D7063627300000033
:10F7E00070B50D00044606D1084BFF2208A103F1B5
:10F7F0004400F2F765FF002004E0E16FA94200D168
:10F80000E067E468002CF8D170BD00000CC7000868
:10F810007463705F72656D6F76655F6C6973746534
:10F820006E65723A20696E76616C6964206C6973EA
:10F8300074656E65720000002DE9F041040006D188
:10F840001BA340F2C16227A12CA0F2F739FF256F5C
:10F850006FF005061DB12846FEF724FC10B13046B6
:10F86000BDE8F081286804F16C06206700E0366886
:10F87000306850B1C0684068F5F71CFF0746E8687B
:10F880004068F5F717FF381AF1D430682860356002
:10F890002868002108B9A4F8681094F84200FF28ED
:10F8A00002D2401C84F8420000206163D8E70000C7
:10F8B0002E2E2F4D6964646C6577617265732F54C9
:10F8C000686972645F50617274792F4C7749502F68
:10F8D0007372632F636F72652F7463705F6F7574DB
:10F8E0002E6300007463705F7265786D69743A20EE
:10F8F000696E76616C696420706362004173736540
:10F900007274696F6E2022257322206661696C65AE
:10F9100064206174206C696E6520256420696E2006
:10F9200025730A0010B5040006D119A340F2F9624C
:10F9300024A12CA0F2F7C4FE206F002827D0A07EBF
:10F94000400724D42046FFF777FF00281FD1B4F8E2
:10F950004810B4F86000814200D208464108A4F87B
:10F960004A10608EB1EB400F05D24FF6FF7101EAED
:10F970004001A4F84A1089B200EB40000844A4F802
:10F980004800608B40F0040060830020208610BD9A
:10F990002E2E2F4D6964646C6577617265732F54E8
:10F9A000686972645F50617274792F4C7749502F87
:10F9B0007372632F636F72652F7463705F6F7574FA
:10F9C0002E6300007463705F7265786D69745F66A2
:10F9D0006173743A20696E76616C69642070636249
:10F9E00000000000417373657274696F6E202225F8
:10F9F0007322206661696C6564206174206C696E95
:10FA00006520256420696E2025730A0010B5040066
:10FA100006D109A340F2AD6214A11BA0F2F750FE7B
:10FA2000204600F09BF8002804D12046BDE8104095
:10FA300000F03EB810BD00002E2E2F4D6964646C9E
:10FA40006577617265732F54686972645F50617283
:10FA500074792F4C7749502F7372632F636F7265DF
:10FA60002F7463705F6F75742E6300007463705F32
:10FA70007265786D69745F72746F3A20696E766131
:10FA80006C69642070636200417373657274696F9E
:10FA90006E2022257322206661696C656420617482
:10FAA000206C696E6520256420696E2025730A002C
:10FAB00010B5040006D109A34FF4D36214A11DA010
:10FAC000F2F7FEFD94F84200FF2802D2401C84F8B1
:10FAD00042002046BDE81040FDF7BCBE2E2E2F4D43
:10FAE0006964646C6577617265732F5468697264C8
:10FAF0005F50617274792F4C7749502F7372632F66
:10FB0000636F72652F7463705F6F75742E6300008E
:10FB10007463705F7265786D69745F72746F5F6330
:10FB20006F6D6D69743A20696E76616C69642070DE
:10FB300063620000417373657274696F6E202225E1
:10FB40007322206661696C6564206174206C696E43
:10FB50006520256420696E2025730A002DE9F04197
:10FB6000040006D11BA340F2636227A12FA0F2F785
:10FB7000A7FD256F6FF005065DB103E0FEF792FA71
:10FB800038B92D68286800282846F7D1FEF78AFA88
:10FB900010B13046BDE8F081E06E28600026206F8D
:10FBA000C4E91B06608B40F400606083E86840682D
:10FBB000F5F780FD0746E8688089F5F77DFD800749
:10FBC00000D001202989384408446663E06400209D
:10FBD000E0E700002E2E2F4D6964646C657761723A
:10FBE00065732F54686972645F50617274792F4C29
:10FBF0007749502F7372632F636F72652F74637030
:10FC00005F6F75742E6300007463705F7265786D4A
:10FC100069745F72746F5F707265706172653A20AB
:10FC2000696E76616C69642070636200417373650C
:10FC30007274696F6E2022257322206661696C657B
:10FC400064206174206C696E6520256420696E20D3
:10FC500025730A0018B1007A08B1F9F791BA104675
:10FC6000F4F7DABE2DE9FF4F85B01E00DDE9127909
:10FC7000DDF8508093468A4606D11AA340F2C4723A
:10FC800025A12CA0F2F71CFD002F06D115A340F2F0
:10FC9000C57232A127A0F2F713FD002546F2080431
:10FCA0005046F5F707FD1422CDE90224CDE900986E
:10FCB0000346002229465846FDF7A2FF04000ED055
:10FCC00001462B4600220598FEF792F8059809B0E8
:10FCD0003B4632462146BDE8F04FFEF719B809B061
:10FCE000BDE8F08F2E2E2F4D6964646C65776172CC
:10FCF00065732F54686972645F50617274792F4C18
:10FD00007749502F7372632F636F72652F7463701E
:10FD10005F6F75742E6300007463705F7273743A62
:10FD200020696E76616C6964206C6F63616C5F69D9
:10FD300070000000417373657274696F6E20222534
:10FD40007322206661696C6564206174206C696E41
:10FD50006520256420696E2025730A007463705F36
:10FD60007273743A20696E76616C69642072656D95
:10FD70006F74655F6970000070B5050006D10CA353
:10FD800040F2826216A11DA0F2F79AFC0320F7F759
:10FD9000EFFE04000AD004CD95E80B0004C484E80B
:10FDA0000B00241FFAF7F4FB204670BD002070BD45
:10FDB0002E2E2F4D6964646C6577617265732F54C4
:10FDC000686972645F50617274792F4C7749502F63
:10FDD0007372632F636F72652F7463702E630000FC
:10FDE0007463705F7365675F636F70793A20696EE3
:10FDF00076616C6964207365670000004173736508
:10FE00007274696F6E2022257322206661696C65A9
:10FE100064206174206C696E6520256420696E2001
:10FE200025730A0010B5040009D0606808B1FAF71C
:10FE300001FA2146BDE810400320F7F7E1BD10BDEF
:10FE400010B503E00468FFF7EDFF20460028F9D164
:10FE500010BD00002DE9F0414FF0000704003E46C0
:10FE600006D118A340F2EA7223A12BA0F2F728FCD6
:10FE70000025206DF5F71EFC03460022294620468A
:10FE8000FDF758FE050010D0014633463A4620469D
:10FE9000FDF7AEFF2246231D29461046FDF738FF29
:10FEA000618B50B141F0030109E0608B40F0030029
:10FEB00060836FF00100BDE8F08121F003016183F0
:10FEC000F9E700002E2E2F4D6964646C657761722E
:10FED00065732F54686972645F50617274792F4C36
:10FEE0007749502F7372632F636F72652F7463703D
:10FEF0005F6F75742E6300007463705F73656E646A
:10FF00005F656D7074795F61636B3A20696E7661CD
:10FF10006C69642070636200417373657274696F09
:10FF20006E2022257322206661696C6564206174ED
:10FF3000206C696E6520256420696E2025730A0097
:10FF400070B5050006D113A340F2EB321EA125A027
:10FF5000F2F7B6FBEC6E0CB909E004462068002805
:10FF6000FBD1E0688089F5F7A7FB400705D028465C
:10FF7000BDE870400121FCF715BA0120F5F79CFBA4
:10FF8000E1688A8910438881688B40F0200068838B
:10FF9000002070BD2E2E2F4D6964646C65776172F0
:10FFA00065732F54686972645F50617274792F4C65
:10FFB0007749502F7372632F636F72652F7463706C
:10FFC0005F6F75742E6300007463705F73656E6499
:10FFD0005F66696E3A20696E76616C696420706351
:10FFE00062000000417373657274696F6E20222590
:10FFF0007322206661696C6564206174206C696E8F
:020000040801F1
:100000006520256420696E2025730A0070B50D46B1
:1000100004000BD0207D012806D105A340F2F37225
:100020000FA119A0F2F74CFBC4F8805070BD00007E
:100030002E2E2F4D6964646C6577617265732F5441
:10004000686972645F50617274792F4C7749502FE0
:100050007372632F636F72652F7463702E63000079
:10006000696E76616C696420736F636B657420736D
:100070007461746520666F722073656E74206361AD
:100080006C6C6261636B0000417373657274696FBD
:100090006E2022257322206661696C65642061747C
:1000A000206C696E6520256420696E2025730A0026
:1000B00010B504000ED0207D6FF00A03012821D076
:1000C000002918D0608B002A40F0100060830BD00C
:1000D00001211AE010A340F207221BA121A0F2F790
:1000E000EFFA6FF00F0010BDA06F98B1FAF7A2F809
:1000F0000020A0670EE06AB1032805D0042803D0D1
:10010000072801D0184610BD00212046BDE8104048
:10011000FBF7DCBE002010BD2E2E2F4D6964646CF1
:100120006577617265732F54686972645F5061729C
:1001300074792F4C7749502F7372632F636F7265F8
:100140002F7463702E6300007463705F736875743E
:10015000646F776E3A20696E76616C6964207063B3
:1001600062000000417373657274696F6E2022250E
:100170007322206661696C6564206174206C696E0D
:100180006520256420696E2025730A002DE9FE4F45
:10019000CA4D47F6FF7B4FF4FA7AE8684FF0000843
:1001A000401CE860A878401CA8700027AC6977E183
:1001B000207D002806D1C2A340F2BE42CCA1D7A028
:1001C000F2F77EFA207D012806D1BDA340F2BF429E
:1001D000DCA1D2A0F2F774FA207D0A2806D1B8A3D8
:1001E0004FF49862E2A1CDA0F2F76AFAA17FA87855
:1001F000814202D12746E46852E1A0770026207DA3
:10020000B146022805D194F84200062801D3012600
:100210009FE094F842000C281BD294F89900002823
:1002200041D0206F002806D0A5A340F2D442DCA123
:10023000BAA0F2F745FAE06E002806D1A0A340F27A
:10024000D542E4A1B5A0F2F73BFA94F89A000C2845
:1002500001D3012671E094F89910EC48095C94F8F8
:100260009800884202D2401C84F89800C0B28842AC
:1002700063D3B4F86010204619B100F06FFA20B1D2
:1002800007E001F0C3F8E8BB03E02046FDF7E2FA1F
:10029000C0B384F8988094F8990007284DD2401C88
:1002A00084F8990049E0B4F93000584501D2401C67
:1002B0002086B4F93000B4F9401088423DDB204676
:1002C000FFF74CFC18B1206FE0B9E06ED0B1207D93
:1002D000022813D094F842000C2800D30C20B4F963
:1002E0003E10B4F93C2001EBE202C949085C02FA75
:1002F00000F0584500DB5846A4F840004046A4F8FA
:10030000308000E019E0B4F84820B4F860108A4268
:1003100000D211464A08A4F84A20618E4FF6FF73B6
:1003200003EA41039A4201D2A4F84A30A4F84810E3
:10033000A4F86A002046FFF7BBFB207D062808D101
:10034000A07EC00605D5206AE968081A282800D9C9
:10035000761C607A000728D5207D042801D0072864
:1003600023D1AC48D4F89410EB680844B0FBFAF2FF
:10037000206A181A824203D24FF00109761C14E059
:1003800094F89B2042F29F4312FB03F201EBC2015F
:10039000B1FBFAF1814208D22046FCF747FE20B9B2
:1003A00094F89B00401C84F89B00606F60B1206A49
:1003B000E968081AB4F9401001EB4101B0EB410FB4
:1003C00002D32046FCF776FA207D032802D00928C4
:1003D00007D00BE0206AE968081A282806D9761C9D
:1003E00004E0206AE968081AF028F8D8002E3DD009
:1003F0002046D4F89060FDF7CFFFA8695FB1844232
:1004000006D12FA340F26D5283A144A0F2F758F910
:10041000E068F8600AE0A04206D029A340F27152D9
:1004200088A13EA0F2F74CF9E068A861B9F1000F8D
:100430000AD0228BE18A201D8DE80700234618464A
:10044000626A216DFFF70EFC2046D4F81090E46834
:10045000FCF74AF985F8008016B36FF00C014846A6
:10046000B047287800287FF4A0AE19E02746E4685A
:10047000387F401CC0B23877797F884210D387F824
:100480001C8085F80080D7F88C2032B13946386955
:10049000904729780029E6D110B93846FDF7DAF9F6
:1004A000002C7FF485AE0026EC6912E1207D0A283D
:1004B00003D003A340F2A152DAE0DEE0B80000204E
:1004C0002E2E2F4D6964646C6577617265732F54AD
:1004D000686972645F50617274792F4C7749502F4C
:1004E0007372632F636F72652F7463702E630000E5
:1004F0007463705F736C6F77746D723A20616374AC
:10050000697665207063622D3E7374617465202185
:100510003D20434C4F5345440A000000417373652E
:100520007274696F6E2022257322206661696C6582
:1005300064206174206C696E6520256420696E20DA
:1005400025730A007463705F736C6F77746D723A11
:1005500020616374697665207063622D3E737461F7
:10056000746520213D204C495354454E0A0000003B
:100570007463705F736C6F77746D723A206163742B
:10058000697665207063622D3E7374617465202105
:100590003D2054494D452D574149540A0000000063
:1005A0007463705F736C6F7774696D723A207065F5
:1005B0007273697374207469636B696E67207769FD
:1005C000746820696E2D666C696768742064617454
:1005D000610000007463705F736C6F7774696D7293
:1005E0003A2070657273697374207469636B696E05
:1005F00067207769746820656D7074792073656E03
:100600006420627566666572000000001B3B01088D
:10061000503B0108B84C0A007463705F736C6F77CD
:10062000746D723A206D6964646C65207463702027
:10063000213D207463705F6163746976655F7063E8
:10064000627300007463705F736C6F77746D723ADD
:1006500020666972737420706362203D3D2074636C
:10066000705F6163746976655F7063627300000038
:100670001AA1AFF25810F2F723F8216AE868401A7D
:10068000F02812D92046FDF787FEE86986B184423A
:1006900008D1AFF2D41340F2AF521CA1AFF28410D4
:1006A000F2F70EF8E068F0600FE02646E46810E02C
:1006B000A04208D0AFF2F81340F2B3521DA1AFF23E
:1006C000A410F1F7FDFFE068E8612046E468FCF75C
:1006D0000BF8002C7FF4EAAEBDE8FE8F7463705F08
:1006E000736C6F77746D723A2054494D452D5741A4
:1006F0004954207063622D3E7374617465203D3DE2
:100700002054494D452D5741495400007463705F92
:10071000736C6F77746D723A206D6964646C6520D8
:1007200074637020213D207463705F74775F706321
:10073000627300007463705F736C6F77746D723AEC
:1007400020666972737420706362203D3D2074637B
:10075000705F74775F706362730000002DE9F84F7B
:100760000F46050006D157A340F24B3262A16BA0A1
:10077000F1F7A6FFEC6E002C7ED0002F10D0208960
:10078000B8427AD9688EB84206D24EA340F25B32A4
:100790006CA162A0F1F794FF208900280BD011E032
:1007A00048A340F253326BA15CA0F1F789FF6FF0D0
:1007B0000500BDE8F88F43A34FF457726EA157A010
:1007C000F1F77EFF94F80AB05FEACB7001D00426FF
:1007D00000E0002620894FF42072C01B1FFA80F829
:1007E00008EB060081B23620F9F70EF95FEA000A3D
:1007F00065D0606822890189891A39448BB2DAF898
:10080000041042463144F9F789FC404554D1E06870
:100810008089F4F751FF00F03F064FF000093007E0
:1008200003D526F008064FF00809F00703D026F09C
:10083000010649F00109E0684068F4F73BFFC3197D
:100840004A4651462846CDF800B0FBF78FFC07001A
:1008500032D06068F9F71BFB35F8661F081A28804C
:1008600060680289A2EB080189B2F9F7F7FD2189D6
:10087000A1EB0800208101E021E01BE03046F4F705
:100880001BFFE1688A89104388816068F9F7FFFAE5
:100890002988084428807868F9F7F9FA29880844F3
:1008A00025F86609206838602760386810B900208C
:1008B000A5F8680000207CE75046F9F7BBFC4FF034
:1008C000FF3076E72E2E2F4D6964646C6577617278
:1008D00065732F54686972645F50617274792F4C2C
:1008E0007749502F7372632F636F72652F74637033
:1008F0005F6F75742E6300007463705F73706C6952
:10090000745F756E73656E745F7365673A20696EA8
:1009100076616C69642070636200000041737365E6
:100920007274696F6E2022257322206661696C657E
:1009300064206174206C696E6520256420696E20D6
:1009400025730A0073706C6974203C3D206D7373CD
:100950000000000043616E27742073706C6974207E
:100960007365676D656E7420696E746F206C656E5B
:100970006774682030000000757365672D3E6C65F4
:100980006E203E20300000000848816800290CD10C
:100990000749084A09681268114306D0012181609D
:1009A00000220549FA20FAF7D3BE7047FC00002068
:1009B000D0000020D4000020591701083EB51D4C7E
:1009C00005462078400722D4002D06D11AA340F214
:1009D000EE2226A12DA0F1F773FE2078810717D50E
:1009E000696A6069421A18D42A8D1144411A002993
:1009F00013DCE1682F4B0A8849880093CDE9011286
:100A000061891B1D42182846A169FFF72BF93EBDDD
:100A1000C00702D028480068286260890028F6D004
:100A2000688B40F0020068832846BDE83E40FCF732
:100A300011BF0000D80000202E2E2F4D6964646C79
:100A40006577617265732F54686972645F50617273
:100A500074792F4C7749502F7372632F636F7265CF
:100A60002F7463705F696E2E630000007463705FA3
:100A700074696D65776169745F696E7075743A2029
:100A8000696E76616C69642070636200417373659E
:100A90007274696F6E2022257322206661696C650D
:100AA00064206174206C696E6520256420696E2065
:100AB00025730A00C4540020C400002010B5FBF7C1
:100AC000DDFD05484178491C4170C80703D0BDE8E9
:100AD0001040FFF75BBB10BDB80000200248417812
:100AE00041F0100141707047D800002070B504003B
:100AF00006D115A340F2A6321FA128A0F1F7E0FD10
:100B0000258D626A638E51194FF48666E06AB3429E
:100B100000D933460344CB1A02D46585081A70BD48
:100B2000111A002902DD002060850BE0851AB5F559
:100B3000803F06D304A340F2B63222A117A0F1F7FA
:100B4000BFFD6585002070BD2E2E2F4D6964646C3D
:100B50006577617265732F54686972645F50617262
:100B600074792F4C7749502F7372632F636F7265BE
:100B70002F7463702E6300007463705F757064611E
:100B800074655F7263765F616E6E5F776E643A2044
:100B9000696E76616C69642070636200417373658D
:100BA0007274696F6E2022257322206661696C65FC
:100BB00064206174206C696E6520256420696E2054
:100BC00025730A006E65775F7263765F616E6E5F94
:100BD000776E64203C3D20307866666666000000D3
:100BE0002DE9FF4F4FF0000B8DB01746CDF80CB03C
:100BF000CDF818B005005C465E46CDF824B0CDF8BF
:100C00002CB0ADF820B0D9466FF00F08CDF828B061
:100C100007D0688EB5F86210B0EB510F06D20146CE
:100C200005E0EEA34FF4CF72F9A147E0490801B106
:100C3000084605900E9800283CD01146284600F042
:100C40002BFB00283ED1B5F866A00490E86E002882
:100C50007ED0044600680028FBD1A07AC00700D0EF
:100C600004208046218905984144814206D9DBA3AE
:100C70004FF4F372ECA1F2A0F1F722FD218905985F
:100C80004144401A1FFA80F8B5F86800ADF820001A
:100C900000282FD0404506D9D0A34FF4FC72F2A112
:100CA000E7A0F1F70DFD0394BDF82010B9420CD276
:100CB0000A460BE0C9A340F2AD12F3A1E0A0F1F7A0
:100CC000FFFC404611B0BDE8F08F3A464046424531
:100CD00004D8B94201D2084600E03846814606EB06
:100CE000090086B2A1EB0900ADF82000A8EB0900CD
:100CF0001FFA80F8BDF8200040B1BE4206D0B7A36D
:100D00004FF40072EDA1CEA0F1F7DAFCBE4263D23F
:100D1000B8F1000F60D020890028FBD0B81B4146F5
:100D2000404500DD084680B2079010980394C00744
:100D300018D0012110980095CDE9010108AB424679
:100D400000200799FDF780FA5FEA000B6CD000E005
:100D500037E00E98079A8119DBF80400EFF7DAFA0A
:100D6000584626E0606800E0084601680029FBD18B
:100D7000017B890910D14168408901440E98814264
:100D80000AD136B195A340F23122D4A1ACA0F1F73B
:100D900097FC07980A9011E0012200200799F8F7C4
:100DA00033FE5FEA000BD1D00E9881195846CBF87C
:100DB0000410F9F76CF850441FFA80FA0798304491
:100DC00095E0B5F868000028A4D084A340F24A2238
:100DD000CDA19BA0F1F774FC8AE0B81B81B2DDE9DC
:100DE0000420801A80B2814200D2084680461098C2
:100DF000C0072AD00998002825D000211098009516
:100E0000CDE9010108EB020081B208AB3620059A5A
:100E1000FDF71AFA0190002898D04189414508D27F
:100E20006EA340F2662200E006E2C3A184A0F1F7BF
:100E300047FC0E9881190198426804981044424674
:100E4000EFF768FA22E00121D8E7BDF8200030B1C1
:100E500062A340F27122C8A179A0F1F731FC01220E
:100E600041463620F8F7D0FD009000289BD00E9820
:100E70004FF4207281190098416036200499F8F7E8
:100E8000C3FD019078B10099F8F760FF0198F8F779
:100E9000FEFF50441FFA80FABAF1090F05D90198F4
:100EA000F9F7C8F9C8E10098FAE70B980090E86DE7
:100EB0000022831928460199FBF758F9039000286E
:100EC000F0D0099810B1069818B109E0039809907C
:100ED00009E042A340F2AB22ABA159A0F1F7F0FB2D
:100EE0000698039901600398069006EB080086B205
:100EF000BE42FFF472AFB9F1000F19D0666811E07D
:100F0000318901EB09003081306850B9718970680E
:100F10004A4608440E99EFF7FDF9718901EB090083
:100F200070813668002EEBD1218901EB0900208108
:100F3000BDF82000A5F86800BBF1000F0FD034B950
:100F400026A34FF4387295A13DA0F1F7B9FB59469D
:100F50006068F8F7FBFE2189BBF808001FE00A98DB
:100F6000F8B10CB1606830B91CA340F2E62299A137
:100F700033A0F1F7A5FB606804E003890A9A1A44DC
:100F80000281084601680029F7D102890A991144B3
:100F9000018142890A991144418121890A980844B2
:100FA0002081099884B12060E86D3844E865B5F87F
:100FB0006400C01BA5F864005FEA0A00A5F866009B
:100FC00001D0286F10B126E1E866EDE7E86E18B9A8
:100FD00002A340F2123219E11DE100002E2E2F4D26
:100FE0006964646C6577617265732F5468697264B3
:100FF0005F50617274792F4C7749502F7372632F51
:10100000636F72652F7463705F6F75742E63000079
:101010007463705F77726974653A20696E76616C8B
:1010200069642070636200006D73735F6C6F63614D
:101030006C20697320746F6F20736D616C6C00009D
:10104000417373657274696F6E2022257322206666
:1010500061696C6564206174206C696E652025642B
:1010600020696E2025730A00696E636F6E73697361
:1010700074656E74206F76657273697A6520767315
:101080002E207370616365007463705F777269749A
:10109000653A20617267203D3D204E554C4C20281A
:1010A00070726F6772616D6D65722076696F6C61C9
:1010B000746573204150492900000000696E636F18
:1010C0006E73697374656E74206F76657273697A76
:1010D000652076732E206C656E0000007463705F6F
:1010E00077726974653A20524F4D2070627566734D
:1010F0002063616E6E6F74206265206F7665727317
:10110000697A656400000000756E73656E745F6FC8
:1011100076657273697A65206D69736D6174636851
:1011200020287063622D3E756E73656E742069733E
:10113000204E554C4C2900007463705F77726974BF
:10114000653A20636865636B207468617420666922
:1011500072737420706275662063616E20686F6CB4
:10116000642074686520636F6D706C6574652073AE
:1011700065676C656E0000006F76657273697A65ED
:10118000203D3D2030000000707265765F7365671A
:1011900020213D204E554C4C000000007463705FD0
:1011A00077726974653A2063616E6E6F7420636F45
:1011B0006E636174656E617465207768656E20701A
:1011C00063622D3E756E73656E7420697320656D64
:1011D000707479007463705F77726974653A206522
:1011E0007874656E73696F6E206F662072656665D0
:1011F00072656E63652072657175697265732072C0
:1012000065666572656E6365000000001AA1AFF245
:10121000D010F1F755FA039860B1C06850B110983A
:10122000800707D40820F4F747FA0399C9688A8928
:1012300010438881002045E5688B40F0800068837A
:10124000BBF1000001D0F8F7F5FF099808B1FEF7EF
:10125000F7FDB5F8660060B1286F50B9E86E40B987
:10126000AFF2882340F2273203A1AFF22C20F1F72E
:1012700027FA4FF0FF3025E57463705F7772697469
:10128000653A2076616C6964207175657565206CBE
:10129000656E67746800000070B50D46040006D1E5
:1012A0001FA340F233122BA132A0F1F709FA207DDF
:1012B000042808D0072806D0022804D0032802D02A
:1012C0006FF00A0070BD002D27D0B4F864004FF015
:1012D000FF31A84203D3B4F86600092805D3608B18
:1012E00040F080006083084670BD0028206F09D060
:1012F000002812D1E06E00280FD109A340F2551248
:1013000026A107E010B9E06E002806D004A34FF430
:10131000AC7231A117A0F1F7D3F9002070BD000025
:101320002E2E2F4D6964646C6577617265732F543E
:10133000686972645F50617274792F4C7749502FDD
:101340007372632F636F72652F7463705F6F757450
:101350002E6300007463705F77726974655F636801
:1013600065636B733A20696E76616C6964207063A3
:1013700062000000417373657274696F6E202225EC
:101380007322206661696C6564206174206C696EEB
:101390006520256420696E2025730A007463705FE0
:1013A00077726974653A207062756673206F6E207B
:1013B0007175657565203D3E206174206C656173B3
:1013C00074206F6E65207175657565206E6F6E2D6A
:1013D000656D7074790000007463705F7772697472
:1013E000653A206E6F207062756673206F6E207193
:1013F00075657565203D3E20626F74682071756566
:1014000075657320656D7074790000002DE9F047F3
:1014100004004FF0000906D12CA340F64F0238A17A
:1014200040A0F1F74DF9E56E35B394F89A00FF2826
:1014300002D2401C84F89A00E8688089F4F73CF9ED
:10144000C00701D02889D0B100260122E8684946AA
:1014500043682046FCF76EFB5FEA000812D0D8F81C
:1014600004100F468EB11120F4F726F9B98921F442
:101470007C510843B88111E00020BDE8F0870126C7
:101480000022E3E74FF0FF30F7E768682B8914315B
:101490000289D21A93B20122F8F740FEE868406848
:1014A000F4F708F9216D401C091A00D520654B4658
:1014B000002241462046FCF79BFC2246231D414664
:1014C000BDE8F0471046FCF723BC00002E2E2F4D40
:1014D0006964646C6577617265732F5468697264BE
:1014E0005F50617274792F4C7749502F7372632F5C
:1014F000636F72652F7463705F6F75742E63000085
:101500007463705F7A65726F5F77696E646F775F1F
:1015100070726F62653A20696E76616C69642070E2
:1015200063620000417373657274696F6E202225D7
:101530007322206661696C6564206174206C696E39
:101540006520256420696E2025730A0038B50D4694
:101550000446F4F7B3F813480621C0E90045083003
:10156000FAF778F8002806D00FA340F261221AA1FA
:1015700022A0F1F7A5F80B480C30FAF798F80028EC
:1015800006D009A340F2652226A11CA0F1F798F825
:101590000020024600904FF480632B492BA0FAF7FD
:1015A000BEF838BD540000202E2E2F4D6964646CA7
:1015B0006577617265732F54686972645F506172F8
:1015C00074792F4C7749502F7372632F6170692F94
:1015D00074637069702E63006661696C6564207461
:1015E0006F206372656174652074637069705F74E5
:1015F0006872656164206D626F7800004173736585
:101600007274696F6E2022257322206661696C6591
:1016100064206174206C696E6520256420696E20E9
:1016200025730A006661696C656420746F206372BB
:1016300065617465206C6F636B5F74637069705F64
:10164000636F726500000000911701087463706990
:10165000705F746872656164000000002DE9F041FC
:10166000064690460D461248FAF717F828B911A316
:10167000FC221CA11FA0F1F723F80920F6F778FA45
:1016800004004FF0FF370FD000202070C4F80C800A
:10169000C4E9016521460648F9F7F5FF002804D0A2
:1016A00021460920F6F7ACF93846BDE8F081000084
:1016B0005C0000202E2E2F4D6964646C657761728A
:1016C00065732F54686972645F50617274792F4C2E
:1016D0007749502F7372632F6170692F746370693B
:1016E000702E6300496E76616C6964206D626F785C
:1016F00000000000417373657274696F6E202225CB
:101700007322206661696C6564206174206C696E67
:101710006520256420696E2025730A0091F82D202C
:1017200012F0180F01D0024A00E0024AFFF796BFFC
:10173000F53900085944000870B504460D460548BF
:10174000F9F7B0FF2846A0470248F9F7BFFF00208D
:1017500070BD00006000002010B5FFF7AFF9084829
:10176000084900680968084306D00022BDE8104017
:101770000549FA20F9F7ECBF04490020886010BD44
:10178000D0000020D400002059170108FC000020E0
:1017900008B51E48F9F786FF1C480C38016809B1E6
:1017A00040688847194E4FEA0D05361FFAF7C2F810
:1017B0000446401C0FD0F4B11448F9F787FF2246C5
:1017C00029463046F9F7ACFE04461048F9F76AFF9F
:1017D000641C10D00AE00D48F9F778FF0022294672
:1017E0003046F9F79DFE0948F9F75CFF009828B1EB
:1017F00000F04AF8D6E7F9F7F5FED7E704A39122FF
:101800000FA117A0F0F75CFFCCE7000060000020FC
:101810002E2E2F4D6964646C6577617265732F5449
:10182000686972645F50617274792F4C7749502FE8
:101830007372632F6170692F74637069702E630017
:1018400074637069705F7468726561643A20696E70
:1018500076616C6964206D65737361676500000073
:10186000417373657274696F6E202225732220663E
:1018700061696C6564206174206C696E6520256403
:1018800020696E2025730A0010B5044600780028F0
:101890000BD0012813D002281AD0BDE810400FA3A6
:1018A000CF221AA121A0F0F70BBF201D07C8904737
:1018B00010B16068F8F7BEFC2146092004E0D4E9C5
:1018C0000110884721460820BDE81040F6F798B877
:1018D000D4E90110BDE81040084700002E2E2F4D1E
:1018E0006964646C6577617265732F5468697264AA
:1018F0005F50617274792F4C7749502F7372632F48
:101900006170692F74637069702E6300746370690D
:10191000705F7468726561643A20696E76616C69A3
:1019200064206D65737361676500000041737365C2
:101930007274696F6E2022257322206661696C655E
:1019400064206174206C696E6520256420696E20B6
:1019500025730A002DE9F04106460D461148F9F7B6
:101960009CFE30B910A340F25D121BA11EA0F0F73F
:10197000A7FE0820F6F7FCF804004FF0FF370DD063
:1019800001202070C4E9016521460648F9F77BFE75
:10199000002804D021460820F6F732F83846BDE882
:1019A000F08100005C0000202E2E2F4D6964646CD5
:1019B0006577617265732F54686972645F506172F4
:1019C00074792F4C7749502F7372632F6170692F90
:1019D00074637069702E6300496E76616C6964206F
:1019E0006D626F7800000000417373657274696FF7
:1019F0006E2022257322206661696C656420617403
:101A0000206C696E6520256420696E2025730A00AC
:101A100010B500F009F810B10168002900D10020CC
:101A200010BD00F001B80000042801D30020704769
:101A3000014901EB00107047745400202DE9F05F5C
:101A400001B92D4920B12D4C002663681D460FE0D9
:101A50002BA340F2B73236A13BA0F0F731FE6FF076
:101A60000F00BDE8F09FA84201D1012602E0ED6819
:101A7000002DF8D16FF0070972BB00254FF6FF78F3
:101A80004FF4404A4FF4804B2288571C2780424530
:101A900001D1A4F800A01A46278809E0B2F812C0C4
:101AA000BC4504D16D1CADB25D45EDD31CE0D268E0
:101AB000002AF3D13A04120C16D00FE098420AD053
:101AC0005D8A954207D11F680D68AF420CD059B1AD
:101AD00055B14BB147B1DB68002BEFD101B10968BB
:101AE0000160428216B104E04846BAE76168C1600D
:101AF00060600020B5E70000883B01080801002075
:101B00002E2E2F4D6964646C6577617265732F5456
:101B1000686972645F50617274792F4C7749502FF5
:101B20007372632F636F72652F7564702E6300008C
:101B30007564705F62696E643A20696E76616C6983
:101B40006420706362000000417373657274696F92
:101B50006E2022257322206661696C6564206174A1
:101B6000206C696E6520256420696E2025730A004B
:101B700010B5EEF7BDFB0349C0F30D0000F5404082
:101B8000088010BD080100202DE9F04F87B089467C
:101B9000070005D14AA3CF2255A15BA0F0F790FD25
:101BA000B9F1000F05D146A3D02261A156A0F0F7EC
:101BB00087FD788908287CD3644D7C68296868692A
:101BC000F2F702FB02902088F3F776FD0090608820
:101BD000F3F772FDDFF878B100268246B046DBF8F5
:101BE000044032E0618A51452DD149462046029A8F
:101BF00000F0BEF838B3207C400711D4B8F1000FD4
