:020000040800F2
:10000000A8D000205D020008CB2200082D1F0008A8
:10001000C9220008A7040008BD2500080000000050
:100020000000000000000000000000009D0100082A
:10003000A904000800000000F901000809230008D5
:1000400077020008770200087702000877020008AC
:10005000770200087702000877020008770200089C
:10006000770200087702000877020008770200088C
:10007000770200087702000877020008770200087C
:10008000770200087702000877020008770200086C
:10009000770200087702000877020008770200085C
:1000A00077020008DD2300087702000877020008C5
:1000B000770200087702000877020008770200083C
:1000C000770200087702000877020008770200082C
:1000D000770200087702000877020008770200081C
:1000E000770200087702000877020008770200080C
:1000F00077020008770200087702000877020008FC
:1001000077020008770200087702000877020008EB
:1001100077020008770200087702000877020008DB
:1001200077020008770200087702000877020008CB
:1001300077020008450500087702000877020008EA
:1001400077020008770200087702000877020008AB
:10015000770200087702000877020008770200089B
:10016000770200087702000877020008770200088B
:1001700077020008770200087702000800000000FC
:100180007702000877020008DFF80CD000F04EF983
:10019000004800476D590008A8D000202C4B196872
:1001A0000868B0E8F04F80F30988BFF36F8F4FF015
:1001B000000080F3118870470000000008480068C4
:1001C000006880F308884FF0000080F3148862B65E
:1001D00061B6BFF34F8FBFF36F8F00DF00BF00BF6B
:1001E00008ED00E0DFF80C00016841F470010160E7
:1001F000704700BF88ED00E0EFF30980BFF36F8F19
:10020000134B1A681EF0100F08BF20ED108A20E96A
:10021000F04F106009B44FF0500080F31188BFF325
:100220004F8FBFF36F8F0EF041FB4FF0000080F354
:10023000118809BC19680868B0E8F04F1EF0100F6B
:1002400008BFB0EC108A80F30988BFF36F8F704746
:1002500040010020EFF3058070470000064880470A
:1002600006480047FEE7FEE7FEE7FEE7FEE7FEE79B
:10027000FEE7FEE7FEE7FEE7CD2300088901000860
:100280002DE9F05F0546002092469B4688460646CB
:10029000814640241BE0284641464746224600F05E
:1002A000B4F853465A46C01A914110D31146184625
:1002B000224600F09BF82D1A67EB01084F462246B4
:1002C0000120002100F092F817EB00094E41201E9A
:1002D000A4F10104DFDC484631462A464346BDE826
:1002E000F09F00000048704760F80008A0F141014D
:1002F000192900D8203070470649074A086850433A
:1003000043F2390210440860400870470149086010
:1003100070470000A80100206D4EC64110B5431A79
:10032000934209D28318881803E010F8011D03F8DE
:10033000011D521EF9D210BD40EA01039B0703D0F4
:1003400009E008C9121F08C0042AFAD203E011F814
:10035000013B00F8013B521EF9D210BDD2B201E0C0
:1003600000F8012B491EFBD270470022F6E710B5BA
:1003700013460A4604461946FFF7F0FF204610BD13
:1003800010B5044604E00B7800F8013B03B1491CAA
:10039000521EF8D2204610BD421C10F8011B002945
:1003A000FBD1801A704730B504460020034600E0B8
:1003B0005B1C934203D2E05CCD5C401BF8D030BDA7
:1003C00030B50B46014600202022012409E021FA25
:1003D00002F59D4205D303FA02F5491B04FA02F522
:1003E0002844151EA2F10102F1DC30BD202A04DBF5
:1003F000203A00FA02F1002070479140C2F1200338
:1004000020FA03F3194390407047202A04DB203A76
:1004100021FA02F00021704721FA02F3D040C2F124
:10042000200291400843194670470000064C074DD2
:1004300006E0E06840F0010394E8070098471034B4
:10044000AC42F6D3FFF7A4FE94F90008B4F9000813
:1004500070B58C1810F8015B15F0070301D110F886
:10046000013B2A1106D110F8012B03E010F8016BB3
:1004700001F8016B5B1EF9D12B0705D40023521E36
:100480000DD401F8013BFAE710F8013BCB1A921C9E
:1004900003E013F8015B01F8015B521EF9D5A1429C
:1004A000D8D3002070BDFEE770470000F0B50023F0
:1004B0001A464FF000454FF48C4600BF016903EB2C
:1004C000830401EBC4010A604A608A60CA600A6260
:1004D0000D604A624E604F6827F000474F6000EBA6
:1004E0008307032BB96406D24FF0280C07690CEB85
:1004F000C4043C4400E00469CC605B1C042BDDD3E5
:10050000C26502668266C26682650169006800F59E
:100510008050C160F0BD38B50446006800F58050D9
:10052000816941F480118161206800F58050806903
:100530000090012000F058FA2068009900F58050E2
:10054000816138BD014800F0E1BA0000544F00203D
:1005500070B5A4B00024012506468DF828408DF81A
:1005600004501494A8038DF8564005908DF810504F
:1005700002948DF85440C0108DF811508DF81F4032
:100580008DF8204006908DF81E508DF80F4009948C
:100590008DF81C4012948DF84C408DF855406946FA
:1005A000304600F05DF98DF881508DF880408DF86F
:1005B000824028041B908DF8685080011F908DF8B0
:1005C00070508DF8885040128DF871501E941D9017
:1005D0008DF87250239421948DF8895019A93046D2
:1005E000199400F0DDF824B070BD0020704700F0D1
:1005F00073BF000010B5024800F01EFD002010BDC2
:10060000544F002013460A4610B50146034800F037
:1006100069FC002801D04FF0FF3010BD544F00207E
:1006200013460A4610B50146034800F02BFE002889
:1006300001D04FF0FF3010BD544F00202DE9F043A2
:10064000836A1830914650F823208D681C4617683D
:100650000026002F6FDB00EB83077F69C7BBD5F84F
:1006600000C00127C2F808C0D2F804C0D5F8048041
:100670006FF30C0C4CEA080CC2F804C091F800C0EF
:100680005FEACC7C09D0D2F800C0D1F814802CF4F9
:10069000400C4CEA080CC2F800C091F800C05FEAB8
:1006A0008C6C09D5D2F800C0D1F810802CF0406CC9
:1006B0004CEA080CC2F800C00978490703D5116854
:1006C00041F080011160116841F08051116042E0F9
:1006D00031E0116821F0005111601168B9F1000F8B
:1006E00002D041F0804101E021F0804111605B1CAB
:1006F000042B00D31B1F50F82320116821F08051D8
:1007000011601168002903DB00EB83014969A9B17D
:1007100050F8242000210CE0BFF35F8F136823F012
:1007200000431360641C042C00D3241F491C50F8A0
:100730002420B942F0D30220BDE8F083AD682968D7
:1007400091605168D5F804C06FF30C0141EA0C01C7
:100750005160761C7F1CBFF35F8F116841F0004130
:100760001160A9680029B4D11168B9F1000F02D055
:1007700041F0804101E021F080411160116841F0B9
:100780000051116000EB8302416A5161036172B64E
:10079000761C816A3144816262B60020CCE7000099
:1007A00070B50C460168054601F5805188692B4AF1
:1007B0001040227BEAB30022637B920642EA436246
:1007C000637FBBB35FF0000342EA0352A37B42EABC
:1007D000435263691A43237F42EAC312A37F42EA6A
:1007E0008312236A1A4394F8243042EA83020243B4
:1007F0008A61286800F580508669012000F0F4F8CD
:10080000286800F580508661A169A06822790843B4
:10081000216941EA4261084394F8251040EAC11079
:10082000A16A40EA81002168084340F40001286879
:1008300001E00FE010E000F580500160286800F54D
:1008400080500468012000F0CFF8286800F580503F
:10085000046070BD0122AFE70123B5E7233FDEF856
:1008600070B5026805460C4610683A49237C08407A
:10087000A168002B63D0002341EAC351637C002BA5
:100880005FD00023E67F9B0543EA06431943636973
:100890001943A37FF3B3002341EA4331237F41EAA5
:1008A0000331A3691943237941EA832194F8203065
:1008B0008BB3002341EA4321E37B41EAC311636A1E
:1008C000194394F8283041EA031101431160286864
:1008D0000668012000F088F8286806602A68906998
:1008E0004FF641710840A36C216D41EA034194F831
:1008F0004C3063B3002394F85560DB01012E00D027
:10090000002643EAC603194394F85630012B00D061
:10091000002301E017E018E041EA830194F8543025
:10092000012B00D0002341EA430101439161286873
:100930008469012000F058F82868846170BD0123A3
:100940009AE701239EE70123A6E70123B2E70123EB
:10095000D1E700000F8120FF2DE9F8434FF0000997
:10096000CDF80090856E044600EB85004FF001083D
:10097000866CE76E1EE0306A30B9684600F010FB06
:10098000009838B33062B060B8F1000F12D0A06D9B
:1009900018B34FF48C407060BFF35F8F306840F045
:1009A000004030606D1C042D00D32D1F04EB85002A
:1009B0007F1E866C17B1B8F1000FDCD1E06EB84233
:1009C00006D0206800F58050C0F80890C4E91A5796
:1009D000BDE8F8834FF00008ECE70148DBE70000D2
:1009E0000046008072B6FEE770B5044600F074FD64
:1009F0000546601C02D004480078044400F06CFDF9
:100A0000401BA042FAD370BD4000002010B500F09A
:100A10000BF8000605D503484068BDE8104006F015
:100A2000A9B910BD04000020D0F88C00704700293F
:100A30006AD002681268C2F3001281F828200268A6
:100A4000126802F060024A620268126842F34022B1
:100A5000521C81F8202002681268C2F30042CA7753
:100A60000268126842F34032521C8A7702681268A8
:100A7000C2F300320A770268126802F400628A61E7
:100A80000268126802F480424A610268126842F306
:100A90008052521C4A740268126842F3C052521CBF
:100AA0000A7402681268C2F3C012CA73026812683C
:100AB00002F460228A6002681268C2F380220A711E
:100AC00002689269C2F3400281F854200268926978
:100AD00042F3C012521C81F84C200268926902F065
:100AE00030020A6502689269120C8A64026892698F
:100AF000C2F3800281F8562000688069C0F3C0000C
:100B000081F85500002070470120704710B5044659
:100B1000006800F580504169490607D5C16949065A
:100B200004D52B494161204600F05EFA206800F5AB
:100B300080504169C90708D0C169C90705D04FF085
:100B400001114161204600F093FB206800F58050C0
:100B50004169090422D5C16909041FD5D4F8881058
:100B600041F00801C4F88810416989040CD5416935
:100B7000184A1140C4F88C10C16921F4C031C16118
:100B8000E020C4F8840006E0426948F280610A402F
:100B9000C4F88C2041612046FFF738FF2068816B44
:100BA00009070AD5C06A00F06000C4F89400204626
:100BB00000F020F90020C4F89400074801680903F8
:100BC00005D54FF400210160204600F059FB10BD0F
:100BD0004000010000207E00143C0140F8B50400F4
:100BE00003D0D4F8840010B107E00120F8BD232021
:100BF000C4F88400204600F079F8394800250168DF
:100C000041F480410160006800F480400090354864
:100C1000016821F4000101600168A26811430160CC
:100C20000068206800F58050016841F00101016012
:100C300000F052FC06464FF4FA770BE000F04CFC53
:100C4000801BB84206D90420C4F88800E020C4F80C
:100C50008400CAE7206800F580500068C007EDD125
:100C60002046FFF775FC0021E06801EB810200EBF4
:100C7000C200056045608560C56004EB8103986132
:100C8000036843F480130360032905D22826E36830
:100C900006EBC2021A4400E0E268C260026842F455
:100CA00040020260491C0429DED3A5622068E16885
:100CB00000F5805001612046FFF7F8FB60680A49A3
:100CC00082880A640278D0F8010042EA0020486471
:100CD000C4F888501020C4F884000020F8BD00003B
:100CE000443802400438014000800240F0B587B02B
:100CF000044614216846FFF738FB384920688842CB
:100D000069D137480024016841F000710160016831
:100D100001F000710591016841F080610160016896
:100D200001F080610591016841F000610160016896
:100D300001F000610591016841F004010160016862
:100D400001F004010591016841F0010101600168B1
:100D500001F001010591016841F040010160006866
:100D6000022500F0400005903220CDE9000502AADE
:100D700003260B2782E8D00069461A4800F0AEFA35
:100D80008620CDE9000502AA694682E8D00016480F
:100D900000F0A4FA4FF4D040CDE9000502AA69465C
:100DA00082E8D000114800F099FA002205213D2088
:100DB00000F02AFC3D2000F019FC0D4C002204211B
:100DC000204600F083FB3220FFF70EFE01220421B3
:100DD000204600F07BFB07B0F0BD00000080024021
:100DE0003038024000080240000002400018024073
:100DF0000010024070472DE9F84F4FF000075FEAFE
:100E000001090446B84604D0D4F8840023285ED1F2
:100E100005E054F8880F40F00100206057E0E66DCF
:100E20004FF0000B04EB8600856CE06EC0F1040A05
:100E30003AE02868C00503D5A869A067E86960673B
:100E40002868800501D4E06F30B32868800503D599
:100E5000C4F860B0C4F864B0606900902868C00548
:100E600008D52868C0F30D40001F009028684FF097
:100E700001082067AA682A62009804F1800183B201
:100E8000081F00F0B7F8206E401C2066616E0098C5
:100E900008446066C5F820B0761C042E00D3361FC7
:100EA00004EB86007F1C856C2868002804DB57450E
:100EB00002D2B8F1000FBCD0E06EC019E06602D0DB
:100EC0002046FFF749FDE665B8F1010F02D0012089
:100ED000BDE8F88FE16FC9F800100020C4F87CB0BD
:100EE000F6E700002DE9F0419846036805461869C9
:100EF00000F01C044FF6FF7000EAC1204FF4F861C7
:100F0000204301EA8211014321F0020040F0010474
:100F10001C6100F0E1FA06464FF480370AE000BF9A
:100F200000F0DAFA801BB84202D30120BDE8F0815C
:100F300028680469E007F3D12868406981B200207D
:100F4000C8F80010F2E700002DE9F04700F118059D
:100F50008046D5E90A64012718E000BF05EB840943
:100F6000761ED9F81400B8B1D8F80C1004EB84023E
:100F700051F8321000290CDB00F080F90021641CCC
:100F800004F00304C9F81410C5E90A640EB1002F77
:100F9000E4D10020BDE8F087641C04F00304F5E709
:100FA0001CB504460D4805F067F903000FD003F1A6
:100FB000200020600A4818614FF4C0612068CDE924
:100FC000000100214122084606F042F91CBD0549F6
:100FD00001200870002020601CBD000004F60008FD
:100FE000D5780008040000200148406805F0C2BE22
:100FF0000400002010B5002442F8204D14815381D4
:1010000004681CB10C6822600A6004E00260FBE71F
:1010100001891944018100680028F9D110BD10B57B
:1010200019B1D0F88420102A01D0012010BDFFF79B
:1010300017FC002010BD000070B50546006800696F
:1010400020F01C0400F0CCFB1049114A01449142ED
:1010500002D244F0080416E00E490F4A01449142BE
:1010600002D244F00C040EE00C490D4A01449142B6
:1010700009D30C4908440C49884202D244F00404C4
:1010800001E044F010042868046170BD00D3CEFE76
:10109000C0E1E40040F1E9FD40787D0100796CFC9D
:1010A000005A6202001F0AFA80F0FA0270B5044684
:1010B000D0F88400102801D0012070BD2325C4F889
:1010C00084500120A0652068C16B41F40271C163A6
:1010D0002068D0F80C11224A1143C0F80C11206886
:1010E000D0F8101141F40311C0F810110420E0668B
:1010F0002046FFF731FC2068016841F008010160DB
:10110000206806680120FFF76FFC206806602068F1
:10111000016841F004010160206806680120FFF7C2
:1011200063FC206806602046FFF7F5F9206800F5AB
:101130008050816941F400518161206800F5805040
:10114000816941F002018161206800F58050C16928
:10115000044A1143C161C4F88450002070BD0000EE
:1011600060000200C1A0010070B50446D0F8840000
:10117000232801D0012070BD2320C4F884002068FA
:1011800000F58050C1691F4A1140C161206800F517
:101190008050816921F400518161206800F5805000
:1011A000816921F0020181612068016821F0040158
:1011B0000160206805680120FFF716FC20680560C3
:1011C0002046FFF7A8F92068016821F008010160B6
:1011D000206805680120FFF707FC206805600020F3
:1011E00004EB8001896C4A6842F000424A60401C6E
:1011F0000428F5D30020A0651020C4F88400002046
:1012000070BD00003E5FFEFF10B5044621B1D4F86A
:101210008400232805D010E054F8880F40F0010026
:101220000AE0486BE06301222046FFF707FA30B17D
:1012300054F8880F40F002002060012010BDBFF379
:101240004F8FA06A401CA062042801D3001FA06237
:10125000206800F580504169490706D504214161A5
:101260002068002100F580504160002010BD000082
:101270000148806805F07EBD0400002006F078BAC1
:10128000704700002DE9F04106680546306900F01E
:101290001C044FF6FF7000EAC1204FF4F8612043B0
:1012A00001EA8211014398B241F003047061286899
:1012B000046100F011F906464FF480370AE000BFE0
:1012C00000F00AF9801BB84202D30120BDE8F0818A
:1012D00028680469E007F3D1F8E700002DE9F84F2A
:1012E000DFF8BCA10022012503264FF00F090AF107
:1012F000040BAAF1040E00BF0B6805FA02F42340A8
:10130000A34270D10F7907F00307012F01D0022FFC
:1013100016D187684FEA420806FA08FC27EA0C074C
:10132000D1F80CC00CFA08FC4CEA070CC0F808C055
:101330004768A7430C79C4F3001494403C434460CD
:101340000C79E443A4070AD0C4684FEA420C06FAB9
:101350000CF7BC438F6807FA0CF72743C7600C797A
:1013600004F00304022C12D1D40800EB840CDCF846
:1013700020405707FF0E09FA07F824EA0804D1F8BD
:10138000108008FA07F848EA0408CCF820800468BE
:101390004FEA420C06FA0CF7BC430F7907F003073B
:1013A00007FA0CF7274307604C6814F4403F70D0ED
:1013B0003C4C276847F480472760246822F00307E5
:1013C00004F480440094384C07EB040CDCF8084823
:1013D00097074FEA177809FA08F7BC43334FB8422A
:1013E00002D1002724E054E0314FB84201D1012757
:1013F0001EE0304FB84201D1022719E02E4FB8420B
:1014000001D1032714E02D4FB84201D104270FE08A
:101410002B4FB84201D105270AE02A4FB84201D12B
:10142000062705E0284FB84201D1072700E008272A
:1014300007FA08F72743CCF80878DAF8004057464F
:10144000D1F804C09C435FEACC2C00D51C433C601F
:10145000DBF800405F46D1F804C09C435FEA8C2C67
:1014600000D51C433C60DEF800407746D1F804C04C
:101470009C435FEA8C3C00D51C433C60084F083F0E
:101480003C68D1F804C09C435FEACC3C00D51C43C7
:101490003C60521C102AFFF42FAFBDE8F88F00000B
:1014A000083C014044380240003001400000024046
:1014B0000004024000080240000C024000100240FC
:1014C0000014024000180240001C02400AB1816171
:1014D00070470904FBE7000001488068704700007E
:1014E0004000002002488168027811448160704702
:1014F000400000200B4810B5016841F40071016004
:10150000016841F480610160016841F4807101600B
:10151000032000F099F80F2000F006F800F04AF8D8
:10152000002010BD003C024030B505461C4887B085
:101530000024016841F001010160006806A900F083
:101540000100009001A800F02BF900F05FF91549A7
:101550004000B0FBF1F11548134A491E026040F209
:10156000E732C0E90324C0E90114846100F048FBBC
:10157000040012D10D4800F071FB04000DD11920B8
:1015800000F034F8102D07D200222946192000F06F
:101590003BF80748056000E0012407B0204630BD55
:1015A0004438024040420F0000000140480400203F
:1015B000440000200C4882B0016841F48041016081
:1015C000006800F4804000900748001F016841F067
:1015D000805101600068002200F0805000900F21CF
:1015E000901E02B000F010B844380240002809DB19
:1015F00000F01F02012191404009800000F1E0202D
:10160000C0F8001170470000F0B40E4B1B680C4688
:10161000C3F30223C3F10705042D00D90425191DC6
:10162000072901D2002300E0DB1E012606FA05F19E
:10163000491E214099409E40761E16403143F0BC21
:1016400000F0CEBF0CED00E0064900F0070208688C
:101650004FF6FF03184040EA0220034A1043086097
:10166000704700000CED00E00000FA052DE9F0479E
:101670000E46050065D0DFF81481D8F80000F7B2F7
:1016800000F00700B04207D288F80070D8F80000D8
:1016900000F00700B04254D128683D4C810712D5B4
:1016A000400703D5206840F4E05020602878000708
:1016B00003D5206840F4604020602068A96820F0CD
:1016C000F000084320602878C0072DD030496868B2
:1016D0000839012812D0022813D0032811D0096834
:1016E000890700292DDA216821F0030101432160D7
:1016F000FFF7F2FE814641F2883A0EE0096889035D
:10170000EFE709688901ECE7FFF7E6FEA0EB0901C6
:10171000514502D90320BDE8F0872068696800F0D0
:101720000C00B0EB810FEFD1D8F80010404601F06B
:101730000701B14207D90770006800F00700B04206
:1017400001D00120E7E72878400705D52068E9683F
:1017500020F4E050084320602878000706D5206870
:10176000296920F4604040EAC100206000F05EF882
:101770002168084AC1F30311515CC840064908605A
:1017800006480068FFF7D0FE0020C4E7003C024096
:101790000838024048F600084C00002044000020B1
:1017A0000F2202600C4A136803F0030343601368BE
:1017B00003F0F0038360136803F4E053C36012681E
:1017C0004FF4E05303EAD20202610448006800F0DB
:1017D000070008607047000008380240003C0240E3
:1017E00001480068704700004C000020044805498B
:1017F00000680968044AC1F38221515CC8407047FF
:101800004C0000200838024058F6000804480549FA
:1018100000680968044AC1F34231515CC84070470E
:101820004C0000200838024058F60008154810B552
:10183000006810F00C02144813D01449042A0FD089
:10184000082A0ED10F4C241F2268236802F03F02A1
:101850005B0207D52068C0F38810A0FB010106E0F9
:10186000084610BD2168C1F38811A1FB00010023C7
:10187000FEF706FD2168C1F30141491C4900B0FB98
:10188000F1F010BD083802400024F40040787D01DA
:101890002DE9F84F04006ED02078DFF84C93C00794
:1018A000A9F104054AD009F104000168C1F38101DE
:1018B000012908D00068C0F3810002280AD1D9F8B4
:1018C0000000400206D52868800337D560680028EC
:1018D000E1D033E06068B0F5803F10D0B0F5A02FC4
:1018E000286810D020F480302860286820F48020F8
:1018F00028606068A8B1FFF7EFFD06460DE0286894
:1019000040F48030F4E740F480202860F7E700BF1F
:10191000FFF7E2FD801B642873D828688003F7D5A1
:101920000CE0FFF7D9FD064605E000BFFFF7D4FD48
:10193000801B6428F0D828688003F7D42078DFF86B
:10194000AC8280074FF0000A3ED5A748001D016811
:1019500011F00C0F08D00068C0F3810002280BD1F1
:10196000D9F80000400207D42868800716D5E0683F
:10197000012800D112E033E1E068B8B10120C8F8D5
:101980000000FFF7A9FD064605E000BFFFF7A4FD34
:10199000801B0228C0D828688007F7D528682169ED
:1019A00020F0F80040EAC10028600DE0C8F800A06F
:1019B000FFF792FD064604E0FFF78EFD801B02282C
:1019C0001FD828688007F7D42078000722D5864FD3
:1019D00087486169703771B101210160FFF77CFDB3
:1019E000064604E0FFF778FD801B022809D8386816
:1019F0008007F7D50EE0C0F800A0FFF76DFD0646A2
:101A000005E082E0FFF768FD801B02287DD838687A
:101A10008007F7D42078400768D5DFF8CCB10027DD
:101A20000BF13C0BDBF80000C0000BD4DBF800101E
:101A300041F08051CBF80010DBF80000012700F0E6
:101A4000805000906B4E3068C00510D4306840F470
:101A500080703060FFF740FD009005E0FFF73CFD2F
:101A60000099401A022850D83068C005F6D55E4E5D
:101A7000A0686C3601280FD00528306810D020F0FF
:101A800001003060306820F004003060A068B8B118
:101A9000FFF722FD00900FE0306840F00100F4E70E
:101AA00040F004003060F7E7FFF716FD0099411A97
:101AB00041F28830814266D830688007F4D50EE064
:101AC000FFF70AFD009007E0FFF706FD0099411AB5
:101AD00041F28830814256D830688007F4D42FB163
:101AE000DBF8001021F08051CBF80010A069C8B3DA
:101AF0003D49091D0968C1F3810102294AD0022824
:101B0000504607D0C8F8600000E03CE0FFF7E4FC76
:101B100004463BE04746C8F86000FFF7DDFC064698
:101B200005E000BFFFF7D8FC801B02282BD82868EF
:101B30008001F7D4D4E907010843A16A2E4A490875
:101B400002EB0141626A41EA8211084394F82C10C9
:101B500040EA0161C9F8001001203866FFF7BCFCBB
:101B6000044606E03EE000BFFFF7B6FC001B02287B
:101B700009D828688001F7D534E000BFFFF7ACFC36
:101B8000001B022802D90320BDE8F88F28688001D5
:101B9000F4D427E00128F7D0D9F80000E26900F476
:101BA000800191421CD1226A00F03F01914217D17D
:101BB00047F6C071626A0140B1EB821F10D1A26A80
:101BC0004FF0FF3300F4403103EB5202B1EB024F10
:101BD00006D194F82C1000F07060B0EB016F01D0CA
:101BE0000120D1E70020CFE704380240000047423F
:101BF000800E4742007000400000FFFF70477047B2
:101C000010B5040003D094F83D0010B107E00120A6
:101C100010BD002084F83C00204600F01EF8022091
:101C200084F83D00211D206800F0DEFB012084F8CF
:101C3000460084F83E0084F83F0084F8400084F8B1
:101C4000410084F8420084F8430084F8440084F89A
:101C5000450084F83D00002010BD704790F83D100D
:101C6000012901D001207047022180F83D10016850
:101C7000CA6842F00102CA6000681149884214D063
:101C8000B0F1804F11D00F4988420ED00E498842E2
:101C90000BD00E49884208D00D49884205D00D4925
:101CA000884202D00C49884204D1816801F00701C2
:101CB000062903D0016841F001010160002070474E
:101CC000000001400004004000080040000C0040FB
:101CD000000401400040014000180040704770B50A
:101CE0000446006801694FF00005C943890715D40F
:101CF000C168C943890711D4E91E01610120207719
:101D0000206880698007204602D0FFF7E7FF04E0E3
:101D100000F098F8204600F096F8257720680169D1
:101D2000C943490717D4C168C943490713D46FF0A1
:101D300004010161022020772068806910F4407F4F
:101D4000204602D0FFF7CAFF04E000F07BF82046EF
:101D500000F079F8257720680169C943090716D48E
:101D6000C168C943090712D46FF00801016104205A
:101D700020772068C0698007204602D0FFF7AEFFB9
:101D800004E000F05FF8204600F05DF82577206859
:101D90000169C943C90617D4C168C943C90613D428
:101DA0006FF010010161082020772068C06910F4ED
:101DB000407F204602D0FFF791FF04E000F042F898
:101DC000204600F040F8257720680169C943C9071B
:101DD00008D1C168C943C90704D1891E01612046E1
:101DE00000F032F820680169C943090609D4C168C6
:101DF000C943090605D46FF0800101612046FFF751
:101E0000FDFE20680169C943490609D4C168C94378
:101E1000490605D46FF040010161204600F01EF82C
:101E200020680169C94389060BD4C168C943890682
:101E300007D46FF0200101612046BDE87040FFF734
:101E4000DEBE70BD7047704700680349884201D10B
:101E5000FFF748BB7047000000000140704770B5B5
:101E6000040004D094F83D00002510B106E00120E4
:101E700070BD84F83C50204600F022F8242084F8FD
:101E80003D002068C16821F40051C160204600F087
:101E90000FFB2068016921F49041016120684169CC
:101EA00021F02A0141612068C16841F40051C160FC
:101EB0002564202084F83D0084F83E00002070BD99
:101EC00010B586B0044614216846FEF74EFA144950
:101ED0002068884221D113480021026842F0100294
:101EE0000260006800F0100005900E481438026887
:101EF00042F001020260006800F0010005904FF41A
:101F0000C06000900220CDE901010320039007206A
:101F1000049069460448FFF7E1F906B010BD0000DF
:101F2000001001404438024000000240FEE738B58E
:101F300004460020009063696A46012120689847A2
:101F40006FF00405002825DB63696A4601212068DB
:101F5000984700281EDB0098400701D4012038BDB7
:101F600063696A46002120689847002812DB0098C0
:101F7000C10408D44FF4045181431CD081041CD403
:101F8000C0051CD415E063696A461F212068984784
:101F9000002801DA284638BD0098C10401D4062083
:101FA00038BDC0F38200062805D0022805D00528D8
:101FB00005D0052038BD022038BD032038BD0420DF
:101FC00038BD2DE9F843044600200646054600903A
:101FD0006068A8BBA06800B1804720206FF00407AC
:101FE000206063696A46122130469847002801DA6A
:101FF0003D4607E0009800F01F00B04202D10025E6
:10200000266002E0761C1F2EEBD920681F2802D91B
:102010006FF0020530E07DBB23694FF400420021E0
:102020009847002830DB63696A460021206898479A
:10203000002827DBA069804706464FF4FA780CE0B9
:102040000EE0A0698047801B404518D863696A4646
:10205000002120689847002814DB00980004F0D481
:10206000A069804706464FF4FA67A0698047801B45
:10207000B842FAD9012060602846BDE8F8836FF0C5
:102080000105F9E73D46F7E76FF00305F4E788B18E
:10209000CA687AB18A686AB10A695AB10A68826004
:1020A0004A68C260CA6842618A68026109698161DE
:1020B000002070474FF0FF307047000000B587B038
:1020C0001C2206496846FEF729F90021684604F0FB
:1020D000ABFE0349086007B000BD0000E8F500084A
:1020E0000000002030B587B014216846FEF73DF9A6
:1020F0001E480024016841F010010160016801F0F0
:1021000010010591016841F080010160016801F052
:1021100080010591016841F004010160016801F04E
:1021200004010591016841F001010160016801F0BD
:1021300001010591016841F04001016000680C4D0A
:1021400000F040000590002204212846FFF7BEF968
:10215000042000900120CDE901040220039069468B
:102160002846FFF7BBF807B030BD0000303802400A
:102170000010024070B540488AB0C0260670A825FD
:102180004570012383706421C170011DFF220A7014
:102190004A708A7000240A1DCC70167055709370B6
:1021A000D3700068642305BA1B0605F47F4543EA33
:1021B000052305BA05F47F0500BA43EA152340F06C
:1021C000640043EA1060A1F1100318600868002160
:1021D00003BA090603F47F4341EA032103BA03F477
:1021E0007F0341EA132100BA41EA1060A2F1100115
:1021F00008601068012102BA090602F47F4241EA30
:10220000022102BA02F47F0200BA41EA122140F030
:10221000010041EA10601849091F086000210846C2
:102220000BF082F9154816490094134BCDE90110C3
:102230001B1F1A1F111F134804F0ECF8114804F07B
:1022400003FB104890F82D0040070E4802D504F01B
:102250000FFC01E004F0FEFA0B490A4804F04EFBC3
:102260001C220A4903A8FEF759F8064903A804F0FE
:10227000DBFD0AB070BD000034000020F9D6000874
:10228000294000085C500020853E00082CF600081C
:102290000C4810B50A4901604FF4E131416000215A
:1022A00081600C22C160C0E904128161C161FFF745
:1022B000D6FD002803D0BDE81040FEF793BB10BD4B
:1022C0000010014004040020FEE7FEE7FFF752FF84
:1022D00005A006F011F94FF47A7400BF0CF0D8F89D
:1022E000204604F015FCF9E76C77697020616E6494
:1022F000206672656572746F7320696E69742069F7
:1023000073206F6B0000000010B5502080F311881F
:10231000BFF34F8FBFF36F8F0CF0D2FF18B104499A
:102320004FF080500860002080F3118810BD00003D
:1023300004ED00E030B593B030216846FEF715F8A3
:1023400014210CA8FEF711F81E480025016841F081
:1023500080510160006800F0805011901A480168B7
:1023600041F4804101600068022400F48040119033
:1023700001200090000401908001CDE90640192061
:1023800008904FF4A870CDE9090404200B9068462A
:10239000FFF77EFA08B172B6FEE70CA90F2081E8BC
:1023A00031004FF4A0500F904FF480501090052151
:1023B0000CA8FFF75BF9002801D072B6FEE713B056
:1023C00030BD000040380240007000400248016803
:1023D00041F470010160704788ED00E00148FFF7AB
:1023E0007EBC000048040020F0B50268254C264D54
:1023F000264E274F274B4FF0804CA04209D0604516
:1024000007D0A84205D0B04203D0B84201D09842CC
:1024100004D122F0700E4A6842EA0E02A0421BD09C
:10242000604519D0A84217D0B04215D0B84213D099
:10243000984211D0184DA8420ED0184DA8420BD08A
:10244000174DA84208D0174DA84205D0164DA842F6
:1024500002D0164DA84203D122F44075CA682A431F
:102460004D6922F080022A4302608A68C2620A68CB
:102470008262A04201D0984201D109690163012121
:102480004161F0BD00000140000400400008004030
:10249000000C0040000401400040014000440140A5
:1024A0000048014000180040001C0040002000408F
:1024B00070B5044600680169E26821F44051114397
:1024C00001612169A068E269084361691143084319
:1024D0002168CA6849F20C639A430243CA602068C3
:1024E0004169A26921F44071114341613149206879
:1024F000884202D03049884202D1FFF787F901E0D3
:10250000FFF774F9E2690023192164253226B2F538
:10251000004F626828D0A0FB0101930F9200FDF7E5
:10252000AFFE0146B0FBF5F06FF01802504301EB2F
:10253000800006EB0010B0FBF5F000F0F002B1FBFC
:10254000F5F002EB0012B1FBF5F06FF01803584301
:1025500001EB800006EB0010B0FBF5F000F00F007F
:1025600021681044886070BDA0FB010192185B4196
:10257000FDF786FE0146B0FBF5F00201B1FBF5F078
:102580006FF01803584301EB800006EBC000B0FB6E
:10259000F5F000F0F80002EB4002B1FBF5F0584313
:1025A00001EB800006EBC000B0FBF5F000F0070087
:1025B000D6E700000010014000140140FEE70000D3
:1025C0000FB4054B10B503A9044A029800F028F88F
:1025D00010BC5DF814FB000001410008AC010020B4
:1025E0000907090E002804DB00F1E02080F8001440
:1025F000704700F00F0000F1E02080F8141D7047D4
:1026000002E008C8121F08C1002AFAD170477047BB
:10261000002001E001C1121F002AFBD17047000019
:102620002DE9FF4F8BB09A460F460546002606E07F
:1026300025280BD052460D9990476D1C761C2878A2
:102640000028F5D10FB03046BDE8F08F0024A04639
:102650000122604900E0044315F8013F203B02FAE3
:1026600003F00842F7D128782E2817D115F8010F6A
:1026700044F004042A280ED06FF02F022878A0F12D
:10268000300109290AD808EB880102EB410100EB6F
:1026900001086D1CF2E757F8048B6D1C2878692837
:1026A0003ED006DC0028CDD063280BD0642804D1AE
:1026B00036E0732810D075284BD052460D999047BC
:1026C000761C85E017F8040B8DF8000000208DF8CB
:1026D0000100E946012003E057F8049B4FF0FF306A
:1026E00061074FF0000401D40AE0641C44450DDA90
:1026F0008442FADB19F804100029F6D106E0641CC4
:102700008442FCDB19F804100029F8D1264404E0C7
:1027100019F8010B52460D999047641EF8D257E004
:1027200001CF4FF00A0B002802DA40422D2102E0CF
:10273000210504D52B218DF82410012103E0E107A8
:1027400005D02021F7E70DF1200908910CE00021C8
:10275000F9E701CF4FF00A0BF9E75946FDF730FED4
:1027600001F1300209F8012D0028F6D1ADEB090086
:1027700000F1200B600701D44FF00108D84502DDBD
:10278000A8EB0B0000E000208046002406E009A82A
:102790005246005D0D999047641C761C089884424F
:1027A000F5DB04E0302052460D999047761CB8F1D5
:1027B0000001A8F10108F5DC05E019F8010B52460B
:1027C0000D999047761CBBF10001ABF1010BF4DCD5
:1027D0006D1C34E7092801002DE9F047244E254DF2
:1027E000002400BF55F8240020B1641CE4B2042C7E
:1027F000F8D329E0042C27D22E200BF03EFB070053
:102800004FF0000812D04FF4806900BFFDF774FD4F
:1028100082B24A45FAD3184938460BF0E7F810F16E
:10282000080FF3D020B138460BF06EFB474604E0AA
:102830000022124938460BF023FB45F824701FB1E3
:1028400034702046BDE8F08730780021401CC0B2CB
:10285000042800D3002055F820200AB13070F1E799
:10286000491C401CC9B2C0B20429F1D30420E9E7D5
:1028700074000020A8510020C0F700080D2D0008AA
:1028800001004FF000000AD0C97A4A1C022A06D281
:10289000034A02EB81014968002900D001207047FA
:1028A000780000202DE9F35FDFF88880064600EB12
:1028B0000611A8F58869002509EB0114AA4604F160
:1028C000100B00BF05EB4507404658F8273053B1C1
:1028D00000EB87010A7AB24205D14A68584601994D
:1028E000984748F827A06D1CEDB2042DEAD30021CB
:1028F00004254846B1420DD001EB011200EB021253
:10290000937A022B06D1D27BE37B9A4202D1E57304
:10291000BDE8FC9F491CC9B20429EBD3E07B042825
:10292000F6D2054E56F820000BF0EEFAE17B46F8A1
:1029300021A0ECE7F8550020A85100202DE9F04136
:102940000746324E00EB071006EB0014042F06D3A7
:102950002FA340F224423AA140A0FFF731FEA07A13
:10296000002850D000254FF0010801280CD0022883
:1029700021D0032841D0BDE8F04125A340F26342B5
:1029800040A136A0FFF71CBEFDF7B6FC81B20020C7
:1029900000EB001206EB0212937A022B02D112898D
:1029A0008A42F1D0401CC0B20428F1D32181022018
:1029B000A072E57218E0207B401E10F0FF0020732B
:1029C00021D1607B401CC0B26073042805D0207305
:1029D0003846BDE8F04100F0A9BA2046FFF750FFA5
:1029E00030B1E07A401CE07284F80C806573EFE748
:1029F00000213846FFF756FF04E0206810B1401E62
:102A0000206000D1A572BDE8F0810000B85100201F
:102A10002E2E2F4D6964646C6577617265732F5437
:102A2000686972645F50617274792F4C7749502FD6
:102A30007372632F636F72652F646E732E63000071
:102A4000617272617920696E646578206F75742097
:102A50006F6620626F756E6473000000417373656A
:102A60007274696F6E2022257322206661696C651D
:102A700064206174206C696E6520256420696E2075
:102A800025730A00756E6B6E6F776E20646E735FD0
:102A90007461626C6520656E747279207374617400
:102AA000653A00002DE9F0478A46814614464FF604
:102AB000FF782146504605F0EFF905002BD440463B
:102AC000844228D0641CC5F38111A4B2032923D009
:102AD00017E02146504605F0DFF906001BD499F8AF
:102AE0000000FDF703FC0746F0B2FDF7FFFB87424D
:102AF00011D1404644450FD0641CA4B209F101092C
:102B00006D1E002DE5DC09F101092146504605F056
:102B1000C3F9002802DA4046BDE8F087C9D1404633
:102B20008442F9D0641CA0B2F6E700002DE9FF5FF3
:102B3000DFF82481994692460F4600244FF48075B1
:102B400008F5886604EB041008EB0011887A022867
:102B50000FD12A461031009802F0EEFE48B900BFAE
:102B600000EB400156F82110B9B1401CC0B2042856
:102B7000F6D3641CE4B2042CE4D3DFF8E0B0002107
:102B800004209BF801200C4604EB041308EB03150A
:102B9000AB7ABBB1032B0AD010E000EB400046F843
:102BA00020A006EB8000C0F80490047251E0AB7BDB
:102BB000D31ADBB28B4201D919462046641CE4B219
:102BC000042CE1D3042C09D1042812D200EB00110B
:102BD00008EB0115A97A03290BD104465FF0000028
:102BE00000EB400156F8211041B1401CC0B204284E
:102BF000F6D34FF0FF3004B0BDE8F09F00EB40008B
:102C000016EB8006F5D001203472A872AA73C6E9CB
:102C100000A9FF2F00D3FF273A4605F110000099C5
:102C2000FDF77CFBE9194FF0000881F81080FFF7F1
:102C3000D3FDE873042804D385F80A80C6F8008021
:102C4000D7E79BF801102046491C8BF80110FFF7CD
:102C500075FE6FF00400CEE7B8510020740000202C
:102C60002DE9F05F9A4693460D0006466FF00F047B
:102C700008D03EB1307828B13046FDF78DFB804654
:102C8000FF2802D92046BDE8F09F2946304602F0D1
:102C900023F830BB154F00244FF4807904EB041067
:102CA00007EB0011887A032805D14A4630461031D7
:102CB00002F042FE70B1641CE4B2042CEED30C4866
:102CC000006880B153465A4641463046BDE8F05F41
:102CD000FFF72CBF2DB104EB041007EB0010406888
:102CE00028600020CFE76FF00500CCE7B851002046
:102CF0007800002008B5044869460068009000206C
:102D000000F0E8F908BD0000300000202DE9F04F88
:102D100010898DB09A469146102866D300230C2264
:102D200007A9484604F098FC0C285ED1BDF81C00A9
:102D300002F070FDDFF8E881002500BF05EB051209
:102D400008EB0216B17A02297ED131898142FBD18A
:102D5000BDF8200002F05EFD0446BDF8220002F03E
:102D600059FD07469DF81E0000063ED5012CDCD11A
:102D7000F17A6C4ADAF8000052F821108842D4D176
:102D80000C22494606F11000FFF78CFE0446A0F520
:102D90007F40FF3829D0234604220AA9484604F080
:102DA0005BFC042821D1BDF82A10B1F5807F1CD12D
:102DB000BDF82810B1F5807F17D1241DB4F5803FF0
:102DC00013D29DF81F00A4B200074FF0000A4FF085
:102DD000030B5CD03046FFF753FDB0B386F80DB05F
:102DE000012030732846FFF7A9FD94E04E462146A6
:102DF000641CA4B2304605F04FF800287EDB002C9E
:102E00007CD0C0F3811103290BD031892044884242
:102E100074DA84B22146304605F03EF800287ADBA9
:102E2000E5D14FF6FF70844275D0641CA4B2844291
:102E300071D023460A2204A9484604F00DFC0A2852
:102E400069D14FF4803601E060E025E00A34B442F5
:102E500061D2BDF812103012A4B2814208D1BDF87F
:102E60001010814204D1BDF81800B0F5806F23D056
:102E7000BDF8180002F0CEFC2044B0424BD2BDF8A1
:102E8000180002F0C7FC20447F1E84B2BFB21FB1FD
:102E9000B9F80800A042A9D8484604F069FC00210E
:102EA0002846FFF7FFFC05EB051208EB021181F83D
:102EB0000AA00DB0BDE8F08F2346042201A94846C0
:102EC00004F0CAFB042826D105EB051208EB021416
:102ED00001994846616004F04BFC059802F098FCAB
:102EE000114984F80AB02060884200D92160211D70
:102EF0002846FFF7D7FC2068002800E00BE0D8D177
:102F0000A07A0328D5D184F80AA0D2E76D1CEDB2CF
:102F1000042DFFF413AF484604F02AFCC9E7000073
:102F2000B851002078000020803A09002DE9FF5FA9
:102F300004464A4900EB041001EB0015E87A022828
:102F400006D347A340F2023251A157A0FFF738FB46
:102F5000E97A5F48002650F8210040B305F11000DF
:102F60000446FDF719FA123081B24FF42072362070
:102F700003F0E8FF5FEA000A65D00096019602962A
:102F8000288902F047FCADF8000001208DF802000E
:102F90004FF4807BADF804B00C226946504604F033
:102FA0004FFE0C26641E641C274600220BE0002105
:102FB0002046FFF777FCAE72002004B0BDE8F09F1A
:102FC000521CD2B2641C20782E2801D00028F7D1E0
:102FD000E01B1FFA80F9B01800F10108B8F5803F36
:102FE00035D23146504604F0BDFC761CB3B24A4699
:102FF0003946504604F0E0FE20781FFA88F6002893
:10300000D1D100223146504604F0ACFC761CADF81C
:103010000CB0B3B2ADF80EB0042203A9504604F0D0
:10302000CBFEEA7A2A49E87B01EB82020B49352381
:10303000103951F8200051460AF0BEFF04465046B0
:1030400004F096FB01E04FF0FF342046B5E7504610
:1030500004F08EFB6FF00500AFE70000B8510020D0
:103060002E2E2F4D6964646C6577617265732F54E1
:10307000686972645F50617274792F4C7749502F80
:103080007372632F636F72652F646E732E6300001B
:10309000646E7320736572766572206F7574206F2D
:1030A0006620617272617900417373657274696F31
:1030B0006E2022257322206661696C65642061742C
:1030C000206C696E6520256420696E2025730A00D6
:1030D00078000020022805D2044A02EB800011B1DA
:1030E0000968016070470249FAE700007800002093
:1030F000C0F7000810B500242046FFF71FFC641C31
:10310000E4B2042CF8D310BD70B505460C46880710
:1031100006D009A34FF4B67213A11BA0FFF750FA13
:1031200005F0AEFAA96809682160A9680C60BDE8DD
:10313000704005F0CDBA00002E2E2F4D6964646CEE
:103140006577617265732F54686972645F5061724C
:1031500074792F4C7749502F7372632F636F7265A8
:103160002F6D656D702E63006D656D705F667265A5
:10317000653A206D656D2070726F7065726C792094
:10318000616C69676E656400417373657274696F21
:103190006E2022257322206661696C65642061744B
:1031A000206C696E6520256420696E2025730A00F5
:1031B00070B5044605F064FA0546A0680468002C62
:1031C0000FD021680160A00706D008A34FF48C72CD
:1031D00012A11BA0FFF7F4F9284605F079FA204662
:1031E00070BD284605F074FA002070BD2E2E2F4DBC
:1031F0006964646C6577617265732F546869726481
:103200005F50617274792F4C7749502F7372632F1E
:10321000636F72652F6D656D702E63006D656D70E7
:103220005F6D616C6C6F633A206D656D70207072BC
:103230006F7065726C7920616C69676E65640000FF
:10324000417373657274696F6E2022257322206644
:1032500061696C6564206174206C696E6520256409
:1032600020696E2025730A0070B5094D06460024BA
:1032700004EB440005EBC000017D29B18068B04239
:1032800002D1204600F036F9641C0A2CF0DB70BD38
:10329000788E00202DE9F74F84B04FF00A0B002400
:1032A0000646DA465F46D94602940194CDF80040BE
:1032B000514904EB440001EBC008039098F8145006
:1032C0000A2F1DD0002D2AD0012D08D0022D06D2A4
:1032D0004AA340F2231257A166A0FFF771F99EB1ED
:1032E0003168D8F8040081420ED1069820B1D8F890
:1032F00008100698814207D1204607B0BDE8F08F3C
:10330000002DE1D127460AE0012D16D0022D06D36B
:10331000B8F812000099884201D3A2460090641CBC
:1033200024B20A2CC4DB059881074FF0FF30E4D4A7
:103330000A2F16D018DA3C463EE02F49039851F880
:1033400030000028B8F8120005D002998842E6D370
:10335000A1460290E3E701998842E0D3A346019099
:10336000DDE70599C907C8D05146BAF10A0F0EDA50
:103370000C46214801EB440150F8310080B11FA3F5
:1033800040F26D1245A13BA0FFF71AF908E059463B
:10339000BBF10A0F03DB4946B9F10A0FADDA0C465F
:1033A0000A2C06DB15A340F27F1242A131A0FFF7E1
:1033B00007F9204600F09EF80A2C06DB0FA340F226
:1033C00083123CA12BA0FFF7FBF80B4804EB440150
:1033D00000EBC105287D30B108A34FF4C2723AA1B9
:1033E00024A0FFF7EDF80EB1306868600020688215
:1033F0000698A86080E70000788E00202E2E2F4DC2
:103400006964646C6577617265732F54686972646E
:103410005F50617274792F4C7749502F7372632F0C
:10342000636F72652F697076342F6574686172708E
:103430002E6300007374617465203D3D204554483F
:103440004152505F53544154455F50454E44494E9C
:1034500047207C7C207374617465203E3D20455478
:10346000484152505F53544154455F535441424C7C
:1034700045000000417373657274696F6E202225E8
:103480007322206661696C6564206174206C696ECA
:103490006520256420696E2025730A006172705FC3
:1034A0007461626C655B695D2E71203D3D204E55F7
:1034B0004C4C000069203C204152505F5441424C2A
:1034C000455F53495A4500006172705F7461626CD8
:1034D000655B695D2E7374617465203D3D204554C4
:1034E000484152505F53544154455F454D505459E3
:1034F0000000000070B5074C00EB4005002654F8B2
:10350000350018B104F034F944F8356004EBC50017
:10351000067570BD788E00202DE9F04385B00D0052
:10352000074609D07C684FF480782088404539D11F
:103530002079062836D109E01CA340F28A2229A16D
:103540002CA0FFF73DF805B0BDE8F08360790428B2
:1035500028D16088082825D1D4F80E000490A169EC
:10356000686820B1814202D10126334601E000267D
:10357000022304F10802914604A9284600F0A2FBA8
:10358000E08840450ED16EB1022204ABCDE9023293
:10359000291DCDE9001905F1260319464A4628469A
:1035A00000F090FA384604F0E3F8CCE72E2E2F4DC9
:1035B0006964646C6577617265732F5468697264BD
:1035C0005F50617274792F4C7749502F7372632F5B
:1035D000636F72652F697076342F657468617270DD
:1035E0002E6300006E6574696620213D204E554CA7
:1035F0004C000000417373657274696F6E20222560
:103600007322206661696C6564206174206C696E48
:103610006520256420696E2025730A00FEB51546D5
:103620000E46040006D143A340F21E324FA153A020
:10363000FEF7C6FF36B93FA340F21F3259A14FA093
:10364000FEF7BEFF35B93BA34FF4487258A14BA01B
:10365000FEF7B6FF2146286800F0E6FE08B1584B99
:103660003FE02868C0F303110E2925D0A1686368E4
:1036700000EA01020B409A4208D080B2A0F57E41D8
:10368000A93903D0E068B0B304F10C054D4B4E48A6
:103690001A7802EB420100EBC1010F7D022F2ED3FD
:1036A0008F68A7422BD12F6849688F4227D13146B6
:1036B000204600F08BF8FEBD01208DF804000020AC
:1036C0008DF805005E208DF80600687801AB00F0EB
:1036D0007F008DF80700A8788DF80800E8788DF84D
:1036E00009004FF40060009004F1260231462046A4
:1036F00000F01EFCFEBDFFE76FF00300FAE70022BA
:1037000002EB420100EBC1010F7D022F08D38F684D
:10371000A74205D12F6849688F4201D11A70C6E7C8
:10372000521CD2B20A2AEBD332462946204600F078
:10373000D5F8DFE72E2E2F4D6964646C65776172D2
:1037400065732F54686972645F50617274792F4C8D
:103750007749502F7372632F636F72652F6970768C
:10376000342F6574686172702E6300006E65746931
:103770006620213D204E554C4C000000417373657E
:103780007274696F6E2022257322206661696C65F0
:1037900064206174206C696E6520256420696E2048
:1037A00025730A007120213D204E554C4C0000002D
:1037B00069706164647220213D204E554C4C0000BC
:1037C00060F6000830010020788E00202DE9F843D3
:1037D0000646154688461C4802EB450100EBC1042D
:1037E000207D022806D219A340F2EE2225A131A0A5
:1037F000FEF7E6FE144A05EB4501207D02EBC1050C
:103800000C35022813D1608A0327B0F58E7F04D9C6
:10381000211D304600F010FA07E0B0F5877F06D38F
:103820002A46211D304600F00DFA00B927754FF4E5
:10383000006000902B4606F126024146304600F01B
:1038400077FBBDE8F8830000788E00202E2E2F4DE8
:103850006964646C6577617265732F54686972641A
:103860005F50617274792F4C7749502F7372632FB8
:10387000636F72652F697076342F6574686172703A
:103880002E6300006172705F7461626C655B6172CF
:10389000705F6964785D2E7374617465203E3D20AD
:1038A0004554484152505F53544154455F5354412D
:1038B000424C4500417373657274696F6E20222516
:1038C0007322206661696C6564206174206C696E86
:1038D0006520256420696E2025730A002DE9FC5FB0
:1038E0008246263001900E46086814464FF0FF3796
:1038F0004FF0000B514600F097FD80B93068C0F3DF
:1039000003110E290BD056B148B152460121304661
:10391000FFF7C0FC050005D540B2BDE8FC9F6FF085
:103920000F00FAE77F2D06D337A340F2C13244A13E
:1039300047A0FEF745FE05F0FF094F4909EB49088E
:1039400001EBC805287D00280ED0012808D00228E8
:1039500006D22DA340F2CD3248A13DA0FEF730FEA5
:10396000BBF1000F06D104E001202875C5F808A0BE
:1039700000E034B93146504600F05EF90746002CAD
:10398000CBD0287D3C4E02280ED346494FF4006030
:1039900005F10C0381F80090009021465046019AF1
:1039A00000F0C6FA07462DE001282BD1254640F24B
:1039B000F13768892989884207D1286828B112A37C
:1039C0003A4639A122A0FEF7FBFD287B400607D529
:1039D00022464FF420710E2003F000FD044605E05E
:1039E0002D68002DE5D1204604F066F844B156F864
:1039F000380008B103F0BCFE46F83840002701E06B
:103A00004FF0FF37384688E72E2E2F4D6964646CDF
:103A10006577617265732F54686972645F50617273
:103A200074792F4C7749502F7372632F636F7265CF
:103A30002F697076342F6574686172702E63000090
:103A400074797065206F766572666C6F7700000020
:103A5000417373657274696F6E202225732220662C
:103A600061696C6564206174206C696E65202564F1
:103A700020696E2025730A00788E00206172705FC5
:103A80007461626C655B695D2E7374617465203D61
:103A90003D2050454E44494E47206F7220535441BB
:103AA000424C4500300100206E6F207061636B65F1
:103AB000742071756575657320616C6C6F776564D2
:103AC000210000002DE9FF4F81B09846DDE90FA9E4
:103AD000DDF838B006004FF0000706D12CA340F205
:103AE000574239A13CA0FEF76BFD4FF420721C2118
:103AF0000E2003F027FA050046D068891C2806D25C
:103B000023A340F262423EA133A0FEF759FD6C6848
:103B1000119801F07FFEE08096F82C00062806D070
:103B20001BA340F2694243492BA0FEF749FDD8F898
:103B30000010A160B8F80400A081DAF80010C4F801
:103B40001210BAF80400E082DBF80000C4F80E009E
:103B5000D9F80000A0614FF48070208008206080B8
:103B6000062020710420607140F60600DDE9022382
:103B700000902946304600F0DBF9284603F0F8FDB6
:103B8000384605B0BDE8F08F4FF0FF30F9E7000090
:103B90002E2E2F4D6964646C6577617265732F54A6
:103BA000686972645F50617274792F4C7749502F45
:103BB0007372632F636F72652F697076342F65742B
:103BC000686172702E6300006E6574696620213D25
:103BD000204E554C4C000000417373657274696F40
:103BE0006E2022257322206661696C6564206174F1
:103BF000206C696E6520256420696E2025730A009B
:103C0000636865636B20746861742066697273749D
:103C100020706275662063616E20686F6C6420732B
:103C20007472756374206574686172705F68647221
:103C30000000000050F90008014A00F003B800003D
:103C400060F600087FB5064D031D0124CDE900355F
:103C5000CDE9021422331946FFF734FF04B070BDDA
:103C600066F6000870B5164D002400BF04EB440052
:103C700005EBC002117DF1B1508A401C80B2508228
:103C8000B0F5967F0AD2012906D003290AD004296B
:103C90000AD001290BD00EE0052808D32046FFF7F3
:103CA00029FC08E0042000E00220107503E0111D4B
:103CB0009068FFF7C1FF641C0A2CD7DB70BD0000C1
:103CC000788E0020F8B5044690F82C001F46164662
:103CD0000D46062806D020A340F2A9122CA135A03B
:103CE000FEF76EFC9DB1286888B1214600F09CFB70
:103CF00068B92878C0F303100E2808D02246394648
:103D00002846FFF7C7FA002804DA40B2F8BD6FF082
:103D10000F00F8BD00EB40013048022300EBC10268
:103D2000137594603368D360B38813820023538281
:103D300050F8315075B140F831304FF400600090C8
:103D4000334604F126022946204600F0F1F82846C1
:103D500003F00EFD0020F8BD2E2E2F4D6964646C1B
:103D60006577617265732F54686972645F50617220
:103D700074792F4C7749502F7372632F636F72657C
:103D80002F697076342F6574686172702E6300003D
:103D90006E657469662D3E6877616464725F6C65F8
:103DA0006E203D3D204554485F4857414444525F92
:103DB0004C454E00417373657274696F6E20222505
:103DC0007322206661696C6564206174206C696E81
:103DD0006520256420696E2025730A00788E0020F6
:103DE0002DE9F041044640890E270D460E283CD9A6
:103DF000E07B18B995F83000401CE07360680178EA
:103E00008689CA0714D0012905D006221C49FCF76F
:103E1000CAFA48B10CE0417851B980785E2807D1E0
:103E2000607B40F0100002E0607B40F008006073AF
:103E3000082E03D0B6F5C16F17D10DE095F82D000F
:103E4000000712D53946204603F084FE68B929469A
:103E5000204600F031FC10E095F82D00000704D555
:103E60003946204603F076FE18B1204603F080FC68
:103E700003E029462046FFF74FFB0020BDE8F08114
:103E800060F60008704700009AB007466421684653
:103E9000FCF76BFA0026354634464FF480484FF461
:103EA00000692248FEF743F897F82D1049070CD512
:103EB00001282BDC1D48E838FDF756F9384602F09A
:103EC000C9FC384602F01EFD20E001281EDD022854
:103ED00020D0032820D0042821D0052821D0AEB13D
:103EE00012486946E838FCF7A2FD1048CDE90554B0
:103EF0006946E838FDF793F80C48E838FDF7D6F83E
:103F0000384602F0B5FD384602F052FD642002F05A
:103F1000FFFDC6E74C4600E00024454603E04C4662
:103F200000E0002400250126DAE700003C500020D4
:103F30002DE9F04104461F4690460E46069801F0D2
:103F400069FC05460E21304602F098FF18B16FF06B
:103F50000100BDE8F0817068858139680160B98829
:103F60008180D8F80020C0F80620B8F804104181FC
:103F700094F82C00062806D006A34FF4997213A1DA
:103F80001FA0FEF71DFB31462046A269BDE8F041A7
:103F9000104700002E2E2F4D6964646C65776172A6
:103FA00065732F54686972645F50617274792F4C25
:103FB0007749502F7372632F6E657469662F65742D
:103FC0006865726E65742E63000000006E6574692A
:103FD000662D3E6877616464725F6C656E206D75F6
:103FE0007374206265203620666F72206574686580
:103FF000726E65745F6F75747075742100000000D7
:10400000417373657274696F6E2022257322206676
:1040100061696C6564206174206C696E652025643B
:1040200020696E2025730A0010B5040006D10BA389
:1040300040F2DF1210A114A0FEF7C2FA732084F838
:104040002E00742084F82F00194860611948A0617F
:10405000204601F083FA002010BD00002E2E2F4CC8
:104060005749502F5461726765742F657468657283
:104070006E657469662E63006E6574696620213D05
:10408000204E554C4C000000417373657274696F8B
:104090006E2022257322206661696C65642061743C
:1040A000206C696E6520256420696E2025730A00E6
:1040B0001D360008E556000808B50F4D04464FF0C0
:1040C000FF3800274146686802F07CFE0028F9D1DD
:1040D0000097287818B969460848FCF78CFE009EBE
:1040E000002EEFD022692146304690470028EFD0BD
:1040F000304603F03DFBEBE704000020544F002066
:1041000003490A685206FCD5C2B24A6070470000F3
:10411000001001400A46032100F0F4B82DE9FE4FDB
:104120008A4644490446D1F8088098F80000000700
:10413000850E142D79D36089042876D360680078C1
:10414000002872D0082870D1486901F11407C0F323
:1041500003120E2A69D08946096800F065F9002823
:1041600063D12089082860D305F10E010E46204650
:1041700002F084FE002830D02089411989B288429B
:1041800053D84FF420720E2002F0DCFE06004CD013
:10419000718905F10800814216D32A4641467068AC
:1041A000FCF7BCF82946304603F0D4FC002806D0C2
:1041B00021A3B6222EA13CA0FEF702FA04E021467C
:1041C000304603F059F918B1304603F0D1FA2CE02B
:1041D000204603F0CDFA34460CE03146204603F089
:1041E000B9FC002806D014A3C72239A12EA0FEF7DF
:1041F000E7F91AE029462046666802F03FFEA0B9BA
:1042000060683968FF22C160D9F81010016100218F
:10421000317071800272418101228DE806040A46E4
:10422000FF233946204600F017FB2046BDE8FE4F2D
:1042300003F09EBA285600202E2E2F4D6964646C20
:104240006577617265732F54686972645F5061723B
:1042500074792F4C7749502F7372632F636F726597
:104260002F697076342F69636D702E630000000033
:1042700069636D705F696E7075743A206D6F7669F1
:104280006E6720722D3E7061796C6F616420746F6F
:104290002069636D7020686561646572206661697C
:1042A0006C65640A00000000417373657274696F85
:1042B0006E2022257322206661696C65642061741A
:1042C000206C696E6520256420696E2025730A00C4
:1042D00069636D705F696E7075743A20726573748E
:1042E0006F72696E67206F726967696E616C2070AA
:1042F0002D3E7061796C6F6164206661696C6564E4
:104300000A0000002DE9FF479146884606464FF413
:1043100020722421222002F015FE050031D0688988
:10432000242806D218A34FF4B47225A12FA0FEF7BB
:1043300047F96C6877681C2284F8008084F8019043
:104340004FF00008A4F80480A4F80680686871683B
:104350000830FBF7E3FFF868039003A800F08CFC3B
:1043600060B1A4F802800122CDF80080CDE90120DF
:10437000FF2303AA0021284600F06EFA284603F026
:10438000F7F9BDE8FF8700002E2E2F4D6964646C9D
:104390006577617265732F54686972645F506172EA
:1043A00074792F4C7749502F7372632F636F726546
:1043B0002F697076342F69636D702E6300000000E2
:1043C000636865636B2074686174206669727374D6
:1043D00020706275662063616E20686F6C6420696E
:1043E000636D70206D6573736167650041737365FC
:1043F0007274696F6E2022257322206661696C6574
:1044000064206174206C696E6520256420696E20CB
:1044100025730A000A460B21FFF774BFEFF30580EE
:10442000002800D001207047421C12D088B191F8BA
:104430002D2092070BD54B68834208D0896800EA8B
:1044400001020B409A4202D10143491C01D00020D5
:1044500070470120704700002DE9F74F88B00446EF
:10446000099800251426808CAF1F1438C11700EB63
:104470005170C0F3CF00039060680690017801F09E
:104480000F01052903D038460BB0BDE8F08F6189D4
:10449000142907D25BA34FF43F7269A16FA0FEF706
:1044A0008FF8F0E7C08801F0B5F9C0F30C0100F413
:1044B000005002910790208914381FFA80F88EE08E
:1044C00003984FF6FF7101EAC0004146404500D90C
:1044D000084604904FF4207214210E2002F032FDA1
:1044E0005FEA000A7ED0BAF80A00142806D245A373
:1044F0004FF4497263A159A0FEF762F81422DAF86A
:1045000004000699FBF70AFFDAF804000590049FFF
:1045100035E06089811B8DB2B04206D239A340F2EA
:104520002D3260A14DA0FEF74BF8AF4200D23D46C0
:104530001DB3052001F04EFE5FEA000957D0606808
:104540004B463044CDE9000541222946002002F0C7
:104550007FFE5FEA000B50D0204603F0ADFA5549CC
:10456000C9E904145946504602F08EFE781B070430
:104570003F0C06D000262468CBE724680026002FD5
:10458000C7D1701986B20998808C143840450298BA
:10459000C0F30C0001DB079909B140F4005001F0B1
:1045A00039F90599C8800498143080B201F032F9C5
:1045B00005994880059800214181099851460A9A39
:1045C00043699847504603F0D3F80499A8EB0100DB
:1045D0001FFA80F8DDE90201084480B20290B8F1C8
:1045E000000F00E006E07FF46BAF00204CE7504680
:1045F00003F0BEF84FF0FF3046E7484600F076FC87
:10460000F5E700002E2E2F4D6964646C65776172AA
:1046100065732F54686972645F50617274792F4CAE
:104620007749502F7372632F636F72652F697076AD
:10463000342F6970345F667261672E63000000007A
:104640006970345F6672616728293A207062756606
:1046500020746F6F2073686F72740000417373650C
:104660007274696F6E2022257322206661696C6501
:1046700064206174206C696E6520256420696E2059
:1046800025730A0074686973206E65656473206120
:10469000207062756620696E206F6E652070696596
:1046A00063652100702D3E6C656E203E3D20706F6D
:1046B00066660000C55400082DE9F04745680746C6
:1046C0000E4628780421B1EB101F03D0384603F0C2
:1046D0004FF877E000074FEA9068688801F09AF891
:1046E00004463889A04203D92146384603F04AF9E6
:1046F00079894145EAD33889A042E7D3B8F1140F4C
:10470000E4D32969DFF81C91C1F303100E28C9F81E
:104710001410EA68C9F8102005D0304600F086F879
:1047200050B1344619E096F82D00C00702D07068E9
:104730000028F6D1002410E099F8140000247F2806
:104740000BD03948046806E0B44203D0204600F09C
:104750006DF810B92468002CF6D13146D9F8100054
:10476000FFF762FE0028B1D199F81000C0F30310E2
:104770000E28ABD0002CA9D0E88830F0C00005D0BE
:10478000384600F035F907001CD07D68C9F808509C
:10479000C9E90046297838460907890EA9F80C109E
:1047A000414603F0D7F9687A012818D0062811D0BD
:1047B00011280AD04D462146D9F81400FFF734FEDF
:1047C00090B11EE00020BDE8F0873146384609F080
:1047D000B3F919E03146384604F0AEFF14E0314633
:1047E0003846FFF79BFC0FE0287DC0F303100E282E
:1047F00007D04146384603F09DF802213846FFF7BE
:1048000089FC384602F0B4FF0021C9F80010C9F84D
:104810000410C9F80810A9F80C10C9F81010C9F84C
:104820001410CFE728560020CC00002010B590F8D7
:104830002D10C9070CD0416851B1064A52698A420D
:1048400004D001461046FFF7EFFD08B1012010BD6E
:10485000002010BD28560020FEB5DDE90954089E51
:104860001AB109B10F6807B9211D0096CDE90154AD
:1048700000F002F8FEBD00002DE9F84F0546DDE925
:104880000BA8807BDDF828B01F4616468946012814
:1048900006D02FA34FF455723AA13DA0FDF790FE2C
:1048A0006FF00104002E35D01421284602F0E6FAFC
:1048B000002832D168896C68142806D224A34FF4EA
:1048C00062723DA132A0FDF77BFE277284F809A039
:1048D000306820614520207084F801B0288900F0FC
:1048E00099FF414F60804FF0000AA4F806A0388875
:1048F00000F090FFA0803888401C3880B9F1000F8C
:1049000005D0D9F80000E060A4F80AA00CE0374810
:104910000068F8E76889142802D22046BDE8F88FBD
:1049200068686E4600690090B8F8240040B1298993
:10493000814205D9324641462846FFF78DFDEDE715
:10494000D8F814304046324629469847E6E700003A
:104950002E2E2F4D6964646C6577617265732F54D8
:10496000686972645F50617274792F4C7749502F77
:104970007372632F636F72652F697076342F69705D
:10498000342E6300702D3E726566203D3D2031005F
:10499000417373657274696F6E20222573222066DD
:1049A00061696C6564206174206C696E65202564A2
:1049B00020696E2025730A00636865636B20746844
:1049C0006174206669727374207062756620636119
:1049D0006E20686F6C6420737472756374206970E4
:1049E0005F6864720000000032010020C0F7000818
:1049F0002DE9F05F45688346287800F00F00052810
:104A00007DD1E88800F006FFC004070C688800F03C
:104A100001FF29780907890E814270D8401A1FFAD0
:104A200080F8584602F0D1FC6A4C06462088304493
:104A30000A2809D93146284600F0EEFC00285ED04D
:104A4000208830440A28E8D8A14664684FF0000A5C
:104A50000CE06069E968884207D1A0692969884249
:104A600003D1A089A988884203D02468002CF0D102
:104A700006E02CB1E88800F0CDFEC0041BD025E094
:104A8000042001F0A7FB04000AD13146284600F0BB
:104A9000C3FCB04233DB042001F09CFB0400CED009
:104AA0002021FBF762FC0F20E077D9F80410216089
:104AB000C9F8044004E0E08900F0ACFEC00405D071
:104AC0001422294604F10800FBF728FCA87940F3DA
:104AD00040156D1C08D007EB080080B2B84263D3C4
:104AE0004FF6EB7188425FD82A465946204600F0BF
:104AF00045FA411C58D0B9F80020324400E064E087
:104B0000A9F8002035B107EB0801A183A17F41F08E
:104B10000101A177012845D1A08B1422143087B25E
:104B2000606804F10801456828462E68FBF7F6FB2B
:104B3000384600F06FFE6880A5F806A0A5F80AA028
:104B4000656809E014213046776803F003F83146C0
:104B5000284602F099FB3E68002EF3D1D9F80410E4
:104B60004E468C4205D1002105E00868A04202D0E3
:104B700001460029F9D1204600F024FB284602F026
:104B800024FC04463088A04206D213A340F29B22A4
:104B900020A127A0FDF714FD3088001B3080284697
:104BA000BDE8F09F0020FBE7606870B9D9F8040009
:104BB000844206D008A340F2AB2227A11CA0FDF737
:104BC000FFFC0021204600F0FDFA584602F0D0FD1F
:104BD000E8E70000340100202E2E2F4D6964646C3C
:104BE0006577617265732F54686972645F50617292
:104BF00074792F4C7749502F7372632F636F7265EE
:104C00002F697076342F6970345F667261672E6326
:104C10000000000069705F72656173735F70627598
:104C200066636F756E74203E3D20636C656E000098
:104C3000417373657274696F6E202225732220663A
:104C400061696C6564206174206C696E65202564FF
:104C500020696E2025730A006E6F74206669727376
:104C600074616C74686F756768206A757374206509
:104C70006E7175657565640070B50146144813E082
:104C800090F82D20D3070FD053070DD543685BB1A3
:104C900084680D68234005EA04069E4216D09207F8
:104CA00002D4C268954211D000680028E8D10948B2
:104CB000006850B190F82D20D30706D0520704D5D4
:104CC000426812B109787F2900D1002070BD000030
:104CD000CC000020D00000202DE9FF418846064688
:104CE0006F460578FBF7FEFA03461A68505D2028E8
:104CF00064D100240A20302D06D116F8015F782DEA
:104D000008D0582D06D00820515D202904D0102845
:104D100006D016E0102011E0303D04FB00540DE0F9
:104D200081EA810C5FEA0C6C0BD5090701D5612182
:104D300000E04121691A0A3141EA041416F8015FC2
:104D4000E2E72E2D10D01DB11868405DC00736D0A7
:104D50006846381A012101EBA00005283CD2DFE8A3
:104D600000F02D410A13220003A8874226D210C763
:104D700016F8015FB9E7B4F1807F1FD20098FF28D1
:104D80001CD844EA00642DE0B4F5803F16D20098A8
:104D9000FF2813D80198FF2810D800980199000621
:104DA00040EA014016E0FF2C08D80098FF2805D8FB
:104DB0000198FF2802D80298FF2803D9002004B0E8
:104DC000BDE8F08100980199000640EA014002998F
:104DD00040EA0120044305E007A3F92215A118A029
:104DE000FDF7EEFBB8F1000F04D0204600F010FDF7
:104DF000C8F800000120E2E72E2E2F4D6964646C94
:104E00006577617265732F54686972645F5061726F
:104E100074792F4C7749502F7372632F636F7265CB
:104E20002F697076342F6970345F616464722E6309
:104E300000000000756E68616E646C6564000000BF
:104E4000417373657274696F6E2022257322206628
:104E500061696C6564206174206C696E65202564ED
:104E600020696E2025730A001022014900F002B863
:104E7000688F00202DE9FC430023006889466C46BA
:104E80001E464FF00A0C01AD0090002094F80080FF
:104E9000B8FBFCF70CFB1787B8FBFCF884F8008024
:104EA00030372F54401CC0B2B8F1000FEED106E0ED
:104EB0001F465B1C974209DA2F5C01F8017B401EFC
:104EC000C0B2F5D218465B1C904202DB0020BDE860
:104ED000FC832E20761CF6B2641C01F8010B042E14
:104EE000D3D3002001F8010C4846F0E710B50400C8
:104EF00006D106A34FF4317213A116A0FDF760FB93
:104F00002146BDE81040052001F0ACB82E2E2F4DF3
:104F10006964646C6577617265732F546869726443
:104F20005F50617274792F4C7749502F7372632FE1
:104F3000636F72652F697076342F6970345F6672A3
:104F400061672E63000000007020213D204E554C0B
:104F50004C000000417373657274696F6E202225E6
:104F60007322206661696C6564206174206C696ECF
:104F70006520256420696E2025730A002DE9F05F05
:104F80004C68064693460F4600254FF0010860889E
:104F900000F040FC21784FF0FF3A0907890E81426A
:104FA00031D8A0EB0109E08800F034FCC0047C6833
:104FB000010C0020206001EB090083B2A180E38096
:104FC0008B4220D3726829E05068B0F804C0614574
:104FD00015D222606DB1B5F806C0614513D3808843
:104FE000834210D82F60A088844506D04FF0000877
:104FF00003E08088834206D877608AB12EE002D031
:10500000C288914202D25046BDE8F09F25B1EA889D
:10501000624501D04FF0000802680546002AD3D14E
:1050200095B1E888A188884206D92AA34FF4DB729B
:1050300037A13FA0FDF7C4FA2F60E888A188884215
:105040000CD04FF0000809E0706830B121A34FF494
:10505000DF7241A136A0FDF7B3FA7760BBF1000F14
:1050600002D1B07FC007CFD0B8F1000F30D0726846
:10507000002A2DD050688088002829D12168204638
:1050800029B14C68C088A1888842F7D020E0B8F1E7
:10509000000F1DD032B90FA340F2DF123CA124A0B3
:1050A000FDF78EFA70684068A04206D109A34FF45C
:1050B000F07237A11EA0FDF783FA206830B105A376
:1050C0004FF4F17236A11AA0FDF77AFA01209BE79E
:1050D000002099E72E2E2F4D6964646C657761720C
:1050E00065732F54686972645F50617274792F4CD4
:1050F0007749502F7372632F636F72652F697076D3
:10510000342F6970345F667261672E63000000009F
:10511000636865636B20667261676D656E7473208A
:10512000646F6E2774206F7665726C61700000008A
:10513000417373657274696F6E2022257322206635
:1051400061696C6564206174206C696E65202564FA
:1051500020696E2025730A006E6F20707265766973
:105160006F757320667261676D656E742C2074684C
:105170006973206D7573742062652074686520669C
:105180006972737420667261676D656E74210000C8
:1051900073616E69747920636865636B0000000059
:1051A00076616C69646174655F6461746167726182
:1051B0006D3A6E6578745F70627566213D4E554C30
:1051C0004C00000070B504460C480D464168A142F1
:1051D00002D1216841600AE0002D06D108A340F207
:1051E000451216A11CA0FDF7EBF9206828602146A6
:1051F000BDE87040042000F035BF000034010020FD
:105200002E2E2F4D6964646C6577617265732F541F
:10521000686972645F50617274792F4C7749502FBE
:105220007372632F636F72652F697076342F6970A4
:10523000345F667261672E630000000073616E69FF
:10524000747920636865636B206C696E6B6564209C
:105250006C69737400000000417373657274696F48
:105260006E2022257322206661696C65642061745A
:10527000206C696E6520256420696E2025730A0004
:105280002DE9F047054600240F46A94205D12FA37A
:10529000AB223DA13FA0FDF793F9002F08D038685D
:1052A000A84205D029A3AD2244A13AA0FDF788F970
:1052B0006E684FF480387068818800291AD10068C0
:1052C0006860142205F108017068FBF727F80121D6
:1052D0003046FFF79FF8304602F077F80446404525
:1052E00005D31AA3BC223AA12AA0FDF769F93046DA
:1052F00002F03EFA6E6812E07068B14606684846F1
:1053000002F063F80444444505D310A3CC2230A135
:1053100020A0FDF755F9A4B2484602F029FA002E64
:10532000EAD139462846FFF74DFF314D2888A04283
:1053300005D206A3D2222FA116A0FDF741F9288895
:10534000001B28802046BDE8F08700002E2E2F4D40
:105350006964646C6577617265732F5468697264FF
:105360005F50617274792F4C7749502F7372632F9D
:10537000636F72652F697076342F6970345F66725F
:1053800061672E63000000007072657620213D2069
:1053900069707200417373657274696F6E202225A3
:1053A0007322206661696C6564206174206C696E8B
:1053B0006520256420696E2025730A007072657669
:1053C0002D3E6E657874203D3D20697072000000AE
:1053D00070627566735F6672656564202B20636C0E
:1053E000656E203C3D2030786666666600000000F1
:1053F0003401002069705F72656173735F7062755C
:1054000066636F756E74203E3D2070627566735FD3
:1054100066726565640000002DE9F0471D4F8946FE
:10542000064600240022134611461546786822E0FD
:10543000D0F814C0D6F80C80C4450BD1D0F818C0F1
:10544000D6F81080C44505D1B0F80CC0B6F8048079
:10545000C44509D06D1C2AB190F81FC092F81F8076
:10546000C44501D802461946D0F800C0BCF1000F6F
:1054700000D0034660460028DAD11AB11046FFF783
:10548000FFFE04444C4501DA012DCBDC2046BDE88B
:10549000F08700003401002070B5094800254468F9
:1054A0000BE0E07F20B1401EE0772546246804E051
:1054B000204624682946FFF7E3FE002CF1D170BD99
:1054C0003401002010B5040006D108A340F2CE221A
:1054D00015A118A0FDF774F8606908B102F048F949
:1054E0002046BDE81040FFF701BD00002E2E2F4DD5
:1054F0006964646C6577617265732F54686972645E
:105500005F50617274792F4C7749502F7372632FFB
:10551000636F72652F697076342F6970345F6672BD
:1055200061672E630000000070637220213D204EF1
:10553000554C4C00417373657274696F6E2022255F
:105540007322206661696C6564206174206C696EE9
:105550006520256420696E2025730A002DE9F0413D
:10556000A4B00446002664216846FAF7FEFE5A4DB0
:105570005848002728608DF8687080208DF86900F1
:10558000E1208DF86A008DF86C708DF86B708DF8E5
:105590006D701AA868604FF40000A860A5F1A00023
:1055A000E860A03828614FF4C06068612846FBF7C6
:1055B00015FB8046382105F1B000FAF7D6FE05F15B
:1055C000B000212101604FF44001C0E9047143485B
:1055D00000F0EAFD062084F82C0068680322002110
:1055E000007884F826006868407884F827006868A6
:1055F000807884F828006868C07884F82900686892
:10560000007984F82A006868407984F82B0040F219
:10561000DC50A08494F82D0040F00A0084F82D009E
:10562000012009F003FA2E4D0322002168600120B9
:1056300009F0FCF92949A8601C220C311CA8FAF7D2
:105640006DFE21461CA801F0EFFB234805F10C017B
:10565000E830FCF71CFD2048E830FCF7B2FCB8F15C
:10566000000F04D0FBF7BEF924B0BDE8F0811A4862
:10567000E830FCF75CFC0146012806DC204601F01E
:1056800041F9204601F0E6F8EEE74FF40065E80046
:10569000022905D0032905D0042906D0052903D005
:1056A000064602E00025FBE7002569460A48FBF7AD
:1056B000BEF9CDE9056569460748FBF7B0FC064829
:1056C000FBF7F4FC204601F0D3F9204601F070F915
:1056D000CAE7000000800240544F002004F6000892
:1056E00004000020F0B58DB00E4600252F46302175
:1056F0006846FAF73AFE30216846FAF736FE344635
:105700006846002216E0042D03D36FF00B000DB0A5
:10571000F0BD05EB4501636840F8213000EB8101E5
:1057200063894B600DB141F8041C236803B98A609A
:1057300024686D1C002CE6D10D4932894E63C1E905
:105740000120304602F0B8F90949A1F1B000FBF799
:105750005BFD084D641E2146A86801F033FB00285C
:10576000F9D10348B038FBF7EFFB3846CFE700002C
:10577000045000200400002010B504464068804713
:1057800003F016F8094A216852688B181A1AB2F108
:10579000004F03D308442246054902E0044922464B
:1057A0001846BDE8104003F09BB800001C01002023
:1057B00079570008F8B50746694600F0A3FD124C7A
:1057C00018B1D220A0600020F8BD009860600E489B
:1057D0000026001D00F108054FF48072C5E900069F
:1057E00039460A48FAF7CCFD0849A1F1140081F8BE
:1057F000006101600449266041600221816004214A
:10580000C0E90315F8BD000050000020A45000209E
:1058100000BA704740BA704710B502F081FF00F03F
:105820009DF900F0B1FC00F079FF08F079F903F080
:1058300077FFFDF75FFABDE8104003F0CDB8D06800
:1058400039B100230370506809680160906802F064
:10585000CABFFA210170F9E738B50446002000906C
:10586000D4E900012346114AFDF7FAF90146E06840
:105870000170491D18D10E4802F097FF0021A06861
:1058800002F00AFF0A4802F07CFFE06890F900008D
:10589000401D09D101B007A3BDE8304040F67102B8
:1058A00011A11BA0FCF78CBE38BD00003F580008BA
:1058B000700000202E2E2F4D6964646C6577617234
:1058C00065732F54686972645F50617274792F4CEC
:1058D0007749502F7372632F6170692F6170695F10
:1058E0006D73672E63000000646F5F676574686F97
:1058F000737462796E616D65207374696C6C206974
:105900006E2070726F677265737321210000000052
:10591000417373657274696F6E202225732220664D
:1059200061696C6564206174206C696E6520256412
:1059300020696E2025730A002DE9704010F8013BA4
:1059400011F8014BA3420BD043F02005A5F16106ED
:10595000192E03D844F02004A54201D0012070BDC7
:10596000521E01D0002BE9D1002070BDFBF7C2FD13
:10597000FCF7E0FCFCF7B6FBFCF78AFCFCF79EFBAF
:1059800001F0CDF8FEE701460020842900D0C81CB4
:10599000704700002DE9F041002861D0810704D054
:1059A00030A340F273223BA10DE0434DA0F1080467
:1059B00029688C4203D369680C30884207D929A32F
:1059C00040F27F223DA144A0FCF7FAFD2FE03A48C7
:1059D000083002F0D6FE207900282ED02888201A20
:1059E00086B2208802F082FD0746608802F07EFDC4
:1059F00021884FF4C863002299420DD861889942EA
:105A00000AD8B14202D00088B04205D16868874206
:105A100018D07888B04215D012A340F2952238A150
:105A20002DA0FCF7CDFD2448083002F0BEFE02F0A8
:105A300027FEBDE8F04102F04BBE0AA34FF42372EB
:105A40003CA1EDE72271E868844200D2EC60204678
:105A500002F032FABDE8F0411748083002F0A5BE66
:105A6000BDE8F0812E2E2F4D6964646C65776172FC
:105A700065732F54686972645F50617274792F4C3A
:105A80007749502F7372632F636F72652F6D656D49
:105A90002E6300006D656D5F667265653A20736107
:105AA0006E69747920636865636B20616C69676EE9
:105AB0006D656E7400000000800000206D656D5FF4
:105AC000667265653A20696C6C6567616C206D650E
:105AD0006D6F727900000000417373657274696FB5
:105AE0006E2022257322206661696C6564206174D2
:105AF000206C696E6520256420696E2025730A007C
:105B00006D656D5F667265653A20696C6C6567618D
:105B10006C206D656D6F72793A206E6F6E2D6C69B9
:105B20006E6B65643A20646F75626C6520667265A1
:105B3000650000006D656D5F667265653A20696C91
:105B40006C6567616C206D656D6F72793A20646F6A
:105B500075626C65206672656500000070B512485C
:105B6000124C20F003014FF4C86521600D80002025
:105B700048800871284602F0B9FC0121606001717B
:105B8000058045802068E06004F1080002F0FEFD19
:105B9000002808D0BDE8704005A340F21F2210A1E4
:105BA00016A0FCF70DBD70BD4356002080000020FC
:105BB0002E2E2F4D6964646C6577617265732F5466
:105BC000686972645F50617274792F4C7749502F05
:105BD0007372632F636F72652F6D656D2E630000A6
:105BE0006661696C656420746F20637265617465B9
:105BF000206D656D5F6D7574657800004173736528
:105C00007274696F6E2022257322206661696C654B
:105C100064206174206C696E6520256420696E20A3
:105C200025730A002DE9F04700280ED0C41C4FF65A
:105C3000FC710C404FF4C8690C2C01D20C2401E01B
:105C40004C4501D8844202D20020BDE8F087444888
:105C500002F097FD4248C4F5C8670838824681893A
:105C60000288891A8EB274E0304602F03FFC054685
:105C7000007900286AD12888801B0838A04265D3A3
:105C8000288804F11401801B08384FF0010888426D
:105C90001DD33019083087B24F4506D131A340F2E9
:105CA00087323CA140A0FCF78BFC384602F01EFC7A
:105CB000002101712988018046802F8085F80480A9
:105CC0000088484505D002F011FC478001E085F8C6
:105CD0000480DAF80C005646854203D014E00088B0
:105CE00002F004FC017911B171688842F7D1F060CB
:105CF0007168884208D0007930B11AA340F2B532F9
:105D000033A129A0FCF75CFC154802F04EFD2819D0
:105D100071680830884206D912A340F2B93233A123
:105D200021A0FCF74DFCA8070DD00EA340F2BB321A
:105D30003AA11DA0FCF744FC0AA340F2BD3243A1E6
:105D400019A0FCF73DFC05F108007EE7DAF8000039
:105D5000865BB74288D8024802F027FD74E700004E
:105D6000880000202E2E2F4D6964646C6577617267
:105D700065732F54686972645F50617274792F4C37
:105D80007749502F7372632F636F72652F6D656D46
:105D90002E630000696E76616C6964206E657874AC
:105DA0002070747200000000417373657274696F33
:105DB0006E2022257322206661696C6564206174FF
:105DC000206C696E6520256420696E2025730A00A9
:105DD0006D656D5F6D616C6C6F633A20216C6672EE
:105DE00065652D3E75736564000000006D656D5F2F
:105DF0006D616C6C6F633A20616C6C6F636174658C
:105E000064206D656D6F7279206E6F742061626FB2
:105E100076652072616D5F656E642E006D656D5FE5
:105E20006D616C6C6F633A20616C6C6F636174655B
:105E300064206D656D6F72792070726F7065726C21
:105E40007920616C69676E65642E00006D656D5F19
:105E50006D616C6C6F633A2073616E697479206355
:105E60006865636B20616C69676E6D656E740000B8
:105E700002490988401A80B2704700008000002063
:105E80002DE9F05F0646CC1C4FF6FC7004404FF441
:105E9000C86A0C2C01D20C2401E054452FD88C4246
:105EA0002DD3464F3868864202D37868864206D39F
:105EB00043A340F2D1224EA153A0FCF781FB3868E6
:105EC000864202D379688E4204D302F0D9FB02F0F5
:105ED000FFFB19E0A6F10805BB46281A87B22888FF
:105EE000C01B08381FFA80F94C4506D934A34FF47B
:105EF00039724FA144A0FCF763FB4C4503D94FF026
:105F00000000BDE8F09F01D13046FAE72B4800F1D0
:105F1000080002F036FC288802F0E8FA8046007992
:105F200000282AD004F11400484521D83819083037
:105F300084B22888504506D121A340F2163244A1EC
:105F400031A0FCF73DFB204602F0D0FADBF80C2034
:105F5000904201D2CBF80C00002101712988018008
:105F600047802C800088504502D002F0BFFA448060
:105F70001248083002F019FCC6E72888504506D1BF
:105F80000FA340F2F52232A11FA0FCF719FB38192C
:105F90000830DBF80C10B8F8009084B2414504D109
:105FA000204602F0A3FACBF80C00204602F09EFA3D
:105FB00000210171A0F80090D2E7000080000020CD
:105FC0002E2E2F4D6964646C6577617265732F5452
:105FD000686972645F50617274792F4C7749502FF1
:105FE0007372632F636F72652F6D656D2E63000092
:105FF0006D656D5F7472696D3A206C6567616C20C8
:106000006D656D6F72790000417373657274696FAD
:106010006E2022257322206661696C65642061749C
:10602000206C696E6520256420696E2025730A0046
:106030006D656D5F7472696D2063616E206F6E6C4B
:106040007920736872696E6B206D656D6F7279006F
:10605000696E76616C6964206E6578742070747204
:10606000000000000E2806D307A34FF4D57212A13A
:1060700018A0FCF7A5BA002904D0204A52F8200045
:10608000FDF742B8704700002E2E2F4D6964646CF6
:106090006577617265732F54686972645F506172CD
:1060A00074792F4C7749502F7372632F636F726529
:1060B0002F6D656D702E63006D656D705F66726526
:1060C000653A2074797065203C204D454D505F4DF8
:1060D00041580000417373657274696F6E20222508
:1060E0007322206661696C6564206174206C696E3E
:1060F0006520256420696E2025730A0014F70008C6
:1061000018B1002908D0FCF7FFBF04A340F2951294
:106110000EA113A0FCF754BA704700002E2E2F4D8D
:106120006964646C6577617265732F546869726421
:106130005F50617274792F4C7749502F7372632FBF
:10614000636F72652F6D656D702E6300696E766189
:106150006C696420706F6F6C20646573630000006D
:10616000417373657274696F6E20222573222066F5
:1061700061696C6564206174206C696E65202564BA
:1061800020696E2025730A0030B5064D002400BF3B
:1061900055F8240000F008F8641CA4B20E2CF7D3C4
:1061A00030BD000014F700088268002111604168CA
:1061B000C91C21F00301002207E08368521C1B6800
:1061C0000B60836819600388194443889342F4DCA8
:1061D0007047000010B50E2808D308A340F25712EC
:1061E00012A11AA0FCF7ECF9002010BD214951F8CA
:1061F0002000BDE81040FCF7DBBF00002E2E2F4D25
:106200006964646C6577617265732F546869726440
:106210005F50617274792F4C7749502F7372632FDE
:10622000636F72652F6D656D702E63006D656D70A7
:106230005F6D616C6C6F633A2074797065203C20EF
:106240004D454D505F4D415800000000417373654E
:106250007274696F6E2022257322206661696C65F5
:1062600064206174206C696E6520256420696E204D
:1062700025730A0014F7000810B518B1BDE81040E6
:10628000FCF796BF04A34FF49E720FA113A0FCF776
:1062900097F9002010BD00002E2E2F4D6964646C0C
:1062A0006577617265732F54686972645F506172BB
:1062B00074792F4C7749502F7372632F636F726517
:1062C0002F6D656D702E6300696E76616C69642058
:1062D000706F6F6C206465736300000041737365B9
:1062E0007274696F6E2022257322206661696C6565
:1062F00064206174206C696E6520256420696E20BD
:1063000025730A0010B586B06FF00F04E8B10029BC
:1063100020D001ABCDF810D005AA83E807001046C5
:10632000002102F04AFA8DF8000000280BD101A9E3
:106330000E48039A07F0EEF90446039802F03AFA81
:10634000002C0FD0204606B010BD09A340F2045225
:1063500014A103E006A340F205521BA123A0FCF701
:106360002FF9EFE79DF90000EDE70000595800080C
:106370002E2E2F4D6964646C6577617265732F549E
:10638000686972645F50617274792F4C7749502F3D
:106390007372632F6170692F6170695F6C69622E1F
:1063A000630000006E6574636F6E6E5F676574688E
:1063B0006F737462796E616D653A20696E76616C97
:1063C0006964206E616D65006E6574636F6E6E5FEB
:1063D000676574686F737462796E616D653A206980
:1063E0006E76616C696420616464720041737365E8
:1063F0007274696F6E2022257322206661696C6554
:1064000064206174206C696E6520256420696E20AB
:1064100025730A002DE9F0470400DDE90970089DA5
:1064200003D03FB100290DD00DE035A340F2271273
:1064300040A103E032A34FF4947245A14DA0FCF7B4
:10644000BFF81DE0554902B9544A03B9534B002621
:106450006660A660DFF848C1C4F814C0E660A68490
:1064600084F82D60C4E907654E4D95F800C084F8A6
:1064700030C02061204600F0B7F92046B84710B17F
:106480000020BDE8F087B24640F28B1840F28D192B
:1064900094F83000FF2801D184F830A000276E68FE
:1064A0001EE0A64205D116A342463FA131A0FCF74B
:1064B00087F87F1CFF2F05DD11A34A463FA12DA0C1
:1064C000FCF77EF896F8300094F83010884206D138
:1064D000C8B2401C84F83000002ED9D102E03668E2
:1064E000002EDED194F83000FE2806D0401C287023
:1064F0006868206020466C60C3E785F800A0F7E775
:106500002E2E2F4D6964646C6577617265732F540C
:10651000686972645F50617274792F4C7749502FAB
:106520007372632F636F72652F6E657469662E6375
:10653000000000006E657469665F6164643A2069FA
:106540006E76616C6964206E657469660000000097
:106550006E657469665F6164643A204E6F20696E8F
:1065600069742066756E6374696F6E2067697665FD
:106570006E000000417373657274696F6E2022258E
:106580007322206661696C6564206174206C696E99
:106590006520256420696E2025730A00C0F7000875
:1065A000E1670008C80000206E6574696620616CB0
:1065B000726561647920616464656400746F6F2042
:1065C0006D616E79206E65746966732C206D6178DB
:1065D0002E20737570706F72746564206E756D62B5
:1065E00065722069732032353500000070B50C46A5
:1065F000054603F0FBFD21462846BDE8704007F044
:1066000015BC0A68C3689A4204D001B90022C2606E
:106610000120704700207047F8B515460C0006466B
:1066200006D113A340F2CB121EA122A0FBF7C8FF94
:1066300035B90FA34FF4E6721AA11EA0FBF7C0FFF5
:1066400021687068814210D0009128606946284610
:10665000FFF7CCFF3CB1206870600121304600F0AC
:106660005FF80120F8BD0020F6E70020F8BD00002B
:106670002E2E2F4D6964646C6577617265732F549B
:10668000686972645F50617274792F4C7749502F3A
:106690007372632F636F72652F6E657469662E6304
:1066A00000000000696E76616C696420706F696E2D
:1066B00074657200417373657274696F6E20222570
:1066C0007322206661696C6564206174206C696E58
:1066D0006520256420696E2025730A000A68836896
:1066E0009A4204D001B90022826001207047002044
:1066F0007047000001000CD00748406807E000BF69
:1067000090F83020521CD2B28A4203D00068002890
:10671000F6D1002070470000C8000020704700003C
:1067200070B50D46040006D10DA340F26D3219A1DB
:1067300021A0FBF745FF94F82D0041070ED5C107B6
:106740000CD0E9070AD06168002907D0000705D5F9
:10675000211D2046BDE87040FDF76EBA70BD0000F7
:106760002E2E2F4D6964646C6577617265732F54AA
:10677000686972645F50617274792F4C7749502F49
:106780007372632F636F72652F6E657469662E6313
:10679000000000006E657469665F69737375655FFC
:1067A0007265706F7274733A20696E76616C696499
:1067B000206E657469660000417373657274696F59
:1067C0006E2022257322206661696C6564206174E5
:1067D000206C696E6520256420696E2025730A008F
:1067E0006FF00B00704700002DE9F84F4FF00009E3
:1067F0001D4616460C008246C84600D1114C06B90B
:10680000104E05B90F4DACB1206898B100274A462B
:1068100031465046FFF762FF424629465046FFF791
:10682000F0FE002F04D16A4621465046FFF7F4FEE1
:10683000BDE8F88F01276A4621465046FFF7ECFE77
:10684000E5E70000C0F700080149886070470000D4
:10685000C800002058B190F82D10CA070ED001F0E2
:10686000FE0180F82D10090708D5FCF7FDBC04A334
:1068700040F29B320FA117A0FBF7A2BE70470000A9
:106880002E2E2F4D6964646C6577617265732F5489
:10689000686972645F50617274792F4C7749502F28
:1068A0007372632F636F72652F6E657469662E63F2
:1068B000000000006E657469665F7365745F646FE5
:1068C000776E3A20696E76616C6964206E657469D2
:1068D00066000000417373657274696F6E20222533
:1068E0007322206661696C6564206174206C696E36
:1068F0006520256420696E2025730A00002800D0D9
:10690000C161704758B190F82D104A070ED501F0BB
:10691000FB0180F82D10C169002907D0084704A3A6
:1069200040F206420FA118A0FBF74ABE70470000D4
:106930002E2E2F4D6964646C6577617265732F54D8
:10694000686972645F50617274792F4C7749502F77
:106950007372632F636F72652F6E657469662E6341
:10696000000000006E657469665F7365745F6C6932
:106970006E6B5F646F776E3A20696E76616C6964E6
:10698000206E657469660000417373657274696F87
:106990006E2022257322206661696C656420617413
:1069A000206C696E6520256420696E2025730A00BD
:1069B00010B5040012D094F82D00410717D440F010
:1069C000040084F82D0003212046FFF7A9FEE169A9
:1069D00000290CD02046BDE810400847BDE8104013
:1069E00003A34FF478720FA117A0FBF7E9BD10BD08
:1069F0002E2E2F4D6964646C6577617265732F5418
:106A0000686972645F50617274792F4C7749502FB6
:106A10007372632F636F72652F6E657469662E6380
:106A2000000000006E657469665F7365745F6C6971
:106A30006E6B5F75703A20696E76616C6964206E6A
:106A40006574696600000000417373657274696F54
:106A50006E2022257322206661696C656420617452
:106A6000206C696E6520256420696E2025730A00FC
:106A700050B190F82D10CA070DD141F0010180F8F6
:106A80002D100321FFF74CBE03A34FF454720FA146
:106A900015A0FBF795BD70472E2E2F4D6964646CD1
:106AA0006577617265732F54686972645F506172B3
:106AB00074792F4C7749502F7372632F636F72650F
:106AC0002F6E657469662E63000000006E65746940
:106AD000665F7365745F75703A20696E76616C6984
:106AE00064206E6574696600417373657274696FC2
:106AF0006E2022257322206661696C6564206174B2
:106B0000206C696E6520256420696E2025730A005B
:106B100010B500B9012007F0EFFD002010BD10B541
:106B200007F086FE002010BD10B5FDF777FC18B108
:106B3000BDE8104008F0BCBBBDE8104008F0B2BB97
:106B400038B5D0E9011204683AB1C3682BB100200E
:106B50000090204607F08BFF38BD2046BDE8384046
:106B6000002207F063BF00002DE9FF410D004FF048
:106B70000006CDE9016507461ED000240396501C8F
:106B80001FD002B11446FDF749FC69464FF01008CA
:106B9000E8B103AA2846091D08F0DAF9012813D044
:106BA00000960398E8B114494FF080500860BFF395
:106BB0004F8FBFF36F8F14E0802031462A4600903C
:106BC00011E04FF0FF34DEE7CDF80080E9E7224620
:106BD0002846091D08F020F9012808D054B14020AA
:106BE00000909DE8070087E80700BDE8FF81CDF829
:106BF0000080F6E70020F3E704ED00E037B5054636
:106C000082B000200090140000D10124FDF706FCA2
:106C10004FF0000388B16A4603A9284608F04EF8F1
:106C2000012811D1009890B10A494FF080500860B6
:106C3000BFF34F8FBFF36F8F09E0224603A92846A9
:106C400007F08CFF012802D0FF2005B030BD0020E6
:106C5000FBE7000004ED00E041684FF0010009B1DE
:106C600007F0D7BE07F0CABE38B500240546009429
:106C7000FDF7D4FB90B16946284608F07EF801285C
:106C800001D0FF2038BD009888B10A494FF08050EC
:106C90000860BFF34F8FBFF36F8F08E000231A46E1
:106CA0001946284607F05AFF012800D0FF24204645
:106CB00038BD000004ED00E038B505004FF00000DD
:106CC00000900FD00024481C0ED001B10C46FDF7F7
:106CD000A5FBB8B16A460021284608F039F9012819
:106CE00016D104E0802038BD4FF0FF34EFE7009864
:106CF00080B109494FF080500860BFF34F8FBFF358
:106D00006F8F07E02146284608F070F9012801D06E
:106D1000FF2038BD002038BD04ED00E038B54368E1
:106D20004BB1012909D10320002200901146012016
:106D300007F09DFE38BD012901D0002038BD032297
:106D40000021012007F072FE040004D000231A463F
:106D5000194607F003FF204638BD10B50446FDF77D
:106D60005DFB08B1822010BD204607F099FC002091
:106D700010BD000038B5002405460094FDF74EFB19
:106D800090B16946284607F0F8FF012801D0FF209E
:106D900038BD009888B10A494FF080500860BFF3B1
:106DA0004F8FBFF36F8F08E000231A46194628461D
:106DB00007F0D4FE012800D0FF24204638BD000093
:106DC00004ED00E038B505004FF0000000900FD052
:106DD0000024481C0ED001B10C46FDF71FFBB8B1D2
:106DE0006A460021284608F0B3F8012816D104E0CD
:106DF000802038BD4FF0FF34EFE7009880B109499B
:106E00004FF080500860BFF34F8FBFF36F8F07E0E4
:106E10002146284608F0EAF8012801D0FF2038BDB5
:106E2000002038BD04ED00E07FB50D460446416901
:106E3000B0F9080081B1A16971B1FEF7A4FDD4E9F0
:106E400005128DE80700D4E900102B46226908F0EE
:106E5000F0F9039004B070BDFEF795FD03A9CDE9EC
:106E60000001208A2B4682B2D4E9001008F0B4F960
:106E7000012801D00020EDE70398EBE7002200F0A5
:106E800001B8000070B5A8B1B1F5803F26D2002945
:106E900018D004898BB214FA81F5ADB29D421DD38E
:106EA000057B2D0610D54268511A00F1100291425F
:106EB00014D30CE00AA340F2DF1215A117A0FBF7D0
:106EC0007FFB0BE0002070BD42B14268511A416067
:106ED000418919444181E1180181F3E7012070BD26
:106EE0002E2E2F4D6964646C6577617265732F5423
:106EF000686972645F50617274792F4C7749502FC2
:106F00007372632F636F72652F706275662E6300F4
:106F10007020213D204E554C4C000000417373659C
:106F20007274696F6E2022257322206661696C6518
:106F300064206174206C696E6520256420696E2070
:106F400025730A002DE9FE4F054690460F46104670
:106F5000012A11D041280FD04FF0000AB0F5C17FAF
:106F600010D0B2F5207F67D04AA340F2271255A176
:106F70005BA0FBF725FB8BE00246002000F010F938
:106F8000044682E00024A1460D20FFF723F9060005
:106F900036D0E81C029020F00300C0F51470B8420F
:106FA00000D93846834670191330CDE9008A20F0A5
:106FB00003015B463A46304600F0C6FC3079800754
:106FC00006D034A34FF480724FA145A0FBF7F8FA26
:106FD00002989421B1EB900F06D12EA34FF4817249
:106FE00055A13FA0FBF7ECFA24B3C9F80060A7EB6A
:106FF0000B000704B1463F0C4FF00005C4D144E03C
:1070000001F03EFB594D2E780121297001F060FB03
:1070100056B90021564806F08BFC28B101F030FB30
:1070200085F800A001F054FB002C31D0204600F080
:107030009FFB2DE03446DAE7E81C20F00302F81C41
:1070400020F00301501880B200F1100292B2814288
:107050001ED891421CD81046FEF7E4FD040017D05C
:1070600060191330CDE9008A20F003013B461A462F
:10707000204600F069FC2079800706D005A34FF474
:1070800091723CA116A0FBF79BFA2046BDE8FE8F4B
:107090000020FBE72E2E2F4D6964646C65776172CA
:1070A00065732F54686972645F50617274792F4CF4
:1070B0007749502F7372632F636F72652F706275FB
:1070C000662E6300706275665F616C6C6F633A2058
:1070D0006572726F6E656F757320747970650000EC
:1070E000417373657274696F6E2022257322206666
:1070F00061696C6564206174206C696E652025642B
:1071000020696E2025730A00706275665F616C6C81
:107110006F633A207062756620712D3E7061796CE4
:107120006F61642070726F7065726C7920616C6938
:10713000676E656400000000504255465F504F4F37
:107140004C5F42554653495A45206D757374206211
:107150006520626967676572207468616E204D45BD
:107160004D5F414C49474E4D454E5400D4000020E0
:1071700001790008706275665F616C6C6F633A201C
:10718000706275662D3E7061796C6F6164207072FB
:107190006F7065726C7920616C69676E6564000060
:1071A0002DE9FC4114460E460746412A08D0012C21
:1071B00006D00CA34FF4A57216A11BA0FBF700FA92
:1071C0000C20FFF707F805004FF0000008D0CDE9CC
:1071D000004033461A463946284600F0B5FB28469B
:1071E000BDE8FC812E2E2F4D6964646C6577617259
:1071F00065732F54686972645F50617274792F4CA3
:107200007749502F7372632F636F72652F706275A9
:10721000662E6300696E76616C69642070627566C3
:107220005F74797065000000417373657274696FF3
:107230006E2022257322206661696C65642061746A
:10724000206C696E6520256420696E2025730A0014
:107250007CB51C46DDE90635C01C20F0030046184D
:10726000AE4201D900207CBD0BB1184400E00020E3
:107270000223CDE900230B4601461A46204600F0C2
:1072800063FB20467CBD000070B50D4608B1002DA3
:1072900008D1BDE8704014A340F259321EA12CA0C1
:1072A000FBF78EB90446006820B121892A89114470
:1072B0002181F7E72089618988420FD00AA340F233
:1072C00062322DA122A0FBF77BF9206830B106A322
:1072D00040F2633234A11EA0FBF772F9208929899C
:1072E00008442081256070BD2E2E2F4D6964646C8A
:1072F0006577617265732F54686972645F5061725B
:1073000074792F4C7749502F7372632F636F7265B6
:107310002F706275662E6300286820213D204E552F
:107320004C4C2920262620287420213D204E554CE7
:107330004C29202870726F6772616D6D65722076BE
:10734000696F6C6174657320415049290000000029
:10735000417373657274696F6E20222573222066F3
:1073600061696C6564206174206C696E65202564B8
:1073700020696E2025730A00702D3E746F745F6C57
:10738000656E203D3D20702D3E6C656E20286F6639
:10739000206C617374207062756620696E2063686A
:1073A00061696E2900000000702D3E6E65787420C2
:1073B0003D3D204E554C4C0010B50C46FFF764FF88
:1073C0002046BDE8104000F077BB002102E0491CD8
:1073D000006889B20028FAD10846704770B5154692
:1073E00013890A461946FFF7ADFD04000CD0294663
:1073F00000F042F830B105A340F224520FA114A0CE
:10740000FBF7DEF8204670BD002070BD2E2E2F4DFC
:107410006964646C6577617265732F54686972641E
:107420005F50617274792F4C7749502F7372632FBC
:10743000636F72652F706275662E63007062756689
:107440005F636F7079206661696C6564000000009D
:10745000417373657274696F6E20222573222066F2
:1074600061696C6564206174206C696E65202564B7
:1074700020696E2025730A002DE9F0474FF00007C0
:107480000C4605003E466FF00F0904D01CB1288958
:107490002189884204D232A340F2C9323CA145E09E
:1074A0006FF0050A6889C11B6089801B814201D386
:1074B000804600E088466068424681196868384422
:1074C000F8F72CFF688947444644B84206D224A303
:1074D00040F2D9323AA140A0FBF772F86089B0427D
:1074E00006D21FA340F2DA3245A13BA0FBF768F8B1
:1074F0006089B04201D8246800266889B84202D168
:107500002D68002765B1002C16D06089218988423A
:1075100012D1206800280FD011A340F2E93215E003
:10752000002C1BD00EA34FF479723CA12AA0FBF7CC
:1075300047F84846BDE8F08775B1688929898842CF
:107540000AD1286840B106A340F2EE3237A122A04A
:10755000FBF736F85046EDE7002CA3D10020E9E711
:107560002E2E2F4D6964646C6577617265732F549C
:10757000686972645F50617274792F4C7749502F3B
:107580007372632F636F72652F706275662E63006E
:10759000706275665F636F70793A207461726765B7
:1075A00074206E6F742062696720656E6F756768FE
:1075B00020746F20686F6C6420736F757263650050
:1075C0006F66667365745F746F203C3D20705F74F6
:1075D0006F2D3E6C656E0000417373657274696F48
:1075E0006E2022257322206661696C6564206174B7
:1075F000206C696E6520256420696E2025730A0061
:107600006F66667365745F66726F6D203C3D2070B7
:107610005F66726F6D2D3E6C656E0000705F746FFB
:1076200020213D204E554C4C0000000070627566D4
:107630005F636F7079282920646F6573206E6F74A3
:1076400020616C6C6F77207061636B65742071755D
:1076500065756573210000002DE9F0470027164687
:107660008946B84620B1B9F1000F06D004462CE097
:1076700018A340F20A4223A103E016A340F20B42F2
:1076800028A131A0FAF79CFF0020BDE8F0872BB1BC
:107690006089984202D8181A83B215E06089C01A2E
:1076A00085B2B54200D9354660682A46C11809EB53
:1076B0000700F8F733FE08EB05001FFA80F8781989
:1076C00087B2701B86B2002324680EB1002CDED175
:1076D0004046DAE72E2E2F4D6964646C657761723F
:1076E00065732F54686972645F50617274792F4CAE
:1076F0007749502F7372632F636F72652F706275B5
:10770000662E6300706275665F636F70795F70618B
:10771000727469616C3A20696E76616C696420628A
:1077200075660000706275665F636F70795F706187
:10773000727469616C3A20696E76616C6964206468
:107740006174617074720000417373657274696F63
:107750006E2022257322206661696C656420617445
:10776000206C696E6520256420696E2025730A00EF
:107770002DE9F041040007D05FF0000500F080FF24
:107780000746A07B50B110E025A34FF4377230A11B
:1077900032A0FAF715FF0020BDE8F08120A340F2E7
:1077A000F12238A12DA0FAF70BFFA07B401EC6B234
:1077B000A673384600F08CFF002E23D1207B617B1E
:1077C000266800F00F0089070CD5206930B914A392
:1077D00040F2FF2231A121A0FAF7F2FE21692046F2
:1077E00088470BE002280FD0012810D0A0B10CA3CD
:1077F00040F20F3232A119A0FAF7E2FE6D1CEDB291
:107800003400BBD12846C7E721460D2001E02146C0
:107810000C20FEF727FCF1E72046FEF7BBF8EDE76A
:107820002E2E2F4D6964646C6577617265732F54D9
:10783000686972645F50617274792F4C7749502F78
:107840007372632F636F72652F706275662E6300AB
:107850007020213D204E554C4C0000004173736553
:107860007274696F6E2022257322206661696C65CF
:1078700064206174206C696E6520256420696E2027
:1078800025730A00706275665F667265653A2070DE
:107890002D3E726566203E203000000070632D3E54
:1078A000637573746F6D5F667265655F66756E6331
:1078B00074696F6E20213D204E554C4C0000000035
:1078C000696E76616C696420706275662074797087
:1078D0006500000010B501460748FEF711FC074897
:1078E0000178012906D1002101704068BDE81040EF
:1078F000FFF740BA10BD000004F6000804000020A5
:1079000010B500F0BDFE094A0021117000F0E0FE44
:107910000748006806E0416F19B1BDE8104001F06A
:10792000E1BEC0680028F6D110BD0000D4000020E0
:10793000F00000200122AFF30080002902DA494262
:1079400000F008B9FFF79EBA70B50024DDE90456CF
:10795000C0E90041028143810573467301218173AF
:10796000C47370BD38B514466A4600F05BF9002850
:1079700006D04289BDF800108A4201D940684454BB
:1079800038BD00002DE9F0410D46040006D121A3C9
:107990004FF4CC722BA131A0FAF712FE2089A84235
:1079A00035D9401B86B240F2AF170CE0281A85B2D9
:1079B0002089801B208124682CB916A33A4631A166
:1079C00026A0FAF7FDFD6089A842EFD3207B0007CF
:1079D00015D16089A84212D0607B80070FD4A0889F
:1079E000001B284481B22046FEF74AFA040006D163
:1079F00008A340F2BD1229A118A0FAF7E1FD6581A4
:107A00002581206808B1FFF7B3FE00202060BDE8A3
:107A1000F08100002E2E2F4D6964646C65776172D1
:107A200065732F54686972645F50617274792F4C6A
:107A30007749502F7372632F636F72652F70627571
:107A4000662E6300706275665F7265616C6C6F6351
:107A50003A207020213D204E554C4C0041737365F7
:107A60007274696F6E2022257322206661696C65CD
:107A700064206174206C696E6520256420696E2025
:107A800025730A00706275665F7265616C6C6F6366
:107A90003A207120213D204E554C4C006D656D5FA4
:107AA0007472696D2072657475726E6564207120E0
:107AB0003D3D204E554C4C0010B5040012D000F056
:107AC000DFFDA17B491CA17300F002FEA07B002812
:107AD00008D1BDE8104004A340F242320EA113A029
:107AE000FAF76EBD10BD00002E2E2F4D6964646C38
:107AF0006577617265732F54686972645F50617253
:107B000074792F4C7749502F7372632F636F7265AE
:107B10002F706275662E63007062756620726566EE
:107B2000206F766572666C6F770000004173736535
:107B30007274696F6E2022257322206661696C65FC
:107B400064206174206C696E6520256420696E2054
:107B500025730A0010B520B1B1F5803F06D301208E
:107B600010BD0FA340F24B2219A109E000290BD050
:107B700043898AB2934209D209A340F2552217A140
:107B80001EA0FAF71DFDEAE7002010BD446821445D
:107B90004160991A41810189891A0181F4E7000045
:107BA0002E2E2F4D6964646C6577617265732F5456
:107BB000686972645F50617274792F4C7749502FF5
:107BC0007372632F636F72652F706275662E630028
:107BD0007020213D204E554C4C000000696E6372B0
:107BE000656D656E745F6D61676E6974756465203F
:107BF0003C3D20702D3E6C656E0000004173736546
:107C00007274696F6E2022257322206661696C652B
:107C100064206174206C696E6520256420696E2083
:107C200025730A00AFF3008002E0C91A006889B228
:107C300010B143898B42F8D9002A00D011807047D7
:107C40002DE9F04700279046894616466FF00F044D
:107C500000280FD0B9F1000F11D00289B24217D21B
:107C60001EA340F2B54229A130A0FAF7A9FC2011C9
:107C7000BDE8F08719A340F2B34236A103E017A391
:107C800040F2B44239A129A0FAF79AFC2046EFE766
:107C9000044640F2BD4A14E02CB910A352463AA162
:107CA00022A0FAF78DFC60893546A84200D205462D
:107CB00009EB07012A466068F8F730FB2468761B59
:107CC0002F44002EE8D1474506D004A34FF4996213
:107CD00033A116A0FAF774FC0020C9E72E2E2F4D11
:107CE0006964646C6577617265732F546869726446
:107CF0005F50617274792F4C7749502F7372632FE4
:107D0000636F72652F706275662E630070627566B0
:107D10005F74616B653A20627566206E6F74206CCB
:107D20006172676520656E6F756768004173736582
:107D30007274696F6E2022257322206661696C65FA
:107D400064206174206C696E6520256420696E2052
:107D500025730A00706275665F74616B653A20690D
:107D60006E76616C6964206275660000706275668B
:107D70005F74616B653A20696E76616C696420643A
:107D80006174617074720000706275665F74616B1B
:107D9000653A20696E76616C696420706275660070
:107DA000646964206E6F7420636F707920616C6CFD
:107DB0002064617461000000F8B514460F466A46FD
:107DC0001946FFF72FFF05002AD0BDF800002989CA
:107DD0000219914224D36989814206D812A340F244
:107DE000E3421DA122A0FAF7EBFB6889BDF8001061
:107DF0002246401AA04200DB104686B2686832462E
:107E000008443946F8F78AFAA01B0204120C07EB63
:107E1000060103D02868FFF713FFF8BD0020F8BD66
:107E20004FF0FF30F8BD00002E2E2F4D6964646CBA
:107E30006577617265732F54686972645F5061720F
:107E400074792F4C7749502F7372632F636F72656B
:107E50002F706275662E6300636865636B207062C5
:107E600075665F736B697020726573756C74000062
:107E7000417373657274696F6E20222573222066C8
:107E800061696C6564206174206C696E652025648D
:107E900020696E2025730A0008B56A46FFF7C4FE04
:107EA00038B14289BDF800108A4202D94068405C6E
:107EB00008BD4FF0FF3008BD2DE9F041304D0446BC
:107EC0002868844206D22FA340F2DF1239A13FA0D6
:107ED000FAF776FB6868844206D32AA34FF4F0725F
:107EE00044A13AA0FAF76CFB207930B125A340F207
:107EF000E11247A135A0FAF763FB20884FF4C86868
:107F0000404506D91FA34FF4F27248A12FA0FAF7FB
:107F100057FB208800F0EAFA0646B44215D03079C3
:107F200098B96868864210D0E868B04200D1EC6029
:107F3000308820803088404507D02046FDF798FFE4
:107F40000746308800F0D2FA4780608800F0CEFA09
:107F5000A04212D0017900290FD1E968A14200D1D5
:107F6000E860218801802188414506D0FDF780FF27
:107F70000546208800F0BAFA4580BDE8F08100008F
:107F8000800000202E2E2F4D6964646C657761722D
:107F900065732F54686972645F50617274792F4CF5
:107FA0007749502F7372632F636F72652F6D656D04
:107FB0002E630000706C75675F686F6C65733A20A4
:107FC0006D656D203E3D2072616D000041737365EB
:107FD0007274696F6E2022257322206661696C6558
:107FE00064206174206C696E6520256420696E20B0
:107FF00025730A00706C75675F686F6C65733A2053
:108000006D656D203C2072616D5F656E64000000DF
:10801000706C75675F686F6C65733A206D656D2D68
:108020003E75736564203D3D20300000706C7567BF
:108030005F686F6C65733A206D656D2D3E6E657877
:1080400074203C3D204D454D5F53495A455F414C9E
:1080500049474E45440000002DE9F041184C0F46B9
:108060000546E6682068001D06F0F4F938B9206876
:1080700090F82C1001208840216981432161681CFF
:1080800007D137B12168BDE8F0410E48091D06F05F
:1080900059BA20683544B5424560216805D2A06BC5
:1080A000BDE8F041091D06F035BA606B091D06F008
:1080B00031FAA06A854200D2A562BDE8F0810000D5
:1080C00040010020949000202DE9F041054606F083
:1080D00045FA2E4CA068401CA06020682C4F10B1BF
:1080E000606940B32DE02560A068012829D10026F1
:1080F00006EB860007EB800006F0FEF9761C072EE3
:10810000F6D323488C3006F0F7F92148A03006F06A
:10811000F3F91F48B43006F0EFF91D48C83006F0F7
:10812000EBF91B48DC3006F0E7F919488C30606346
:108130001430A06305E02068E96AC06A884200D86C
:108140002560606A401C6062E96A012022698840FB
:108150001043206101EB810007EB8000291D06F030
:10816000F1F906F01BFA606900280CD02068E96A72
:10817000C06A884207D207494FF080500860BFF3B9
:108180004F8FBFF36F8FBDE8F081000040010020EA
:10819000B88F002004ED00E030B4026C0B46002ADA
:1081A0000BD0C1681144C1608468A14201D3016849
:1081B000C16030BC1846F8F7B1B830BC70472DE943
:1081C000F041856B174604460026026C82B1C7B1A8
:1081D000E068F8F7A3F8E168206C091AE16022680A
:1081E000914202D2A168081AE060022F16D017E06F
:1081F0002068A8B9A06807F0C9F806460020A0606A
:108200000EE06068F8F78AF8216C606808446060E6
:10821000A168884204D32068606001E005B16D1E4A
:108220006D1CA5633046BDE8F08110B5044690F89A
:10823000510058B101280CD002280FD0502080F3F3
:108240001188BFF34F8FBFF36F8FFEE7206B06F0EF
:10825000B9F92046BDE8104006F0B4B910BD0000E1
:1082600010484FF47051420706D0C01D0D4920F050
:108270000700411AC1F570510B4A00230144C2E9BD
:1082800000030839183A21F0070111604B600B60B8
:108290000B1AC0E9001393604FF000405360506127
:1082A00070470000A890002094010020144E154C47
:1082B000A6F1C8074FF08058DFF84C9012E000BFDD
:1082C00006F04CF9F068C568281D06F0C3F8A068F0
:1082D000401EA0606068401E606006F05FF928469E
:1082E000FFF7A3FF60680028EAD138680128F9D9B0
:1082F000C9F80080BFF34F8FBFF36F8FF2E7000024
:10830000809000204001002004ED00E0002807D00C
:108310000021816001600B460A46C16006F01EBC68
:1083200070470346009829B10260C0E90F3101216E
:1083300006F0D0BB0060F8E72DE9F0479A46DDE98A
:10834000098481466FF00303206B03EB8202104423
:10835000089E20F00707780707D0502080F3118887
:10836000BFF34F8FBFF36F8FFEE7002561B1002091
:1083700023180A5C83F834200A5C12B1401C1028D0
:10838000F6D384F8435001E084F83450072E00D32C
:108390000626E662C4E91165201D06F0B8F804F16E
:1083A000180006F0B4F82461C6F107006462A06109
:1083B000E56484F8505052464946384600F028F9A2
:1083C0002060B8F1000F01D0C8F80040BDE8F08788
:1083D00030B5114900E011460A688242FBD34B6870
:1083E0005C18844203D140681844486008464368DA
:1083F0001C18944209D1084C183C2468A24209D0A8
:1084000052681A4442600A6812680260814200D0D1
:10841000086030BD0460F9E79401002010B50446FF
:1084200006F09CF8A06B28B15FF0000406F0B6F8E7
:10843000204610BD0124F9E70648416B096829B1BF
:10844000416BC968C9684968816270474FF0FF3164
:10845000FAE700004001002008484068401C4FF047
:10846000500080F3118804D0BFF34F8FBFF36F8F9C
:10847000FEE7BFF34F8FBFF36F8FFEE79C01002035
:108480002DE9F041044606F069F894F9455004F1ED
:10849000240609E0606A48B1304607F009F808B1DF
:1084A00006F058F96D1E6DB2002DF3DC4FF0FF366B
:1084B00084F8456006F072F806F050F894F94450DC
:1084C00004F1100709E0206948B1384606F0F0FFD2
:1084D00008B106F03FF96D1E6DB2002DF3DC84F893
:1084E0004460BDE8F04106F059B800000149096850
:1084F000084470478000002010B5044601E0FBF7F7
:10850000FFFD14F8010B04490028F8D1BDE8104024
:108510000A20FBF7F5BD0000AC0100202DE9F04179
:108520000546002706F0BAF9324E306808B9FFF761
:1085300097FE706905424ED1C5B3083568070ED065
:1085400005F00700C0F108000544680707D0502077
:1085500080F31188BFF34F8FBFF36F8FFEE72DB30A
:108560007068854237D82348183001460C6801E00E
:1085700020460C466168A94202D221680029F7D141
:1085800031688C4227D0076821680160606808372D
:10859000411B10290FD96019420708D0502080F3E1
:1085A0001188BFF34F8FBFF36F8FFEE713E0416079
:1085B0006560FFF70DFF61687068401A7060B2680F
:1085C000904200D2B060706901430020C4E900010C
:1085D000F068401CF06006F0A5FF780707D0502037
:1085E00080F31188BFF34F8FBFF36F8FFEE73846DC
:1085F000BDE8F0817C0100200449086818B10868D2
:10860000826C521C826408687047000040010020A0
:1086100010B5031F4FF080741C601B1F21F0010177
:108620001960191F044B0B6014390A60091F6FF0A1
:10863000020244380A6010BD598400082DE9FE4347
:1086400017460D460646FEF76FFA316804464FF0AE
:10865000FF387FB13A466846FEF786FADDE900103A
:10866000102902D04046BDE8FE832860FEF75CFA80
:10867000001BF8E742466846FEF776FA0198F4E7F1
:10868000044810B54FF0FF310068FEF715FB0120DC
:1086900010BD00003C0100202DE9F0410F460546C9
:1086A000FEF742FA04464FF0FF363FB139462868DC
:1086B000FEF788FB40B13046BDE8F08131462868BE
:1086C000FEF780FB0028F9D1FEF72EFA001BF3E736
:1086D00001480068FEF7C8BA3C0100202DE9F041CE
:1086E00000F066F80D4C05464FF000472168002960
:1086F00011D048682A1ABA420DD20A682260D1E91C
:108700000262606090460A20FDF7ACFC002EEDD0BE
:108710004046B047EAE7BDE8F08100001C010020B8
:1087200010B50348FEF798FA0249086010BD000032
:10873000C4F700083C0100201FB5094B04460DCBCF
:10874000CDE9001000216846CDE90223FEF7F8F9D3
:10875000206010B1002004B010BD4FF0FF30FAE7E8
:10876000D0F7000810B500680022FEF747FA00288D
:1087700001D04FF0FF3010BD0068002800D001206C
:10878000704700684FF0FF31FEF796BA1CB50446FB
:108790000020009001906846FEF75EFA206008B164
:1087A00000201CBD4FF0FF301CBD0068FEF75CBA16
:1087B000F8F792BE0068FEF7D0BA7CB505460020F7
:1087C0000C460090019001216846FEF7A7FA286048
:1087D00008B11CB105E04FF0FF307CBD0021FEF771
:1087E000F1FA00207CBD0068FEF7C4BA2DE9F04123
:1087F00088B00F4606461D4690461C2168460E9CD2
:10880000F7F7B3FDCDE90067ADF80840414668468B
:108810000495FEF709FB08B0BDE8F08170B5154678
:108820000E460446B0F1804F06D308A340F2291249
:1088300013A121A0F9F7C4FEFFF7BAFF20442A468E
:108840003146BDE8704000F04BB800002E2E2F4D91
:108850006964646C6577617265732F5468697264CA
:108860005F50617274792F4C7749502F7372632F68
:10887000636F72652F74696D656F7574732E630015
:1088800054696D656F75742074696D6520746F6FC0
:10889000206C6F6E672C206D6178206973204C57B7
:1088A00049505F55494E5433325F4D41582F342063
:1088B0006D73656373000000417373657274696F53
:1088C0006E2022257322206661696C6564206174C4
:1088D000206C696E6520256420696E2025730A006E
:1088E00070B5044615460E460A20FDF773FC78B1B4
:1088F0000021C560104A80E85200116831B14B6810
:10890000E51A4FF000439D4212D30160106070BD24
:10891000BDE8704009A3BE2215A125A0F9F750BEFD
:108920005568651B9D4202D30260086070BD114608
:108930000A68002AF8D0F3E71C0100202E2E2F4DE4
:108940006964646C6577617265732F5468697264D9
:108950005F50617274792F4C7749502F7372632F77
:10896000636F72652F74696D656F7574732E630024
:108970007379735F74696D656F75743A2074696D8E
:10898000656F757420213D204E554C4C2C20706F26
:108990006F6C204D454D505F5359535F54494D45C1
:1089A0004F555420697320656D7074790000000084
:1089B000417373657274696F6E202225732220667D
:1089C00061696C6564206174206C696E6520256442
:1089D00020696E2025730A0070B5074D012400BF81
:1089E00005EBC40255F834000449FFF717FF641C77
:1089F000042CF5D370BD0000A0F7000879570008DB
:108A000010B5084C206848B1FFF7D2FE21684968CC
:108A1000081AB0F1004F00D3002010BD4FF0FF3016
:108A200010BD00001C0100202DE9FF5F89460400F5
:108A300003D0207D01280AD010E004B03AA3BDE89D
:108A4000F05F40F23D2244A14AA0F9F7B9BD36A338
:108A50004FF4107251A147A0F9F7B2FD207D0A280A
:108A60003ED0216D03910025DFF86481D4F824B055
:108A7000D4F810A0D4F890602F4680B34D46E78A12
:108A8000214608F1180002F069FA012188F8001067
:108A9000206F08B103F098FEE06E08B103F094FE79
:108AA000606F08B103F090FE55B1208B211D00913D
:108AB000CDE9017023465A461846039903F096FD06
:108AC000204600F029FD002E2CD004B05046B446BC
:108AD000BDE8F04F6FF00C015DF804EB60470AE071
:108AE0003B4821461C3002F039FA04B02046BDE86C
:108AF000F05F00F011BDE08A0028C9D0D8F810005E
:108B0000A0420AD1C068C8F8100008E0C168A142BC
:108B100002D1E168C16002E008460028F6D10020D9
:108B2000E060B5E7BDE8FF9F2E2E2F4D6964646CB1
:108B30006577617265732F54686972645F50617202
:108B400074792F4C7749502F7372632F636F72655E
:108B50002F7463702E6300007463705F6162616ED6
:108B6000646F6E3A20696E76616C6964207063622E
:108B700000000000417373657274696F6E202225D6
:108B80007322206661696C6564206174206C696E73
:108B90006520256420696E2025730A00646F6E27A6
:108BA000742063616C6C207463705F61626F7274B7
:108BB0002F7463705F6162616E646F6E20666F72A6
:108BC000206C697374656E2D706362730000000021
:108BD000D80000200121FFF727BF00002DE9F04158
:108BE00006460120FDF7F6FA424D04005BD1A86964
:108BF00009E0418BC4680A0704D521F008014183CC
:108C000000F0BCF920460028F3D100221146EC68A0
:108C1000E86906E0036AE31A934201D31A46014663
:108C2000C0680028F6D111B10846FFF7D3FF012034
:108C3000FDF7D0FA040036D1092001F075F90120C2
:108C4000FDF7C8FA04002ED1082001F06DF90120CB
:108C5000FDF7C0FA040026D17F2E01D97F2001E064
:108C600030001BD0401EC1B200231A46EC68A86930
:108C70000EE0477D8F4206D309D1D0F820C0A4EB87
:108C80000C0C9C4503D3016A0246631A3946C0683E
:108C90000028EED112B11046FFF79CFF0120FDF72E
:108CA00099FA040023D09C21F7F75FFB4FF486600C
:108CB0006675A4F86400410061852185FF21E17299
:108CC000411061860621A4F84010E187C91F218662
:108CD0000121A4F84810E9682162A978A177A4F8D5
:108CE0004A000548C4F884000448C4F894002046AB
:108CF000BDE8F081D8000020B9BF000800DD6D009C
:108D000010B558B1017D012903D0418B41F010010C
:108D10004183BDE81040012100F042B804A34FF4A4
:108D2000F4720FA114A0F9F74BFC6FF00F0010BD07
:108D30002E2E2F4D6964646C6577617265732F54B4
:108D4000686972645F50617274792F4C7749502F53
:108D50007372632F636F72652F7463702E630000EC
:108D60007463705F636C6F73653A20696E76616CD3
:108D70006964207063620000417373657274696F87
:108D80006E2022257322206661696C6564206174FF
:108D9000206C696E6520256420696E2025730A00A9
:108DA000FEB50D46040006D145A34FF4AF7250A1A5
:108DB00057A0F9F705FC28005F4D4FF000064FF073
:108DC00001073ED0207D042801D0072839D1A06FAB
:108DD00018B9208DB0F5066F33D0A07EC00606D43A
:108DE00037A34FF4B27255A149A0F9F7E9FB228BE2
:108DF000E18A201D8DE8070023461846626A216D2E
:108E000003F0F4FB204602F043F8A869A04209D120
:108E1000C068A86108E0C168A14202D1E168C160F0
:108E200002E008460028F6D14B48E6602F70006843
:108E3000A04202D104F056FA38E0204600F06CFB64
:108E400034E0207D40B101281AD0022830D02046DD
:108E5000BDE8FE4000F092B8E08A0028EDD0286915
:108E6000A04209D1C068286108E0C168A14202D1CE
:108E7000E168C16002E008460028F6D1E660DCE760
:108E8000204601F0AFF82C482146143002F066F875
:108E9000207D012806D1314BDF2231A103F14400AE
:108EA000F9F78EFB21460220FDF7DCF80020FEBD1D
:108EB00021482146183002F051F82F70BDE700001C
:108EC0002E2E2F4D6964646C6577617265732F5423
:108ED000686972645F50617274792F4C7749502FC2
:108EE0007372632F636F72652F7463702E6300005B
:108EF0007463705F636C6F73655F73687574646FC0
:108F0000776E3A20696E76616C69642070636200E6
:108F1000417373657274696F6E2022257322206617
:108F200061696C6564206174206C696E65202564DC
:108F300020696E2025730A00D80000207063622D1E
:108F40003E666C61677320262054465F5258434C3E
:108F50004F53454400000000180100203C950008D4
:108F60007463705F667265655F6C697374656E3A91
:108F700020214C495354454E0000000070B50500B7
:108F800006D116A34FF4CE7220A123A0F9F718FB47
:108F9000287D0526032804D0042802D0072816D1EE
:108FA00006E0284603F090FC040006D12E7509E087
:108FB000284603F089FC040002D0601C09D004E0BC
:108FC00009202875284601F069FA204670BD002066
:108FD00070BD688B40F008006883F8E72E2E2F4D97
:108FE0006964646C6577617265732F546869726433
:108FF0005F50617274792F4C7749502F7372632FD1
:10900000636F72652F7463702E630000706362205B
:10901000213D204E554C4C00417373657274696F4D
:109020006E2022257322206661696C65642061745C
:10903000206C696E6520256420696E2025730A0006
:109040002DE9F047DDF820809A4691460D4607004D
:1090500005D12DA3A32239A140A0F9F7B1FA002D23
:1090600005D129A3A42247A13CA0F9F7A9FA5FEAF8
:10907000C87001D0042600E000260320FDF7AAF8FE
:1090800004001CD084F80A804FF00008C4E9008571
:109090002889B04205D21CA3B02243A12FA0F9F722
:1090A0008FFA28891421801B20812846FDF7E6FECF
:1090B00048B1204603F07AFB0020BDE8F08728463F
:1090C000FEF756FBF8E760684068E060F88AFCF756
:1090D000A1FBE1680880388BFCF79CFBE1684880C5
:1090E0005046FCF795FBE1684860B008000300F5C6
:1090F000A04040EA0900FCF78DFBE1688881E16847
:109100002046A1F81280D8E72E2E2F4D6964646C9A
:109110006577617265732F54686972645F5061721C
:1091200074792F4C7749502F7372632F636F726578
:109130002F7463705F6F75742E6300007463705FCB
:109140006372656174655F7365676D656E743A20FF
:10915000696E76616C696420706362004173736547
:109160007274696F6E2022257322206661696C65B6
:1091700064206174206C696E6520256420696E200E
:1091800025730A007463705F6372656174655F7351
:1091900065676D656E743A20696E76616C696420EE
:1091A0007062756600000000702D3E746F745F6C15
:1091B000656E203E3D206F70746C656E000000008F
:1091C00070B50C460546002A06D10BA340F6C50231
:1091D00015A11FA0F9F7F4F95CB1A18C49B12829B8
:1091E00002D928398CB200E00024A54200D22C46D6
:1091F0002546284670BD00002E2E2F4D6964646CF4
:109200006577617265732F54686972645F5061722B
:1092100074792F4C7749502F7372632F636F726587
:109220002F7463702E6300007463705F6566665F01
:1092300073656E645F6D73735F6E657469663A2003
:10924000696E76616C6964206473745F6970000094
:10925000417373657274696F6E20222573222066D4
:1092600061696C6564206174206C696E6520256499
:1092700020696E2025730A002DE9F8430446002575
:109280000E46880706D13FA340F211424A494BA03F
:10929000F9F796F9002C06D13AA340F2134251A1F6
:1092A00046A0F9F78DF9B00700D50125E80700D0F1
:1092B0000420804601464FF420723620FDF742FE1E
:1092C00007004FF0FF3929D07989414506D22DA3F7
:1092D00040F239424BA139A0F9F772F900953246B4
:1092E00039462046E36DFFF7ABFE050016D0287B1C
:1092F000800706D023A340F2424251A12FA0F9F7E4
:109300005FF92889002806D01EA340F2434252A1EB
:109310002AA0F9F755F9E06E38B109E0608B40F00A
:10932000800060834846BDE8F883E56604E00846AF
:1093300001680029FBD105600020A4F86800B0078F
:1093400002D0E06D401CE065F00703D0608B40F078
:10935000200060836868FEF738F8B4F866100844A7
:109360000004000CA4F866000AD0206F40B9E06E3B
:1093700030B904A340F2654242A110A0F9F720F9E8
:109380000020D0E72E2E2F4D6964646C65776172E2
:1093900065732F54686972645F50617274792F4CE1
:1093A0007749502F7372632F636F72652F746370E8
:1093B0005F6F75742E630000F8F8000841737365E1
:1093C0007274696F6E2022257322206661696C6554
:1093D00064206174206C696E6520256420696E20AC
:1093E00025730A007463705F656E71756575655FDE
:1093F000666C6167733A20696E76616C696420708F
:10940000636200007463705F656E71756575655F9A
:10941000666C6167733A20636865636B207468618A
:109420007420666972737420706275662063616E61
:1094300020686F6C64206F70746C656E00000000B3
:109440007365672D3E746370686472206E6F74205C
:10945000616C69676E6564007463705F656E7175D9
:109460006575655F666C6167733A20696E76616CDD
:109470006964207365676D656E74206C656E6774D2
:10948000680000007463705F656E71756575655F77
:10949000666C6167733A20696E76616C69642071ED
:1094A00075657565206C656E6774680070B5194DDB
:1094B000A878401CA870AC6928E0A17FA8788142F8
:1094C00023D0A077608BC10709D040F002006083F1
:1094D000204600F0E3FF608B20F00300608380B241
:1094E000010705D520F0080060832046FFF746FD00
:1094F000E668A06F38B100202870204602F058F8C6
:1095000028780028D7D1344600E0E468002CD4D174
:1095100070BD0000D800002010B50446007D012871
:1095200005D106A3D42211A115A0F9F749F82146C7
:10953000BDE810400120FCF795BD00002E2E2F4DF8
:109540006964646C6577617265732F5468697264CD
:109550005F50617274792F4C7749502F7372632F6B
:10956000636F72652F7463702E6300007463705FA5
:10957000667265653A204C495354454E0000000020
:10958000417373657274696F6E20222573222066A1
:1095900061696C6564206174206C696E6520256466
:1095A00020696E2025730A002DE9F04799460C4684
:1095B0000646224F2AE02546D5E90040FDF705FF83
:1095C000B6F866108046414506D21DA340F25742C8
:1095D00028A132A0F8F7F4FF36F8661FA1EB0800C7
:1095E00030802889398908443881284603F0DEF81C
:1095F00036F86609002809D054EA090006D110A3FC
:1096000040F261422FA125A0F8F7DAFF94B1E0689B
:109610004068FCF7FDF80546E0688089FCF7FAF839
:10962000800700D00120218928440844B969401AE4
:109630000028C0DD2046BDE8F0870000F8000020CB
:109640002E2E2F4D6964646C6577617265732F549B
:10965000686972645F50617274792F4C7749502F3A
:109660007372632F636F72652F7463705F696E2E00
:10967000630000007063622D3E736E645F717565F8
:1096800075656C656E203E3D20706275665F636C2B
:10969000656E286E6578742D3E7029004173736580
:1096A0007274696F6E2022257322206661696C6571
:1096B00064206174206C696E6520256420696E20C9
:1096C00025730A007463705F726563656976653A35
:1096D0002076616C6964207175657565206C656EB6
:1096E0006774680010B50446406F002803D003F08B
:1096F0006BF80020606710BD0849C888421CCA800A
:109700000A6912B18B88984203D2C9681431085C87
:109710007047C01AC0B2105C70470000F80000200B
:1097200010B5F6F7E9FD0349C0F30D0000F5404020
:10973000888010BDD80000202DE9FE4F040005D11F
:10974000DEA38322EAA1F0A0F8F73AFFF84D6068A3
:10975000E860608914287DD3F64E31687069FAF7A5
:1097600063FE002876D1307DB046C0F303100E288A
:1097700070D0E8688089FCF74DF8000B810014294F
:10978000E9D320898842E6D3A1F1140080B2688031
:109790004FF0000AC5F810A062898A4204D3A8805D
:1097A0002046FEF7D7F932E0206828B9C3A3C222C9
:1097B000E1A1D5A0F8F704FF14212046FEF7CAF96D
:1097C0006189A9806888401A86B22046FEF7C2F9EE
:1097D00020684189B142BED3416829613146FEF714
:1097E000B9F92089801B2081608928B1B3A3DF22C9
:1097F000D5A1C5A0F8F7E4FE21682089098988422F
:1098000005D0AEA3E022D3A1BFA0F8F7D9FEE86847
:109810000088FBF7FFFF0146E86801804088FBF7FE
:10982000F9FF0146E86841804068FBF7F1FF014617
:10983000E868416069618068FBF7EAFF0146E86813
:109840008160A961C089FBF7E5FF0146E868C18135
:10985000808900E08CE0FBF7DDFF00F03F0129701C
:1098600020896881890704D0411C89B269818842B6
:109870007ED8DFF800930027D9F8006083E0307DC0
:1098800028B98EA3FB22BCA19FA0F8F799FE307DDA
:109890000A2805D189A3FC22C1A19BA0F8F790FE5C
:1098A000307D012805D185A3FD22C8A196A0F8F737
:1098B00087FE307A38B1D8F8041091F83010491C7E
:1098C000C9B288425DD1E868318B0288914258D193
:1098D000F18A4088814254D17168D8F810209142B1
:1098E0004FD13168D8F8140081424AD1F068B042B3
:1098F00006D172A340F20D12BEA183A0F8F760FE5C
:1099000037B1F068F860D9F80010F160C9F800606C
:10991000F068B04206D169A340F21512C0A17AA046
:10992000F8F74EFE96B3DFF824835746C8F800A038
:109930002189A8F80810C8F80440E968C8F80C1094
:10994000C5F81CA085F801A0A5F808A02878000794
:1099500003D5607B40F001006073B06F002878D0C1
:10996000304601F025FE0D3007D0B06F002800E032
:10997000F5E16ED0688900286BD0708D002864D026
:10998000CCE13746F668002E7FF479AFB04840F25C
:109990001F194646076827E0387D0A2805D047A3E7
:1099A0004A46ACA158A0F8F70BFE387A30B171687E
:1099B00091F83010491CC9B2884214D1E8683A8B3A
:1099C00001888A420FD1F98A408881420BD1786898
:1099D0003169884207D138687169884203D13846B5
:1099E00003F0F0FBBBE1FF68002FD5D1A54B0021B0
:1099F000EF681868D6F804900246D6F8148016E08E
:109A0000067A3EB199F830C00CF1010C0CF0FF0C55
:109A100066450AD1C68AB7F802C0664505D1066810
:109A2000464507D0002804D036B10146C06800285A
:109A3000E6D17FE100283FD019B1C568CD60C26092
:109A4000186000F007FB8AE103E0304602F0C6FE32
:109A500064E130462E6201F049FB0D3011D0687888
:109A60002C4600070ED5D6F890201AB16FF00D01E4
:109A70003069904731463F4801F070FA3046FFF7B1
:109A80004BFD4BE1228942B1D6F8803023B13146FB
:109A9000306998470D300CD02781304600F074F9BA
:109AA00038B9E06930B1B06F28B104A34FF4F37254
:109AB000EAE033E10EE1ECE03CE100002E2E2F4D18
:109AC0006964646C6577617265732F546869726448
:109AD0005F50617274792F4C7749502F7372632FE6
:109AE000636F72652F7463705F696E2E6300000090
:109AF0007463705F696E7075743A20696E76616C1C
:109B00006964207062756600417373657274696F71
:109B10006E2022257322206661696C656420617461
:109B2000206C696E6520256420696E2025730A000B
:109B3000F800002028560020702D3E6E65787420B5
:109B4000213D204E554C4C00702D3E6C656E203DE5
:109B50003D203000702D3E746F745F6C656E203D4B
:109B60003D20702D3E6E6578742D3E746F745F6C71
:109B7000656E0000F00000207463705F696E7075A0
:109B8000743A20616374697665207063622D3E7358
:109B90007461746520213D20434C4F5345440000BF
:109BA0007463705F696E7075743A2061637469766E
:109BB00065207063622D3E737461746520213D20C1
:109BC00054494D452D574149540000007463705F5E
:109BD000696E7075743A206163746976652070638C
:109BE000622D3E737461746520213D204C495354AD
:109BF000454E00007463705F696E7075743A207032
:109C000063622D3E6E65787420213D207063622072
:109C1000286265666F72652063616368652900006C
:109C20007463705F696E7075743A207063622D3E64
:109C30006E65787420213D2070636220286166740F
:109C4000657220636163686529000000688E0020EA
:109C5000F40000207463705F696E7075743A20546C
:109C6000494D452D57414954207063622D3E737410
:109C7000617465203D3D2054494D452D574149545F
:109C800000000000EC00002037A1AFF28410F8F7CC
:109C900097FCB07EC00606D5E069FDF769FD304649
:109CA000FEF798FF3AE0D6F884C0BCF1000F05D06B
:109CB000002330693146E269E04705E00023314680
:109CC0001846E26902F078F910F10D0F26D008B1BC
:109CD000E069B0676078800618D5B06F20B1417B2D
:109CE00041F02001417311E0308DB0F5066F01D0D5
:109CF000401C3085D6F884C0BCF1000F06D000238C
:109D00001A4631463069E0470D3007D030462762A9
:109D100000F03AF810B9304600F0C0FB2F62EF6156
:109D2000D8F804004446002802D0FDF721FD676002
:109D3000BDE8FE8FB889FBF76DFD40070FD4E868DA
:109D4000104A104B018840880092CDE901016989D1
:109D500068691B1D42180020A96902F047FC2046D3
:109D6000BDE8FE4FFDF704BD7063622D3E7265666F
:109D7000757365645F64617461203D3D204E554C90
:109D80004C0000003856002010B5040006D110A386
:109D900040F25A221BA125A0F8F712FC2D4840786A
:109DA000C00612D5A07EC00606D4D4F890201AB101
:109DB0006FF00E01206990472146274801F0CEF848
:109DC0002046FFF7A9FB012010BD002010BD0000B8
:109DD0002E2E2F4D6964646C6577617265732F5404
:109DE000686972645F50617274792F4C7749502FA3
:109DF0007372632F636F72652F7463705F696E2E69
:109E0000630000007463705F696E7075745F6465F1
:109E10006C617965645F636C6F73653A20696E7617
:109E2000616C6964207063620000000041737365B7
:109E30007274696F6E2022257322206661696C65D9
:109E400064206174206C696E6520256420696E2031
:109E500025730A00F8000020F000002070B504000F
:109E60004FF0000606D112A340F624021DA124A043
:109E7000F8F7A6FB206D401EFBF7CAFC0346002244
:109E80003146204600F07AFC05000DD001463346ED
:109E90000022204600F0D0FD2246231D2946BDE8C1
:109EA0007040104600F058BD4FF0FF3070BD00000C
:109EB0002E2E2F4D6964646C6577617265732F5423
:109EC000686972645F50617274792F4C7749502FC2
:109ED0007372632F636F72652F7463705F6F757435
:109EE0002E6300007463705F6B656570616C6976EA
:109EF000653A20696E76616C696420706362000067
:109F0000417373657274696F6E2022257322206617
:109F100061696C6564206174206C696E65202564DC
:109F200020696E2025730A0070B50446082808D001
:109F3000092C06D010A340F2DD621BA11EA0F8F789
:109F40003FFB274B002108469A69DB6809E0157D35
:109F5000A54205D1156A5D1B8D4201D329461046E5
:109F6000D268002AF3D1002804D0BDE87040002157
:109F7000FEF75ABD70BD00002E2E2F4D6964646C33
:109F80006577617265732F54686972645F5061729E
:109F900074792F4C7749502F7372632F636F7265FA
:109FA0002F7463702E630000696E76616C696420A3
:109FB0007374617465000000417373657274696F36
:109FC0006E2022257322206661696C6564206174AD
:109FD000206C696E6520256420696E2025730A0057
:109FE000D800002070B5050007D10F4B40F21112C8
:109FF0000EA103F14400F8F7E3FA287D012807D009
:10A00000094B4FF489720CA103F14400F8F7D8FA18
:10A010000F4E0124294656F82400006802F0A4F8E7
:10A02000641C042CF6D370BD3C950008706362205C
:10A03000213D204E554C4C007063622D3E7374617F
:10A040007465203D3D204C495354454E00000000AE
:10A0500090F70008FEB5424E0546307840071BD405
:10A06000002D06D13FA340F281224BA152A0F8F768
:10A07000A7FA3078C10610D5F068594A584B0188C4
:10A0800040880092CDE90101718970691B1D421859
:10A090002846B16902F0AAFAFEBD8007FCD5687DAA
:10A0A000FEF79CFD04004AD04D48103841692160FC
:10A0B00000696060E88AE082F068008820830320FD
:10A0C00020757069401C6062E062204600F014F95F
:10A0D000A06520656064E0657069401E6065286960
:10A0E000E5672061687A00F00C006072287A2072BF
:10A0F0003C480168E160046003F04AF83A490120F5
:10A100000870204600F046FEF068C089A4F86000A0
:10A11000A4F86200201DFAF7AFFD0146608E221DF3
:10A12000FFF74EF8608612212046FFF7A5F888B1A8
:10A1300003B02046BDE8F0400021FEF775BCAB69D6
:10A14000002BA9D0286903B04FF0FF32BDE8F040E2
:10A15000002118472046BDE8FE4000F09FB90000EE
:10A16000F80000202E2E2F4D6964646C65776172B3
:10A1700065732F54686972645F50617274792F4CF3
:10A180007749502F7372632F636F72652F746370FA
:10A190005F696E2E630000007463705F6C69737496
:10A1A000656E5F696E7075743A20696E76616C6970
:10A1B0006420706362000000417373657274696F9C
:10A1C0006E2022257322206661696C6564206174AB
:10A1D000206C696E6520256420696E2025730A0055
:10A1E00038560020F0000020D800002070B50D4641
:10A1F00004001DD0206800281AD00E4E2046B169F8
:10A2000000F01AF82046316900F016F8002D0FD042
:10A21000286800280CD006F11400026806E01068D7
:10A220002168884201D128681060D268002AF6D1DE
:10A2300070BD0000D800002070B505000C4612D19A
:10A240000AA34FF4106215A121A0F8F7B9F90AE0AA
:10A2500020682968884205D12046E668FEF7BAFCE6
:10A26000344600E0E468002CF2D170BD2E2E2F4D54
:10A270006964646C6577617265732F546869726490
:10A280005F50617274792F4C7749502F7372632F2E
:10A29000636F72652F7463702E6300007463705F68
:10A2A0006E657469665F69705F616464725F63683C
:10A2B000616E6765645F7063626C6973743A20698C
:10A2C0006E76616C6964206F6C645F6164647200B7
:10A2D000417373657274696F6E2022257322206644
:10A2E00061696C6564206174206C696E6520256409
:10A2F00020696E2025730A0010B5002806D106A338
:10A3000040F6AF0210A117A0F8F75AF91F49D1E99A
:10A3100002021044886010BD2E2E2F4D6964646CBB
:10A320006577617265732F54686972645F506172FA
:10A3300074792F4C7749502F7372632F636F726556
:10A340002F7463702E6300007463705F6E657874A1
:10A350005F6973733A20696E76616C69642070631B
:10A3600062000000417373657274696F6E2022256C
:10A370007322206661696C6564206174206C696E6B
:10A380006520256420696E2025730A00D80000200E
:10A3900070B50C46050006D11EA340F21F422AA14B
:10A3A00033A0F8F70DF9E8688089FBF733FA3A4EE5
:10A3B000C00715D0204602F007FA002427E0808964
:10A3C000FBF728FAC00707D00120FBF723FA014664
:10A3D000E8688289114381812046246802F0E6F909
:10A3E000ACB1E0682289736941680A44298919443B
:10A3F000891AE4D52989CA18E1684968521A002ADD
:10A4000005DDC81A81B229816868FDF7BBFA2C60A6
:10A4100070BD00002E2E2F4D6964646C65776172EB
:10A4200065732F54686972645F50617274792F4C40
:10A430007749502F7372632F636F72652F74637047
:10A440005F696E2E630000007463705F6F6F735FEF
:10A45000696E736572745F7365676D656E743A20BB
:10A46000696E76616C696420637365670000000043
:10A47000417373657274696F6E20222573222066A2
:10A4800061696C6564206174206C696E6520256467
:10A4900020696E2025730A00F80000202DE9F05F86
:10A4A000040006D187A340F2E14293A198A0F8F7F7
:10A4B00087F8207D012806D182A340F2E3429EA1C5
:10A4C00093A0F8F77DF8A6480068A04202D10020CA
:10A4D000BDE8F09FB4F86010B4F84800814200D2A3
:10A4E0000846E56E81466DB12146221D084602F000
:10A4F00075F85FEA000A6FF003012ED054B12068AE
:10A5000040B10CE0A07E80076FD52046BDE8F05F2B
:10A5100002F064B91AF104001FD000682060E868F6
:10A520004068FBF775F9616C401A298942180020D0
:10A530004A4514D9B4F860204A45E3D1216F002977
:10A54000E0D194F899100029DCD184F89800012119
:10A5500084F8991084F89A00D4E70846B8E784F89C
:10A560009900266F83460EB998E0064630680028A9
:10A57000FBD192E0E8688089FBF74CF9400706D5EB
:10A5800050A340F2365277A161A0F8F719F8206F76
:10A59000A8B1618B11F0440F11D1E06E28B10268AF
:10A5A0006AB90089628E904209D2B4F8640030B171
:10A5B000B4F86600092802D211F0A00F79D0207DEE
:10A5C000022807D01020FBF725F90146E8688289A8
:10A5D0001143818152462146284600F099FA28B15C
:10A5E000618B41F08001618372E766E02868E06674
:10A5F000207D022803D0608B20F003006083E86890
:10A600004068FBF705F90746E8688089FBF702F91F
:10A61000800700D00120298938440844216D091A97
:10A6200000D52065E8688089FBF7F4F8800700D042
:10A6300001202989C8422CD0C5F800B0206F68B12C
:10A64000E8684068FBF7E4F80746F0684068FBF705
:10A65000DFF8381A1AD504F1700003E0256716E018
:10A66000D8F800008046006850B1C0684068FBF729
:10A67000CFF80746E8684068FBF7CAF8381AEFD405
:10A68000D8F800002860C8F8005005E035602E4674
:10A6900002E0284602F08AF8E56E55B1E8684068A5
:10A6A000FBF7B6F8616C401A2989014449457FF6E9
:10A6B00061AFE06E08B9A4F868B0608B20F080004C
:10A6C000608304E72E2E2F4D6964646C6577617298
:10A6D00065732F54686972645F50617274792F4C8E
:10A6E0007749502F7372632F636F72652F74637095
:10A6F0005F6F75742E6300007463705F6F757470A4
:10A7000075743A20696E76616C69642070636200CA
:10A71000417373657274696F6E20222573222066FF
:10A7200061696C6564206174206C696E65202564C4
:10A7300020696E2025730A00646F6E2774206361A0
:10A740006C6C207463705F6F757470757420666FC5
:10A7500072206C697374656E2D7063627300000003
:10A7600018010020525354206E6F74206578706574
:10A770006374656420686572652100002DE9FF41FE
:10A780001D4616460F46040006D10EA340F2427243
:10A7900019A123A0F7F714FFE08A638D1022218B03
:10A7A0008DE80F002B4632463946606A00F04CF8BF
:10A7B000002803D0628D616A1144E16204B0BDE8F3
:10A7C000F08100002E2E2F4D6964646C65776172F4
:10A7D00065732F54686972645F50617274792F4C8D
:10A7E0007749502F7372632F636F72652F74637094
:10A7F0005F6F75742E6300007463705F6F757470A3
:10A8000075745F616C6C6F635F6865616465723AF3
:10A8100020696E76616C69642070636200000000DC
:10A82000417373657274696F6E20222573222066EE
:10A8300061696C6564206174206C696E65202564B3
:10A8400020696E2025730A002DE9F05F8346881881
:10A850000E46DDE90B98143081B21F464FF420728A
:10A860002220DDF828A0FCF76DFB05002AD06989BD
:10A8700006F11400814206D214A340F2237220A1F3
:10A880002BA0F7F79DFE50466C68FAF7C3FF2080B7
:10A890004846FAF7BFFF608067605846FAF7B8FF8E
:10A8A000A060B008000300F5A04080B240EA0800B4
:10A8B000FAF7B0FFA0810D98FAF7ACFFE081002015
:10A8C000208260822846BDE8F09F00002E2E2F4D8A
:10A8D0006964646C6577617265732F54686972642A
:10A8E0005F50617274792F4C7749502F7372632FC8
:10A8F000636F72652F7463705F6F75742E630000F1
:10A90000636865636B207468617420666972737430
:10A9100020706275662063616E20686F6C642073BE
:10A920007472756374207463705F686472000000F1
:10A93000417373657274696F6E20222573222066DD
:10A9400061696C6564206174206C696E65202564A2
:10A9500020696E2025730A00FEB51E4617460D00BD
:10A96000044606D112A340F287721EA128A0F7F771
:10A9700027FE32463946204601F030FE18B12CB190
:10A98000E37AA17A04E06FF003040BE0FF230021D7
:10A9900000910622CDE90120324639462846F9F7D2
:10A9A0005BFF04462846FCF7E3FE2046FEBD0000A0
:10A9B0002E2E2F4D6964646C6577617265732F5418
:10A9C000686972645F50617274792F4C7749502FB7
:10A9D0007372632F636F72652F7463705F6F75742A
:10A9E0002E6300007463705F6F75747075745F63BD
:10A9F0006F6E74726F6C5F7365676D656E743A200D
:10AA0000696E76616C696420706275660000000092
:10AA1000417373657274696F6E20222573222066FC
:10AA200061696C6564206174206C696E65202564C1
:10AA300020696E2025730A0070B515460C0006D1FA
:10AA40000DA340F2567219A122A0F7F7B9FD606874
:10AA5000EA0700F1140100D00422104414308842A7
:10AA600008D0BDE8704004A340F2757223A119A07C
:10AA7000F7F7A6BD70BD00002E2E2F4D6964646CE3
:10AA80006577617265732F54686972645F50617293
:10AA900074792F4C7749502F7372632F636F7265EF
:10AAA0002F7463705F6F75742E6300007463705F42
:10AAB0006F75747075745F66696C6C5F6F707469C4
:10AAC0006F6E733A20696E76616C6964207062758E
:10AAD00066000000417373657274696F6E202225F1
:10AAE0007322206661696C6564206174206C696EF4
:10AAF0006520256420696E2025730A006F707469D3
:10AB00006F6E73206E6F742066696C6C65640000F4
:10AB10002DE9FE4317460C46050006D13DA34FF430
:10AB2000B76249A150A0F7F74BFD002C06D139A31D
:10AB300040F2B95256A14CA0F7F742FD002F06D1C2
:10AB400034A340F2BA525AA147A0F7F739FD28467C
:10AB500000F0CCF810B10020BDE8FE83606AFAF77F
:10AB600057FEE9688860608DFAF754FEE968C8818D
:10AB7000618D606A0844E062EE68A87A1436C00706
:10AB80000AD0221D39464FF40670FEF719FB40F03B
:10AB90000170FAF73DFE01C6B4F930004FF000082D
:10ABA000002801DAA4F83080606B38B949480068A1
:10ABB0006063E8684068FAF72BFEA0636968A889BB
:10ABC0008A88801A4A89121A4A8169680A89101A81
:10ABD00008816968E8684860E968A1F81080A87A87
:10ABE000E968C00700D0042014300844B04206D001
:10ABF00008A340F21C6238A11BA0F7F7E1FCA07A81
:10AC000006218DE88300E37A221D21466868F9F762
:10AC100023FEA1E72E2E2F4D6964646C6577617267
:10AC200065732F54686972645F50617274792F4C38
:10AC30007749502F7372632F636F72652F7463703F
:10AC40005F6F75742E6300007463705F6F7574704E
:10AC500075745F7365676D656E743A20696E7661B1
:10AC60006C69642073656700417373657274696F02
:10AC70006E2022257322206661696C6564206174F0
:10AC8000206C696E6520256420696E2025730A009A
:10AC90007463705F6F75747075745F7365676D65ED
:10ACA0006E743A20696E76616C696420706362002C
:10ACB0007463705F6F75747075745F7365676D65CD
:10ACC0006E743A20696E76616C6964206E65746991
:10ACD00066000000E40000206F7074696F6E7320DE
:10ACE0006E6F742066696C6C6564000010B50400BA
:10ACF00006D107A340F29A5212A11CA0F7F760FCFC
:10AD00006068807B012801D0012010BD002010BDAB
:10AD10002E2E2F4D6964646C6577617265732F54B4
:10AD2000686972645F50617274792F4C7749502F53
:10AD30007372632F636F72652F7463705F6F7574C6
:10AD40002E6300007463705F6F75747075745F7349
:10AD500065676D656E745F627573793A20696E76AA
:10AD6000616C69642073656700000000417373655E
:10AD70007274696F6E2022257322206661696C658A
:10AD800064206174206C696E6520256420696E20E2
:10AD900025730A002DE9F041060006D11DA340F2FB
:10ADA0007D7229A12FA0F7F70BFC384C6088002892
:10ADB00018D00020E0804FF406750FE0FEF79CFCF1
:10ADC00000280FD0012809D002280DD0FEF794FCEE
:10ADD000022807D3E1880844801EE080E08861886B
:10ADE0008842EBD3BDE8F081FEF786FC0428F9D158
:10ADF000E0886188801C8842F4D8FEF77DFC070259
:10AE0000FEF77AFC3843A84200D800B9284670867D
:10AE1000E4E700002E2E2F4D6964646C6577617243
:10AE200065732F54686972645F50617274792F4C36
:10AE30007749502F7372632F636F72652F7463703D
:10AE40005F696E2E630000007463705F70617273DF
:10AE5000656F70743A20696E76616C696420706306
:10AE600062000000417373657274696F6E20222561
:10AE70007322206661696C6564206174206C696E60
:10AE80006520256420696E2025730A00F8000020E3
:10AE900070B504001FD0207D00281BD00A2819D0CF
:10AEA000012817D0A06F002510B1FCF761FCA56741
:10AEB000606F10B12046FEF715FC4FF0FF30208682
:10AEC000E06E01F081FC206F01F07EFCE5662567F5
:10AED000A4F8685070BDBDE8704003A340F651026D
:10AEE0000DA114A0F7F76CBB2E2E2F4D6964646C76
:10AEF0006577617265732F54686972645F5061721F
:10AF000074792F4C7749502F7372632F636F72657A
:10AF10002F7463702E6300007463705F7063625FF0
:10AF200070757267653A20696E76616C696420702D
:10AF300063620000417373657274696F6E2022252D
:10AF40007322206661696C6564206174206C696E8F
:10AF50006520256420696E2025730A0070B50C00F9
:10AF6000054606D129A340F6830234A13AA0F7F79B
:10AF700027FB002D06D125A340F6840240A136A070
:10AF8000F7F71EFB2868A04209D1C068286008E0D6
:10AF9000C168A14202D1E168C16002E00846002810
:10AFA000F6D100252046E560FFF772FF207D0A28D4
:10AFB0000DD0012826D0608BC10708D040F00200D8
:10AFC00060832046FFF76AFA207D01281AD0E06EE0
:10AFD00030B10EA340F6930231A11FA0F7F7F0FAAB
:10AFE000206F30B109A340F6940233A11AA0F7F7FD
:10AFF000E7FA606F30B105A340F6960235A116A0BE
:10B00000F7F7DEFA2575E58270BD00002E2E2F4D74
:10B010006964646C6577617265732F5468697264E2
:10B020005F50617274792F4C7749502F7372632F80
:10B03000636F72652F7463702E6300007463705FBA
:10B040007063625F72656D6F76653A20696E7661D6
:10B050006C69642070636200417373657274696F18
:10B060006E2022257322206661696C6564206174FC
:10B07000206C696E6520256420696E2025730A00A6
:10B080007463705F7063625F72656D6F76653A209E
:10B09000696E76616C6964207063626C69737400B8
:10B0A000756E73656E74207365676D656E7473205D
:10B0B0006C65616B696E6700756E61636B656420BA
:10B0C0007365676D656E7473206C65616B696E671F
:10B0D000000000006F6F736571207365676D656EAA
:10B0E0007473206C65616B696E6700002DE9FE4F1B
:10B0F000040006D1DDA34FF44772E9A1EFA0F7F7F2
:10B100005FFAF84D287841072CD5217D022905D01A
:10B11000626A6869824206D189B117E0206DA96927
:10B12000884213D041E2811AFCD4218D1144401A87
:10B130000028F7DC608B40F00200608335E2CBA38F
:10B140004FF44E72E8A1DDA0F7F73AFA687840F0C4
:10B1500008006870608B20F0010060836FF00D00C4
:10B16000BDE8FE8F800704D5207D022801D003288A
:10B17000E0D1A07EC00602D4E348006820624FF010
:10B18000000884F89B8084F89A802046FFF702FE2E
:10B19000DE4B227D03F110000421DFF874A3DD4FA4
:10B1A000DD4E921E14334FF001094FF00A0B082AAE
:10B1B000B8D2DFE802F00487F2F6EFF2EEED2A787B
:10B1C000D606AFD5920767D5626CAE69521CB24203
:10B1D00062D16869421C62626664E262EA68401E8B
:10B1E000D289A4F86020A4F8622060652175201D32
:10B1F000F9F742FD0146608E221DFDF7E1FF41F2A5
:10B200001C116086B1EB400F01D2420000E00A46FB
:10B21000B2EB800F01D9810003E0B1EB400F00D207
:10B220004100A4F84810B4F8660030B98FA34FF479
:10B230005B72BAA1A1A0F7F7C3F9B4F86600401E8B
:10B24000A4F86600256FBDB128682067284601F084
:10B25000ADFA206FE0B1A4F8308084F8428000BFDE
:10B26000D4F88830002B3FF465AF002221462069D6
:10B2700098470D304DD05DE7E56E35B97BA34FF4AF
:10B280005D72ACA18DA0F7F79BF92868E066DDE759
:10B290004FF0FF302086E3E7E9680A8849888DE8A7
:10B2A00007006989686942182046A96901F09EF97A
:10B2B00094F84200062804D2A4F83080204601F019
:10B2C00069F872E12A78D60657D5626CAE69B21A6F
:10B2D000012A45D4226DB21A002A41DC2175E06FA3
:10B2E000A0B1806948B961A34FF46A7296A173A0B6
:10B2F000F7F766F9E06F806940B1E16F20690022DD
:10B300008B692146984738B10D3002D02046FDF7B1
:10B3100061FC6FF00C0023E7204600F0CBF9288990
:10B3200008B1401E2881618E41F21C10B0EB410F24
:10B3300001D24A0000E00246B2EB810F01D9880039
:10B3400003E0B0EB410F00D24800A4F84800687851
:10B35000800611D5608B40F002006083072057E023
:10B36000E9680A8849888DE8070069896869421890
:10B370003146204601F03AF917E1900707D5606A97
:10B380006969401E884202D1204600F019FF0CE195
:10B39000FBE057E03EE004E0FFE7204600F08AF9DA
:10B3A000D5E7204600F086F96878800628784FEACD
:10B3B000C06024D5002805DA206DA969884201D132
:10B3C000E06E28B1608B40F00200608308201FE02F
:10B3D000608B40F0020060832046FFF759FD306823
:10B3E000A04209D1C0683060C5E0C168A14202D165
:10B3F000E168C160BFE008460028F6D1BBE0002844
:10B4000033DA206DA96988422FD1E06E68BB06202F
:10B410002075CAE0204600F04DF96878800624D5F2
:10B42000608B40F0020060832046FFF731FD3068FA
:10B43000A042D7D003E0C168A142D9D00846002875
:10B44000F9D198E0204600F035F92878C0060CD5EF
:10B45000206DA969884208D1E06E30B92046FFF717
:10B4600017FD3068A042BDD083E09EE02E2E2F4D08
:10B470006964646C6577617265732F54686972647E
:10B480005F50617274792F4C7749502F7372632F1C
:10B49000636F72652F7463705F696E2E63000000C6
:10B4A0007463705F70726F636573733A20696E7650
:10B4B000616C696420706362000000004173736511
:10B4C0007274696F6E2022257322206661696C6533
:10B4D00064206174206C696E6520256420696E208B
:10B4E00025730A00F80000207463705F696E707540
:10B4F000743A207063622D3E737461746520213D3F
:10B5000020434C4F53454400E400002028560020BF
:10B51000D8000020F4000020F00000207063622DAD
:10B520003E736E645F71756575656C656E203E2057
:10B53000300000006E6F207365676D656E74207457
:10B540006F206672656500007063622D3E6C6973E2
:10B5500074656E65722D3E61636365707420213D74
:10B56000204E554C4C000000C168A1423FF440AF52
:10B5700008460028F8D18AF8009084F814B038689A
:10B58000E0603C6001F004FE0FE0204600F092F81D
:10B590002878C00609D5206DA969884205D1E06EDA
:10B5A00018B9687840F0100068700020D8E50000F5
:10B5B0002DE9F04104000DD0A56F00206E7BA0673F
:10B5C000D4F88470002F10D000232A462146206929
:10B5D000B84710E017A340F2096222A12BA0F6F7AA
:10B5E000EFFF6FF00F00BDE8F08100232A462146EF
:10B5F000184600F0E1FC6FF00C0728B10D3017D0B1
:10B600006FF00400A567EEE7B0060FD5208DB0F50A
:10B61000066F01D0401C2085D4F8845035B100233A
:10B620001A4621462069A8470D3001D00020DAE7EC
:10B630003846D8E72E2E2F4D6964646C65776172A9
:10B6400065732F54686972645F50617274792F4C0E
:10B650007749502F7372632F636F72652F74637015
:10B660002E6300007463705F70726F636573735F45
:10B67000726566757365645F646174613A20696EB2
:10B6800076616C69642070636200000041737365C9
:10B690007274696F6E2022257322206661696C6561
:10B6A00064206174206C696E6520256420696E20B9
:10B6B00025730A002DE9F047040006D1E1A340F20A
:10B6C0007B42EDA1F3A0F6F77BFF207D042806D294
:10B6D000DCA340F27C42F9A1EEA0F6F771FFFE4D2B
:10B6E0004FF6FF774FF000062878C0067ED5B4F8F5
:10B6F0006020A16D636D686902EB0108B3EB000C7B
:10B700000BD4834202D1AB69CB1A06D4AB69994200
:10B7100010D1E968C98991420CD9E968C989A4F8AE
:10B720006010B4F862208A4201D2A4F86210606509
:10B73000A869A065626CA869811A00292EDC698954
:10B7400049BBB4F86030A16D1944414523D1B4F927
:10B75000301000291FDB82421DD194F84300411CA8
:10B76000C9B2814201D984F8431094F843000328F8
:10B770000CD9B4F84810608E084480B2884202D3D5
:10B78000A4F8480003E0A4F8487000E002D3204683
:10B7900000F08CFD8EE084F843608BE0012977D4C3
:10B7A000226D821A002A73DC628B530708D522F0BF
:10B7B00004026283B4F84A20A4F84820A4F86A601E
:10B7C00084F84260E28FB4F93C3089B202EBE302C4
:10B7D000A4F8402084F843606064207D042831D3BD
:10B7E000B4F84800B4F84A20904200E082E015D254
:10B7F000628B120501D5012200E00222638E5343C1
:10B800009AB28A4200D81146014489B2814202D3D9
:10B81000A4F8481016E0A4F8487013E0B4F86A20C1
:10B82000114489B2914202D3A4F86A1001E0A4F84D
:10B830006A70B4F86A10814204D3091AA4F86A1035
:10B84000618EE1E7D4E91B31A4A22046FDF7ACFEEE
:10B8500020670346A3A22046E16EFDF7A5FEE06641
:10B86000216F19B12686267720B105E04FF0FF320F
:10B870002286F8E7A4F86860B4F864202B891A449B
:10B88000A4F86420628B120514D511B1C86802E0D7
:10B890000DE038B1C0684068F9F7BAFFE16C081AEA
:10B8A000002807DC608B20F40060608302E0204603
:10B8B00000F094FF606BE8B1A16BAA69891A19D5F1
:10B8C0008A490988081AB4F93C10A0EBE10000B2DB
:10B8D000014409B2A187002801DA404200B2B4F95C
:10B8E0003E20A0EBA2001044E08700EBE100A4F8AA
:10B8F00040006663B5F80AC0BCF1000F7ED0207D21
:10B9000007287BD2616A6A69DFF8E4A1881AA94630
:10B91000012849D402EB0C054D1B6D1C002D43DCA6
:10B92000DAF80450804635B946A340F2945271A12A
:10B9300058A0F6F745FEB84506D342A340F295520B
:10B9400070A154A0F6F73CFEDAF804001FFA88F75D
:10B95000D0460089B84206D23AA340F297526DA170
:10B960004CA0F6F72DFEB8F80810C91BA8F808106F
:10B97000D8F804000089C01B81B204E029816E81DF
:10B98000381A2D6887B26889B842F7D339462846F5
:10B99000FCF7E0F8606AC9F81400D8F80C104860A9
:10B9A000616A401A07D593E2501A04D5608B40F0C3
:10B9B000020060838CE2208D0A460144D9F814000D
:10B9C0004F46411A491C0029EDDC824238D1DAF891
:10B9D0000C0055468089F9F71DFF800700D0012033
:10B9E0002989B846084480B27881218D814228D2C5
:10B9F000E8688089F9F70EFFC00700E06DE20ED01D
:10BA0000E8688089F9F706FFC0F344004000F9F7C1
:10BA100001FFE9688A8922F47C5210438881208DD5
:10BA20002881E8688089F9F7F5FE800702D5288922
:10BA3000401E288129896868FBF7A4FFE86871E047
:10BA40008DE18BE02E2E2F4D6964646C65776172F9
:10BA500065732F54686972645F50617274792F4CFA
:10BA60007749502F7372632F636F72652F74637001
:10BA70005F696E2E630000007463705F72656365BA
:10BA80006976653A20696E76616C696420706362DC
:10BA900000000000417373657274696F6E20222587
:10BAA0007322206661696C6564206174206C696E24
:10BAB0006520256420696E2025730A007463705F19
:10BAC000726563656976653A2077726F6E67207379
:10BAD0007461746500000000F8000020756E6163F9
:10BAE0006B656400756E73656E740000E400002081
:10BAF000688E0020696E7365672E7020213D204E90
:10BB0000554C4C00696E73616E65206F6666736597
:10BB1000742100007062756620746F6F2073686F07
:10BB2000727421008089F9F775FE800700D001202A
:10BB30002989084481B2A8F80A10238D626AD8F8CE
:10BB400014001A440844904208D0AFF2081340F29F
:10BB5000CB52E9A1AFF2C400F6F732FD606F0028C6
:10BB600073D0E8688089F9F755FEC00704D107E073
:10BB70000168616700F01AFE606F0028F8D164E088
:10BB8000676F1EE08889F9F745FEC00715D0E868A1
:10BB90008089F9F73FFE80070FD40120F9F73AFEBC
:10BBA000E9688A8910438881F9F734FE800700D05C
:10BBB000012029890844A8F80A0038463F6800F0A7
:10BBC000F5FDDFB3F9683A89D8F8143048680244C3
:10BBD000B8F80A001844801AD4D5B8F80A20D8F862
:10BBE00014108B18FA6852689B1A002B2CDD501A1F
:10BBF0002881E8688089F9F70DFE800702D5288939
:10BC0000401E288129896868FBF7BCFEE8688089A6
:10BC1000F9F700FE800700D001202989084481B28D
:10BC2000A8F80A10D8F814000844F968496888424E
:10BC30000AD0AFF2F01340F2FC5200E004E0BCA1E5
:10BC4000AFF2B010F6F7BCFC6767B8F80A00D8F896
:10BC50001410474601446162218D814208D2AFF23F
:10BC60001C2340F20762C1A1AFF2D810F6F7A8FC7E
:10BC7000208D7989401A2085204601F03BFB6868B9
:10BC8000018909B1F8616E60E8688089F9F7C2FD41
:10BC9000C00752D0787840F0200078704DE079618C
:10BCA0008089F9F7B7FD800700D001202A89616AF1
:10BCB000114408446062E8688089F9F7ABFD8007A9
:10BCC00000D0012029890844218D884208D9AFF28B
:10BCD0008C2340F22B62ADA1AFF24820F6F770FC46
:10BCE000E8688089F9F796FD800700D0012029894E
:10BCF0000844218D081A2085204601F0FBFA696866
:10BD0000088930B1F86910B1FBF7BEFA00E0F961BB
:10BD10006E60E8688089F9F77DFDC00708D0787803
:10BD200040F020007870207D042801D10720207584
:10BD300028686067284600F039FD656F25B1E8681E
:10BD4000626A41689142AAD0608BC10702D020F09C
:10BD50000100CEE040F001006083BDE8F087656F30
:10BD60009DB10026C846E9684968814212D1BAF8F7
:10BD70000800298988420CD98E4800F0C1FC0028AF
:10BD800007D08EB33060294625E08A4800F0B8FC21
:10BD900060679DE016B3F2685268821A012A25D4C2
:10BDA000421A521C002A21DC824800F0A9FC07003C
:10BDB00013D0F068318940684218D8F81410521A2C
:10BDC000002A05DD081A81B231817068FBF7DAFDBF
:10BDD000294638463760FEF7DBFA79E0421A05D586
:10BDE000744800F08DFCE8B36067CCE72A682E4603
:10BDF000CABB411A002968DDE8688089F9F70AFDA5
:10BE0000C00765D16B4800F07BFC286050B3E86840
:10BE10004646416828890A18D8F81400121A002AE0
:10BE200005DD401A81B229816868FBF7ABFD218DE1
:10BE3000606A7269084471891144081A002847DD54
:10BE40002868C0688089F9F7E5FCC00713D0286826
:10BE5000C0688089F9F7DEFCC0F344004000F9F7C0
:10BE6000D9FC01E030E030E02968C9688A8922F411
:10BE70007C5210438881A08C218D0844B18A401ADD
:10BE800081B22868018128684068FBF77BFD28683B
:10BE9000C0688089F9F7BEFC800700D001202968BE
:10BEA0000989084480B27081228D616A11447269E7
:10BEB000104488420CD0AFF274434FF4DF620EA1FD
:10BEC000AFF23040F6F77CFB02E015007FF44BAF99
:10BED0002046BDE8F04700F081BC606A69690A1A33
:10BEE00006D4228D1044081A401C00287FF735AF75
:10BEF000608B40F002002FE77463705F72656365CA
:10BF00006976653A207365676D656E74206E6F742F
:10BF1000207472696D6D656420636F7272656374FD
:10BF20006C7920746F207263765F776E640A00000C
:10BF30007463705F726563656976653A20736567DF
:10BF40006D656E74206E6F74207472696D6D6564BA
:10BF500020636F72726563746C7920746F206F6FE9
:10BF60007365712071756575650A00007463705F93
:10BF7000726563656976653A207463706C656E20DE
:10BF80003E207263765F776E640A00007463705FB0
:10BF9000726563656976653A206F6F7365712074A9
:10BFA00063706C656E203E207263765F776E640A04
:10BFB00000000000688E002010B51446080008D06C
:10BFC000002C10D0218900F04FF82046FBF7D0FB61
:10BFD0000AE008A34FF4D36212A119A0F6F7F0FA11
:10BFE0006FF00F0010BD0BB1002010BDBDE8104078
:10BFF000FCF786BE2E2E2F4D6964646C65776172E6
:10C0000065732F54686972645F50617274792F4C44
:10C010007749502F7372632F636F72652F7463704B
:10C020002E6300007463705F726563765F6E756C7B
:10C030006C3A20696E76616C6964207063620000FE
:10C04000417373657274696F6E20222573222066B6
:10C0500061696C6564206174206C696E652025647B
:10C0600020696E2025730A0070B50D46040003D0C8
:10C07000207D012809D00FE0BDE8704014A340F2F4
:10C08000CF321FA124A0F6F79BBA11A340F2D232FF
:10C090002BA121A0F6F794FA218D4FF406624819DE
:10C0A00080B2904201D8814201D9228500E02085EA
:10C0B000204601F01FF9B0F5067F08D3608B40F0F1
:10C0C000020060832046BDE87040FEF7E7B970BD0E
:10C0D0002E2E2F4D6964646C6577617265732F54E1
:10C0E000686972645F50617274792F4C7749502F80
:10C0F0007372632F636F72652F7463702E63000019
:10C100007463705F7265637665643A20696E766108
:10C110006C69642070636200417373657274696F47
:10C120006E2022257322206661696C65642061742B
:10C13000206C696E6520256420696E2025730A00D5
:10C14000646F6E27742063616C6C207463705F721F
:10C15000656376656420666F72206C697374656EC2
:10C160002D7063627300000070B50D00044606D1A7
:10C17000084BFF2208A103F14400F6F721FA002042
:10C1800004E0E16FA94200D1E067E468002CF8D137
:10C1900070BD00003C9500087463705F72656D6F40
:10C1A00076655F6C697374656E65723A20696E7648
:10C1B000616C6964206C697374656E65720000005F
:10C1C0002DE9F041040006D11BA340F2C16227A172
:10C1D0002CA0F6F7F5F9256F6FF005061DB128467E
:10C1E000FEF784FD10B13046BDE8F081286804F107
:10C1F0006C06206700E03668306850B1C06840685F
:10C20000F9F706FB0746E8684068F9F701FB381ABA
:10C21000F1D43068286035602868002108B9A4F896
:10C22000681094F84200FF2802D2401C84F84200B3
:10C2300000206163D8E700002E2E2F4D6964646CE6
:10C240006577617265732F54686972645F506172BB
:10C2500074792F4C7749502F7372632F636F726517
:10C260002F7463705F6F75742E6300007463705F6A
:10C270007265786D69743A20696E76616C696420C4
:10C2800070636200417373657274696F6E2022255A
:10C290007322206661696C6564206174206C696E2C
:10C2A0006520256420696E2025730A0010B50400FE
:10C2B00006D119A340F2F96224A12CA0F6F780F967
:10C2C000206F002827D0A07E400724D42046FFF707
:10C2D00077FF00281FD1B4F84810B4F860008142FD
:10C2E00000D208464108A4F84A10608EB1EB400F16
:10C2F00005D24FF6FF7101EA4001A4F84A1089B255
:10C3000000EB40000844A4F84800608B40F00400B3
:10C3100060830020208610BD2E2E2F4D6964646C32
:10C320006577617265732F54686972645F506172DA
:10C3300074792F4C7749502F7372632F636F726536
:10C340002F7463705F6F75742E6300007463705F89
:10C350007265786D69745F666173743A20696E7690
:10C36000616C696420706362000000004173736552
:10C370007274696F6E2022257322206661696C6574
:10C3800064206174206C696E6520256420696E20CC
:10C3900025730A0010B5040006D109A340F2AD626E
:10C3A00014A11BA0F6F70CF9204600F09BF800281A
:10C3B00004D12046BDE8104000F03EB810BD00009A
:10C3C0002E2E2F4D6964646C6577617265732F54EE
:10C3D000686972645F50617274792F4C7749502F8D
:10C3E0007372632F636F72652F7463705F6F757400
:10C3F0002E6300007463705F7265786D69745F729C
:10C40000746F3A20696E76616C69642070636200B3
:10C41000417373657274696F6E20222573222066E2
:10C4200061696C6564206174206C696E65202564A7
:10C4300020696E2025730A0010B5040006D109A3F7
:10C440004FF4D36214A11DA0F6F7BAF894F8420095
:10C45000FF2802D2401C84F842002046BDE810406C
:10C46000FEF71CB82E2E2F4D6964646C65776172DF
:10C4700065732F54686972645F50617274792F4CD0
:10C480007749502F7372632F636F72652F746370D7
:10C490005F6F75742E6300007463705F7265786DF2
:10C4A00069745F72746F5F636F6D6D69743A206950
:10C4B0006E76616C6964207063620000417373651D
:10C4C0007274696F6E2022257322206661696C6523
:10C4D00064206174206C696E6520256420696E207B
:10C4E00025730A002DE9F041040006D11BA340F298
:10C4F000636227A12FA0F6F763F8256F6FF005069A
:10C500005DB103E0FEF7F2FB38B92D68286800281A
:10C510002846F7D1FEF7EAFB10B13046BDE8F081BE
:10C52000E06E28600026206FC4E91B06608B40F493
:10C5300000606083E8684068F9F76AF90746E868D0
:10C540008089F9F767F9800700D0012029893844EC
:10C5500008446663E0640020E0E700002E2E2F4DC3
:10C560006964646C6577617265732F54686972647D
:10C570005F50617274792F4C7749502F7372632F1B
:10C58000636F72652F7463705F6F75742E63000044
:10C590007463705F7265786D69745F72746F5F70D9
:10C5A0007265706172653A20696E76616C696420AB
:10C5B00070636200417373657274696F6E20222527
:10C5C0007322206661696C6564206174206C696EF9
:10C5D0006520256420696E2025730A0018B1007A51
:10C5E00008B1FAF787B81046F8F746BB2DE9FF4FB8
:10C5F00085B01E00DDE91279DDF8508093468A4649
:10C6000006D11AA340F2C47225A12CA0F5F7D8FFD9
:10C61000002F06D115A340F2C57232A127A0F5F76D
:10C62000CFFF002546F208045046F9F7F1F814222E
:10C63000CDE90224CDE90098034600222946584658
:10C64000FEF702F904000ED001462B4600220598A1
:10C65000FEF7F2F9059809B03B4632462146BDE89F
:10C66000F04FFEF779B909B0BDE8F08F2E2E2F4DAF
:10C670006964646C6577617265732F54686972646C
:10C680005F50617274792F4C7749502F7372632F0A
:10C69000636F72652F7463705F6F75742E63000033
:10C6A0007463705F7273743A20696E76616C69644A
:10C6B000206C6F63616C5F6970000000417373658B
:10C6C0007274696F6E2022257322206661696C6521
:10C6D00064206174206C696E6520256420696E2079
:10C6E00025730A007463705F7273743A20696E7602
:10C6F000616C69642072656D6F74655F69700000BC
:10C7000070B5050006D10CA340F2826216A11DA0EF
:10C71000F5F756FF0320F9F75DFD04000AD004CDBC
:10C7200095E80B0004C484E80B00241FFBF7C4F950
:10C73000204670BD002070BD2E2E2F4D6964646CA4
:10C740006577617265732F54686972645F506172B6
:10C7500074792F4C7749502F7372632F636F726512
:10C760002F7463702E6300007463705F7365675F7E
:10C77000636F70793A20696E76616C6964207365C5
:10C7800067000000417373657274696F6E20222523
:10C790007322206661696C6564206174206C696E27
:10C7A0006520256420696E2025730A0010B50400F9
:10C7B00009D0606808B1FAF7DBFF2146BDE81040F8
:10C7C0000320F9F74FBC10BD10B503E00468FFF774
:10C7D000EDFF20460028F9D110BD00002DE9F04101
:10C7E0004FF0000704003E4606D118A340F2EA725B
:10C7F00023A12BA0F5F7E4FE0025206DF9F708F83A
:10C800000346002229462046FDF7B8FF050010D058
:10C81000014633463A462046FEF70EF92246231DCE
:10C8200029461046FEF798F8618B50B141F003019C
:10C8300009E0608B40F0030060836FF00100BDE809
:10C84000F08121F003016183F9E700002E2E2F4DC6
:10C850006964646C6577617265732F54686972648A
:10C860005F50617274792F4C7749502F7372632F28
:10C87000636F72652F7463705F6F75742E63000051
:10C880007463705F73656E645F656D7074795F610A
:10C89000636B3A20696E76616C6964207063620034
:10C8A000417373657274696F6E202225732220664E
:10C8B00061696C6564206174206C696E6520256413
:10C8C00020696E2025730A0070B5050006D113A3F8
:10C8D00040F2EB321EA125A0F5F772FEEC6E0CB90A
:10C8E00009E0044620680028FBD1E0688089F8F759
:10C8F00091FF400705D02846BDE870400121FCF7B4
:10C90000BBBC0120F8F786FFE1688A891043888163
:10C91000688B40F020006883002070BD2E2E2F4DC4
:10C920006964646C6577617265732F5468697264B9
:10C930005F50617274792F4C7749502F7372632F57
:10C94000636F72652F7463705F6F75742E63000080
:10C950007463705F73656E645F66696E3A20696EBA
:10C9600076616C69642070636200000041737365D6
:10C970007274696F6E2022257322206661696C656E
:10C9800064206174206C696E6520256420696E20C6
:10C9900025730A002DE9FE4FCA4D47F6FF7B4FF481
:10C9A000FA7AE8684FF00008401CE860A878401C5C
:10C9B000A8700027AC6977E1207D002806D1C2A3CA
:10C9C00040F2BE42CCA1D7A0F5F7FAFD207D0128A8
:10C9D00006D1BDA340F2BF42DCA1D2A0F5F7F0FD25
:10C9E000207D0A2806D1B8A34FF49862E2A1CDA019
:10C9F000F5F7E6FDA17FA878814202D12746E468D9
:10CA000052E1A0770026207DB146022805D194F896
:10CA10004200062801D301269FE094F842000C282A
:10CA20001BD294F89900002841D0206F002806D02E
:10CA3000A5A340F2D442DCA1BAA0F5F7C1FDE06E97
:10CA4000002806D1A0A340F2D542E4A1B5A0F5F795
:10CA5000B7FD94F89A000C2801D3012671E094F8F0
:10CA60009910EC48095C94F89800884202D2401C66
:10CA700084F89800C0B2884263D3B4F860102046AE
:10CA800019B100F06FFA20B107E000F0ADFCE8BB8F
:10CA900003E02046FDF702FDC0B384F8988094F8C7
:10CAA000990007284DD2401C84F8990049E0B4F958
:10CAB0003000584501D2401C2086B4F93000B4F94A
:10CAC000401088423DDB2046FFF70CFD18B1206F77
:10CAD000E0B9E06ED0B1207D022813D094F8420076
:10CAE0000C2800D30C20B4F93E10B4F93C2001EB23
:10CAF000E202C949085C02FA00F0584500DB5846DA
:10CB0000A4F840004046A4F8308000E019E0B4F8F2
:10CB10004820B4F860108A4200D211464A08A4F8AE
:10CB20004A20618E4FF6FF7303EA41039A4201D215
:10CB3000A4F84A30A4F84810A4F86A002046FFF789
:10CB40007BFC207D062808D1A07EC00605D5206A82
:10CB5000E968081A282800D9761C607A000728D5C9
:10CB6000207D042801D0072823D1AC48D4F89410A4
:10CB7000EB680844B0FBFAF2206A181A824203D22A
:10CB80004FF00109761C14E094F89B2042F29F4379
:10CB900012FB03F201EBC201B1FBFAF1814208D2B0
:10CBA0002046FDF75BF920B994F89B00401C84F8FF
:10CBB0009B00606F60B1206AE968081AB4F9401000
:10CBC00001EB4101B0EB410F02D32046FCF78AFD97
:10CBD000207D032802D0092807D00BE0206AE968ED
:10CBE000081A282806D9761C04E0206AE968081A81
:10CBF000F028F8D8002E3DD02046D4F89060FEF7FB
:10CC000047F9A8695FB1844206D12FA340F26D5263
:10CC100083A144A0F5F7D4FCE068F8600AE0A042E4
:10CC200006D029A340F2715288A13EA0F5F7C8FCB6
:10CC3000E068A861B9F1000F0AD0228BE18A201DBB
:10CC40008DE8070023461846626A216DFFF7CEFC87
:10CC50002046D4F81090E468FCF75EFC85F800806C
:10CC600016B36FF00C014846B047287800287FF4CF
:10CC7000A0AE19E02746E468387F401CC0B2387780
:10CC8000797F884210D387F81C8085F80080D7F818
:10CC90008C2032B139463869904729780029E6D18D
:10CCA00010B93846FDF7FAFB002C7FF485AE00265C
:10CCB000EC6912E1207D0A2803D003A340F2A152BF
:10CCC000DAE0DEE0D80000202E2E2F4D6964646C7F
:10CCD0006577617265732F54686972645F50617221
:10CCE00074792F4C7749502F7372632F636F72657D
:10CCF0002F7463702E6300007463705F736C6F77C2
:10CD0000746D723A20616374697665207063622D78
:10CD10003E737461746520213D20434C4F5345445C
:10CD20000A000000417373657274696F6E202225DA
:10CD30007322206661696C6564206174206C696E81
:10CD40006520256420696E2025730A007463705F76
:10CD5000736C6F77746D723A2061637469766520C5
:10CD60007063622D3E737461746520213D204C49CF
:10CD70005354454E0A0000007463705F736C6F7704
:10CD8000746D723A20616374697665207063622DF8
:10CD90003E737461746520213D2054494D452D57E3
:10CDA0004149540A000000007463705F736C6F7730
:10CDB00074696D723A207065727369737420746956
:10CDC000636B696E67207769746820696E2D666C85
:10CDD0006967687420646174610000007463705F47
:10CDE000736C6F7774696D723A20706572736973D2
:10CDF00074207469636B696E672077697468206555
:10CE00006D7074792073656E6420627566666572F4
:10CE1000000000004BF7000880F70008B84C0A003B
:10CE20007463705F736C6F77746D723A206D6964B0
:10CE3000646C652074637020213D207463705F61B1
:10CE400063746976655F7063627300007463705F1A
:10CE5000736C6F77746D723A2066697273742070A8
:10CE60006362203D3D207463705F61637469766521
:10CE70005F706362730000001AA1AFF25810F5F7FB
:10CE80009FFB216AE868401AF02812D92046FDF776
:10CE9000FFFFE86986B1844208D1AFF2D41340F2B3
:10CEA000AF521CA1AFF28410F5F78AFBE068F06086
:10CEB0000FE02646E46810E0A04208D0AFF2F81375
:10CEC00040F2B3521DA1AFF2A410F5F779FBE06870
:10CED000E8612046E468FCF71FFB002C7FF4EAAE13
:10CEE000BDE8FE8F7463705F736C6F77746D723A18
:10CEF0002054494D452D57414954207063622D3EC1
:10CF00007374617465203D3D2054494D452D574152
:10CF1000495400007463705F736C6F77746D723A7C
:10CF2000206D6964646C652074637020213D2074F9
:10CF300063705F74775F7063627300007463705F27
:10CF4000736C6F77746D723A2066697273742070B7
:10CF50006362203D3D207463705F74775F7063622D
:10CF6000730000002DE9F84F0F46050006D157A3C6
:10CF700040F24B3262A16BA0F5F722FBEC6E002C65
:10CF80007ED0002F10D02089B8427AD9688EB8425E
:10CF900006D24EA340F25B326CA162A0F5F710FB03
:10CFA000208900280BD011E048A340F253326BA136
:10CFB0005CA0F5F705FB6FF00500BDE8F88F43A313
:10CFC0004FF457726EA157A0F5F7FAFA94F80AB029
:10CFD0005FEACB7001D0042600E0002620894FF4E0
:10CFE0002072C01B1FFA80F808EB060081B23620C1
:10CFF000F9F7A8FF5FEA000A65D060682289018915
:10D00000891A39448BB2DAF8041042463144FAF7EF
:10D0100023FB404554D1E0688089F8F7FBFB00F022
:10D020003F064FF00009300703D526F008064FF001
:10D030000809F00703D026F0010649F00109E0686D
:10D040004068F8F7E5FBC3194A4651462846CDF833
:10D0500000B0FBF7F5FF070032D06068FAF7B5F9CA
:10D0600035F8661F081A288060680289A2EB08015B
:10D0700089B2FAF787FC2189A1EB0800208101E041
:10D0800021E01BE03046F8F7C5FBE1688A891043D0
:10D0900088816068FAF799F92988084428807868B7
:10D0A000FAF793F92988084425F86609206838605A
:10D0B0002760386810B90020A5F8680000207CE7D8
:10D0C0005046FAF755FB4FF0FF3076E72E2E2F4DE6
:10D0D0006964646C6577617265732F546869726402
:10D0E0005F50617274792F4C7749502F7372632FA0
:10D0F000636F72652F7463705F6F75742E630000C9
:10D100007463705F73706C69745F756E73656E7451
:10D110005F7365673A20696E76616C69642070633D
:10D1200062000000417373657274696F6E2022257E
:10D130007322206661696C6564206174206C696E7D
:10D140006520256420696E2025730A0073706C6960
:10D1500074203C3D206D73730000000043616E2716
:10D16000742073706C6974207365676D656E7420CC
:10D17000696E746F206C656E677468203000000003
:10D18000757365672D3E6C656E203E203000000093
:10D190000848816800290CD10749084A09681268C3
:10D1A000114306D00121816000220549FA20FBF7D6
:10D1B00035BB70471C010020F0000020F400002067
:10D1C00035D700083EB51D4C05462078400722D4CF
:10D1D000002D06D11AA340F2EE2226A12DA0F5F7CC
:10D1E000EFF92078810717D5696A6069421A18D467
:10D1F0002A8D1144411A002913DCE1682F4B0A885B
:10D2000049880093CDE9011261891B1D4218284607
:10D21000A169FFF7EBF93EBDC00702D028480068BE
:10D22000286260890028F6D0688B40F0020068838D
:10D230002846BDE83E40FDF731B90000F800002067
:10D240002E2E2F4D6964646C6577617265732F545F
:10D25000686972645F50617274792F4C7749502FFE
:10D260007372632F636F72652F7463705F696E2EC4
:10D27000630000007463705F74696D657761697441
:10D280005F696E7075743A20696E76616C696420AE
:10D2900070636200417373657274696F6E2022253A
:10D2A0007322206661696C6564206174206C696E0C
:10D2B0006520256420696E2025730A0038560020F9
:10D2C000E400002010B5FCF7F1F805484178491C4E
:10D2D0004170C80703D0BDE81040FFF75BBB10BD2D
:10D2E000D80000200248417841F010014170704799
:10D2F000F800002070B5040006D115A340F2A63254
:10D300001FA128A0F5F75CF9258D626A638E51197B
:10D310004FF48666E06AB34200D933460344CB1A21
:10D3200002D46585081A70BD111A002902DD00209B
:10D3300060850BE0851AB5F5803F06D304A340F263
:10D34000B63222A117A0F5F73BF96585002070BD24
:10D350002E2E2F4D6964646C6577617265732F544E
:10D36000686972645F50617274792F4C7749502FED
:10D370007372632F636F72652F7463702E63000086
:10D380007463705F7570646174655F7263765F610A
:10D390006E6E5F776E643A20696E76616C696420A8
:10D3A00070636200417373657274696F6E20222529
:10D3B0007322206661696C6564206174206C696EFB
:10D3C0006520256420696E2025730A006E65775FED
:10D3D0007263765F616E6E5F776E64203C3D2030D5
:10D3E00078666666660000002DE9F04704004FF09D
:10D3F000000906D12CA340F64F0238A140A0F5F752
:10D40000DFF8E56E35B394F89A00FF2802D2401C8D
:10D4100084F89A00E8688089F8F7FCF9C00701D021
:10D420002889D0B100260122E86849464368204691
:10D43000FDF7A4F95FEA000812D0D8F804100F46EF
:10D440008EB11120F8F7E6F9B98921F47C5108432F
:10D45000B88111E00020BDE8F08701260022E3E753
:10D460004FF0FF30F7E768682B8914310289D21A30
:10D4700093B20122FAF7F0F8E8684068F8F7C8F9C3
:10D48000216D401C091A00D520654B4600224146FB
:10D490002046FDF7D1FA2246231D4146BDE8F0475C
:10D4A0001046FDF759BA00002E2E2F4D6964646CAA
:10D4B0006577617265732F54686972645F50617239
:10D4C00074792F4C7749502F7372632F636F726595
:10D4D0002F7463705F6F75742E6300007463705FE8
:10D4E0007A65726F5F77696E646F775F70726F6273
:10D4F000653A20696E76616C696420706362000031
:10D50000417373657274696F6E20222573222066E1
:10D5100061696C6564206174206C696E65202564A6
:10D5200020696E2025730A0038B50D460446F8F7C9
:10D5300073F913480621C0E900450830FBF7FCF8F1
:10D54000002806D00FA340F261221AA122A0F5F70D
:10D5500037F80B480C30FBF719F9002806D009A35F
:10D5600040F2652226A11CA0F5F72AF80020024609
:10D5700000904FF480632B492BA0FBF737F938BD9F
:10D58000640000202E2E2F4D6964646C65776172F3
:10D5900065732F54686972645F50617274792F4C9F
:10D5A0007749502F7372632F6170692F74637069AC
:10D5B000702E63006661696C656420746F2063720D
:10D5C000656174652074637069705F746872656109
:10D5D00064206D626F780000417373657274696FC7
:10D5E0006E2022257322206661696C656420617457
:10D5F000206C696E6520256420696E2025730A0001
:10D600006661696C656420746F206372656174651E
:10D61000206C6F636B5F74637069705F636F7265BA
:10D62000000000006DD7000874637069705F746853
:10D6300072656164000000002DE9F04106469046E5
:10D640000D461248FBF798F828B911A3FC221CA13B
:10D650001FA0F4F7B5FF0920F8F7BCFD04004FF058
:10D66000FF370FD000202070C4F80C80C4E901659A
:10D6700021460648FBF776F8002804D02146092009
:10D68000F8F7F0FC3846BDE8F08100006C0000209F
:10D690002E2E2F4D6964646C6577617265732F540B
:10D6A000686972645F50617274792F4C7749502FAA
:10D6B0007372632F6170692F74637069702E6300D9
:10D6C000496E76616C6964206D626F7800000000BD
:10D6D000417373657274696F6E2022257322206610
:10D6E00061696C6564206174206C696E65202564D5
:10D6F00020696E2025730A0091F82D2012F0180F72
:10D7000001D0024A00E0024AFFF796BFE13D00085F
:10D71000B946000870B504460D460548FBF731F8D8
:10D720002846A0470248FBF740F8002070BD0000E3
:10D730007000002010B5FFF7C5FD084808490068D3
:10D740000968084306D00022BDE810400549FA20C8
:10D75000FBF764B804490020886010BDF000002089
:10D76000F400002035D700081C01002008B51E4831
:10D77000FBF707F81C480C38016809B14068884776
:10D78000194E4FEA0D05361FFBF73AF90446401CC7
:10D790000FD0F4B11448FBF708F82246294630466A
:10D7A000FAF74CFF04461048FAF7EBFF641C10D060
:10D7B0000AE00D48FAF7F9FF002229463046FAF749
:10D7C0003DFF0948FAF7DDFF009828B100F04AF85C
:10D7D000D6E7FAF783FFD7E704A391220FA117A09A
:10D7E000F4F7EEFECCE70000700000202E2E2F4D47
:10D7F0006964646C6577617265732F5468697264DB
:10D800005F50617274792F4C7749502F7372632F78
:10D810006170692F74637069702E6300746370693E
:10D82000705F7468726561643A20696E76616C69D4
:10D8300064206D65737361676500000041737365F3
:10D840007274696F6E2022257322206661696C658F
:10D8500064206174206C696E6520256420696E20E7
:10D8600025730A0010B50446007800280BD0012863
:10D8700013D002281AD0BDE810400FA3CF221AA15E
:10D8800021A0F4F79DBE201D07C8904710B1606825
:10D89000F9F76EFF2146092004E0D4E9011088471A
:10D8A00021460820BDE81040F8F7DCBBD4E90110A0
:10D8B000BDE81040084700002E2E2F4D6964646CAF
:10D8C0006577617265732F54686972645F50617225
:10D8D00074792F4C7749502F7372632F6170692FC1
:10D8E00074637069702E630074637069705F74682C
:10D8F000726561643A20696E76616C6964206D6559
:10D900007373616765000000417373657274696FBA
:10D910006E2022257322206661696C656420617423
:10D92000206C696E6520256420696E2025730A00CD
:10D930002DE9F04106460D461148FAF71DFF30B9B2
:10D9400010A340F25D121BA11EA0F4F739FE0820BF
:10D95000F8F740FC04004FF0FF370DD00120207095
:10D96000C4E9016521460648FAF7FCFE002804D008
:10D9700021460820F8F776FB3846BDE8F081000024
:10D980006C0000202E2E2F4D6964646C65776172E7
:10D9900065732F54686972645F50617274792F4C9B
:10D9A0007749502F7372632F6170692F74637069A8
:10D9B000702E6300496E76616C6964206D626F78C9
:10D9C00000000000417373657274696F6E20222538
:10D9D0007322206661696C6564206174206C696ED5
:10D9E0006520256420696E2025730A002DE9F05F0B
:10D9F00001B92D4920B12D4C002663681D460FE06A
:10DA00002BA340F2B73236A13BA0F4F7D9FD6FF05B
:10DA10000F00BDE8F09FA84201D1012602E0ED68A9
:10DA2000002DF8D16FF0070972BB00254FF6FF7883
:10DA30004FF4404A4FF4804B2288571C27804245C0
:10DA400001D1A4F800A01A46278809E0B2F812C054
:10DA5000BC4504D16D1CADB25D45EDD31CE0D26870
:10DA6000002AF3D13A04120C16D00FE098420AD0E3
:10DA70005D8A954207D11F680D68AF420CD059B13D
:10DA800055B14BB147B1DB68002BEFD101B109684B
:10DA90000160428216B104E04846BAE76168C1609D
:10DAA00060600020B5E70000C0F7000828010020F2
:10DAB0002E2E2F4D6964646C6577617265732F54E7
:10DAC000686972645F50617274792F4C7749502F86
:10DAD0007372632F636F72652F7564702E6300001D
:10DAE0007564705F62696E643A20696E76616C6914
:10DAF0006420706362000000417373657274696F23
:10DB00006E2022257322206661696C656420617431
:10DB1000206C696E6520256420696E2025730A00DB
:10DB200010B5F2F7E9FB0349C0F30D0000F54040E2
:10DB3000088010BD280100202DE9F04F87B08946EC
:10DB4000070005D14AA3CF2255A15BA0F4F738FD09
:10DB5000B9F1000F05D146A3D02261A156A0F4F778
:10DB60002FFD788908287CD3644D7C682968686912
:10DB7000F6F75AFC02902088F7F74CFE0090608878
:10DB8000F7F748FEDFF878B100268246B046DBF8AA
:10DB9000044032E0618A51452DD149462046029A1F
:10DBA00000F0BEF838B3207C400711D4B8F1000F64
:10DBB0000DD0029860B16869401C09D1D8F80010F6
:10DBC000D9F80400814203D02168814200D1A046E7
:10DBD000A18A009881420ED1606810B129698842FB
:10DBE00009D136B1E068F060DBF80410E160CBF8F1
:10DBF000044024B10BE02646E468002CCAD15FEA59
:10DC0000080404D1D9F804006969884229D108219F
:10DC10003846F9F79FFF38B115A34FF4B87239A110
:10DC200025A0F4F7CDFC1CE054B1A569CDB1334B70
:10DC30003A4610332146E069A84707B0BDE8F08FA7
:10DC4000029870B9287DC0F303100E2809D0A88966
:10DC5000083001B23846F9F76DFE03213846F6F771
:10DC600059FA07B03846BDE8F04FF9F781BD00001A
:10DC70002E2E2F4D6964646C6577617265732F5425
:10DC8000686972645F50617274792F4C7749502FC4
:10DC90007372632F636F72652F7564702E6300005B
:10DCA0007564705F696E7075743A20696E76616C28
:10DCB0006964207062756600417373657274696F80
:10DCC0006E2022257322206661696C656420617470
:10DCD000206C696E6520256420696E2025730A001A
:10DCE0007564705F696E7075743A20696E76616CE8
:10DCF0006964206E65746966000000002856002083
:10DD000028010020706275665F72656D6F76655FD1
:10DD1000686561646572206661696C65640A00000B
:10DD200070B516460D46040005D116A3872221A121
:10DD300029A0F4F745FC002D05D112A3882230A1BB
:10DD400025A0F4F73DFC217A374831B1426892F8BA
:10DD50003020521CD2B2914212D14EB174B121681E
:10DD600061B14069421C09D0AA681140104003E02B
:10DD700024B1216811B14069814201D1012070BDF7
:10DD8000002070BD2E2E2F4D6964646C6577617222
:10DD900065732F54686972645F50617274792F4C97
:10DDA0007749502F7372632F636F72652F7564709C
:10DDB0002E6300007564705F696E7075745F6C6FC0
:10DDC00063616C5F6D617463683A20696E76616C43
:10DDD0006964207063620000417373657274696FD7
:10DDE0006E2022257322206661696C65642061744F
:10DDF000206C696E6520256420696E2025730A00F9
:10DE00007564705F696E7075745F6C6F63616C5F71
:10DE10006D617463683A20696E76616C6964206E26
:10DE200065746966000000002856002010B50028BF
:10DE300013D00268002A10D000290ED00A68002AE8
:10DE40000BD0064A526806E013680468A34201D169
:10DE50000B681360D268002AF6D110BD280100209B
:10DE600010B50020F8F7B6F9040004D02021F2F72D
:10DE70007CFAFF20E072204610BDFFF7F1BF0000E2
:10DE800010B1C0E90612704703A340F28A420EA106
:10DE900013A0F4F795BB00002E2E2F4D6964646C1F
:10DEA0006577617265732F54686972645F5061723F
:10DEB00074792F4C7749502F7372632F636F72659B
:10DEC0002F7564702E6300007564705F72656376F1
:10DED0003A20696E76616C696420706362000000AC
:10DEE000417373657274696F6E20222573222066F8
:10DEF00061696C6564206174206C696E65202564BD
:10DF000020696E2025730A0030B10E494A688242AA
:10DF100011D1D2684A6010E00BA340F2A14216A1D1
:10DF20001BA0F4F74DBBD16821B1814202D1C16879
:10DF3000D16002E00A46002AF5D101460020F8F738
:10DF400091B80000280100202E2E2F4D6964646CCA
:10DF50006577617265732F54686972645F5061728E
:10DF600074792F4C7749502F7372632F636F7265EA
:10DF70002F7564702E6300007564705F72656D6F3D
:10DF800076653A20696E76616C6964207063620020
:10DF9000417373657274696F6E2022257322206647
:10DFA00061696C6564206174206C696E652025640C
:10DFB00020696E2025730A002DE9F84398460E4625
:10DFC000040015466FF00F0708D066B1002D0FD082
:10DFD000207A002816D0F8F78DFB16E011A34FF435
:10DFE00006721CA108E00FA340F219221FA103E052
:10DFF0000CA340F21A2224A12AA0F4F7E1FA384631
:10E00000BDE8F8831046F6F737FE38B10090434676
:10E010002A463146204600F059F8F1E76FF0030038
:10E02000EEE700002E2E2F4D6964646C65776172F7
:10E0300065732F54686972645F50617274792F4CF4
:10E040007749502F7372632F636F72652F756470F9
:10E050002E6300007564705F73656E64746F3A20A0
:10E06000696E76616C696420706362007564705FCC
:10E0700073656E64746F3A20696E76616C696420B2
:10E0800070627566000000007564705F73656E6491
:10E09000746F3A20696E76616C6964206473745F92
:10E0A00069700000417373657274696F6E20222578
:10E0B0007322206661696C6564206174206C696EEE
:10E0C0006520256420696E2025730A007CB5069CB6
:10E0D0006FF00F0588B1A9B1002A18D0002C1BD011
:10E0E0000568002D21D0C5F303160E2E1DD06668DD
:10E0F000B5421CD06FF003007CBD10A34FF420721A
:10E100001AA10DE00DA340F281221FA108E00BA38C
:10E1100040F2822223A103E008A340F2832229A136
:10E1200030A0F4F74DFA28467CBD251D00E00546D9
:10E13000CDE9004500F06AF87CBD00002E2E2F4D81
:10E140006964646C6577617265732F546869726481
:10E150005F50617274792F4C7749502F7372632F1F
:10E16000636F72652F7564702E6300007564705F55
:10E1700073656E64746F5F69663A20696E76616C70
:10E1800069642070636200007564705F73656E641B
:10E19000746F5F69663A20696E76616C696420709D
:10E1A000627566007564705F73656E64746F5F6935
:10E1B000663A20696E76616C6964206473745F6985
:10E1C000700000007564705F73656E64746F5F69E2
:10E1D000663A20696E76616C6964206E6574696662
:10E1E00000000000417373657274696F6E20222510
:10E1F0007322206661696C6564206174206C696EAD
:10E200006520256420696E2025730A002DE9FE4FE4
:10E21000DDE90C899B4692460D4606006FF00F041F
:10E220000DD08DB1BAF1000F13D05FEA090015D0FF
:10E230005FEA080017D0728A002A1ED023E038A3B4
:10E2400040F2D12242A112E035A340F2D22248A1ED
:10E250000DE033A340F2D3224DA108E030A34FF4E8
:10E26000357254A103E02EA340F2D5225AA163A037
:10E27000F4F7A6F92046BDE8FE8F31460846FFF7C1
:10E28000B5FB0028F7D128894FF0FF3700F10801CE
:10E2900089B2814213D308212846F8F7EFFD80B1F7
:10E2A0004FF4207208212220F8F74CFE040006D01B
:10E2B000288938B129462046F9F77EF802E0384629
:10E2C000D9E72C466089082806D215A340F20D3202
:10E2D00054A14AA0F4F774F9708A6768F7F79AFABC
:10E2E00038805846F7F796FA78800020F880208921
:10E2F000F7F790FAB880F37AB27A1120CDE90020CE
:10E30000CDF80880524649462046F6F7B5FA06464B
:10E31000AC4202D02046F9F72BFA3046ABE70000BA
:10E320002E2E2F4D6964646C6577617265732F546E
:10E33000686972645F50617274792F4C7749502F0D
:10E340007372632F636F72652F7564702E630000A4
:10E350007564705F73656E64746F5F69665F737216
:10E36000633A20696E76616C6964207063620000B4
:10E370007564705F73656E64746F5F69665F7372F6
:10E38000633A20696E76616C69642070627566001C
:10E390007564705F73656E64746F5F69665F7372D6
:10E3A000633A20696E76616C6964206473745F6996
:10E3B000700000007564705F73656E64746F5F69F0
:10E3C000665F7372633A20696E76616C696420736C
:10E3D00072635F69700000007564705F73656E64DE
:10E3E000746F5F69665F7372633A20696E76616C01
:10E3F0006964206E6574696600000000417373658E
:10E400007274696F6E2022257322206661696C65C3
:10E4100064206174206C696E6520256420696E201B
:10E4200025730A00636865636B20746861742066F5
:10E430006972737420706275662063616E20686F04
:10E440006C6420737472756374207564705F6864A3
:10E4500072000000D0E9013201699A60D0E901231D
:10E460005A604A68824201D182684A600022026191
:10E470000868401E0860086870470000034B03608E
:10E4800003F154000860802010607047B001002044
:10E4900070B50CA0F7F78EF905000ED0002406E049
:10E4A000F6F7E2FC01460BA0F4F78AF8641C286931
:10E4B00050F824000028F3D170BDBDE8704009A0D9
:10E4C000F4F77EB87777772E62616964752E636F93
:10E4D0006D000000686F73742069703A25730D0A2F
:10E4E0000000000067657420686F737420697020F5
:10E4F0006661696C210D0A0000F108014FF0FF32DE
:10E50000C0E90112C1600161002101607047002172
:10E510000161704730B50B685A1C02D000F1080247
:10E5200002E0026904E02246546825689D42FAD957
:10E5300053684B6099608A60516008610168491CAA
:10E54000016030BD42684A6093688B60936859608F
:10E55000916008610168491C01607047502080F398
:10E560001188BFF34F8FBFF36F8F0A494868401C73
:10E57000486001280CD10848006810F0FF0F07D050
:10E58000502080F31188BFF34F8FBFF36F8FFEE7EA
:10E59000704700009C01002004ED00E00849486835
:10E5A00028B1401E486001D180F311887047502087
:10E5B00080F31188BFF34F8FBFF36F8FFEE700002A
:10E5C0009C01002070B500282AD0164DA0F1080447
:10E5D00060686969084207D1502080F31188BFF351
:10E5E0004F8FBFF36F8FFEE722683AB1502080F360
:10E5F0001188BFF34F8FBFF36F8FFEE788436060D2
:10E6000000F04CF960686968084468602046F9F7D2
:10E61000DFFE2869401C2861BDE8704000F082BF21
:10E6200070BD00007C0100204FF0E020002101615E
:10E63000816105494FF47A720968B1FBF2F1491E14
:10E6400041610721016170474C00002010B5F1F7CE
:10E6500001FE114910280ED300F1E02090F8F003DC
:10E660000A78904207D2502080F31188BFF34F8F71
:10E67000BFF36F8FFEE709480068896800F4E06027
:10E68000884207D9502080F31188BFF34F8FBFF322
:10E690006F8FFEE710BD00009C0100200CED00E034
:10E6A00010B504000AD000F013F894F846000028D2
:10E6B0000CD12046BDE81040FFF784BF502080F306
:10E6C0001188BFF34F8FBFF36F8FFEE710BD0000BF
:10E6D000084A002102EBC1035B68834206D1002097
:10E6E00042F8310002EBC10148607047491C08291B
:10E6F000F0D37047788F002010B5020014D00F4877
:10E70000006B38B1502080F31188BFF34F8FBFF3F7
:10E710006F8FFEE700F0C2F800211046F9F79CFC6D
:10E7200000F000FF002807D105494FF08050086035
:10E73000BFF34F8FBFF36F8F10BD0000400100206B
:10E7400004ED00E002490A6A0260C968416070474E
:10E750004001002001490120C861704740010020AC
:10E7600010B50C4650B1094909681831FFF7D2FEBF
:10E770002046BDE810400121F9F76EBC502080F31F
:10E780001188BFF34F8FBFF36F8FFEE7400100206A
:10E7900070B5040047D0A26CA2B1606C884200D36F
:10E7A0000146E06A88423ED0012A3CD11E4D2A68CB
:10E7B00094420FD1502080F31188BFF34F8FBFF3E5
:10E7C0006F8FFEE7502080F31188BFF34F8FBFF3A8
:10E7D0006F8FFEE7E162A269002A02DBC1F1070147
:10E7E000A161124E00EB8000616906EB800081425E
:10E7F00019D1201DFFF72EFE012130B994F82C000D
:10E800002A6901FA00F082432A61E06A2A6981409C
:10E810001143296100EB800006EB8000211DBDE85B
:10E820007040FFF78FBE70BD40010020B88F002000
:10E8300010B586B00024039405AA04A903A8049483
:10E84000FFF71CFEDDE903010094CDE90110002370
:10E850000EA11048059A00F0ECFC0F490028C86290
:10E8600011D0502080F31188BFF34F8FBFF36F8F0B
:10E870004FF0FF30886201204861CC6006B0BDE8EF
:10E88000104000F041B806B010BD000049444C45AE
:10E8900000000000AD820008400100200248016B2A
:10E8A000491C016370470000400100201448016BBF
:10E8B00011B10121C16170470021C1610169B1FA43
:10E8C00081F1C1F11F0101EB81020E4951F82230A3
:10E8D0006BB101EB820101F108034A6852684A609A
:10E8E0009A4201D152684A60D16801607047502055
:10E8F00080F31188BFF34F8FBFF36F8FFEE70000E7
:10E9000040010020B88F00201CB537480168374A05
:10E91000914207D1502080F31188BFF34F8FBFF38E
:10E920006F8FFEE700683149491E884207D15020A9
:10E9300080F31188BFF34F8FBFF36F8FFEE72C4931
:10E9400008780190FF20087008788DF800009DF885
:10E9500000009DF8002000F0F000904207D0502009
:10E9600080F31188BFF34F8FBFF36F8FFEE79DF8E1
:10E970000000204C00F0500020700720A06005E04F
:10E980009DF8002052008DF80020401E9DF80020C8
:10E990001206F5D4A060032807D0502080F3118818
:10E9A000BFF34F8FBFF36F8FFEE74FF44070A0604F
:10E9B000019808700C482030016841F47001016032
:10E9C000016841F070410160FFF72EFE0020606099
:10E9D000F1F708FC0848016841F040410160F1F797
:10E9E000EDFB00201CBD000000ED00E071C20F41F6
:10E9F00000E400E09C01002034EF00E010B5024686
:10EA00000021012000F012F80446F9F77FFC2046AF
:10EA100010BD38B50B46002200901146012000F0D1
:10EA200026F80446F9F772FC204638BDF8B51746BB
:10EA30000E46050013D005FB06F04830F9F76EFDD1
:10EA400004000AD0002084F8460004F148023B4646
:10EA5000314628460094F9F764FC2046F8BD502062
:10EA600080F31188BFF34F8FBFF36F8FFEE738B588
:10EA7000049D18B153B1CAB181B120E0502080F398
:10EA80001188BFF34F8FBFF36F8FFEE7502080F3E5
:10EA90001188BFF34F8FBFF36F8FFEE7502080F3D5
:10EAA0001188BFF34F8FBFF36F8FFEE739B150204E
:10EAB00080F31188BFF34F8FBFF36F8FFEE74824B9
:10EAC0001C46012384F846302B460094F9F729FCB4
:10EAD000204638BD70B50D46040025D0FFF73EFD39
:10EAE000D4E90F20216802FB0011A1600021A1637D
:10EAF000216861600A46D4E90F01401E00FB012134
:10EB0000E16021464FF0FF3001F8440F487004F1F6
:10EB100010008DB1FFF7F0FC04F12400FFF7ECFCCE
:10EB2000FFF73CFD012070BD502080F31188BFF33A
:10EB30004F8FBFF36F8FFEE721690029F0D000F0FF
:10EB4000B7FC0028ECD004494FF080500860BFF3B8
:10EB50004F8FBFF36F8FE3E704ED00E02DE9FF4730
:10EB600082B01D468A464FF00008040003D0BAF177
:10EB7000000F08D011E0502080F31188BFF34F8FB1
:10EB8000BFF36F8FFEE7206C38B1502080F31188FF
:10EB9000BFF34F8FBFF36F8FFEE7022D0AD1E06BFB
:10EBA000012807D0502080F31188BFF34F8FBFF3A7
:10EBB0006F8FFEE700F068FB3F4F4FF000094FF00A
:10EBC000805648B9049838B1502080F31188BFF3BB
:10EBD0004F8FBFF36F8FFEE7FFF7C0FCA06BE16BB9
:10EBE000884207D3022D05D00498D0B1B8F1000FA8
:10EBF0001AD01EE02A4651462046F9F7E0FA616A2B
:10EC000019B104F1240000F053FC20B13E60BFF3C1
:10EC10004F8FBFF36F8FFFF7C1FC012006B0BDE837
:10EC2000F087FFF7BBFC22E06846FFF78BFD4FF053
:10EC30000108FFF7B3FCFFF731FEFFF78FFC94F9F3
:10EC40004400401C01D184F8449094F94500401CD4
:10EC500001D184F84590FFF7A1FC04A9684600F0B3
:10EC600081FA30B12046F9F70BFC00F05BFC002084
:10EC7000D4E7FFF773FCA06BE16B884213D1FFF779
:10EC80008DFC04F110000499FFF76AFD2046F9F7A6
:10EC9000F7FB00F047FC00289ED13E60BFF34F8F8A
:10ECA000BFF36F8F98E7FFF779FC2046F9F7E8FB91
:10ECB00000F038FC90E7000004ED00E02DE9F0479B
:10ECC0001F4690468946040003D0B9F1000F08D0D2
:10ECD00011E0502080F31188BFF34F8FBFF36F8F87
:10ECE000FEE7206C38B1502080F31188BFF34F8FBE
:10ECF000BFF36F8FFEE7022F0AD1E06B012807D028
:10ED0000502080F31188BFF34F8FBFF36F8FFEE762
:10ED1000FFF79CFC5020EFF3118680F31188BFF3BE
:10ED20004F8FBFF36F8FA06BE16B884206D3022F2A
:10ED300004D0002086F31188BDE8F08794F945508F
:10ED4000A06B3A4649462046F9F739FA681C04D0C8
:10ED50006D1C84F845500120ECE7606A0028FAD069
:10ED600004F1240000F0A4FB0028F4D0B8F1000F57
:10ED7000F1D00121C8F80010EDE770B50E4604008F
:10ED800009D0206C78B1502080F31188BFF34F8FE9
:10ED9000BFF36F8FFEE7502080F31188BFF34F8FD2
:10EDA000BFF36F8FFEE7206848B9A06838B15020E4
:10EDB00080F31188BFF34F8FBFF36F8FFEE7FFF72C
:10EDC00045FC5020EFF3118580F31188BFF34F8F7E
:10EDD000BFF36F8FA16BE06B884218D994F945009F
:10EDE000491CA163411C04D0401C84F8450001204B
:10EDF0000EE0606A0028FAD004F1240000F058FB0D
:10EE00000028F4D0002EF2D001203060EFE700207F
:10EE100085F3118870BD00002DE9F747002683B007
:10EE20008A46040003D0BAF1000F08D011E0502048
:10EE300080F31188BFF34F8FBFF36F8FFEE7206C15
:10EE400038B1502080F31188BFF34F8FBFF36F8F1D
:10EE5000FEE700F019FADFF8F4804FF000094FF0F8
:10EE6000805748B9059838B1502080F31188BFF316
:10EE70004F8FBFF36F8FFEE7FFF770FBA56BC5B138
:10EE800051462046F9F788F96D1EA563206950B1F7
:10EE900004F1100000F00CFB28B1C8F80070BFF3BB
:10EEA0004F8FBFF36F8FFFF779FB012006B0BDE8EE
:10EEB000F087059808B11EB106E0FFF76FFB27E069
:10EEC0006846FFF73FFC0126FFF768FBFFF7E6FC0B
:10EED000FFF744FB94F94400401C01D184F84490AE
:10EEE00094F94500401C01D184F84590FFF756FB8A
:10EEF00005A9684600F036F9002820460AD0F9F73F
:10EF0000BFFA00F00FFB2046F9F788FA0028B3D0CB
:10EF10000020CBE7F9F782FA90B104F124000599BB
:10EF2000FFF71EFC2046F9F7ABFA00F0FBFA0028C9
:10EF3000A2D1C8F80070BFF34F8FBFF36F8F9BE76C
:10EF40002046F9F79DFA00F0EDFA95E704ED00E0B0
:10EF50002DE9F04790468946040003D0B9F1000F2F
:10EF600008D011E0502080F31188BFF34F8FBFF31A
:10EF70006F8FFEE7206C38B1502080F31188BFF30B
:10EF80004F8FBFF36F8FFEE7FFF760FB5020EFF36B
:10EF9000118680F31188BFF34F8FBFF36F8FA76B7C
:10EFA000F7B194F9445049462046F9F7F5F87F1E29
:10EFB000A763681C04D06D1C84F84450012010E045
:10EFC00020690028FAD004F1100000F071FA00283E
:10EFD000F4D0B8F1000FF1D00121C8F80010EDE72E
:10EFE000002086F31188BDE8F08700002DE9F34387
:10EFF000002683B00400354609D0206C78B150203B
:10F0000080F31188BFF34F8FBFF36F8FFEE750205F
:10F0100080F31188BFF34F8FBFF36F8FFEE700F0CF
:10F0200033F9DFF83C814FF000094FF0805748B9C1
:10F03000049838B1502080F31188BFF34F8FBFF38D
:10F040006F8FFEE7FFF78AFAA06BC8B1401EA0637E
:10F05000206810B9F9F7D0FAA060206950B104F126
:10F06000100000F025FA28B1C8F80070BFF34F8FE8
:10F07000BFF36F8FFFF792FA012005B0BDE8F08370
:10F08000049808B166B10FE03DB1502080F31188BB
:10F09000BFF34F8FBFF36F8FFEE7FFF77FFA5DE09F
:10F0A0006846FFF74FFB0126FFF778FAFFF7F6FBFC
:10F0B000FFF754FA94F94400401C01D184F84490BD
:10F0C00094F94500401C01D184F84590FFF766FA99
:10F0D00004A9684600F046F80028204612D0F9F747
:10F0E000CFF900F01FFA2046F9F798F90028A9D0C7
:10F0F0009DB3FFF733FA606A50B3206B0068C0F12C
:10F10000070126E0F9F78AF9E0B1206838B9FFF77E
:10F1100025FAA06800F086F90546FFF73FFA04F1EA
:10F1200024000499FFF71CFB2046F9F7A9F900F029
:10F13000F9F9002886D1C8F80070BFF34F8FBFF3EC
:10F140006F8F7FE72046F9F79BF900F0EBF979E73D
:10F150000021A068FFF71CFB9FE7FFE700208CE77A
:10F1600004ED00E02DE9F0410C46050011D0C4B1DA
:10F17000FFF7F4F9174BDA686E682068911B471C9B
:10F1800017D02F681B6A9F4219D0964217D80124C6
:10F1900010E0502080F31188BFF34F8FBFF36F8FC3
:10F1A000FEE7502080F31188BFF34F8FBFF36F8FBE
:10F1B000FEE70024FFF7F2F92046BDE8F08188421F
:10F1C00005D9401A20602846FFF7BCFAF1E7002075
:10F1D0002060DCE7400100202DE9FF5F8346DDE988
:10F1E0000E87994616468A469000F9F797F905006A
:10F1F0001CD05420F9F792F9040014D000202563A4
:10F2000084F85100CDE90240CDE900874B463246F3
:10F2100051465846F9F790F82046F8F755FF012077
:10F2200004B0BDE8F09F2846FFF7CCF94FF0FF305F
:10F23000F6E7F0B585B0DDE90B640A9DA6B1DCB157
:10F24000542700972663022684F85160002604AFF5
:10F25000CDE90246CDE90057F9F76EF82046F8F7F8
:10F2600033FF049805B0F0BD502080F31188BFF340
:10F270004F8FBFF36F8FFEE7502080F31188BFF3ED
:10F280004F8FBFF36F8FFEE70548416919B1006BDF
:10F2900018B100207047012070470220704700001D
:10F2A000400100200148C068704700004001002074
:10F2B00010B5FFF7CBF90148C06810BD4001002030
:10F2C0002DE9F0412F4C0026206B28B1A069401C8D
:10F2D000A0613046BDE8F081E5686D1CE56013D1A2
:10F2E000606B006838B1502080F31188BFF34F8FF6
:10F2F000BFF36F8FFEE7606BA16B6163A063206A51
:10F30000401C2062F9F798F8A06ADFF87C808542FB
:10F3100009D3606B0068A0B1606BC068C76878688B
:10F32000854211D2A0622068C06A00EB800158F8C3
:10F330002100012800D90126E0690028C9D0012652
:10F34000C7E74FF0FF30EDE7381DFFF783F8B86AE5
:10F3500018B107F11800FFF77DF8F96A012022695A
:10F3600088401043206101EB810108EB8100391DC9
:10F37000FFF7E8F8F86A2168C96A8842C9D301260C
:10F38000C7E7000040010020B88F002070B50400DE
:10F390004FF0000140D0214D2868844207D0502012
:10F3A00080F31188BFF34F8FBFF36F8FFEE7A06C20
:10F3B00038B1401EA064636CE26A9A422CD040B11E
:10F3C0002AE0502080F31188BFF34F8FBFF36F8F77
:10F3D000FEE7201DFFF73EF8114A012150B9E06A0F
:10F3E00000EB800352F8233023B92B6901FA00F0B7
:10F3F00083432B61606CE062C0F10700A061E06AAA
:10F400002B6981401943296100EB800002EB8000E9
:10F41000211DFFF797F80121084670BD400100202B
:10F42000B88F002070B504004FF0000034D01E4D9E
:10F43000E16A2A68D26A91422FD2A069002804DBCF
:10F440002868C06AC0F10700A061184E01EB810175
:10F45000606906EB810188421AD1201DFEF7FAFF90
:10F46000012130B994F82C002A6901FA00F0824396
:10F470002A612868C06AE0622A69814011432961D3
:10F4800000EB800006EB8000211DFFF75BF802E037
:10F490002868C06AE062012070BD616C2A68D26A87
:10F4A0009142F8D370BD000040010020B88F0020C9
:10F4B0002DE9F041C068C468ACB104F118000746FA
:10F4C000FEF7C8FF154D286B0126A0B13946144838
:10F4D000FFF738F8E06A2968C96A88421CD9012018
:10F4E000EE61BDE8F081502080F31188BFF34F8FAB
:10F4F000BFF36F8FFEE7201DFEF7ACFFE16A2A69BC
:10F5000006FA01F01043286101EB81000449B43987
:10F5100001EB8000211DDBE70020E2E74001002035
:10F520006C9000202DE9F0472C4D00242746286BD5
:10F5300038B1FFF713F8286B401E2863286B40B1E1
:10F5400046E0502080F31188BFF34F8FBFF36F8FD9
:10F55000FEE7A968224E0120D1B3A6F1B409804686
:10F560003068E8B1F068C46804F11800FEF772FF73
:10F57000201DFEF76FFFE06A2A6908FA00F11143C7
:10F58000296100EB800109EB8100211DFEF7DAFF04
:10F59000E06A2968C96A8842E2D3C5F81C80DFE7BF
:10F5A0000CB1F8F749FFAC6944B14646FFF788FE55
:10F5B00000B1EE61641EF9D10020A861E86938B19C
:10F5C0000849012738070860BFF34F8FBFF36F8FDB
:10F5D000FEF7E4FF3846BDE8F08700004001002058
:10F5E0006C90002004ED00E064F80008CD220008D3
:10F5F0000000000000000000000400000000000007
:10F600000000000020060C009004002024000020D0
:10F6100070F80008B9400008030000000000000076
:10F620005E010000000000000000000078F8000803
:10F63000893E0008FFFF00000000000000010000FC
:10F6400000000000000000000000000000000000BA
:10F650000102030406070809000000000102030478
:10F66000FFFFFFFFFFFF000000000000200004007C
:10F67000935C0020900000209C000500165D002097
:10F68000940000201C000800256000209800002045
:10F6900010001000086100209C00002020000500E0
:10F6A0000B620020A000002018000F00AE620020B6
:10F6B000A40000201000020019640020A80000200F
:10F6C000280004003C640020AC000020100008006A
:10F6D000DF640020B00000201000080062650020F8
:10F6E000B400002010000400E5650020B8000020F0
:10F6F0003401010028660020BC000020100010002A
:10F700005F670020C00000206002100062680020D7
:10F71000C40000206CF6000878F6000884F60008A3
:10F7200090F600089CF60008A8F60008B4F6000859
:10F73000C0F60008CCF60008D8F60008E4F6000889
:10F74000F0F60008FCF6000808F7000803060C189D
:10F7500030607800A4F80008CCF80008ECF8000845
:10F76000ACF8000898F8000880F800088CF8000849
:10F77000E0F80008B8F80008C0F80008D4F800085D
:10F780000102030405060707070707070700000033
:10F79000EC000020E8000020F0000020F400002031
:10F7A000FA000000C5D20008E803000099540008E0
:10F7B000E8030000653C0008E8030000F53000089D
:10F7C0000000000000000000000000000000000039
:10F7D0000400000000000000000000000040404065
:10F7E0004040404040404141414141404040404014
:10F7F00040404040404040404040404040050202C0
:10F80000020202020202020202020202022020207E
:10F8100020202020202020020202020202029090DA
:10F8200090909090101010101010101010101010D8
:10F83000101010101010101002020202020288882C
:10F840008888888808080808080808080808080838
:10F850000808080808080808020202024000000020
:10F86000DDF7000864656661756C745461736B0044
:10F8700045746849660000004574684C696E6B0009
:10F8800046494E5F574149545F31000046494E5F3B
:10F89000574149545F32000045535441424C49534B
:10F8A00048454400434C4F534544000053594E5F74
:10F8B0005243564400000000434C4F53494E47000A
:10F8C0004C4153545F41434B000000004C4953549A
:10F8D000454E000054494D455F57414954000000D2
:10F8E000434C4F53455F57414954000053594E5FB5
:10F8F00053454E54000000007463705F656E71756F
:10F900006575655F666C6167733A206E6565642036
:10F91000656974686572205443505F53594E206F77
:10F9200072205443505F46494E20696E20666C61D8
:10F930006773202870726F6772616D6D65722076D3
:10F94000696F6C61746573204150492900000000A3
:10F950006E657469662D3E6877616464725F6C657C
:10F960006E206D7573742062652074686520736104
:10F970006D65206173204554485F485741444452A7
:10F980005F4C454E20666F7220657468617270210D
:10F9900000000000B4F9000800000020B0010000E1
:10F9A00050040008E0F90008B0010020F8CE000083
:10F9B00010260008011013F5051B08EB041321069F
:10F9C0001B0805041AEF0C011C32018210038E245F
:10F9D000F422C00B486E194C01741AAA01C1000030
:040000050800018965
:00000001FF
